S02600006D6F746F72434F4E54524F4C5F4D53535F4D53535F434D335F305F6170702E73726563B7
S315200000000000012099020020090300200B03002094
S315200000100D0300200F030020110300200000000024
S315200000200000000000000000000000001303002074
S3152000003015030020000000001703002019030020EC
S315200000401B0300201D0300201F0300202103002086
S315200000502303002025030020270300202903002056
S315200000602B0300202D030020391C0020691C0020B2
S315200000703303002035030020C12800203903002047
S315200000803B030020F12800203F03002041030020ED
S3152000009019150020450300204703002049030020AE
S315200000A04B030020000000000000000000000000BC
S315200000B00000000000000000000000004D030020AA
S315200000C04F03002051030020530300205503002036
S315200000D057030020590300205B0300205D03002006
S315200000E05F030020610300206303002065030020D6
S315200000F067030020690300206B0300206D030020A6
S315200001006F03002071030020730300207503002075
S3152000011077030020790300207B0300207D03002045
S315200001207F03002081030020830300208503002015
S3152000013087030020890300208B0300208D030020E5
S315200001408F030020910300209303002095030020B5
S3152000015097030020990300209B0300209D03002085
S315200001609F030020A1030020A3030020A503002055
S31520000170A7030020A9030020AB030020AD03002025
S31520000180AF030020B1030020B3030020B5030020F5
S31520000190B7030020B9030020BB030020BD030020C5
S315200001A0BF030020C1030020C3030020C503002095
S315200001B0C7030020C9030020CB030020CD03002065
S315200001C0CF030020D1030020D3030020D503002035
S315200001D0D7030020D9030020DB030020DD03002005
S315200001E0DF030020E1030020E3030020E5030020D5
S315200001F0E7030020E9030020EB030020ED030020A5
S31520000200EF030020F1030020F3030020F503002074
S31520000210F7030020F9030020053C0020253C0020A0
S31520000220453C0020653C0020853C0020A53C002064
S31520000230C53C0020E53C0020053D0020253D002052
S31520000240453D0020653D0020853D0020A53D002040
S31520000250C53D0020E53D0020053E0020253E00202E
S31520000260453E0020653E0020853E0020A53E00201C
S31520000270C53E0020E53E0020053F0020253F00200A
S31520000280453F0020653F0020853F0020A53F0020F8
S31520000290C53F0020E53F0020684880476848002881
S315200002A00BD168486849694A884206D091421CBFEA
S315200002B050F8043B41F8043BF8D165486549664A45
S315200002C0884206D091421CBF50F8043B41F8043BBB
S315200002D0F8D162486249634A914218BF41F8040B3B
S315200002E0FAD100000000000000000000000000001D
S315200002F0DFF874010FF2030E00474FF000004FF0B5
S315200003000001DFF868F1FEE7FEE7FEE7FEE7FEE71D
S31520000310FEE7FEE7FEE7FEE7FEE7FEE7FEE7FEE78F
S31520000320FEE7FEE7FEE7FEE7FEE7FEE7FEE7FEE77F
S31520000330FEE7FEE7FEE7FEE7FEE7FEE7FEE7FEE76F
S31520000340FEE7FEE7FEE7FEE7FEE7FEE7FEE7FEE75F
S31520000350FEE7FEE7FEE7FEE7FEE7FEE7FEE7FEE74F
S31520000360FEE7FEE7FEE7FEE7FEE7FEE7FEE7FEE73F
S31520000370FEE7FEE7FEE7FEE7FEE7FEE7FEE7FEE72F
S31520000380FEE7FEE7FEE7FEE7FEE7FEE7FEE7FEE71F
S31520000390FEE7FEE7FEE7FEE7FEE7FEE7FEE7FEE70F
S315200003A0FEE7FEE7FEE7FEE7FEE7FEE7FEE7FEE7FF
S315200003B0FEE7FEE7FEE7FEE7FEE7FEE7FEE7FEE7EF
S315200003C0FEE7FEE7FEE7FEE7FEE7FEE7FEE7FEE7DF
S315200003D0FEE7FEE7FEE7FEE7FEE7FEE7FEE7FEE7CF
S315200003E0FEE7FEE7FEE7FEE7FEE7FEE7FEE7FEE7BF
S315200003F0FEE7FEE7FEE7FEE7FEE7FEE7FEE7FEE7AF
S31520000400FEE7FEE7FEE7FEE7FEE7FEE7FEE7FEE79E
S31520000410FEE7FEE7FEE7FEE7FEE7FEE7FEE7FEE78E
S31520000420FEE7FEE7FEE7FEE7FEE7FEE7FEE7FEE77E
S31520000430FEE7FEE7FEE7FEE7FEE700008D3400203C
S3152000044000000000000000200000002028AB002053
S3152000045028AB002028AB0020A8B000200000000018
S31520000460A8B0002088B30020114A0020510F002098
S315200004704BF2A803C2F200031A780AB901201870B9
S31520000480704700BF4AF62830C2F2000008B503685C
S315200004902BB140F20003C0F2000303B1984708BD18
S315200004A080B582B000AF02F099FF4FF001004FF007
S315200004B000014FF000024FF0000302F0CFFC4FF096
S315200004C0010002F02DFD4AF24460C2F2000002F063
S315200004D065FF03461A464BF23C13C2F200031A701C
S315200004E04AF25860C2F2000002F058FF03461A464C
S315200004F04BF26813C2F200031A704FF000037B60C0
S3152000050015E07A684BF27813C2F200034FF000012F
S3152000051043F822107A684BF24013C2F200034FF0E0
S31520000520000143F822107B6803F101037B607B689E
S31520000530092BE6DD4BF23013C2F200034FF0000226
S315200005401A6007F10807BD4680BD00BF80B584B09C
S3152000055000AF4FF00003BB814FF00003FB814BF24D
S315200005603C13C2F200031B78184602F001FF034633
S315200005701A4648F21F53C5F2EB13A3FB02134FEAA8
S315200005805313BB814BF26813C2F200031B78184643
S3152000059002F0EEFE03461A4648F21F53C5F2EB134D
S315200005A0A3FB02134FEA5313FB814BF23813C2F21B
S315200005B000031A684BF23013C2F2000319684BF29B
S315200005C07813C2F2000353F82130C3EB02024BF238
S315200005D03813C2F200031A604BF2A013C2F20003D2
S315200005E01A684BF23013C2F2000319684BF240131B
S315200005F0C2F2000353F82130C3EB02024BF2A013E0
S31520000600C2F200031A604BF23013C2F200031A68DA
S31520000610B9894BF27813C2F2000343F822104BF249
S315200006203013C2F200031A68F9894BF24013C2F262
S31520000630000343F822104BF23013C2F200031A686B
S315200006404BF27813C2F2000353F822204BF23813F0
S31520000650C2F200031B681A444BF23813C2F200039D
S315200006601A604BF23013C2F200031A684BF24013A1
S31520000670C2F2000353F822204BF2A013C2F2000369
S315200006801B681A444BF2A013C2F200031A604BF205
S315200006903013C2F200031B6803F101024BF2301340
S315200006A0C2F200031A604BF23013C2F200031B6839
S315200006B00A2B06D14BF23013C2F200034FF0000290
S315200006C01A604BF23813C2F200031A6846F26763C7
S315200006D0C6F2666383FB02134FEAA3014FEAE27375
S315200006E0C3EB01024BF21813C2F200031A604BF25D
S315200006F0A013C2F200031A6846F26763C6F2666365
S3152000070083FB02134FEAA3014FEAE273C3EB010214
S315200007104BF23413C2F200031A6007F11007BD46EC
S3152000072080BD00BF80B584B000AF7860FFF70EFFB4
S315200007304BF21813C2F200031B680E2B06DD4BF298
S315200007403413C2F200031B680E2B06DC7B684FF0C5
S3152000075000021A604FF0000327E14BF21813C2F291
S3152000076000031A684BF23413C2F200031B689A4244
S3152000077040F384804BF21813C2F200031A684BF23E
S315200007803413C2F200031B68C3EB0203022B75DD90
S315200007907B684FF002021A604BF21813C2F2000374
S315200007A01A684BF23413C2F200031B68C3EB020330
S315200007B0FB604BF26C13C2F200031A684BF2701303
S315200007C0C2F2000319684BF21C13C2F2000353F85D
S315200007D02130C3EB02024BF26C13C2F200031A6003
S315200007E04BF27013C2F200031A684BF21C13C2F2CA
S315200007F00003F96843F822104BF26C13C2F200038F
S315200008001A68FB681A444BF26C13C2F200031A6092
S315200008104BF26C13C2F200031A6846F26763C6F203
S31520000820666383FB02134FEA63014FEAE273C3EB6D
S3152000083001024BF21413C2F200031A604BF270133A
S31520000840C2F200031B6803F101024BF27013C2F2DD
S3152000085000031A604BF27013C2F200031B68052BCB
S3152000086006D14BF27013C2F200034FF000021A6059
S315200008704BF21413C2F200031B6896E04BF21813D6
S31520000880C2F200031A684BF23413C2F200031B684B
S315200008909A4280F284804BF23413C2F200031A6823
S315200008A04BF21813C2F200031B68C3EB0203022BA0
S315200008B075DD7B684FF001021A604BF23413C2F2E9
S315200008C000031A684BF21813C2F200031B68C3EB2D
S315200008D00203FB604BF26C13C2F200031A684BF260
S315200008E07013C2F2000319684BF21C13C2F2000304
S315200008F053F82130C3EB02024BF26C13C2F2000311
S315200009001A604BF27013C2F200031A684BF21C13E2
S31520000910C2F20003F96843F822104BF26C13C2F2BC
S3152000092000031A68FB681A444BF26C13C2F20003E8
S315200009301A604BF26C13C2F200031A6846F2676320
S31520000940C6F2666383FB02134FEA63014FEAE27342
S31520000950C3EB01024BF21413C2F200031A604BF2EE
S315200009607013C2F200031B6803F101024BF27013ED
S31520000970C2F200031A604BF27013C2F200031B6826
S31520000980052B06D14BF27013C2F200034FF0000282
S315200009901A604BF21413C2F200031B6805E07B6851
S315200009A04FF000021A604FF00003184607F11007B7
S315200009B0BD4680BD80B586B000AF78604AF26C63D4
S315200009C0C2F2000307F10C0293E8030082E8030059
S315200009D007F10C03786819464FF0080200F080FFF3
S315200009E00346FB754BF2B803C2F200031A684BF2BA
S315200009F0BC03C2F200031A604BF2B403C2F2000336
S31520000A001A684BF2C003C2F200031A607B7B1846B9
S31520000A1003F0A0FF02464BF2B803C2F200031A60AD
S31520000A20BB7B1A464BF2AC03C2F200031A60FB7B77
S31520000A30184603F08FFF02464BF2B403C2F20003BE
S31520000A401A603B7C1A464BF2B003C2F200031A60CE
S31520000A507B7C1A464AF63833C2F200031A6007F145
S31520000A601807BD4680BD00BF2DE9B0438AB000AF50
S31520000A70F860B9607A604FF00003FB614FF0000325
S31520000A803B624FF000037B6207F1180207F1140363
S31520000A901046194600F0BCFC0346002B00F03F82AE
S31520000AA0BA694AF6AB23CAF6AA23A3FB02134FEA76
S31520000AB05303BB61BB690A2B02D94FF00A03BB6102
S31520000AC0BB69184603F0E0FB02460B461046194662
S31520000AD00FF25C43D3E9002303F04CFC02460B469D
S31520000AE01046194603F058FE03467B627B691A4678
S31520000AF07B681A6007F11C031846FFF713FE0346AE
S31520000B003B627B69012B40F0E880FB69012B64D1B5
S31520000B10786A03F0C9FB04460D46786A03F0C4FBE5
S31520000B2002460B46104619460FF20C43D3E9002322
S31520000B3003F020FC02460B4690469946386A03F09D
S31520000B40B3FB02460B464046494603F013FC0246D9
S31520000B500B462046294603F05BFA02460B46104612
S31520000B601946F7A3D3E9002303F004FC02460B46FB
S31520000B701046194603F010FE0246BB681A60786AD2
S31520000B8003F092FB04460D46786A03F08DFB02467D
S31520000B900B4610461946ECA3D3E9002303F0EAFBE3
S31520000BA002460B4690469946386A03F07DFB02467C
S31520000BB00B464046494603F0DDFB02460B462046DF
S31520000BC0294603F025FA02460B461046194603F03D
S31520000BD0E3FD0246FB681A6072E1FB69022B63D1D2
S31520000BE0786A03F061FB04460D46786A03F05CFBE5
S31520000BF002460B4610461946CFA3D3E9002303F03D
S31520000C00B9FB02460B4690469946386A03F04CFBE0
S31520000C1002460B464046494603F0ACFB02460B46CD
S31520000C202046294603F0F4F902460B46104619469B
S31520000C3003F0B2FD0246FB681A60786A03F034FBC3
S31520000C4004460D46786A03F02FFB02460B461046F3
S31520000C501946BDA3D3E9002303F08CFB02460B46BD
S31520000C6090469946386A03F01FFB02460B464046DB
S31520000C70494603F07FFB02460B462046294603F0F1
S31520000C80C7F902460B4610461946ADA3D3E9002301
S31520000C9003F070FB02460B461046194603F07CFD16
S31520000CA00246BB681A600BE1FB687A6A1A60786AAA
S31520000CB003F0FAFA02460B4610461946A0A3D3E9DA
S31520000CC0002303F057FB02460B461046194603F055
S31520000CD063FD0246BB681A60F2E07B69022B40F096
S31520000CE0E780FB69012B63D1786A03F0DDFA0446BD
S31520000CF00D46786A03F0D8FA02460B461046194686
S31520000D0091A3D3E9002303F035FB02460B46904618
S31520000D109946386A03F0C8FA02460B4640464946C9
S31520000D2003F028FB02460B462046294603F070F9BD
S31520000D3002460B461046194681A3D3E9002303F049
S31520000D4019FB02460B461046194603F025FD0246BE
S31520000D50BB681A60786A03F0A7FA04460D46786ADB
S31520000D6003F0A2FA02460B461046194672A3D3E9AF
S31520000D70002303F0FFFA02460B4690469946386A4E
S31520000D8003F092FA02460B464046494603F0F2FA31
S31520000D9002460B462046294603F03AF902460B4600
S31520000DA01046194603F0F8FC0246FB681A6087E0F5
S31520000DB0FB69022B63D1786A03F076FA04460D4666
S31520000DC0786A03F071FA02460B46104619465EA36E
S31520000DD0D3E9002303F0CEFA02460B469046994605
S31520000DE0386A03F061FA02460B464046494603F04C
S31520000DF0C1FA02460B462046294603F009F9024667
S31520000E000B461046194603F0C7FC0246FB681A60DB
S31520000E10786A03F049FA04460D46786A03F044FAE4
S31520000E2002460B461046194643A3D3E9002303F096
S31520000E30A1FA02460B4690469946386A03F034FAE0
S31520000E4002460B464046494603F094FA02460B46B4
S31520000E502046294603F0DCF802460B461046194682
S31520000E6037A3D3E9002303F085FA02460B46104642
S31520000E70194603F091FC0246BB681A6020E0FB6825
S31520000E807A6A1A60786A03F00FFA02460B46104611
S31520000E9019462BA3D3E9002303F06CFA02460B462E
S31520000EA01046194603F078FC0246BB681A6007E034
S31520000EB0BB684FF000021A60FB684FF000021A6010
S31520000EC0FB681A684AF22013C0F207039A4206DD2D
S31520000ED0FA684AF22013C0F20703136007E0FB68A2
S31520000EE01B68002B03DAFB684FF000021A60BB6810
S31520000EF01A684AF22013C0F207039A4206DDBA683E
S31520000F004AF22013C0F20703136009E0BB681B688E
S31520000F10002B05DABB684FF000021A6000E000BF24
S31520000F2007F12807BD46BDE8B08300BFAFF30080B8
S31520000F30000000000088D340333333333333C33FBC
S31520000F40CDCCCCCCCCCCEC3F333333333333C3BFD3
S31520000F5080B584B000AF4BF24820C2F200004FF4B7
S31520000F6016514FF0030200F0EFFF4BF24820C2F279
S31520000F70000040F6B511C2F200014FF0800200F0E9
S31520000F80EDFD4FF00003FB604FF00003BB604FF018
S31520000F9000037B604BF20C30C2F200004FF054018C
S31520000FA04FF0000201F0AEFE00F0A4FA00F0FAF9CC
S31520000FB0FFF776FA00F0CAF907F10C0107F10802EB
S31520000FC007F10403084611461A46FFF74DFD7B68D4
S31520000FD0012B02D0022B09D011E04AF62C33C2F2A3
S31520000FE000031B684FF00A021A6010E04AF62C3301
S31520000FF0C2F200031B684FF005021A6007E04AF6AA
S315200010002C33C2F200031B684FF000021A604AF626
S315200010103433C2F200031B68FA681A604AF630338A
S31520001020C2F200031B68BA681A60C3E780B483B0B3
S3152000103000AF0346FB804EF20013CEF20003B7F951
S3152000104006204FEA5212F98801F01F014FF00100E5
S3152000105000FA01F143F8221007F10C07BD4680BCC7
S31520001060704700BF80B483B000AF0346FB804EF2CA
S315200010700013CEF20003B7F906204FEA5212F98880
S3152000108001F01F014FF0010000FA01F102F12002E8
S3152000109043F8221007F10C07BD4680BC704700BFFD
S315200010A080B483B000AF0346FB804EF20013CEF22D
S315200010B00003B7F906204FEA5212F98801F01F0102
S315200010C04FF0010000FA01F102F1600243F822100C
S315200010D007F10C07BD4680BC704700BF80B582B0C3
S315200010E000AF0346FB714FF01400FFF7BBFF42F23F
S315200010F00003CEF2040342F20002CEF20402126B87
S3152000110022F040021A6345F20003C4F200034FF0B6
S3152000111000025A6540F20003C4F20A234FF000028F
S31520001120C3F8802140F20003C4F20A234FF00002E4
S31520001130C3F8882140F20003C4F20A23FA79C3F8DF
S31520001140842145F20003C4F200034FF001021A6124
S315200011504FF01400FFF7A4FF07F10807BD4680BD36
S3152000116080B400AF40F20003C4F20A234FF001021C
S31520001170C3F88021BD4680BC704700BF80B483B0D1
S3152000118000AF786045F20003C4F200037A689A60E3
S3152000119007F10C07BD4680BC704700BF80B500AF85
S315200011A040F20003C4F20A234FF00102C3F888215B
S315200011B04FF01400FFF73AFF80BD00BF80B400AFA8
S315200011C045F20003C4F200034FF001021A61BFF397
S315200011D04F8FBD4680BC704780B483B000AF4FF0C0
S315200011E000037B6011E07A687B6803F101014BF212
S315200011F0E413C2F20003595C4BF2E413C2F200037B
S3152000120099547B6803F101037B607B68622BEAD9E2
S3152000121007F10C07BD4680BC704700BF80B584B07F
S3152000122000AF4FF00003FB600CE0FA684BF2E413CA
S31520001230C2F2000333F81230002B07D1FB6803F10A
S315200012400103FB60FB68312BEFDD00E000BF4BF2B2
S31520001250E413C2F200031B78002B01D1FFF7BCFF79
S315200012604BF2E413C2F200031A884AF655239A4237
S3152000127008D14BF2E413C2F200035A884AF65523EA
S315200012809A4202D0FB68312B5ADD4FF000037B6077
S315200012904BE04FF00003BB602BE07968D7F808C01D
S315200012A07A6813464FEAC303C2EB03034FEA4303AC
S315200012B04FEAD37213444FEA63031A46BB681344BA
S315200012C003F101024BF2E413C2F2000333F81200D9
S315200012D04BF2B812C2F200020B464FEAC303C1EB2F
S315200012E003036344014622F81310BB6803F101038C
S315200012F0BB60BB68062BD0DD79684BF2B812C2F210
S3152000130000020B464FEAC303C1EB03034FEA430334
S3152000131013449B884AF2B460C2F20000194603F0D7
S3152000132009FC7B6803F101037B607B68022BB0DD3F
S315200013304BF2A413C2F200034FF000021A6000E041
S3152000134000BF07F11007BD4680BD00BF80B500AFC6
S315200013504BF20C30C2F2000000F09EFE0346002B3A
S3152000136002D0012B19D009E04BF2A413C2F20003DC
S315200013701B68002B13D0FFF751FF11E04BF20C3006
S31520001380C2F2000000F088FE03464AF2C060C2F2B4
S315200013900000194603F0CEFB02E000BF00E000BFCC
S315200013A080BD00BF80B400AF4BF2A813C2F2000389
S315200013B04FF000021A804BF2A813C2F200034FF03E
S315200013C000025A804BF2A813C2F200034FF0020229
S315200013D09A804BF2A813C2F200034FF0C802DA80BB
S315200013E04BF2A813C2F200034FF043021A814BF2CC
S315200013F0A813C2F200034FF019025A814BF2A81328
S31520001400C2F200034FF018029A81BD4680BC704795
S3152000141080B485B000AF786039604FF00003BB60C0
S3152000142013E0B9684BF2B812C2F200020B464FEA3B
S31520001430C303C1EB03034FEA430313449B88022BE8
S3152000144007D0BB6803F10103BB60BB68022BE8DD54
S3152000145000E000BFBB68032B0AD17B684FF0000277
S315200014601A603B684FF000021A604FF001033AE021
S315200014704BF2A813C2F20003DB881846B9684BF278
S31520001480B812C2F200020B464FEAC303C1EB0303B4
S315200014904FEA43031344DB88C3EB0003FB60FB687E
S315200014A013F1050F0ADAFB68C3F100031A467B68BD
S315200014B01A603B684FF002021A6012E0FB68052BA7
S315200014C007DDFA687B681A603B684FF001021A60F4
S315200014D007E03B684FF000021A607B684FF000027D
S315200014E01A604FF00103184607F11407BD4680BC69
S315200014F0704700BF80B500AF4FF00000FFF7EEFD4C
S3152000150048F28040C0F21E00FFF738FEFFF728FEA3
S31520001510FFF744FE80BD00BF80B582B002AF4FF01A
S31520001520000300934BF20C30C2F200004FF054013E
S315200015304BF2E412C2F200024FF03A0301F004FB30
S31520001540FFF73CFE4BF2A413C2F200034FF0010258
S315200015501A60BD4680BD00BF4FF0FF30704700BF08
S31520001560FEE700BF4FF400534B604FF0000070477A
S315200015704FF00100704700BF4FF00100704700BFD9
S315200015804FF00000704700BF4FF0FF30704700BF9C
S315200015904FF00000704700BF4FF400534B604FF0F0
S315200015A0000070474FF0FF30704700BF08B503F0CA
S315200015B029FA4FF00A0303604FF0FF3008BD00BF41
S315200015C008B503F01FFA4FF0020303604FF0FF3017
S315200015D008BD00BF08B503F015FA4FF01F030360DE
S315200015E04FF0FF3008BD00BF08B503F00BFA4FF0EF
S315200015F0160303604FF0FF3008BD00BF08B503F0A7
S3152000160001FA4FF00B0303604FF0FF3008BD00BF17
S3152000161008B503F0F7F94FF00C0303604FF0FF30E5
S3152000162008BD00BF38B515461C464BF2C403C2F2AE
S3152000163000031B6883B94BF27020C2F200004FF4FE
S3152000164061414FF0030200F07FFC4BF2C403C2F26B
S3152000165000034FF001021A604BF27020C2F2000024
S315200016602946224600F034F8204638BD08B54BF20C
S31520001670C403C2F200035B6843B94BF2C403C2F24F
S3152000168000034BF28832C2F200025A604BF2C403C6
S31520001690C2F200035A68EFF30883104483420FD244
S315200016A04FF000004FF001014AF2E062C2F2000260
S315200016B04FF01903FFF7B6FF4FF00100FFF750FF79
S315200016C04BF2C403C2F200035860104608BD00BFA7
S315200016D02DE9F0054BF27023C2F20003984206D0A2
S315200016E04BF24823C2F20003984200D000BE01B953
S315200016F000BE02B900BE4BF27023C2F2000398422C
S3152000170005D04BF24823C2F20003984233D1131E70
S3152000171018BF012300290CBF002303F00103002B6F
S3152000172029D04FF00007B8464FF0100A03681B7DFA
S3152000173090F80AC043EA0C0C80F80AC013F0200F78
S3152000174017D00F2A04D95646BC4643460F4404E018
S315200017500AB943460BE01646F6E70468FD5C257099
S315200017600CF1010C03F101039E42F6D86746C3EB48
S315200017700202002ADAD1BDE8F0057047F0B44BF238
S315200017807023C2F20003984206D04BF24823C2F2DD
S315200017900003984200D000BE01B900BE4BF2702370
S315200017A0C2F20003984205D04BF24823C2F200034E
S315200017B0984228D139B30D782DB34FF0000C6646E8
S315200017C00468237D827A43EA0202827213F0200F94
S315200017D0F7D0C5B1334601EB0C070268EDB21570A0
S315200017E003F1010303EB0C04FD5C0F2B8CBF0022DD
S315200017F00122002D0CBF002202F00102002AECD1AA
S315200018000DB1A446DCE7F0BC704700BF10B44BF224
S315200018107023C2F20003984206D04BF24823C2F24C
S315200018200003984200D000BE01B900BE0AB900BE2E
S3152000183036E0002934D04BF27023C2F200039842DE
S3152000184005D04BF24823C2F20003984228D1C1604A
S3152000185002614FF000034361038919B24FEA511127
S3152000186003F01F034FF0010202FA03F44EF20013B5
S31520001870CEF2000301F1600143F8214041F6B52183
S31520001880C2F2000101624168C1F88420018908B2D0
S315200018904FEA501001F01F0102FA01F243F820200E
S315200018A010BC70474BF27023C2F20003984209D055
S315200018B04BF24823C2F20003984203D000BE4FF0F9
S315200018C00000704703681B7D827A43EA0202827217
S315200018D0026912B14FF000007047C3F380107047C1
S315200018E010B403464BF27020C2F20000834206D0A9
S315200018F04BF24820C2F20000834200D000BE01B95C
S3152000190000BE02B900BE4BF27020C2F20000834234
S3152000191005D04BF24820C2F2000083422AD1101E85
S3152000192018BF012000290CBF002400F001040CB3CD
S315200019301C6894F814C09C7A4CEA04049C721CEA35
S31520001940000F17D04FF000001C6894F800C001F873
S3152000195000C000F101001C6894F814C09C7A4CEA7F
S3152000196004049C72824294BF00240CF00104002CD3
S31520001970EAD101E04FF0000010BC704710B44BF2E2
S315200019807023C2F20003984207D04BF24823C2F2DA
S315200019900003984201D000BE22E003890FFA83FC9F
S315200019A04FEA5C1C03F01F034FF0010202FA03F416
S315200019B04EF20013CEF200030CF1600C43F82C40DB
S315200019C0046894F804C041EA0C012171018908B227
S315200019D04FEA501001F01F0102FA01F243F82020CD
S315200019E010BC70474BF27023C2F20003984207D016
S315200019F04BF24823C2F20003984201D000BE704742
S31520001A0003681A7922EA01021A71038918B24FEA89
S31520001A10501003F01F034FF0010202FA03F24EF2B8
S31520001A200013CEF2000300F1600C43F82C200F299E
S31520001A3001BF4EF20013CEF20003203043F82020DF
S31520001A40704700BF08B54BF27023C2F200039842DC
S31520001A5007D04BF24823C2F20003984201D000BEC1
S31520001A6008BD03681B7A03F00F030C2B20D8DFE890
S31520001A7003F0071F0D1F131F191F1F1F1F1F130002
S31520001A80436A0BB900BE08BD984708BD036A0BB967
S31520001A9000BE08BD984708BDC3690BB900BE08BD86
S31520001AA0984708BD83690BB900BE08BD984708BD95
S31520001AB000BE08BD10B44BF27023C2F20003984258
S31520001AC006D04BF24823C2F20003984200D000BE53
S31520001AD0C26802B900BE016901B900BE4BF270238B
S31520001AE0C2F20003984205D04BF24823C2F200030B
S31520001AF0984230D1002A2ED000292CD003681B7D95
S31520001B00827A43EA0202827213F0200F1AD0026907
S31520001B104369C3EB02030F2B04D94FF0100C4FF08F
S31520001B20000302E073B19C46F9E70268C468416984
S31520001B30615C1170426902F10102426103F1010305
S31520001B406345F2D3426903699A4201BF00230361C8
S31520001B504268C2F8843010BC704700BF10B44BF204
S31520001B607023C2F20003984206D04BF24823C2F2F9
S31520001B700003984200D000BE01B900BEC02A00D999
S31520001B8000BE4BF27023C2F20003984205D04BF2FE
S31520001B904823C2F2000398422FD1C02A8CBF0023CB
S31520001BA0012300290CBF002303F001032BB3C161DD
S31520001BB0036802F0C00242F00A021A72038919B2BF
S31520001BC04FEA511103F01F034FF0010202FA03F40A
S31520001BD04EF20013CEF2000301F1600143F82140DA
S31520001BE04168C1F88020018908B24FEA501001F0FF
S31520001BF01F0102FA01F243F8202010BC704700BFF3
S31520001C004BF27023C2F20003984207D04BF24823CE
S31520001C10C2F20003984201D000BE704729B943683A
S31520001C204FF00002C3F81022704743684FF00102BC
S31520001C30C3F81022704700BF684620F007018D4682
S31520001C4001B54BF27020C2F20000FFF7FBFE4EF208
S31520001C500013CEF200034FF48062C3F88021BDE862
S31520001C6001408546704700BF684620F007018D4633
S31520001C7001B54BF24820C2F20000FFF7E3FE4EF218
S31520001C800013CEF200034FF40062C3F88021BDE8B2
S31520001C9001408546704700BF10B44BF27023C2F254
S31520001CA00003984206D04BF24823C2F20003984222
S31520001CB000D000BE01B900BE4BF27023C2F2000371
S31520001CC0984205D04BF24823C2F20003984220D115
S31520001CD0F9B18161038919B24FEA511103F01F034B
S31520001CE04FF0010202FA03F44EF20013CEF2000383
S31520001CF001F1600143F821404168C1F8882001893B
S31520001D0008B24FEA501001F01F0102FA01F243F81F
S31520001D10202010BC704700BF10B44BF27023C2F2D3
S31520001D200003984206D04BF24823C2F200039842A1
S31520001D3000D000BE01B900BE4BF27023C2F20003F0
S31520001D40984205D04BF24823C2F20003984224D190
S31520001D5019B301624FF00003C3600361038919B20E
S31520001D604FEA511103F01F034FF0010202FA03F468
S31520001D704EF20013CEF2000301F1600143F8214038
S31520001D804168C1F88420018908B24FEA501001F059
S31520001D901F0102FA01F243F8202010BC704700BF51
S31520001DA010B44BF27023C2F20003984206D04BF2D5
S31520001DB04823C2F20003984200D000BE01B900BEFB
S31520001DC04BF27023C2F20003984205D04BF248230F
S31520001DD0C2F20003984220D1F9B14162038919B2B7
S31520001DE04FEA511103F01F034FF0010202FA03F4E8
S31520001DF04EF20013CEF2000301F1600143F82140B8
S31520001E004168C1F88C20018908B24FEA501001F0D0
S31520001E101F0102FA01F243F8202010BC704700BFD0
S31520001E2010B403464BF27020C2F20000834206D063
S31520001E304BF24820C2F20000834200D000BE01B916
S31520001E4000BE02B900BE4BF27020C2F200008342EF
S31520001E5005D04BF24820C2F20000834226D1101E44
S31520001E6018BF012000290CBF002400F00104ECB1AA
S31520001E701C6894F814C09C7A4CEA04049C721CF0EA
S31520001E80200F13D00F2A04D94FF010044FF0000072
S31520001E9002E058B11446F9E71A6811F800C082F832
S31520001EA000C000F10100A042F6D301E04FF000008F
S31520001EB010BC704702464BF27023C2F200039842D0
S31520001EC009D04BF24823C2F20003984203D000BE49
S31520001ED04FF0FF0070471368187D937A40EA03009D
S31520001EE000F09E004FF00003937270474BF2702370
S31520001EF0C2F20003984209D04BF24823C2F20003F3
S31520001F00984203D000BE4FF0FF0070470368187E4A
S31520001F10704700BF4BF27023C2F20003984209D0EB
S31520001F204BF24823C2F20003984203D000BE4FF082
S31520001F300000704703681B7D827A43EA02028272A0
S31520001F4003F06000704700BF70B504460D46164684
S31520001F504BF27023C2F20003984206D04BF248237C
S31520001F60C2F20003984200D000BE05B900BE01F0BF
S31520001F708FFA4BF27023C2F200039C4226D14BF219
S31520001F807023C2F200034FF080421A604FF0844261
S31520001F905A604FF00A021A814AF64033C2F2000311
S31520001FA0186842F20003CEF204031A6B42F0800254
S31520001FB01A634EF20012CEF200024FF48061C2F88C
S31520001FC080111A6B22F080021A6325E040F200038A
S31520001FD0C4F20103236040F20003C4F220236360AD
S31520001FE04FF00B0323814AF64433C2F200031868EC
S31520001FF042F20003CEF204031A6B42F480721A6393
S315200020004EF20012CEF200024FF40061C2F88011A7
S315200020101A6B22F480721A6323684FF000021A7139
S3152000202015B94FF001050FE0B0FBF5F515F0080FD7
S315200020304FEA151518BF0135B5F5803F38BFADB24B
S3152000204002D300BE4FF0010563684FF00102C3F8CA
S315200020509C2123684FEA15221A712368EDB21D7060
S3152000206062684FF00003C2F89C312268167322681A
S315200020704FF00E0111726268C2F810322361E360DC
S315200020806361E36141F6B522C2F200022262A361D6
S315200020906362A37270BD00BF4BF29823C2F20003A5
S315200020A0984206D04BF20C33C2F20003984200D07D
S315200020B000BE90F83C00704703464BF29822C2F2CD
S315200020C00002904206D04BF20C32C2F2000290423D
S315200020D000D000BE196493F83C000128FBD070475D
S315200020E0036C7BB18B4203D9C1EB030303647047B6
S315200020F04FF0030380F83C304FF00003037280F862
S3152000210071300364704700BF4BF29823C2F200037C
S31520002110984206D04BF20C33C2F20003984200D00C
S3152000212000BE022904D900BE4FF0020303667047A1
S31520002130016670474BF29823C2F20003984206D0FC
S315200021404BF20C33C2F20003984200D000BE416627
S31520002150704700BF90F868301BB183694FF00102C9
S315200021609A60704730B583B004464BF29823C2F28A
S315200021700003984206D04BF20C33C2F20003984279
S3152000218000D000BE626913798DF807309DF80730BC
S31520002190A3F10803D02B00F28E82DFE813F0D100E2
S315200021A08C028C028C028C028C028C028C02D10056
S315200021B08C028C028C028C028C028C028C02060110
S315200021C08C028C028C028C028C028C028C02F70010
S315200021D08C028C028C028C028C028C028C020601F0
S315200021E08C028C028C028C028C028C028C024401A2
S315200021F08C028C028C028C028C028C028C02F200E5
S315200022008C028C028C028C028C028C028C02530172
S315200022108C028C028C028C028C028C028C026E0147
S315200022208C028C028C028C028C028C028C027D0128
S315200022308C028C028C028C028C028C028C028F0106
S315200022408C028C028C028C028C028C028C02D001B5
S315200022508C028C028C028C028C028C028C02CC01A9
S315200022608C028C028C028C028C028C028C02D00195
S315200022708C028C028C028C028C028C028C02CC0189
S315200022808C028C028C028C028C028C028C02E6015F
S315200022908C028C028C028C028C028C028C02BB017A
S315200022A08C028C028C028C028C028C028C02E6013F
S315200022B08C028C028C028C028C028C028C02BB015A
S315200022C08C028C028C028C028C028C028C02FF0106
S315200022D08C028C028C028C028C028C028C024802AC
S315200022E08C028C028C028C028C028C028C0248029C
S315200022F08C028C028C028C028C028C028C0248028C
S315200023008C028C028C028C028C028C028C027A0249
S315200023108C028C028C028C028C028C028C027A0239
S315200023208C028C028C028C028C028C028C028C0217
S315200023308C028C028C028C028C028C028C0239025A
S31520002340A3694FF000025A61636922791A72A36960
S31520002350E26AC3F80021E36A0BB9A36203E0012B0A
S3152000236004BF0023A36394F871301BB14FF0000320
S3152000237084F8713094F87230227A9A4218BF237208
S31520002380AFE1A3694FF001025A61AAE1A3694FF0B8
S3152000239001021A614FF0020384F83C304FF000032B
S315200023A023722046FFF7D6FE9BE1A36A616A8B4221
S315200023B006D2216AC95C117203F10103A36290E17E
S315200023C0237A032B05D14FF00103E362A2695361FF
S315200023D087E14FF000032372237C03F0010384F886
S315200023E070303BB9A3694FF001051D612046FFF708
S315200023F0B1FE13E0638A1AB24FEA521203F01F03AA
S315200024004FF0010101FA03F14EF20013CEF2000360
S3152000241002F1200243F822104FF000054FF000038E
S3152000242084F83C305CE1A3694FF001021A614FF059
S31520002430020384F83C304FF0000323722046FFF756
S3152000244089FE4EE1636B012B04D9A3694FF001028B
S315200024509A6046E1012B04D1A3694FF000029A60ED
S315200024603FE1A2694FF001039360A26913614FF027
S31520002470000384F83C30237233E1A3694FF0010254
S315200024801A614FF0020384F83C304FF000032372A8
S315200024902046FFF75FFE24E1A36B117A226BD1540D
S315200024A003F10103A363626B02F1FF329342C0F092
S315200024B01881A3694FF000029A6012E1117A226B0B
S315200024C0A36BD154237C03F0010384F870303BB90D
S315200024D0A3694FF001051D612046FFF73BFE13E07F
S315200024E0638A1AB24FEA521203F01F034FF001011A
S315200024F001FA03F14EF20013CEF2000302F120029C
S3152000250043F822104FF000054FF00003237284F8A1
S315200025103C30E5E0A3694FF001029A604FF00003DA
S31520002520237284F85C3094F87130002B00F0D98047
S31520002530A3695A61D5E04FF0010384F871304FF05A
S31520002540040323724FF00003A365E360A3695A696D
S3152000255032B14FF000025A614FF0010384F8713016
S315200025604FF0010384F85C30BBE0216D61B1A36DAF
S31520002570606D83420DD2127ACA5403F10103A3651A
S31520002580E36802EB0322E260A26D636D9A42C0F01B
S31520002590A880A3694FF000029A60A2E0237A042B58
S315200025A021D1A26D236E9A4204BFE368E364636E71
S315200025B0A3B12046216DB4F85820984738B9204653
S315200025C0FFF7C8FDA3694FF001029A6011E0A269E6
S315200025D04FF00003936084F868300AE0A3694FF057
S315200025E001029A6005E04FF00003E3642046FFF7FE
S315200025F0B1FD4FF0000384F85C3094F871301BB1C4
S31520002600A3694FF001025A614FF00003237268E07C
S315200026104FF000032372E36494F85C30012B04BF6F
S31520002620022384F85C302046FFF794FD59E09DF89C
S315200026300730A82B13D14FF0050323724FF0000368
S31520002640E3604FF0010384F85C30A3695A6932B124
S315200026504FF000025A614FF0010384F87130E36CA9
S31520002660A26C934223BF63694FF0FF321A726269EC
S315200026703FBF616CC95C1172013338BFE364E26C01
S31520002680A36C9A422DD3A2694FF000039360E364B2
S3152000269027E04FF00003E364A2694FF00101916047
S315200026A084F85C3094F871300BB1A36959614FF00E
S315200026B00003237215E0A2694FF0000353612372D1
S315200026C0E36494F83C30012B04BF022384F83C30A9
S315200026D094F85C30012B04BF022384F85C3000E0C0
S315200026E01DB1A3694FF00002DA6063691B798DF88A
S315200026F0073003B030BD00BF4369197543694FF0F9
S3152000270054021A74704700BF30B44BF29823C2F2B9
S315200027100003984207D04BF20C33C2F200039842D2
S3152000272028D000BE26E011F0010F11D04EF2001382
S31520002730CEF200034FF40044C3F880414BF29822B6
S31520002740C2F20002D2694FF00105C2F800521C60A5
S3152000275011F0020F30D04EF20013CEF200034FF4E8
S315200027608032C3F88021C1694FF00100C1F804020C
S315200027701A6021E011F0010F0DD04EF20013CEF2B7
S3152000278000034FF48022C3F88021C4694FF001056D
S31520002790C4F800521A6011F0020F0DD04EF2001349
S315200027A0CEF200034FF40022C3F88021C1694FF016
S315200027B00100C1F804021A6030BC70474BF298231E
S315200027C0C2F20003984207D04BF20C33C2F2000348
S315200027D0984226D000BE24E011F0010F10D04BF213
S315200027E09823C2F20003DB694FF00002C3F80022EF
S315200027F04EF20013CEF200034FF40042C3F88020BD
S3152000280011F0020F2DD0C3694FF00002C3F8042245
S315200028104EF20013CEF200034FF48032C3F880202C
S31520002820704711F0010F0CD0C3694FF00002C3F8B6
S3152000283000224EF20013CEF200034FF48022C3F89A
S31520002840802011F0020F0CD0C3694FF00002C3F8AC
S3152000285004224EF20013CEF200034FF40022C3F8F6
S3152000286080207047C3694FF00002C3F818227047D2
S31520002870C3694FF00102C3F818227047C3694FF0AD
S315200028800102C3F81C227047C3694FF00002C3F847
S3152000289010227047C3694FF00102C3F81022704717
S315200028A083694FF00102C3F88021704783694FF096
S315200028B00002C3F880217047C1667047C06E70471A
S315200028C0684620F007018D4601B54BF29820C2F2EA
S315200028D00000FFF747FC4EF20013CEF200034FF440
S315200028E08042C3F88021BDE801408546704700BF7D
S315200028F0684620F007018D4601B54BF20C30C2F236
S315200029000000FFF72FFC4EF20013CEF200034FF427
S315200029100032C3F88021BDE801408546704700BFDC
S3152000292010B500F079FD04464FF0010000F078FD67
S31520002930204610BD08B500F073FD08BD10B504464D
S315200029404BF29823C2F20003984206D04BF20C3386
S31520002950C2F20003984200D000BEFFF7E1FFA26951
S315200029604FF00003936084F86830FFF7E3FF10BD53
S3152000297038B504464BF29823C2F20003984206D09B
S315200029804BF20C33C2F20003984200D000BEFFF790
S31520002990C7FFA3694FF001059D6084F86850FFF7D3
S315200029A0C9FF638A1AB24FEA521203F01F0305FACF
S315200029B003F54EF20013CEF2000343F8225038BD41
S315200029C070B504460D4616464BF29823C2F2000314
S315200029D0984206D04BF20C33C2F20003984200D044
S315200029E000BEFFF79DFF256566654FF00003A365D2
S315200029F0FFF7A0FF70BD00BF70B504460D46164612
S31520002A004BF29823C2F20003984206D04BF20C33C5
S31520002A10C2F20003984200D000BEFFF781FF656432
S31520002A20A6644FF00003E364FFF784FF70BD00BF88
S31520002A302DE9F04782B00446884617461D46DDF844
S31520002A4028A0BDF82C609DF830904BF29823C2F256
S31520002A500003984206D04BF20C33C2F20003984290
S31520002A6000D000BE05B900BE07B900BE06B900BE3B
S31520002A70BAF1000F00D100BE2B1E18BF0123002E75
S31520002A800CBF002303F00103002B5AD0FFF748FFA9
S31520002A90237A13B94FF0030323724FF0030384F80C
S31520002AA072304FEA480363604FF00003E362276207
S31520002AB06562A362C4F830A06663A3634FF0010386
S31520002AC084F83C3084F8109094F85C30012B0FBFCA
S31520002AD084F87130A36901225A6194F87030012B71
S31520002AE01DD1A3694FF00002DA6063691B798DF866
S31520002AF007309DF807308DF80730638A1AB24FEAFF
S31520002B00521203F01F034FF0010101FA03F14EF2B6
S31520002B100013CEF2000302F1600243F82210638A0A
S31520002B201AB24FEA521203F01F034FF0010101FAC5
S31520002B3003F14EF20013CEF2000343F82210FFF702
S31520002B40F9FE02B0BDE8F0872DE9F04182B00446D7
S31520002B500D4616461F469DF820804BF29823C2F25A
S31520002B600003984206D04BF20C33C2F2000398427F
S31520002B7000D000BEFFF7D4FE237A13B94FF002032C
S31520002B8023724FF0020384F872304FEA45056560E0
S31520002B904FF00103E362266367634FF00002A263EE
S31520002BA084F83C3084F8108094F85C30012B0FBFF9
S31520002BB084F87130A36901225A6194F87030012B90
S31520002BC01DD1A3694FF00002DA6063691B798DF885
S31520002BD007309DF807308DF80730638A1AB24FEA1E
S31520002BE0521203F01F034FF0010101FA03F14EF2D6
S31520002BF00013CEF2000302F1600243F82210638A2A
S31520002C001AB24FEA521203F01F034FF0010101FAE4
S31520002C1003F14EF20013CEF2000343F82210FFF721
S31520002C2089FE02B0BDE8F0812DE9F04182B004466C
S31520002C300D4616461F469DF820804BF29823C2F279
S31520002C400003984206D04BF20C33C2F2000398429E
S31520002C5000D000BEFFF764FE237A13B94FF00103BC
S31520002C6023724FF0010384F8723005FA03F565608C
S31520002C704FF00002E26226626762A26284F83C306C
S31520002C8084F8108094F85C30012B0FBF84F87130E3
S31520002C90A36901225A6194F87030012B1DD1A369D2
S31520002CA04FF00002DA6063691B798DF807309DF8D2
S31520002CB007308DF80730638A1AB24FEA521203F0B2
S31520002CC01F034FF0010101FA03F14EF20013CEF279
S31520002CD0000302F1600243F82210638A1AB24FEA17
S31520002CE0521203F01F034FF0010101FA03F14EF2D5
S31520002CF00013CEF2000343F82210FFF71BFE02B0AA
S31520002D00BDE8F0812DE9F04104460E4615464BF20A
S31520002D109823C2F20003984207D04BF20C33C2F23A
S31520002D20000398424FD000BE4DE0FFF7F9FD07465D
S31520002D304BF29828C2F2000840464FF000014FF0AF
S31520002D40740201F08DFE4FF00E03A8F8123042F205
S31520002D500003C4F20003C8F8143040F20003C4F2A2
S31520002D600423C8F8183042F20003CEF204031A6B8B
S31520002D7042F400621A634EF20012CEF200024FF4C1
S31520002D808041C2F880111A6B22F400621A63A3698B
S31520002D90E3614FEA46062660C5F38002DA61A3693D
S31520002DA0C5F340025A60A36905F001051D606369F9
S31520002DB022781A73A3694FF001029A613846FFF709
S31520002DC0B9FDBDE8F081FFF7ABFD074620464FF081
S31520002DD000014FF0740201F043FE4FF011036382AD
S31520002DE042F20003C4F20103636140F20003C4F21D
S31520002DF02423A36142F20003CEF204031A6B42F4A9
S31520002E0080521A634EF20012CEF200024FF40031C5
S31520002E10C2F880111A6B22F480521A63B7E700BFFA
S31520002E2040F0800040F20003C4F2020318657047A8
S31520002E30022803D900BE4FF0000070474AF2FC6317
S31520002E40C2F2000353F82020136813F4805FFBD0EE
S31520002E5010684FEA00504FEA105070472DE9F001F4
S31520002E6083B0022801D900BE56E04AF2FC65C2F2C0
S31520002E70000501ACEE6824F8026B4FEA1646267070
S31520002E8040F20004C4F20204D4F8C8704FF00006E1
S31520002E90C4F8C8600DF1080C0CEB000616F8046C9B
S31520002EA006EB460604EB061606F5067C8CF804208F
S31520002EB082F0010808F00108C2F3400240F2100C2B
S31520002EC0C6F2080C08EB400802EB4802624492F86E
S31520002ED0842006F504763271C4F8C87005EB8005A7
S31520002EE02A691160116841F0400111602BB92169EE
S31520002EF0EA6921EA020222610EE040F20003C4F2EE
S31520002F00020319694AF2FC62C2F2000202EB800057
S31520002F10C26941EA02021A6103B0BDE8F0017047B6
S31520002F20022801D900BE70474AF2FC63C2F20003B0
S31520002F3003EB800003691A6842F020021A6070478A
S31520002F40022801D900BE70474AF2FC63C2F2000390
S31520002F5003EB800003691A6822F020021A6070478A
S31520002F60022801D900BE70474AF2FC63C2F2000370
S31520002F7003EB8000836A4FEA11421A60436B1960A3
S31520002F80704700BF30B440F20003C4F202031B694D
S31520002F90B0F1FF3F0AD04FEA104540F20004C4F2D8
S31520002FA00204E566C4F8000543F00103B1F1FF3FD2
S31520002FB00BD04FEA114440F20000C4F20200C0F8E0
S31520002FC0AC40C0F8041543F00203B2F1FF3F0FD026
S31520002FD04FEA124040F20001C4F20201C1F8EC00AF
S31520002FE04FEA1220C1F8E800C1F8082543F004038F
S31520002FF040F20002C4F20202136130BC704700BFE7
S3152000300010B400F00103092800D900BE032900D915
S3152000301000BE03B900BE03298CBF00220122092865
S315200030208CBF002202F00102002A35D0002B33D0BB
S315200030304AF2FC63C2F20003184490F8402040F2A2
S315200030400003C4F20203D3F8C8004FF00004C3F80B
S31520003050C840032902EB42024FEA021240F228231B
S31520003060C4F2020313441A7907D102F0DF021A715F
S315200030701A7A02F0FC021A7208E042F020021A7153
S315200030801A7A02F0FC021144C9B2197240F2000306
S31520003090C4F20203C3F8C80010BC704730B4092834
S315200030A000D900BE032901D900BE38E0092836D848
S315200030B04AF2FC63C2F20003034493F8402040F234
S315200030C00003C4F20203D3F8C8404FF00005C3F84A
S315200030D0C85010F0010F02EB42024FEA02120CD048
S315200030E040F22823C4F2020313441A7902F03F0265
S315200030F042EA8111C9B219710BE040F22023C4F2D1
S31520003100020313441A7A02F03F0242EA8111C9B23D
S31520003110197240F20003C4F20203C3F8C84030BC5F
S31520003120704700BF10B4092801D900BE30E04AF22A
S31520003130FC63C2F20003034493F8402040F20003EC
S31520003140C4F20203D3F8C8104FF00004C3F8C840F5
S3152000315010F0010F02EB42024FEA021209D040F2B0
S315200031602823C4F2020313441A7942F010021A717A
S3152000317008E040F22023C4F2020313441A7A42F0F4
S3152000318010021A7240F20003C4F20203C3F8C810F8
S3152000319010BC704710B4092801D900BE30E04AF2AD
S315200031A0FC63C2F20003034493F8402040F200037C
S315200031B0C4F20203D3F8C8104FF00004C3F8C84085
S315200031C010F0010F02EB42024FEA021209D040F240
S315200031D02823C4F2020313441A7902F0EF021A716B
S315200031E008E040F22023C4F2020313441A7A02F0C4
S315200031F0EF021A7240F20003C4F20203C3F8C810A9
S3152000320010BC7047092800D900BE41F20023C4F241
S31520003210020353F80C2F4FF4805101FA00F040EAD4
S3152000322002001860704700BF82B0092800D900BE8E
S3152000323041F20023C4F2020353F80C2F4FF48051BD
S3152000324001FA00F022EA000018601B680193019B36
S3152000325003F10103019302B0704700BF82B0092831
S3152000326000D900BE41F20023C4F2020353F8142F02
S315200032704FF4805101FA00F040EA020018601B6802
S315200032800193019B03F10103019302B0704700BF34
S31520003290092800D900BE41F20023C4F2020353F8E4
S315200032A00C2F4FF0010101FA00F040EA02001860ED
S315200032B0704700BF82B0092800D900BE41F2002322
S315200032C0C4F2020353F80C2F4FF0010101FA00F06B
S315200032D022EA000018601B680193019B0B440193AE
S315200032E002B0704782B0092800D900BE41F20023FF
S315200032F0C4F2020353F8142F4FF0010101FA00F033
S3152000330040EA020018601B680193019B0B4401935D
S3152000331002B0704741F21023C4F2020318687047C6
S315200033204FF00200704700BF4FF00000704700BF0B
S3152000333000F1010000F0FF00012888BF002070473F
S315200033404AF65C33C2F200031B79834208BF002091
S315200033500BD04AF65C33C2F200031B7D834202D0B7
S315200033604FF0020070474FF00100C0B2704700BF17
S315200033704AF65C33C2F2000303EB0013DA8840F20C
S315200033800003C4F2020302F5C06253F822304FEA6A
S31520003390134318B223EAE070704700BF10B5044605
S315200033A04AF65C33C2F20003196821B14FF01002CD
S315200033B001F0F2FB68B14AF65C33C2F200031969E8
S315200033C049B120464FF0100201F0E6FB18B94FF044
S315200033D00100C0B210BD4FF0020010BD08B500F0CC
S315200033E0CDFB00F0FDF808BDEFF3098000467047DD
S315200033F080F30988704700BFEFF3088000467047C6
S3152000340080F30888704700BFEFF31280704700BF33
S3152000341080F31188704700BFEFF31080704700BF1C
S3152000342080F31088704700BFEFF31380704700BF0A
S3152000343080F31388704700BFEFF31480704700BFF6
S3152000344080F31488704700BF00BA704740BA7047AF
S31520003450C0BA704790FAA0F0704700BFD0E84F0F6F
S31520003460C0B27047D0E85F0F80B2704750E8000FB7
S31520003470704700BFC1E8430F18467047C1E8530F95
S315200034801846704741E80000704700BF704700BFEC
S3152000349030B484B04AF24873C2F20003EC460FCB34
S315200034A08CE80F0042F20003CEF204039A6C02F07D
S315200034B00C0204A90A4452F8105C9A6CC2F3011259
S315200034C001EB820252F8104C9A6CC2F3811201EB86
S315200034D0820252F8100CD96CDB6CC1F3042101F185
S315200034E0010113F4005F18BF490040F23023C6F2F1
S315200034F008031A6822F0704241F2CF13C0F2A1539A
S315200035009A4205D14EF62C73C6F201031A6828E0BA
S3152000351040F61C03C6F208031A6844F24133C4F687
S3152000352054439A421ED140F64003C6F208031A6855
S3152000353022F07F4240F20033C0F201039A4211D9B1
S31520003540B2F5003F05D241F22C63C6F208031A6891
S3152000355007E0B2F5403F05D241F6AC63C6F2080358
S315200035601A6822B900BE47F64002C0F27D124AF61A
S315200035703C33C2F200031A60B2FBF5F55D60B2FB84
S31520003580F4F49C60B2FBF0F0D860B2FBF1F1196163
S315200035905A6104B030BC7047012803D900BE4FF0F1
S315200035A0000070474BF2D003C2F20003185C70474C
S315200035B04AF65C33C2F2000303EB00131A794FEA92
S315200035C012124AF65433C2F2000303EB82004088FB
S315200035D000FB01F033F82230B0FBF3F0704700BF58
S315200035E02DE9F00540F20002C4F20202D2F8C850DA
S315200035F04FF00003C2F8C8301046364CDAB24FEA14
S31520003600520101EB410100EB011101F50871097925
S3152000361012F0010F14BFC1F34111C1F34101E1546E
S3152000362003F101030A2BE9D14FF000034AF65C347B
S31520003630C2F200044AF2E872C2F2000240F2000727
S31520003640C4F2020798464FF0020A4BF2D00CC2F29F
S31520003650000C1E4604EB03110979505C114491F8C5
S315200036603010012903D021B302291FD10EE0FF28F3
S3152000367000D100BE00EB400007EB001101F50871F8
S31520003680097A81F0010101F0010113E0FF2800D140
S3152000369000BE00EB400007EB001101F50A71097925
S315200036A011F0010F08BF514604D002E000BE41468A
S315200036B000E041460CF8061003F10103022BC8D1A5
S315200036C040F20003C4F20203C3F8C850BDE8F00577
S315200036D0704700BFD4B0002010B44AF65C33C2F263
S315200036E0000303EB00131B794FEA13149C464AF29E
S315200036F0E873C2F20003634493F86030FF2B15D1C0
S315200037004AF65433C2F2000303EB8404638803FBB6
S3152000371001F140F20113C0F21003A3FB0123C3EB16
S31520003720010103EB51034FEAD32031E04BF2D000E5
S31520003730C2F200004AF2E873C2F200030CEB030265
S3152000374092F89020104490F804C003EB4C02B2F992
S31520003750C000C1F57E6101F11F014AF65432C2F262
S31520003760000202EB8402528802FB01F1634493F8C3
S31520003770C83003FB01F140F28103C8F2080383FB42
S3152000378001230B444FEAE171C1EBE321C1EB0000B9
S3152000379010BC704710B5012803D900BE4FF00000B9
S315200037A010BD4AF65C33C2F2000303EB00131A790C
S315200037B02F2A00D900BE4AF2E873C2F2000313444E
S315200037C093F83030012B16D102F03004C2F3800278
S315200037D002EBD404032C0ED8FFF77EFF00EB80000B
S315200037E04FEA80004AF25873C2F2000333F81430CD
S315200037F0B0FBF3F010BD4FF0000010BD10B501284E
S3152000380003D900BE4FF0000010BD4AF65C33C2F269
S31520003810000303EB00131A792F2A00D900BE4AF2BF
S31520003820E873C2F20003134493F83030012B16D10B
S3152000383002F03004C2F3800202EBD404032C0ED82B
S31520003840FFF74AFF44F6206303FB00F04AF2587262
S31520003850C2F2000232F81420B0FBF2F010BD4FF095
S31520003860000010BD08B5FFF737FF00EB80004FEAD8
S31520003870400048F21F53C5F2EB13A3FB00234FEA87
S31520003880D30008BD08B5FFF727FF4FF25553CFF6F3
S31520003890FF7303EB800008BD08B5FFF7E3FF00EBDD
S315200038A0C00046F26763C6F2666383FB00234FEAD5
S315200038B0E070C0EB6300A0F5E470A0F1030008BD42
S315200038C001288FBF00204AF65C33C2F2000303EBC7
S315200038D0001098BF006870474AF65C33C2F20003B6
S315200038E003EB00131A794FEA12124AF65433C2F246
S315200038F0000303EB82035B888B4209D24AF65433DA
S31520003900C2F2000333F8220000F1FF3080B2704784
S315200039104AF65430C2F2000030F8220000F1FF309F
S3152000392000FB01F1B1FBF3F398B270474AF654332A
S31520003930C2F200034AF65C32C2F2000202EB001227
S3152000394012794FEA121203EB82035B888B4231BF56
S3152000395040F6FF70C1EB0131B1FBF3F398B270472B
S315200039604AF65C33C2F2000303EB00131B794FEADD
S31520003970131C18464AF2E873C2F20003034493F874
S315200039806030FF2B0ED121EAE171C1EB01314AF6FD
S315200039905433C2F2000303EB8C035B88B1FBF3F0D4
S315200039A080B227E04BF2D002C2F200024AF2E8735C
S315200039B0C2F20003184490F890000244127903EBF7
S315200039C04200B0F9C000C1EB0001C1EB0131134444
S315200039D093F8C830B1FBF3F04AF65433C2F2000331
S315200039E003EB8C035B88B0FBF3F0C0F57E6000F13F
S315200039F01F0080B240F6FF73984228BF18467047D2
S31520003A0008B5012800D900BE4AF65C33C2F200038D
S31520003A1003EB00131A792F2A00D900BE4AF2E87365
S31520003A20C2F20003134493F83030012B20D102F068
S31520003A303003C2F3800202EBD302032A18D84AF2DB
S31520003A405873C2F2000333F8123001FB03F14CF62F
S31520003A50CD43CCF6CC43A3FB01214FEA1111FFF74E
S31520003A6065FF40F6FF73984228BF184680B208BD0E
S31520003A704FF0000008BD00BF08B5012800D900BEE0
S31520003A804AF65C33C2F2000303EB00131A792F2A9D
S31520003A9000D900BE4AF2E873C2F20003134493F839
S31520003AA03030012B20D102F03003C2F3800202EB2A
S31520003AB0D302032A18D84AF25873C2F2000333F805
S31520003AC0123001FB03F141F25973CDF2B713A3FB78
S31520003AD001214FEA9131FFF729FF40F6FF73984203
S31520003AE028BF184680B208BD4FF0000008BD00BFB1
S31520003AF008B501EB810101EB81014CF6CD43CCF6F3
S31520003B00CC43A3FB01214FEAD101FFF70FFF40F67B
S31520003B10FF73984228BF184680B208BD08B501F544
S31520003B202A6101F10B014FEA9101FFF7FFFE40F6F2
S31520003B30FF73984228BF184680B208BD08B501F524
S31520003B40E47101F1030101EB810148F63963C3F603
S31520003B50E303A3FB01214FEA5101FFF7C9FF40F61A
S31520003B60FF73984228BF184680B208BD11B14FEAAC
S31520003B7010620A70C0F30F20704700BF704700BF65
S31520003B804FF00000704700BF4FF00000704700BFA5
S31520003B90704700BF704700BF704700BF704700BF27
S31520003BA0704700BF4FF00000704700BF4FF0FF3056
S31520003BB0704700BF4FF00000704700BF4FF0020073
S31520003BC0704700BF4FF00000704700BF4FF0000065
S31520003BD0704700BF4FF00000704700BF704700BF1E
S31520003BE0704700BF704700BF704700BF704700BFD7
S31520003BF0704700BF704700BF704700BF704700BFC7
S31520003C00704700BF684620F007018D4601B44EF28A
S31520003C100013CEF200034FF48002C3F88C2101BCBE
S31520003C2085467047684620F007018D4601B44EF25E
S31520003C300013CEF200034FF40002C3F88C2101BC1E
S31520003C4085467047684620F007018D4601B44EF23E
S31520003C500013CEF200034FF08072C3F88C2101BC12
S31520003C6085467047684620F007018D4601B44EF21E
S31520003C700013CEF200034FF00072C3F88C2101BC72
S31520003C8085467047684620F007018D4601B44EF2FE
S31520003C900013CEF200034FF08062C3F88C2101BCE2
S31520003CA085467047684620F007018D4601B44EF2DE
S31520003CB00013CEF200034FF00062C3F88C2101BC42
S31520003CC085467047684620F007018D4601B44EF2BE
S31520003CD00013CEF200034FF08052C3F88C2101BCB2
S31520003CE085467047684620F007018D4601B44EF29E
S31520003CF00013CEF200034FF00052C3F88C2101BC12
S31520003D0085467047684620F007018D4601B44EF27D
S31520003D100013CEF200034FF08042C3F88C2101BC81
S31520003D2085467047684620F007018D4601B44EF25D
S31520003D300013CEF200034FF00042C3F88C2101BCE1
S31520003D4085467047684620F007018D4601B44EF23D
S31520003D500013CEF200034FF00102C3F8902101BCFC
S31520003D6085467047684620F007018D4601B44EF21D
S31520003D700013CEF200034FF00202C3F8902101BCDB
S31520003D8085467047684620F007018D4601B44EF2FD
S31520003D900013CEF200034FF00402C3F8902101BCB9
S31520003DA085467047684620F007018D4601B44EF2DD
S31520003DB00013CEF200034FF00802C3F8902101BC95
S31520003DC085467047684620F007018D4601B44EF2BD
S31520003DD00013CEF200034FF01002C3F8902101BC6D
S31520003DE085467047684620F007018D4601B44EF29D
S31520003DF00013CEF200034FF02002C3F8902101BC3D
S31520003E0085467047684620F007018D4601B44EF27C
S31520003E100013CEF200034FF04002C3F8902101BCFC
S31520003E2085467047684620F007018D4601B44EF25C
S31520003E300013CEF200034FF08002C3F8902101BC9C
S31520003E4085467047684620F007018D4601B44EF23C
S31520003E500013CEF200034FF48072C3F8902101BC08
S31520003E6085467047684620F007018D4601B44EF21C
S31520003E700013CEF200034FF40072C3F8902101BC68
S31520003E8085467047684620F007018D4601B44EF2FC
S31520003E900013CEF200034FF48062C3F8902101BCD8
S31520003EA085467047684620F007018D4601B44EF2DC
S31520003EB00013CEF200034FF40062C3F8902101BC38
S31520003EC085467047684620F007018D4601B44EF2BC
S31520003ED00013CEF200034FF48052C3F8902101BCA8
S31520003EE085467047684620F007018D4601B44EF29C
S31520003EF00013CEF200034FF40052C3F8902101BC08
S31520003F0085467047684620F007018D4601B44EF27B
S31520003F100013CEF200034FF48042C3F8902101BC77
S31520003F2085467047684620F007018D4601B44EF25B
S31520003F300013CEF200034FF40042C3F8902101BCD7
S31520003F4085467047684620F007018D4601B44EF23B
S31520003F500013CEF200034FF48032C3F8902101BC47
S31520003F6085467047684620F007018D4601B44EF21B
S31520003F700013CEF200034FF40032C3F8902101BCA7
S31520003F8085467047684620F007018D4601B44EF2FB
S31520003F900013CEF200034FF48022C3F8902101BC17
S31520003FA085467047684620F007018D4601B44EF2DB
S31520003FB00013CEF200034FF40022C3F8902101BC77
S31520003FC085467047684620F007018D4601B44EF2BB
S31520003FD00013CEF200034FF48012C3F8902101BCE7
S31520003FE085467047684620F007018D4601B44EF29B
S31520003FF00013CEF200034FF40012C3F8902101BC47
S315200040008546704781F0004102E000BF83F00043FF
S3152000401030B54FEA41044FEA430594EA050F08BF3D
S3152000402090EA020F1FBF54EA000C55EA020C7FEA01
S31520004030645C7FEA655C00F0E2804FEA5454D4EB7E
S315200040405555B8BF6D420CDD2C4480EA020281EA48
S31520004050030382EA000083EA010180EA020281EA80
S315200040600303362D88BF30BD11F0004F4FEA0131D2
S315200040704FF4801C4CEA113102D0404261EB4101E1
S3152000408013F0004F4FEA03334CEA133302D0524267
S3152000409063EB430394EA050F00F0A780A4F1010423
S315200040A0D5F1200E0DDB02FA0EFC22FA05F280185D
S315200040B041F1000103FA0EF2801843FA05F3594143
S315200040C00EE0A5F120050EF1200E012A03FA0EFCC2
S315200040D028BF4CF0020C43FA05F3C01851EBE371EC
S315200040E001F0004507D54FF0000EDCF1000C7EEB09
S315200040F000006EEB0101B1F5801F1BD3B1F5001F47
S315200041000CD349085FEA30004FEA3C0C04F1010465
S315200041104FEA445212F5800F80F09A80BCF1004F8E
S3152000412008BF5FEA500C50F1000041EB045141EA10
S31520004130050130BD5FEA4C0C404141EB010111F411
S31520004140801FA4F10104E9D191F0000F04BF0146BC
S315200041500020B1FA81F308BF2033A3F10B03B3F19A
S3152000416020020CDA0C3208DD02F1140CC2F10C022A
S3152000417001FA0CF021FA02F10CE002F11402D8BF88
S31520004180C2F1200C01FA02F120FA0CFCDCBF41EA54
S315200041900C019040E41AA2BF01EB0451294330BD23
S315200041A06FEA04041F3C1CDA0C340EDC04F1140400
S315200041B0C4F1200220FA04F001FA02F340EA0300D7
S315200041C021FA04F345EA030130BDC4F10C04C4F11D
S315200041D0200220FA02F001FA04F340EA03002946FD
S315200041E030BD21FA04F0294630BD94F0000F83F447
S315200041F0801306BF81F480110134013D4EE77FEA2A
S31520004200645C18BF7FEA655C29D094EA050F08BF75
S3152000421090EA020F05D054EA000C04BF1946104656
S3152000422030BD91EA030F1EBF0021002030BD5FEA9A
S31520004230545C05D14000494128BF41F0004130BDC2
S3152000424014F580043CBF01F5801130BD01F0004516
S3152000425045F0FE4141F470014FF0000030BD7FEA89
S31520004260645C1ABF194610467FEA655C1CBF0B4684
S31520004270024650EA013406BF52EA033591EA030F9B
S3152000428041F4002130BD00BF90F0000F04BF002193
S31520004290704730B54FF4806404F132044FF00005C6
S315200042A04FF0000150E700BF90F0000F04BF00213F
S315200042B0704730B54FF4806404F1320410F00045A5
S315200042C048BF40424FF000013EE700BF42004FEAA0
S315200042D0E2014FEA31014FEA02701FBF12F07F431D
S315200042E093F07F4F81F06051704792F0000F14BF1A
S315200042F093F07F4F704730B54FF4607401F000455E
S3152000430021F0004120E700BF50EA010208BF7047B4
S3152000431030B54FF000050AE050EA010208BF7047A9
S3152000432030B511F0004502D5404261EB41014FF412
S31520004330806404F132045FEA915C3FF4DCAE4FF016
S3152000434003025FEADC0C18BF03325FEADC0C18BFFD
S31520004350033202EBDC02C2F1200300FA03FC20FA4E
S3152000436002F001FA03FE40EA0E0021FA02F114449B
S31520004370C1E600BF70B54FF0FF0C4CF4E06C1CEAB0
S3152000438011541DBF1CEA135594EA0C0F95EA0C0F25
S3152000439000F0DEF82C4481EA030621EA4C5123EA98
S315200043A04C5350EA013518BF52EA033541F48011C7
S315200043B043F4801338D0A0FB02CE4FF00005E1FB7A
S315200043C002E506F00042E0FB03E54FF00006E1FBC4
S315200043D003569CF0000F18BF4EF0010EA4F1FF0407
S315200043E0B6F5007F64F5407404D25FEA4E0E6D4147
S315200043F046EB060642EAC62141EA55514FEAC52058
S3152000440040EA5E504FEACE2EB4F1FD0C88BFBCF5D3
S31520004410E06F1ED8BEF1004F08BF5FEA500E50F184
S31520004420000041EB045170BD06F0004646EA01014A
S3152000443040EA020081EA0301B4EB5C04C2BFD4EB7C
S315200044400C0541EA045170BD41F480114FF0000E75
S31520004450013C00F3AB8014F1360FDEBF002001F0E3
S31520004460004170BDC4F10004203C35DA0C341BDC5D
S3152000447004F11404C4F1200500FA05F320FA04F02F
S3152000448001FA05F240EA020001F0004221F0004163
S3152000449010EBD37021FA04F642EB06015EEA430ED6
S315200044A008BF20EAD37070BDC4F10C04C4F1200506
S315200044B000FA04F320FA05F001FA04F240EA0200B9
S315200044C001F0004110EBD37041F100015EEA430E8A
S315200044D008BF20EAD37070BDC4F1200500FA05F2AA
S315200044E04EEA020E20FA04F301FA05F243EA020329
S315200044F021FA04F001F0004121FA04F220EA020038
S3152000450000EBD3705EEA430E08BF20EAD37070BD7D
S3152000451094F0000F0FD101F00046400041EB01015D
S3152000452011F4801F08BF013CF7D041EA060195F03F
S31520004530000F18BF704703F00046520043EB0303F9
S3152000454013F4801F08BF013DF7D043EA06037047E6
S3152000455094EA0C0F0CEA135518BF95EA0C0F0CD0F1
S3152000456050EA410618BF52EA4306D1D181EA030137
S3152000457001F000414FF0000070BD50EA410606BF31
S315200045801046194652EA430619D094EA0C0F02D176
S3152000459050EA013613D195EA0C0F05D152EA0336BB
S315200045A01CBF104619460AD181EA030101F00041D9
S315200045B041F0FE4141F470014FF0000070BD41F022
S315200045C0FE4141F4780170BD70B54FF0FF0C4CF4FC
S315200045D0E06C1CEA11541DBF1CEA135594EA0C0F1B
S315200045E095EA0C0F00F0A7F8A4EB050481EA030E68
S315200045F052EA03354FEA013100F088804FEA03334F
S315200046004FF0805545EA131343EA12634FEA02221C
S3152000461045EA111545EA10654FEA00260EF00041DD
S315200046209D4208BF964244F1FD0404F5407402D22F
S315200046305B084FEA3202B61A65EB03055B084FEAC0
S3152000464032024FF480104FF4002CB6EB020E75EBBD
S31520004650030E22BFB61A754640EA0C005B084FEAE5
S315200046603202B6EB020E75EB030E22BFB61A754662
S3152000467040EA5C005B084FEA3202B6EB020E75EBAD
S31520004680030E22BFB61A754640EA9C005B084FEA25
S315200046903202B6EB020E75EB030E22BFB61A754632
S315200046A040EADC0055EA060E18D04FEA051545EA21
S315200046B016754FEA06164FEAC30343EA52734FEACA
S315200046C0C2025FEA1C1CC0D111F4801F0BD141EA43
S315200046D000014FF000004FF0004CB6E711F4801FA8
S315200046E004BF01430020B4F1FD0C88BFBCF5E06F88
S315200046F03FF6AFAEB5EB030C04BFB6EB020C5FEA98
S31520004700500C50F1000041EB045170BD0EF0004EEC
S315200047104EEA113114EB5C04C2BFD4EB0C0541EA1E
S31520004720045170BD41F480114FF0000E013C90E61B
S3152000473045EA060E8DE60CEA135594EA0C0F08BFDF
S3152000474095EA0C0F3FF43BAF94EA0C0F0AD150EADE
S3152000475001347FF434AF95EA0C0F7FF425AF104671
S3152000476019462CE795EA0C0F06D152EA03353FF499
S31520004770FDAE1046194622E750EA410618BF52EA16
S3152000478043067FF4C5AE50EA41047FF40DAF52EAEA
S3152000479043057FF4EBAE12E74FEA410212F5001211
S315200047A015D211D56FF47873B3EB625212D94FEA52
S315200047B0C12343F0004343EA505311F0004F23FA3C
S315200047C002F018BF404270474FF00000704750EA91
S315200047D0013005D111F0004008BF6FF0004070474E
S315200047E04FF00000704700BF80F0004002E000BF9D
S315200047F081F0004142001FBF5FEA410392EA030FA6
S315200048007FEA226C7FEA236C6AD04FEA1262D2EBEF
S315200048101363C1BFD218414048404140B8BF5B42F4
S31520004820192B88BF704710F0004F40F4000020F08D
S315200048307F4018BF404211F0004F41F4000121F0A3
S315200048407F4118BF494292EA030F3FD0A2F10102ED
S3152000485041FA03FC10EB0C00C3F1200301FA03F12B
S3152000486000F0004302D5494260EB4000B0F5000F4E
S3152000487013D3B0F1807F06D340084FEA310102F10D
S315200048800102FE2A51D2B1F1004F40EBC25008BFBF
S3152000489020F0010040EA03007047490040EB000089
S315200048A010F4000FA2F10102EDD1B0FA80FCACF1B8
S315200048B0080CB2EB0C0200FA0CF0AABF00EBC250B7
S315200048C052421843BCBFD0401843704792F0000FA5
S315200048D081F4000106BF80F400000132013BB5E7F8
S315200048E04FEA41037FEA226C18BF7FEA236C21D06E
S315200048F092EA030F04D092F0000F08BF08467047D3
S3152000490090EA010F1CBF0020704712F07F4F04D1A0
S31520004910400028BF40F00040704712F100723CBFB3
S3152000492000F50000704700F0004343F0FE4040F4DD
S31520004930000070477FEA226216BF08467FEA23639B
S315200049400146420206BF5FEA412390EA010F40F486
S31520004950800070474FF0000304E000BF10F00043D2
S3152000496048BF40425FEA000C08BF704743F09643B9
S3152000497001464FF000001CE050EA010208BF7047D4
S315200049804FF000030AE000BF50EA010208BF70475B
S3152000499011F0004302D5404261EB41015FEA010C70
S315200049A002BF84460146002043F0B64308BFA3F168
S315200049B08053A3F50003BCFA8CF2083AA3EBC2534A
S315200049C010DB01FA02FC634400FA02FCC2F1200269
S315200049D0BCF1004F20FA02F243EB020008BF20F0A0
S315200049E00100704702F1200201FA02FCC2F1200206
S315200049F050EA4C0021FA02F243EB020008BF20EAFB
S31520004A00DC7070474AF6A433C2F200031868704778
S31520004A1070B54AF618364AF61835C2F20006C2F2C2
S31520004A200005761BB61006D0002455F82430013434
S31520004A309847A642F9D84AF618354AF61C36C2F2E5
S31520004A400005C2F20006761B06F05AF8B61006D00C
S31520004A50002455F8243001349847A642F9D870BD71
S31520004A60032AC9B230B407D822B10023C154013376
S31520004A709342FBD130BC704700EB020C034601E0A9
S31520004A8003F8011C03F003041A460133002CF7D166
S31520004A904FF00133C2EB0C0403FB01F31FE042F895
S31520004AA0403C42F83C3C42F8383C42F8343C42F820
S31520004AB0303C42F82C3C42F8283C42F8243C42F850
S31520004AC0203C42F81C3C42F8183C42F8143C42F880
S31520004AD0103C42F80C3C42F8083C42F8043C15468F
S31520004AE040323F2CA4F14004D9DC2A46C5EB0C0405
S31520004AF007E042F8103C42F80C3C42F8083C42F8E9
S31520004B00043C154610320F2CA4F11004F1DC2A4681
S31520004B10C5EB0C0501E042F8043C14460432032D93
S31520004B20A5F10405F7DC01E004F8011B6445FBD37D
S31520004B30A0E700BF0FB44AF6A433C2F2000310B5B3
S31520004B401C6882B024B1A36913B9204602F0E8FE9E
S31520004B50204605AC049A23468168019400F07EF82D
S31520004B6002B0BDE8104004B0704700BF0EB410B5C7
S31520004B70044683B018B183690BB902F0D1FE2046F2
S31520004B8006AC059A23468168019400F067F803B0C5
S31520004B90BDE8104003B0704730B41346002A43D016
S31520004BA041EA000212F0030F25D1032B04460D46DD
S31520004BB03DD9026809688A4239D1043B34D0A2F132
S31520004BC0013121EA020212F0803F0DD02CE022684A
S31520004BD02968A2F101308A4220EA020027D1043B4B
S31520004BE022D010F0803F1FD104340435032BEED899
S31520004BF020462946F3B10478013B91F800C064456C
S31520004C000FD18BB184B1013B002202E063B15CB1CC
S31520004C10013B84188D180132647895F801C06445EB
S31520004C20F4D0CCEB040000E0002030BC70472046D6
S31520004C302946E0E7247895F800C0CCEB0400F4E799
S31520004C40936810B5144613B95360184610BD02F088
S31520004C50CBFF00236360A36010BD00BF2DE9F04F9A
S31520004C60ADF5AE6D83B00E4615469A46814603F0E5
S31520004C70ABF900681D90B9F1000F04D0D9F81830AF
S31520004C80002B00F05A814AF63013C2F200039E42EE
S31520004C9008BFD9F8046010D04AF65013C2F20003B8
S31520004CA09E4208BFD9F8086007D04AF67013C2F2B0
S31520004CB000039E4208BFD9F80C60B6F80CC01FFA54
S31520004CC08CF313F4005F09D14CF4005C726EA6F8E5
S31520004CD00CC01FFA8CF322F40052726613F0080FF0
S31520004CE001F001833269002A01F0FD8203F01A03E4
S31520004CF00A2B00F0E080002212921A9200231C92C6
S31520004D000DF59C641192043419920DF5A4621B933F
S31520004D1004320DF59063283203331892079300234B
S31520004D20CDF84C45CDF85035CDF854352B781A1E94
S31520004D3018BF0122252B0CBF002202F0010232B33C
S31520004D402F4617F8013F1A1E18BF0122252B0CBF2C
S31520004D50002202F00102002AF3D1B7EB050808BFB2
S31520004D603D4614D0C4F80480DDF85035DDF85425CE
S31520004D7001332560072B4244CDF85035CDF8542514
S31520004D8078DC083411983D46404411903B78002B3E
S31520004D907CD06B1C4FF0FF372B204FF0200C0021CE
S31520004DA04FF000020F918DF87725CDF82CA06A7868
S31520004DB00A915D1CA2F12003582B00F28682DFE8BF
S31520004DC013F0980284028402A402840284028402DC
S31520004DD0840284028402AD02BA028402C102CA029B
S31520004DE08402E702F002F002F002F002F002F00282
S31520004DF0F002F002F0028402840284028402840219
S31520004E008402840284028402840204032603840228
S31520004E10260384028402840284026A0384028402B2
S31520004E20810484028402840284028402140484029B
S31520004E3084022F048402840284028402840284026F
S31520004E4084028402840284024F0465042603260316
S31520004E50260373036504840284027903840285038E
S31520004E609603AD030A048402CC038402F40384026D
S31520004E708402C0000DF5A862484631460C32FFF781
S31520004E80DFFE58B90DF59C6404347BE7DDF8543514
S31520004E90002B41F092810023CDF85035B38913F0D1
S31520004EA0400F02D04FF0FF30119011985FB00DF5F2
S31520004EB0806DBDE8F08FB6F90E30002BFFF61BAFE4
S31520004EC0376A2CF0020CD6F828E00DF58E64ADF882
S31520004ED088C40C34B6F80EC02A46534648462146A6
S31520004EE01FADCDF89C740027CDF88C54CDF87C549A
S31520004EF04FF48065CDF8A4E4ADF88AC4CDF890547B
S31520004F00CDF89474CDF88454FFF7A8FE00281190AC
S31520004F1009DB2146484602F093FB1199B84218BF97
S31520004F204FF0FF311191BDF8883413F0400FBCD0FB
S31520004F30B38943F04003B381B7E7484602F0F0FC5B
S31520004F40A1E60A984AF6001CC2F2000C169210F04E
S31520004F50200FCDF864C000F06E830B99CB1D23F093
S31520004F60070303F108020B92D3E900AB5AEA0B02BE
S31520004F700A9B0CBF00220122134240F06B860223BB
S31520004F804FF000018DF87715002FA2BFDDF828C05D
S31520004F902CF0800CCDF828C0002F18BF42F001025B
S31520004FA0002A00F01E84012B00F0DE85022B00F083
S31520004FB0C185189913914FEADA084FEADB0C48EAC3
S31520004FC04B780AF00700E346C24630305AEA0B0215
S31520004FD001F8010DEFD1DDF828C013911CF0010F67
S31520004FE040F08C861898401A10909DF87735109AC4
S31520004FF01797BA42B8BF3A460C9213B10C9A0132AF
S315200050000C920A9B0A9813F0020315931EBFDDF833
S3152000501030C00CF1020CCDF830C010F08400149092
S315200050204DD10F990C9A8F1A002F48DD102F4AF672
S31520005030BC08D8BFC2F2000830DDC2F200080DF568
S31520005040A86B43464FF0100AA8460BF10C0B1D46E1
S3152000505002E0103F102F1EDDC4F804A0DDF8503505
S31520005060DDF85425013325601032072BCDF8542561
S3152000507004F10804CDF85035EBDD0DF59C64484667
S3152000508031465A460434FFF7DBFD00287FF406AF8D
S31520005090103F102FE0DC2B46454698466760DDF82A
S315200050A05035C4F800805A1CDDF85435CDF850250B
S315200050B0DB19072ACDF8543500F38A8508349DF884
S315200050C077359BB101236360DDF850350DF5AE626F
S315200050D007322260DDF854250133CDF850350132F0
S315200050E0072BCDF8542500F3B6840834159B9BB1C5
S315200050F002236360DDF850350DF5AE62043222607E
S31520005100DDF854250133CDF850350232072BCDF882
S31520005110542500F3AF840834DDF850C0BCF1800F6D
S3152000512000F07683179B109A9F1A002F43DD102FCD
S31520005130DFF88C8B2EDD43460DF5A86BA8464FF085
S31520005140100A0BF10C0B1D4602E0103F102F1EDD3E
S31520005150C4F804A0DDF85035DDF854250133256068
S315200051601032072BCDF8542504F10804CDF850351C
S31520005170EBDD0DF59C64484631465A460434FFF76C
S315200051805FFD00287FF48AAE103F102FE0DC2B460F
S31520005190454698466760DDF85035DDF854250133DD
S315200051A0C4F80080D219072BCDF85425CDF85035F8
S315200051B000F342840834DDF828C01CF4807F40F0D8
S315200051C09D82109813996060DDF85035DDF85425DE
S315200051D0013321601218072BCDF85035D8BF04F1C2
S315200051E00803CDF8542500F39B830A9911F0040F88
S315200051F055D00F9ADDF830C0CCEB0207002F4EDDDC
S31520005200102F4AF6BC08D8BFC2F200082EDDC2F223
S3152000521000080DF5A86A42461024A8460AF10C0A91
S31520005220154602E0103F102F1DDD5C60DDF850258D
S31520005230DDF8541501321D601031072ACDF85415BA
S3152000524003F10803CDF85025ECDD48463146524699
S31520005250FFF7F6FC0DF59C63043300287FF41EAEA1
S31520005260103F102FE1DC2A46454690465F60DDF868
S315200052705025C3F80080DDF854350132CDF850258D
S31520005280FB18072ACDF854350BDD0DF5A8624846E4
S3152000529031460C32FFF7D4FC00287FF4FFADDDF851
S315200052A0543511980C9A0F998A42ACBF8018401831
S315200052B01190002B40F042830DF59C640023DDF80D
S315200052C02CA00434CDF8503530E51692002A3FF450
S315200052D0DDAD0DF5A46001234FF0000C04300C93D6
S315200052E08DF824258DF877C51390109300211791FA
S315200052F087E69DF87735002B40F02B850B992B46BA
S315200053008DF877C52A780B9153E50B990A9B43F0C4
S3152000531001030A932B462A780B914AE50B990B9A9F
S3152000532009680F91111D0F9B002BC0F280872A78E8
S315200053302B460B913DE50B992B468DF877052A7860
S315200053400B9136E50B990A9B43F004030A932B46EF
S315200053502A780B912DE52B4613F8012B2A2A01F0EA
S31520005360CD80A2F13001092901F2378002350027CC
S3152000537015F8012C07EB87072B46013501EB47076C
S31520005380A2F130010929F3D947EAE7771D4611E54D
S315200053900B992B460A9A42F080020A922A780B91A0
S315200053A007E5A2F130014FF000082B4608EB8808EC
S315200053B013F8012B01EB4808A2F130011D460929FB
S315200053C0F3D9CDF83C801D46F4E40A9B169243F0AF
S315200053D010030A93DDF828C01CF0200F00F05D8131
S315200053E00B98C31D23F0070303F108010B91D3E9A2
S315200053F000ABBAF1000F7BF10002C0F29B845AEA9F
S315200054000B034FF001030CBF00220122BCE50A98D2
S31520005410169210F0080F00F0ED840B99CB1D23F0A7
S31520005420070303F108020B92D3F80480D3F800A0F7
S31520005430CDF86C80CDF848A05046414604F030F9AE
S315200054408346002800F099855046002200234146D5
S3152000545004F05CFD002840F00B859DF877354AF670
S31520005460F4014AF6F0021698C2F20001C2F20002D6
S315200054704FF0030C4728D8BF114613910A99CDF84F
S3152000548030C021F08001CDF840C00A914FF0000CC9
S31520005490CDF85CC0B1E50B990A9B43F008030A934B
S315200054A02B462A780B9184E40A9941F040010A910F
S315200054B00B993CE72A786C2A00F055850B990A9BB4
S315200054C00B9143F010030A932B4672E40A9A12F0CA
S315200054D0200F00F082840B98119A036810464FEA39
S315200054E0E0710B9AC3E9000102F1040A1EE4169248
