:020000042000DA
:100000000000012099020020090300200B030020BA
:100010000D0300200F03002011030020000000004A
:10002000000000000000000000000000130300209A
:100030001503002000000000170300201903002012
:100040001B0300201D0300201F03002021030020AC
:10005000230300202503002027030020290300207C
:100060002B0300202D030020C1180020F1180020D0
:1000700033030020350300204925002039030020E8
:100080003B030020792500203F030020410300208E
:10009000A111002045030020470300204903002050
:1000A0004B030020000000000000000000000000E2
:1000B0000000000000000000000000004D030020D0
:1000C0004F0300205103002053030020550300205C
:1000D00057030020590300205B0300205D0300202C
:1000E0005F030020610300206303002065030020FC
:1000F00067030020690300206B0300206D030020CC
:100100006F0300207103002073030020750300209B
:1001100077030020790300207B0300207D0300206B
:100120007F0300208103002083030020850300203B
:1001300087030020890300208B0300208D0300200B
:100140008F030020910300209303002095030020DB
:1001500097030020990300209B0300209D030020AB
:100160009F030020A1030020A3030020A50300207B
:10017000A7030020A9030020AB030020AD0300204B
:10018000AF030020B1030020B3030020B50300201B
:10019000B7030020B9030020BB030020BD030020EB
:1001A000BF030020C1030020C3030020C5030020BB
:1001B000C7030020C9030020CB030020CD0300208B
:1001C000CF030020D1030020D3030020D50300205B
:1001D000D7030020D9030020DB030020DD0300202B
:1001E000DF030020E1030020E3030020E5030020FB
:1001F000E7030020E9030020EB030020ED030020CB
:10020000EF030020F1030020F3030020F50300209A
:10021000F7030020F9030020FB030020FD0300206A
:10022000FF03002001040020030400200504002037
:1002300007040020090400200B0400200D04002006
:100240000F040020110400201304002015040020D6
:1002500017040020190400201B0400201D040020A6
:100260001F04002021040020230400202504002076
:1002700027040020290400202B0400202D04002046
:100280002F04002031040020330400203504002016
:100290003704002039040020684880476848002857
:1002A0000BD168486849694A884206D091421CBF10
:1002B00050F8043B41F8043BF8D165486549664A6B
:1002C000884206D091421CBF50F8043B41F8043BE1
:1002D000F8D162486249634A914218BF41F8040B61
:1002E000FAD1000000000000000000000000000043
:1002F000DFF874010FF2030E00474FF000004FF0DB
:100300000001DFF868F1FEE7FEE7FEE7FEE7FEE743
:10031000FEE7FEE7FEE7FEE7FEE7FEE7FEE7FEE7B5
:10032000FEE7FEE7FEE7FEE7FEE7FEE7FEE7FEE7A5
:10033000FEE7FEE7FEE7FEE7FEE7FEE7FEE7FEE795
:10034000FEE7FEE7FEE7FEE7FEE7FEE7FEE7FEE785
:10035000FEE7FEE7FEE7FEE7FEE7FEE7FEE7FEE775
:10036000FEE7FEE7FEE7FEE7FEE7FEE7FEE7FEE765
:10037000FEE7FEE7FEE7FEE7FEE7FEE7FEE7FEE755
:10038000FEE7FEE7FEE7FEE7FEE7FEE7FEE7FEE745
:10039000FEE7FEE7FEE7FEE7FEE7FEE7FEE7FEE735
:1003A000FEE7FEE7FEE7FEE7FEE7FEE7FEE7FEE725
:1003B000FEE7FEE7FEE7FEE7FEE7FEE7FEE7FEE715
:1003C000FEE7FEE7FEE7FEE7FEE7FEE7FEE7FEE705
:1003D000FEE7FEE7FEE7FEE7FEE7FEE7FEE7FEE7F5
:1003E000FEE7FEE7FEE7FEE7FEE7FEE7FEE7FEE7E5
:1003F000FEE7FEE7FEE7FEE7FEE7FEE7FEE7FEE7D5
:10040000FEE7FEE7FEE7FEE7FEE7FEE7FEE7FEE7C4
:10041000FEE7FEE7FEE7FEE7FEE7FEE7FEE7FEE7B4
:10042000FEE7FEE7FEE7FEE7FEE7FEE7FEE7FEE7A4
:10043000FEE7FEE7FEE7FEE7FEE70000292D0020CD
:10044000000000000000002000000020389C002078
:10045000389C0020389C00206CA100200000000087
:100460006CA10020A8A30020B93C00205905002061
:100470004AF26C13C2F200031A780AB9012018700C
:10048000704700BF49F63840C2F2000008B5036863
:100490002BB140F20003C0F2000303B1984708BD3E
:1004A00080B586B000AF786049F67003C2F20003F1
:1004B00007F10C0293E8030082E8030007F10C0344
:1004C000786819464FF0080201F04EF80346FB75B4
:1004D0004AF27C13C2F200031A684AF28013C2F295
:1004E00000031A604AF27813C2F200031A684AF253
:1004F0008413C2F200031A607B7B184603F092F962
:1005000002464AF27C13C2F200031A60BB7B1A4611
:100510004AF27013C2F200031A60FB7B184603F024
:1005200081F902464AF27813C2F200031A603B7C5A
:100530001A464AF27413C2F200031A607B7C1A4610
:1005400049F64C43C2F200031A6007F11807BD4692
:1005500080BD00BF00000000B0B5A2B000AF4FF0FA
:100560000003FB624FF000033B634FF000037B632B
:100570004FF00003BB634FF00003FB634FF0000339
:100580003B644FF000037B644FF00003BB64DFF873
:10059000B037FB64DFF8A8373B65DFF8A4377B652D
:1005A000DFF89C37BB65DFF89837FB654FF47A734B
:1005B0003B664FF000037B664FF00003BB664FF0D5
:1005C0000103FB664FF000033B674FF000037B67BE
:1005D00007F10C034FF000021A6003F104034FF01F
:1005E00000021A6003F104034FF000021A6003F1E5
:1005F00004034FF000021A6003F104034FF00002FD
:100600001A6003F104034FF000021A6003F10403BF
:100610004FF000021A6003F104034FF000021A6069
:1006200003F104034FF00003BB674FF00003FB67C7
:1006300002F03AFA4FF000004FF0030102F064FAC2
:100640004FF001004FF0030102F05EFA4FF002009C
:100650004FF0030102F058FA4FF003004FF003018E
:1006600002F052FA4FF004004FF0030102F04CFA8E
:100670004FF005004FF0030102F046FA4FF006007C
:100680004FF0030102F040FA4FF007004FF0030172
:1006900002F03AFA4AF26C20C2F200004FF416510E
:1006A0004FF0030201F094FA4AF26C20C2F200000B
:1006B00040F2A141C2F200014FF0800201F092F835
:1006C0004FF00003C7F880304FF00003C7F88430C4
:1006D0004AF23030C2F200004FF054014FF00002F5
:1006E00002F054F900F04AFD00F0C2FC04E000BF43
:1006F00002E000BF00E000BF00F08AFC07F1080242
:1007000007F104031046194600F0E8FC0346002BED
:1007100029D0BA684AF6AB23CAF6AA23A3FB021370
:100720004FEA5303BB60BB680A2B02D94FF00A03A0
:10073000BB60BB68184602F0BFFC02460B46104681
:1007400019460FF2F453D3E9002302F02BFD0246C1
:100750000B461046194602F037FF0346C7F88030B3
:100760007B68C7F8843049F66800C2F20000D7F809
:10077000801003F033FB4AF27C13C2F200031B68C3
:100780004FF0000214461846DFF8B81503F05EFA81
:100790000346002B02D04FF001031C46E3B2002BAE
:1007A00010D04AF27C13C2F200031B681846DFF82F
:1007B000981503F043F903461A464AF27C13C2F235
:1007C00000031A604AF27813C2F200031B684FF06C
:1007D000000214461846DFF86C1503F037FA03469A
:1007E000002B02D04FF001031C46E3B2002B10D0C7
:1007F0004AF27813C2F200031B681846DFF8481566
:1008000003F01CF903461A464AF27813C2F20003B9
:100810001A604AF27813C2F200031A684AF27C1393
:10082000C2F200031B681046194603F0E7F90346BD
:10083000002B17D04AF28413C2F200031A684AF25E
:100840008013C2F200031B681046194603F0D6F964
:100850000346002B2FD14FF000037B634FF00003C2
:10086000BB6329E04AF28413C2F200031A684AF219
:100870007813C2F200031B681046194603F0BEF954
:100880000346002B02D14FF000037B634AF2801332
:10089000C2F200031A684AF27C13C2F200031B681A
:1008A0001046194603F0AAF90346002B04D14FF075
:1008B0000003BB6300E000BF49F64C43C2F20003F3
:1008C0001B68012B7FF413AFFB6BFB623B6C3B633C
:1008D00049F64843C2F200031B681B68012B07D08E
:1008E00049F64843C2F200031B681B68032B03D17F
:1008F0004FF00103FB6302E04FF00003FB6349F696
:100900004843C2F200031B681B68022B07D049F65C
:100910004843C2F200031B681B68032B03D14FF04E
:1009200001033B6402E04FF000033B64FB6A002BD1
:1009300002D1FB6B012B05D0FB6A012B0AD1FB6BAB
:10094000002B07D17A6BFB6B13447B634FF00103E1
:100950007B6402E04FF000037B643B6B002B02D111
:100960003B6C012B05D03B6B012B0AD13B6C002B60
:1009700007D1BA6B3B6C1344BB634FF00103BB64FC
:1009800002E04FF00003BB644AF27813C2F20003A6
:100990001A684AF27C13C2F200031B68104619461B
:1009A00003F04CF80346FB653B6DFB64B86B02F04B
:1009B0003DFF03461846F96D02F08CFF03461C46C6
:1009C000786B02F033FF03462046194602F078FEAA
:1009D00003463B657B6C012B02D0BB6C012B05D120
:1009E000786D396D02F06EFE03467B65386D02F05E
:1009F00085FB49F65003C2F20003D3E9002302F05D
:100A0000D1FB02460B46104619464FF000024FF04C
:100A1000804303F5501302F0EFFC02460B461446E8
:100A20001D46786D02F06AFB49F65803C2F20003D6
:100A3000D3E9002302F0B6FB02460B4610461946E6
:100A40004FF000024FF0804303F5501302F0D4FC46
:100A500002460B462046294602F0F2F902460B46B2
:100A600014461D46386DF96C02F02AFE03461846FE
:100A700002F044FB49F66003C2F20003D3E900230D
:100A800002F090FB02460B46104619464FF000025A
:100A90004FF0804303F5501302F0AEFC02460B46C4
:100AA0002046294602F0CCF902460B46104619466C
:100AB00002F0B2FD0346BB6549F64403C2F20003EF
:100AC0001B68184602F0B2FE02464AF27C13C2F2DC
:100AD00000031B681046194602F0FCFE0346184648
:100AE00003F0BEF80346BB66FB6E012B1DD1B86E4A
:100AF00002F09CFE03461846F96D02F0EBFE034639
:100B0000184603F0ADF803467B664FF00003FB6622
:100B10004FF000037B634FF00003BB63884BFB6423
:100B2000874B7B65864B3B6517E049F64403C2F271
:100B300000031B68184602F079FE02464AF2781359
:100B4000C2F200031B681046194602F0C3FE0346BA
:100B5000184603F085F803467B6649F64803C2F25F
:100B600000031B687A6E9A4206DD49F64803C2F21A
:100B700000031B687B6605E07B6E002B02DA4FF0FA
:100B800000037B664AF27013C2F200031B68012B5C
:100B900018D149F64443C2F200031B684FF000022B
:100BA0001A6049F64043C2F200031B684FF000028E
:100BB0001A6049F63C43C2F200031B684FF005027D
:100BC0001A605BE04AF27013C2F200031B68022B4A
:100BD00018D149F64443C2F200031B684FF00002EB
:100BE0001A6049F64043C2F200031B684FF000024E
:100BF0001A6049F63C43C2F200031B684FF00A0238
:100C00001A603BE04AF27013C2F200031B68002B2B
:100C10001AD14FF000037B634FF00003BB63484BD6
:100C2000FB64474B7B65464B3B654FF000037B669F
:100C30004FF00003BB6649F63C43C2F200031B6859
:100C40004FF000021A6019E04FF000037B634FF091
:100C50000003BB633A4BFB64394B7B65384B3B6508
:100C60004FF000037B664FF00003BB6649F63C4340
:100C7000C2F200031B684FF000021A6049F64443B9
:100C8000C2F200031B68BA6E1A6049F64043C2F212
:100C900000031B687A6E1A60D7F88430012B02D0EB
:100CA000022B09D011E049F63C43C2F200031B6855
:100CB0004FF00A021A6010E049F63C43C2F200030A
:100CC0001B684FF005021A6007E049F63C43C2F288
:100CD00000031B684FF000021A6049F64443C2F259
:100CE00000031B68D7F880201A6049F64043C2F21F
:100CF00000031B68D7F880201A607B6E002B05D19B
:100D0000BB6E002B02D14FF00103FB667A6B3B6E8A
:100D10009A42FFF6EEACBA6B3B6E9A42FFF6EBAC32
:100D20007A6B3B6EC3EB02037B63BA6B3B6EC3EB28
:100D30000203BB63E0E400BF00000000006AE8407B
:100D4000000000000000803F0000C842AFF30080B8
:100D500080B483B000AF0346FB804EF20013CEF2A6
:100D60000003B7F906204FEA5212F98801F01F017B
:100D70004FF0010000FA01F143F8221007F10C07CF
:100D8000BD4680BC704700BF80B483B000AF03464F
:100D9000FB804EF20013CEF20003B7F906204FEAB3
:100DA0005212F98801F01F014FF0010000FA01F121
:100DB00002F1200243F8221007F10C07BD4680BC67
:100DC000704700BF80B483B000AF0346FB804EF293
:100DD0000013CEF20003B7F906204FEA5212F98849
:100DE00001F01F014FF0010000FA01F102F1600271
:100DF00043F8221007F10C07BD4680BC704700BFC6
:100E000080B582B000AF0346FB714FF01400FFF7CE
:100E1000BBFF42F20003CEF2040342F20002CEF224
:100E20000402126B22F040021A6345F20003C4F27E
:100E300000034FF000025A6540F20003C4F20A2397
:100E40004FF00002C3F8802140F20003C4F20A23ED
:100E50004FF00002C3F8882140F20003C4F20A23D5
:100E6000FA79C3F8842145F20003C4F200034FF07D
:100E700001021A614FF01400FFF7A4FF07F1080701
:100E8000BD4680BD80B400AF40F20003C4F20A2327
:100E90004FF00102C3F88021BD4680BC704700BFFF
:100EA00080B483B000AF786045F20003C4F2000361
:100EB0007A689A6007F10C07BD4680BC704700BF96
:100EC00080B500AF40F20003C4F20A234FF00102E4
:100ED000C3F888214FF01400FFF73AFF80BD00BF30
:100EE00080B400AF45F20003C4F200034FF00102EA
:100EF0001A61BFF34F8FBD4680BC704780B483B08A
:100F000000AF4FF000037B6011E07A687B6803F16B
:100F100001014AF20823C2F20003595C4AF2082395
:100F2000C2F2000399547B6803F101037B607B6884
:100F3000622BEAD907F10C07BD4680BC704700BFA1
:100F400080B584B000AF78604AF20823C2F2000393
:100F50001B78002B01D1FFF7D1FF7B681A884AF676
:100F600055239A4205D17B685A884AF655239A42FE
:100F700007D04AF2C813C2F200034FF000021A6011
:100F800041E04FF00003BB6033E04FF00003FB6033
:100F900028E0B968D7F80CC0BA6813464FEAC30313
:100FA000C2EB03034FEA43034FEAD37213444FEA01
:100FB00063031A46FB68134403F101027B6833F8AC
:100FC00012004AF2DC12C2F200020B464FEAC303DF
:100FD000C1EB03036344014622F81310FB6803F1DD
:100FE0000103FB60FB68062BD3DDBB6803F1010343
:100FF000BB60BB68022BC8DD4AF2C813C2F2000313
:101000004FF000021A6007F11007BD4680BD00BF17
:1010100080B500AF4AF23030C2F2000000F080FE2E
:101020000346002B02D0012B1DD00DE04AF2C8135D
:10103000C2F200031B68002B17D04AF20820C2F24C
:101040000000FFF77DFF11E04AF23030C2F20000ED
:1010500000F066FE034649F6B800C2F200001946E9
:1010600002F0BCFE02E000BF00E000BF80BD00BF98
:1010700080B400AF4AF2CC13C2F200034FF000027A
:101080001A804AF2CC13C2F200034FF000025A80D9
:101090004AF2CC13C2F200034FF002029A804AF2E5
:1010A000CC13C2F200034FF48272DA804AF2CC13FE
:1010B000C2F200034FF043021A814AF2CC13C2F28B
:1010C00000034FF019025A814AF2CC13C2F2000316
:1010D0004FF018029A81BD4680BC704780B485B03D
:1010E00000AF786039604AF2DC13C2F200035B8A19
:1010F000022B0AD07B684FF000021A603B684FF069
:1011000000021A604FF0010331E04AF2CC13C2F240
:101110000003DB881A464AF2DC13C2F20003DB88C4
:10112000C3EB0203FB60FB6813F1050F0ADAFB68EF
:10113000C3F100031A467B681A603B684FF0020255
:101140001A6012E0FB68052B07DDFA687B681A60FD
:101150003B684FF001021A6007E03B684FF0000265
:101160001A607B684FF000021A604FF001031846C6
:1011700007F11407BD4680BC704700BF80B500AFC3
:101180004FF00000FFF73CFE48F28040C0F21E0026
:10119000FFF786FEFFF776FEFFF792FE80BD00BFE9
:1011A00080B582B002AF4FF0000300934AF23030B6
:1011B000C2F200004FF054014AF20822C2F20002CB
:1011C0004FF03A0301F004FBFFF78AFE4AF2C8131E
:1011D000C2F200034FF001021A60BD4680BD00BF9D
:1011E0004FF0FF30704700BFFEE700BF4FF40053E1
:1011F0004B604FF0000070474FF00100704700BF98
:101200004FF00100704700BF4FF00000704700BF73
:101210004FF0FF30704700BF4FF00000704700BF35
:101220004FF400534B604FF0000070474FF0FF3019
:10123000704700BF08B502F039FD4FF00A030360A4
:101240004FF0FF3008BD00BF08B502F02FFD4FF092
:10125000020303604FF0FF3008BD00BF08B502F085
:1012600025FD4FF01F0303604FF0FF3008BD00BFA6
:1012700008B502F01BFD4FF0160303604FF0FF307E
:1012800008BD00BF08B502F011FD4FF00B0303606D
:101290004FF0FF3008BD00BF08B502F007FD4FF06A
:1012A0000C0303604FF0FF3008BD00BF38B5154692
:1012B0001C464AF28813C2F200031B6883B94AF243
:1012C0009420C2F200004FF461414FF0030200F09D
:1012D0007FFC4AF28813C2F200034FF001021A6049
:1012E0004AF29420C2F200002946224600F034F867
:1012F000204638BD08B54AF28813C2F200035B6885
:1013000043B94AF28813C2F200034AF2A832C2F289
:1013100000025A604AF28813C2F200035A68EFF3DF
:101320000883104483420FD24FF000004FF00101B8
:1013300049F6D802C2F200024FF01903FFF7B6FFD8
:101340004FF00100FFF750FF4AF28813C2F200038A
:101350005860104608BD00BF2DE9F0054AF29423FD
:10136000C2F20003984206D04AF26C23C2F2000394
:10137000984200D000BE01B900BE02B900BE4AF2D8
:101380009423C2F20003984205D04AF26C23C2F2C1
:101390000003984233D1131E18BF012300290CBF4C
:1013A000002303F00103002B29D04FF00007B846BB
:1013B0004FF0100A03681B7D90F80AC043EA0C0C3A
:1013C00080F80AC013F0200F17D00F2A04D9564610
:1013D000BC4643460F4404E00AB943460BE01646B8
:1013E000F6E70468FD5C25700CF1010C03F10103C4
:1013F0009E42F6D86746C3EB0202002ADAD1BDE866
:10140000F0057047F0B44AF29423C2F20003984208
:1014100006D04AF26C23C2F20003984200D000BE0C
:1014200001B900BE4AF29423C2F20003984205D0EB
:101430004AF26C23C2F20003984228D139B30D78E6
:101440002DB34FF0000C66460468237D827A43EA90
:101450000202827213F0200FF7D0C5B1334601EBC0
:101460000C070268EDB2157003F1010303EB0C04E5
:10147000FD5C0F2B8CBF00220122002D0CBF00222F
:1014800002F00102002AECD10DB1A446DCE7F0BC69
:10149000704700BF10B44AF29423C2F2000398428E
:1014A00006D04AF26C23C2F20003984200D000BE7C
:1014B00001B900BE0AB900BE36E0002934D04AF2B4
:1014C0009423C2F20003984205D04AF26C23C2F280
:1014D0000003984228D1C16002614FF000034361CC
:1014E000038919B24FEA511103F01F034FF00102B3
:1014F00002FA03F44EF20013CEF2000301F1600190
:1015000043F8214041F23D71C2F20001016241689D
:10151000C1F88420018908B24FEA501001F01F0180
:1015200002FA01F243F8202010BC70474AF29423DB
:10153000C2F20003984209D04AF26C23C2F20003BF
:10154000984203D000BE4FF00000704703681B7D37
:10155000827A43EA02028272026912B14FF00000FD
:101560007047C3F38010704710B403464AF29420CA
:10157000C2F20000834206D04AF26C20C2F20000A0
:10158000834200D000BE01B900BE02B900BE4AF2DB
:101590009420C2F20000834205D04AF26C20C2F2CD
:1015A000000083422AD1101E18BF012000290CBF61
:1015B000002400F001040CB31C6894F814C09C7A59
:1015C0004CEA04049C721CEA000F17D04FF0000094
:1015D0001C6894F800C001F800C000F101001C680C
:1015E00094F814C09C7A4CEA04049C72824294BF22
:1015F00000240CF00104002CEAD101E04FF00000BF
:1016000010BC704710B44AF29423C2F2000398420F
:1016100007D04AF26C23C2F20003984201D000BE08
:1016200022E003890FFA83FC4FEA5C1C03F01F03DE
:101630004FF0010202FA03F44EF20013CEF200035F
:101640000CF1600C43F82C40046894F804C041EAA3
:101650000C012171018908B24FEA501001F01F01FD
:1016600002FA01F243F8202010BC70474AF294239A
:10167000C2F20003984207D04AF26C23C2F2000380
:10168000984201D000BE704703681A7922EA01022D
:101690001A71038918B24FEA501003F01F034FF07C
:1016A000010202FA03F24EF20013CEF2000300F13F
:1016B000600C43F82C200F2901BF4EF20013CEF22C
:1016C0000003203043F82020704700BF08B54AF2DD
:1016D0009423C2F20003984207D04AF26C23C2F26C
:1016E0000003984201D000BE08BD03681B7A03F0D6
:1016F0000F030C2B20D8DFE803F0071F0D1F131F6B
:10170000191F1F1F1F1F1300436A0BB900BE08BD1E
:10171000984708BD036A0BB900BE08BD984708BDCD
:10172000C3690BB900BE08BD984708BD83690BB9F2
:1017300000BE08BD984708BD00BE08BD10B44AF2FF
:101740009423C2F20003984206D04AF26C23C2F2FC
:101750000003984200D000BEC26802B900BE016911
:1017600001B900BE4AF29423C2F20003984205D0A8
:101770004AF26C23C2F20003984230D1002A2ED0E4
:1017800000292CD003681B7D827A43EA0202827210
:1017900013F0200F1AD002694369C3EB02030F2B29
:1017A00004D94FF0100C4FF0000302E073B19C46D7
:1017B000F9E70268C4684169615C1170426902F12D
:1017C0000102426103F101036345F2D342690369F7
:1017D0009A4201BF002303614268C2F8843010BC02
:1017E000704700BF10B44AF29423C2F2000398423B
:1017F00006D04AF26C23C2F20003984200D000BE29
:1018000001B900BEC02A00D900BE4AF29423C2F238
:101810000003984205D04AF26C23C2F200039842BA
:101820002FD1C02A8CBF0023012300290CBF002325
:1018300003F001032BB3C161036802F0C00242F060
:101840000A021A72038919B24FEA511103F01F03F9
:101850004FF0010202FA03F44EF20013CEF200033D
:1018600001F1600143F821404168C1F880200189FD
:1018700008B24FEA501001F01F0102FA01F243F8DA
:10188000202010BC704700BF4AF29423C2F200032C
:10189000984207D04AF26C23C2F20003984201D06A
:1018A00000BE704729B943684FF00002C3F8102208
:1018B000704743684FF00102C3F81022704700BF21
:1018C000684620F007018D4601B54AF29420C2F225
:1018D0000000FFF7FBFE4EF20013CEF200034FF4C0
:1018E0008062C3F88021BDE801408546704700BF93
:1018F000684620F007018D4601B54AF26C20C2F21D
:101900000000FFF7E3FE4EF20013CEF200034FF4A7
:101910000062C3F88021BDE801408546704700BFE2
:1019200010B44AF29423C2F20003984206D04AF25D
:101930006C23C2F20003984200D000BE01B900BE81
:101940004AF29423C2F20003984205D04AF26C2373
:10195000C2F20003984220D1F9B18161038919B222
:101960004FEA511103F01F034FF0010202FA03F492
:101970004EF20013CEF2000301F1600143F8214062
:101980004168C1F88820018908B24FEA501001F07F
:101990001F0102FA01F243F8202010BC704700BF7B
:1019A00010B44AF29423C2F20003984206D04AF2DD
:1019B0006C23C2F20003984200D000BE01B900BE01
:1019C0004AF29423C2F20003984205D04AF26C23F3
:1019D000C2F20003984224D119B301624FF0000310
:1019E000C3600361038919B24FEA511103F01F0369
:1019F0004FF0010202FA03F44EF20013CEF200039C
:101A000001F1600143F821404168C1F88420018957
:101A100008B24FEA501001F01F0102FA01F243F838
:101A2000202010BC704700BF10B44AF29423C2F2C9
:101A30000003984206D04AF26C23C2F20003984297
:101A400000D000BE01B900BE4AF29423C2F20003E6
:101A5000984205D04AF26C23C2F20003984220D18A
:101A6000F9B14162038919B24FEA511103F01F0322
:101A70004FF0010202FA03F44EF20013CEF200031B
:101A800001F1600143F821404168C1F88C200189CF
:101A900008B24FEA501001F01F0102FA01F243F8B8
:101AA000202010BC704700BF10B403464AF29420B7
:101AB000C2F20000834206D04AF26C20C2F200005B
:101AC000834200D000BE01B900BE02B900BE4AF296
:101AD0009420C2F20000834205D04AF26C20C2F288
:101AE0000000834226D1101E18BF012000290CBF20
:101AF000002400F00104ECB11C6894F814C09C7A36
:101B00004CEA04049C721CF0200F13D00F2A04D955
:101B10004FF010044FF0000002E058B11446F9E70E
:101B20001A6811F800C082F800C000F10100A0425C
:101B3000F6D301E04FF0000010BC704702464AF2B5
:101B40009423C2F20003984209D04AF26C23C2F2F5
:101B50000003984203D000BE4FF0FF0070471368A7
:101B6000187D937A40EA030000F09E004FF00003D6
:101B7000937270474AF29423C2F20003984209D04C
:101B80004AF26C23C2F20003984203D000BE4FF029
:101B9000FF0070470368187E704700BF4AF2942325
:101BA000C2F20003984209D04AF26C23C2F2000349
:101BB000984203D000BE4FF00000704703681B7DC1
:101BC000827A43EA0202827203F06000704700BF2B
:101BD00070B504460D4616464AF29423C2F200033D
:101BE000984206D04AF26C23C2F20003984200D019
:101BF00000BE05B900BE01F099F84AF29423C2F282
:101C000000039C4226D14AF29423C2F200034FF013
:101C100080421A604FF084425A604FF00A021A81E3
:101C200049F65443C2F20003186842F20003CEF2B0
:101C300004031A6B42F080021A634EF20012CEF2D5
:101C400000024FF48061C2F880111A6B22F080020A
:101C50001A6325E040F20003C4F20103236040F25E
:101C60000003C4F2202363604FF00B03238149F685
:101C70005843C2F20003186842F20003CEF2040394
:101C80001A6B42F480721A634EF20012CEF2000216
:101C90004FF40061C2F880111A6B22F480721A634B
:101CA00023684FF000021A7115B94FF001050FE0DB
:101CB000B0FBF5F515F0080F4FEA151518BF013503
:101CC000B5F5803F38BFADB202D300BE4FF001057D
:101CD00063684FF00102C3F89C2123684FEA152284
:101CE0001A712368EDB21D7062684FF00003C2F8EC
:101CF0009C312268167322684FF00E0111726268DF
:101D0000C2F810322361E3606361E36141F23D7226
:101D1000C2F200022262A3616362A37270BD00BFBF
:101D20004AF2BC23C2F20003984206D04AF2303392
:101D3000C2F20003984200D000BE90F83C00704709
:101D400003464AF2BC22C2F20002904206D04AF296
:101D50003032C2F20002904200D000BE196493F803
:101D60003C000128FBD07047036C7BB18B4203D948
:101D7000C1EB0303036470474FF0030380F83C306A
:101D80004FF00003037280F871300364704700BFA6
:101D90004AF2BC23C2F20003984206D04AF2303322
:101DA000C2F20003984200D000BE022904D900BE4E
:101DB0004FF0020303667047016670474AF2BC2386
:101DC000C2F20003984206D04AF23033C2F2000356
:101DD000984200D000BE4166704700BF90F868305E
:101DE0001BB183694FF001029A60704730B583B030
:101DF00004464AF2BC23C2F20003984206D04AF2DB
:101E00003033C2F20003984200D000BE62691379F9
:101E10008DF807309DF80730A3F10803D02B00F2AE
:101E20008E82DFE813F0D1008C028C028C028C02CF
:101E30008C028C028C02D1008C028C028C028C02EF
:101E40008C028C028C0206018C028C028C028C02A9
:101E50008C028C028C02F7008C028C028C028C02A9
:101E60008C028C028C0206018C028C028C028C0289
:101E70008C028C028C0244018C028C028C028C023B
:101E80008C028C028C02F2008C028C028C028C027E
:101E90008C028C028C0253018C028C028C028C020C
:101EA0008C028C028C026E018C028C028C028C02E1
:101EB0008C028C028C027D018C028C028C028C02C2
:101EC0008C028C028C028F018C028C028C028C02A0
:101ED0008C028C028C02D0018C028C028C028C024F
:101EE0008C028C028C02CC018C028C028C028C0243
:101EF0008C028C028C02D0018C028C028C028C022F
:101F00008C028C028C02CC018C028C028C028C0222
:101F10008C028C028C02E6018C028C028C028C02F8
:101F20008C028C028C02BB018C028C028C028C0213
:101F30008C028C028C02E6018C028C028C028C02D8
:101F40008C028C028C02BB018C028C028C028C02F3
:101F50008C028C028C02FF018C028C028C028C029F
:101F60008C028C028C0248028C028C028C028C0245
:101F70008C028C028C0248028C028C028C028C0235
:101F80008C028C028C0248028C028C028C028C0225
:101F90008C028C028C027A028C028C028C028C02E3
:101FA0008C028C028C027A028C028C028C028C02D3
:101FB0008C028C028C028C028C028C028C028C02B1
:101FC0008C028C028C023902A3694FF000025A6124
:101FD000636922791A72A369E26AC3F80021E36A8D
:101FE0000BB9A36203E0012B04BF0023A36394F8A1
:101FF00071301BB14FF0000384F8713094F87230E7
:10200000227A9A4218BF2372AFE1A3694FF001020E
:102010005A61AAE1A3694FF001021A614FF002036D
:1020200084F83C304FF0000323722046FFF7D6FEC1
:102030009BE1A36A616A8B4206D2216AC95C117274
:1020400003F10103A36290E1237A032B05D14FF042
:102050000103E362A269536187E14FF00003237239
:10206000237C03F0010384F870303BB9A3694FF07F
:1020700001051D612046FFF7B1FE13E0638A1AB225
:102080004FEA521203F01F034FF0010101FA03F16E
:102090004EF20013CEF2000302F1200243F82210A8
:1020A0004FF000054FF0000384F83C305CE1A36979
:1020B0004FF001021A614FF0020384F83C304FF0F8
:1020C000000323722046FFF789FE4EE1636B012B6C
:1020D00004D9A3694FF001029A6046E1012B04D1B3
:1020E000A3694FF000029A603FE1A2694FF001033B
:1020F0009360A26913614FF0000384F83C302372AF
:1021000033E1A3694FF001021A614FF0020384F832
:102110003C304FF0000323722046FFF75FFE24E1BE
:10212000A36B117A226BD15403F10103A363626B99
:1021300002F1FF329342C0F01881A3694FF0000210
:102140009A6012E1117A226BA36BD154237C03F0C5
:10215000010384F870303BB9A3694FF001051D619C
:102160002046FFF73BFE13E0638A1AB24FEA521291
:1021700003F01F034FF0010101FA03F14EF20013C7
:10218000CEF2000302F1200243F822104FF00005C6
:102190004FF00003237284F83C30E5E0A3694FF070
:1021A00001029A604FF00003237284F85C3094F8C7
:1021B0007130002B00F0D980A3695A61D5E04FF04F
:1021C000010384F871304FF0040323724FF00003D1
:1021D000A365E360A3695A6932B14FF000025A6106
:1021E0004FF0010384F871304FF0010384F85C3044
:1021F000BBE0216D61B1A36D606D83420DD2127A97
:10220000CA5403F10103A365E36802EB0322E26011
:10221000A26D636D9A42C0F0A880A3694FF00002DE
:102220009A60A2E0237A042B21D1A26D236E9A42F8
:1022300004BFE368E364636EA3B12046216DB4F884
:102240005820984738B92046FFF7C8FDA3694FF0DA
:1022500001029A6011E0A2694FF00003936084F8D4
:1022600068300AE0A3694FF001029A6005E04FF080
:102270000003E3642046FFF7B1FD4FF0000384F84C
:102280005C3094F871301BB1A3694FF001025A61C0
:102290004FF00003237268E04FF000032372E36401
:1022A00094F85C30012B04BF022384F85C30204694
:1022B000FFF794FD59E09DF80730A82B13D14FF09C
:1022C000050323724FF00003E3604FF0010384F82D
:1022D0005C30A3695A6932B14FF000025A614FF085
:1022E000010384F87130E36CA26C934223BF6369ED
:1022F0004FF0FF321A7262693FBF616CC95C1172A4
:10230000013338BFE364E26CA36C9A422DD3A26917
:102310004FF000039360E36427E04FF00003E364B1
:10232000A2694FF00101916084F85C3094F871303B
:102330000BB1A36959614FF00003237215E0A26944
:102340004FF0000353612372E36494F83C30012B97
:1023500004BF022384F83C3094F85C30012B04BFA6
:10236000022384F85C3000E01DB1A3694FF0000245
:10237000DA6063691B798DF8073003B030BD00BFA8
:102380004369197543694FF054021A74704700BFCE
:1023900030B44AF2BC23C2F20003984207D04AF29A
:1023A0003033C2F20003984228D000BE26E011F07C
:1023B000010F11D04EF20013CEF200034FF400448F
:1023C000C3F880414AF2BC22C2F20002D2694FF047
:1023D0000105C2F800521C6011F0020F30D04EF21D
:1023E0000013CEF200034FF48032C3F88021C1699C
:1023F0004FF00100C1F804021A6021E011F0010F52
:102400000DD04EF20013CEF200034FF48022C3F839
:102410008021C4694FF00105C4F800521A6011F020
:10242000020F0DD04EF20013CEF200034FF4002243
:10243000C3F88021C1694FF00100C1F804021A609D
:1024400030BC70474AF2BC23C2F20003984207D066
:102450004AF23033C2F20003984226D000BE24E094
:1024600011F0010F10D04AF2BC23C2F20003DB6965
:102470004FF00002C3F800224EF20013CEF2000328
:102480004FF40042C3F8802011F0020F2DD0C36931
:102490004FF00002C3F804224EF20013CEF2000304
:1024A0004FF48032C3F88020704711F0010F0CD038
:1024B000C3694FF00002C3F800224EF20013CEF2BF
:1024C00000034FF48022C3F8802011F0020F0CD0DB
:1024D000C3694FF00002C3F804224EF20013CEF29B
:1024E00000034FF40022C3F880207047C3694FF007
:1024F0000002C3F818227047C3694FF00102C3F805
:1025000018227047C3694FF00102C3F81C227047BC
:10251000C3694FF00002C3F810227047C3694FF03F
:102520000102C3F81022704783694FF00102C3F81B
:102530008021704783694FF00002C3F88021704703
:10254000C1667047C06E7047684620F007018D462F
:1025500001B54AF2BC20C2F20000FFF747FC4EF280
:102560000013CEF200034FF48042C3F88021BDE88F
:1025700001408546704700BF684620F007018D4640
:1025800001B54AF23030C2F20000FFF72FFC4EF2E4
:102590000013CEF200034FF40032C3F88021BDE8EF
:1025A00001408546704700BF10B500F083FB04462C
:1025B0004FF0010000F082FB204610BD08B500F08E
:1025C0007DFB08BD10B504464AF2BC23C2F20003ED
:1025D000984206D04AF23033C2F20003984200D04B
:1025E00000BEFFF7E1FFA2694FF00003936084F89B
:1025F0006830FFF7E3FF10BD38B504464AF2BC234C
:10260000C2F20003984206D04AF23033C2F200030D
:10261000984200D000BEFFF7C7FFA3694FF0010545
:102620009D6084F86850FFF7C9FF638A1AB24FEAC9
:10263000521203F01F0305FA03F54EF20013CEF217
:10264000000343F8225038BD70B504460D461646C7
:102650004AF2BC23C2F20003984206D04AF2303359
:10266000C2F20003984200D000BEFFF79DFF25652F
:1026700066654FF00003A365FFF7A0FF70BD00BFC4
:1026800070B504460D4616464AF2BC23C2F200035A
:10269000984206D04AF23033C2F20003984200D08A
:1026A00000BEFFF781FF6564A6644FF00003E3649A
:1026B000FFF784FF70BD00BF2DE9F04782B00446EC
:1026C000884617461D46DDF828A0BDF82C609DF809
:1026D00030904AF2BC23C2F20003984206D04AF27C
:1026E0003033C2F20003984200D000BE05B900BEEC
:1026F00007B900BE06B900BEBAF1000F00D100BE96
:102700002B1E18BF0123002E0CBF002303F0010372
:10271000002B5AD0FFF748FF237A13B94FF0030379
:1027200023724FF0030384F872304FEA480363606A
:102730004FF00003E36227626562A362C4F830A031
:102740006663A3634FF0010384F83C3084F8109073
:1027500094F85C30012B0FBF84F87130A36901221B
:102760005A6194F87030012B1DD1A3694FF000021B
:10277000DA6063691B798DF807309DF807308DF8B2
:102780000730638A1AB24FEA521203F01F034FF068
:10279000010101FA03F14EF20013CEF2000302F13F
:1027A000600243F82210638A1AB24FEA521203F011
:1027B0001F034FF0010101FA03F14EF20013CEF2B4
:1027C000000343F82210FFF7F9FE02B0BDE8F087DE
:1027D0002DE9F04182B004460D4616461F469DF88D
:1027E00020804AF2BC23C2F20003984206D04AF28B
:1027F0003033C2F20003984200D000BEFFF7D4FE8F
:10280000237A13B94FF0020323724FF0020384F8C6
:1028100072304FEA450565604FF00103E3622663BD
:1028200067634FF00002A26384F83C3084F81080A4
:1028300094F85C30012B0FBF84F87130A36901223A
:102840005A6194F87030012B1DD1A3694FF000023A
:10285000DA6063691B798DF807309DF807308DF8D1
:102860000730638A1AB24FEA521203F01F034FF087
:10287000010101FA03F14EF20013CEF2000302F15E
:10288000600243F82210638A1AB24FEA521203F030
:102890001F034FF0010101FA03F14EF20013CEF2D3
:1028A000000343F82210FFF789FE02B0BDE8F08173
:1028B0002DE9F04182B004460D4616461F469DF8AC
:1028C00020804AF2BC23C2F20003984206D04AF2AA
:1028D0003033C2F20003984200D000BEFFF764FE1E
:1028E000237A13B94FF0010323724FF0010384F8E8
:1028F000723005FA03F565604FF00002E26226626D
:102900006762A26284F83C3084F8108094F85C30EE
:10291000012B0FBF84F87130A36901225A6194F82A
:102920007030012B1DD1A3694FF00002DA6063699A
:102930001B798DF807309DF807308DF80730638AD2
:102940001AB24FEA521203F01F034FF0010101FACD
:1029500003F14EF20013CEF2000302F1600243F8DD
:102960002210638A1AB24FEA521203F01F034FF08B
:10297000010101FA03F14EF20013CEF2000343F815
:102980002210FFF71BFE02B0BDE8F0812DE9F041F7
:1029900004460E4615464AF2BC23C2F20003984292
:1029A00007D04AF23033C2F2000398424FD000BE43
:1029B0004DE0FFF7F9FD07464AF2BC28C2F20008D5
:1029C00040464FF000014FF0740201F09DF94FF0C6
:1029D0000E03A8F8123042F20003C4F20003C8F854
:1029E000143040F20003C4F20423C8F8183042F255
:1029F0000003CEF204031A6B42F400621A634EF233
:102A00000012CEF200024FF48041C2F880111A6B1E
:102A100022F400621A63A369E3614FEA4606266066
:102A2000C5F38002DA61A369C5F340025A60A36965
:102A300005F001051D60636922781A73A3694FF0E0
:102A400001029A613846FFF7B9FDBDE8F081FFF752
:102A5000ABFD074620464FF000014FF0740201F035
:102A600053F94FF01103638242F20003C4F20103F1
:102A7000636140F20003C4F22423A36142F2000325
:102A8000CEF204031A6B42F480521A634EF2001223
:102A9000CEF200024FF40031C2F880111A6B22F41A
:102AA00080521A63B7E700BF10B442F20003CEF2BF
:102AB00004031A6B42F480421A634FF0000349F694
:102AC000F400C2F200004FF0010C4EF20014CEF2FE
:102AD0000004C25A11B24FEA511102F01F020CFA5F
:102AE00002F201F1600144F8212003F10203402BBE
:102AF000EFD142F20003CEF204031A6B22F48042BB
:102B00001A6310BC704700BF1F2801D900BE704770
:102B100049F6F403C2F2000303EB8000036C196072
:102B2000704700BF1F2801D900BE704740F2000364
:102B3000C4F2262300F5886043F82010704700BFD8
:102B40001F2801D900BE7047012903D0E1B1022935
:102B500040D133E043F20003C4F20103D3F88810FC
:102B60004FF0010202FA00F242EA0102C3F88820A3
:102B700049F6F403C2F2000303EB8000036C1A6809
:102B800042F004021A60704743F20003C4F20103EA
:102B9000D3F888104FF0010202FA00F221EA020293
:102BA000C3F8882049F6F403C2F2000303EB800067
:102BB000036C1A6842F004021A60704749F6F40385
:102BC000C2F2000303EB8000036C1A6822F00402D7
:102BD0001A60704700BE70471F2801D900BE7047B9
:102BE00049F6F403C2F2000303EB8002126C116891
:102BF00041F00801116033F810301AB24FEA521256
:102C000003F01F034FF0010101FA03F14EF200132C
:102C1000CEF2000343F82210704700BF1F2801D9ED
:102C200000BE704749F6F403C2F2000303EB8000D4
:102C3000036C1A6822F008021A6070471F2801D935
:102C400000BE70474FF0010202FA00F143F20003A8
:102C5000C4F20103C3F8801049F6F403C2F2000382
:102C600033F8103019B24FEA511103F01F0302FA82
:102C700003F24EF20013CEF2000301F1600143F8BB
:102C800021207047EFF309800046704780F30988E0
:102C9000704700BFEFF308800046704780F3088854
:102CA000704700BFEFF31280704700BF80F31188B8
:102CB000704700BFEFF31080704700BF80F31088AB
:102CC000704700BFEFF31380704700BF80F3138895
:102CD000704700BFEFF31480704700BF80F3148883
:102CE000704700BF00BA704740BA7047C0BA70471B
:102CF00090FAA0F0704700BFD0E84F0FC0B2704705
:102D0000D0E85F0F80B2704750E8000F704700BFF7
:102D1000C1E8430F18467047C1E8530F1846704783
:102D200041E80000704700BF704700BF30B484B076
:102D300049F6B413C2F20003EC460FCB8CE80F0047
:102D400042F20003CEF204039A6C02F00C0204A9D2
:102D50000A4452F8105C9A6CC2F3011201EB820231
:102D600052F8104C9A6CC2F3811201EB820252F8B5
:102D7000100CD96CDB6CC1F3042101F1010113F4D7
:102D8000005F18BF490040F23023C6F208031A68FA
:102D900022F0704241F2CF13C0F2A1539A4205D102
:102DA0004EF62C73C6F201031A6828E040F61C03A5
:102DB000C6F208031A6844F24133C4F654439A42F7
:102DC0001ED140F64003C6F208031A6822F07F4283
:102DD00040F20033C0F201039A4211D9B2F5003F2C
:102DE00005D241F22C63C6F208031A6807E0B2F577
:102DF000403F05D241F6AC63C6F208031A6822B917
:102E000000BE47F64002C0F27D1249F65043C2F2BE
:102E100000031A60B2FBF5F55D60B2FBF4F49C6050
:102E2000B2FBF0F0D860B2FBF1F119615A6104B065
:102E300030BC704781F0004102E000BF83F00043E6
:102E400030B54FEA41044FEA430594EA050F08BF45
:102E500090EA020F1FBF54EA000C55EA020C7FEA09
:102E6000645C7FEA655C00F0E2804FEA5454D4EB86
:102E70005555B8BF6D420CDD2C4480EA020281EA50
:102E8000030382EA000083EA010180EA020281EA88
:102E90000303362D88BF30BD11F0004F4FEA0131DA
:102EA0004FF4801C4CEA113102D0404261EB4101E9
:102EB00013F0004F4FEA03334CEA133302D052426F
:102EC00063EB430394EA050F00F0A780A4F101042B
:102ED000D5F1200E0DDB02FA0EFC22FA05F2801865
:102EE00041F1000103FA0EF2801843FA05F359414B
:102EF0000EE0A5F120050EF1200E012A03FA0EFCCA
:102F000028BF4CF0020C43FA05F3C01851EBE371F3
:102F100001F0004507D54FF0000EDCF1000C7EEB10
:102F200000006EEB0101B1F5801F1BD3B1F5001F4E
:102F30000CD349085FEA30004FEA3C0C04F101046D
:102F40004FEA445212F5800F80F09A80BCF1004F96
:102F500008BF5FEA500C50F1000041EB045141EA18
:102F6000050130BD5FEA4C0C404141EB010111F419
:102F7000801FA4F10104E9D191F0000F04BF0146C4
:102F80000020B1FA81F308BF2033A3F10B03B3F1A2
:102F900020020CDA0C3208DD02F1140CC2F10C0232
:102FA00001FA0CF021FA02F10CE002F11402D8BF90
:102FB000C2F1200C01FA02F120FA0CFCDCBF41EA5C
:102FC0000C019040E41AA2BF01EB0451294330BD2B
:102FD0006FEA04041F3C1CDA0C340EDC04F1140408
:102FE000C4F1200220FA04F001FA02F340EA0300DF
:102FF00021FA04F345EA030130BDC4F10C04C4F125
:10300000200220FA02F001FA04F340EA0300294604
:1030100030BD21FA04F0294630BD94F0000F83F44E
:10302000801306BF81F480110134013D4EE77FEA31
:10303000645C18BF7FEA655C29D094EA050F08BF7D
:1030400090EA020F05D054EA000C04BF194610465E
:1030500030BD91EA030F1EBF0021002030BD5FEAA2
:10306000545C05D14000494128BF41F0004130BDCA
:1030700014F580043CBF01F5801130BD01F000451E
:1030800045F0FE4141F470014FF0000030BD7FEA91
:10309000645C1ABF194610467FEA655C1CBF0B468C
:1030A000024650EA013406BF52EA033591EA030FA3
:1030B00041F4002130BD00BF90F0000F04BF00219B
:1030C000704730B54FF4806404F132044FF00005CE
:1030D0004FF0000150E700BF90F0000F04BF002147
:1030E000704730B54FF4806404F1320410F00045AD
:1030F00048BF40424FF000013EE700BF42004FEAA8
:10310000E2014FEA31014FEA02701FBF12F07F4324
:1031100093F07F4F81F06051704792F0000F14BF21
:1031200093F07F4F704730B54FF4607401F0004565
:1031300021F0004120E700BF50EA010208BF7047BC
:1031400030B54FF000050AE050EA010208BF7047B1
:1031500030B511F0004502D5404261EB41014FF41A
:10316000806404F132045FEA915C3FF4DCAE4FF01E
:1031700003025FEADC0C18BF03325FEADC0C18BF05
:10318000033202EBDC02C2F1200300FA03FC20FA56
:1031900002F001FA03FE40EA0E0021FA02F11444A3
:1031A000C1E600BF70B54FF0FF0C4CF4E06C1CEAB8
:1031B00011541DBF1CEA135594EA0C0F95EA0C0F2D
:1031C00000F0DEF82C4481EA030621EA4C5123EAA0
:1031D0004C5350EA013518BF52EA033541F48011CF
:1031E00043F4801338D0A0FB02CE4FF00005E1FB82
:1031F00002E506F00042E0FB03E54FF00006E1FBCC
:1032000003569CF0000F18BF4EF0010EA4F1FF040E
:10321000B6F5007F64F5407404D25FEA4E0E6D414E
:1032200046EB060642EAC62141EA55514FEAC5205F
:1032300040EA5E504FEACE2EB4F1FD0C88BFBCF5DB
:10324000E06F1ED8BEF1004F08BF5FEA500E50F18C
:10325000000041EB045170BD06F0004646EA010152
:1032600040EA020081EA0301B4EB5C04C2BFD4EB84
:103270000C0541EA045170BD41F480114FF0000E7D
:10328000013C00F3AB8014F1360FDEBF002001F0EB
:10329000004170BDC4F10004203C35DA0C341BDC65
:1032A00004F11404C4F1200500FA05F320FA04F037
:1032B00001FA05F240EA020001F0004221F000416B
:1032C00010EBD37021FA04F642EB06015EEA430EDE
:1032D00008BF20EAD37070BDC4F10C04C4F120050E
:1032E00000FA04F320FA05F001FA04F240EA0200C1
:1032F00001F0004110EBD37041F100015EEA430E92
:1033000008BF20EAD37070BDC4F1200500FA05F2B1
:103310004EEA020E20FA04F301FA05F243EA020330
:1033200021FA04F001F0004121FA04F220EA02003F
:1033300000EBD3705EEA430E08BF20EAD37070BD85
:1033400094F0000F0FD101F00046400041EB010165
:1033500011F4801F08BF013CF7D041EA060195F047
:10336000000F18BF704703F00046520043EB030301
:1033700013F4801F08BF013DF7D043EA06037047EE
:1033800094EA0C0F0CEA135518BF95EA0C0F0CD0F9
:1033900050EA410618BF52EA4306D1D181EA03013F
:1033A00001F000414FF0000070BD50EA410606BF39
:1033B0001046194652EA430619D094EA0C0F02D17E
:1033C00050EA013613D195EA0C0F05D152EA0336C3
:1033D0001CBF104619460AD181EA030101F00041E1
:1033E00041F0FE4141F470014FF0000070BD41F02A
:1033F000FE4141F4780170BD70B54FF0FF0C4CF404
:10340000E06C1CEA11541DBF1CEA135594EA0C0F22
:1034100095EA0C0F00F0A7F8A4EB050481EA030E6F
:1034200052EA03354FEA013100F088804FEA033356
:103430004FF0805545EA131343EA12634FEA022224
:1034400045EA111545EA10654FEA00260EF00041E5
:103450009D4208BF964244F1FD0404F5407402D237
:103460005B084FEA3202B61A65EB03055B084FEAC8
:1034700032024FF480104FF4002CB6EB020E75EBC5
:10348000030E22BFB61A754640EA0C005B084FEAED
:103490003202B6EB020E75EB030E22BFB61A75466A
:1034A00040EA5C005B084FEA3202B6EB020E75EBB5
:1034B000030E22BFB61A754640EA9C005B084FEA2D
:1034C0003202B6EB020E75EB030E22BFB61A75463A
:1034D00040EADC0055EA060E18D04FEA051545EA29
:1034E00016754FEA06164FEAC30343EA52734FEAD2
:1034F000C2025FEA1C1CC0D111F4801F0BD141EA4B
:1035000000014FF000004FF0004CB6E711F4801FAF
:1035100004BF01430020B4F1FD0C88BFBCF5E06F8F
:103520003FF6AFAEB5EB030C04BFB6EB020C5FEA9F
:10353000500C50F1000041EB045170BD0EF0004EF4
:103540004EEA113114EB5C04C2BFD4EB0C0541EA26
:10355000045170BD41F480114FF0000E013C90E623
:1035600045EA060E8DE60CEA135594EA0C0F08BFE7
:1035700095EA0C0F3FF43BAF94EA0C0F0AD150EAE6
:1035800001347FF434AF95EA0C0F7FF425AF104679
:1035900019462CE795EA0C0F06D152EA03353FF4A1
:1035A000FDAE1046194622E750EA410618BF52EA1E
:1035B00043067FF4C5AE50EA41047FF40DAF52EAF2
:1035C00043057FF4EBAE12E74FEA410212F5001219
:1035D00015D211D56FF47873B3EB625212D94FEA5A
:1035E000C12343F0004343EA505311F0004F23FA44
:1035F00002F018BF404270474FF00000704750EA99
:10360000013005D111F0004008BF6FF00040704755
:103610004FF00000704700BF4FEA4102B2F1E043B3
:1036200024BFB3F5001CDCF1FE5C0DD901F0004CA9
:103630004FEAC0024CEA5070B2F1004F40EB8300F9
:1036400008BF20F00100704711F0804F21D113F125
:103650003872BCBF01F00040704741F480114FEA5E
:103660005252C2F11802C2F1200C10FA0CF320FAE7
:1036700002F018BF40F001004FEAC1234FEAD32304
:1036800003FA0CFC40EA0C0023FA02F34FEA43036E
:10369000CCE77FEA625307D150EA01331EBF4FF0F7
:1036A000FE4040F44000704701F0004040F0FE4012
:1036B00040F40000704700BF80F0004002E000BF0F
:1036C00081F0004142001FBF5FEA410392EA030F0D
:1036D0007FEA226C7FEA236C6AD04FEA1262D2EB57
:1036E0001363C1BFD218414048404140B8BF5B425C
:1036F000192B88BF704710F0004F40F4000020F0F5
:103700007F4018BF404211F0004F41F4000121F00A
:103710007F4118BF494292EA030F3FD0A2F1010254
:1037200041FA03FC10EB0C00C3F1200301FA03F192
:1037300000F0004302D5494260EB4000B0F5000FB5
:1037400013D3B0F1807F06D340084FEA310102F174
:103750000102FE2A51D2B1F1004F40EBC25008BF26
:1037600020F0010040EA03007047490040EB0000F0
:1037700010F4000FA2F10102EDD1B0FA80FCACF11F
:10378000080CB2EB0C0200FA0CF0AABF00EBC2501E
:1037900052421843BCBFD0401843704792F0000F0C
:1037A00081F4000106BF80F400000132013BB5E75F
:1037B0004FEA41037FEA226C18BF7FEA236C21D0D5
:1037C00092EA030F04D092F0000F08BF084670473A
:1037D00090EA010F1CBF0020704712F07F4F04D108
:1037E000400028BF40F00040704712F100723CBF1B
:1037F00000F50000704700F0004343F0FE4040F445
:10380000000070477FEA226216BF08467FEA236302
:103810000146420206BF5FEA412390EA010F40F4ED
:10382000800070474FF0000304E000BF10F0004339
:1038300048BF40425FEA000C08BF704743F0964320
:1038400001464FF000001CE050EA010208BF70473B
:103850004FF000030AE000BF50EA010208BF7047C2
:1038600011F0004302D5404261EB41015FEA010CD7
:1038700002BF84460146002043F0B64308BFA3F1CF
:103880008053A3F50003BCFA8CF2083AA3EBC253B1
:1038900010DB01FA02FC634400FA02FCC2F12002D0
:1038A000BCF1004F20FA02F243EB020008BF20F007
:1038B0000100704702F1200201FA02FCC2F120026D
:1038C00050EA4C0021FA02F243EB020008BF20EA62
:1038D000DC7070474FF0FF0C1CEAD0521EBF1CEA90
:1038E000D15392EA0C0F93EA0C0F6FD01A4480EA7E
:1038F000010C400218BF5FEA41211ED04FF0006367
:1039000043EA501043EA5111A0FB01310CF0004092
:10391000B1F5000F3EBF490041EAD3715B0040EAB8
:10392000010062F17F02FD2A1DD8B3F1004F40EB88
:10393000C25008BF20F00100704790F0000F0CF05B
:10394000004C08BF49024CEA502040EA51207F3A1F
:10395000C2BFD2F1FF0340EAC250704740F40000FA
:103960004FF00003013A5DDC12F1190FDCBF00F0EB
:1039700000407047C2F10002410021FA02F1C2F199
:10398000200200FA02FC5FEA310040F1000053EA35
:103990004C0308BF20EADC70704792F0000F00F083
:1039A000004C02BF400010F4000F013AF9D040EA89
:1039B0000C0093F0000F01F0004C02BF490011F41D
:1039C000000F013BF9D041EA0C018FE70CEAD1531B
:1039D00092EA0C0F18BF93EA0C0F0AD030F0004C9B
:1039E00018BF31F0004CD8D180EA010000F000404F
:1039F000704790F0000F17BF90F0004F084691F00D
:103A0000000F91F0004F14D092EA0C0F01D1420246
:103A10000FD193EA0C0F03D14B0218BF084608D10F
:103A200080EA010000F0004040F0FE4040F4000059
:103A3000704740F0FE4040F4400070474FF0FF0CEC
:103A40001CEAD0521EBF1CEAD15392EA0C0F93EA33
:103A50000C0F69D0A2EB030280EA010C49024FEA85
:103A6000402037D04FF0805343EA111143EA10133E
:103A70000CF000408B4238BF5B0042F17D024FF4F6
:103A8000000C8B4224BF5B1A40EA0C00B3EB510FD1
:103A900024BFA3EB510340EA5C00B3EB910F24BFBA
:103AA000A3EB910340EA9C00B3EBD10F24BFA3EB3F
:103AB000D10340EADC001B0118BF5FEA1C1CE0D107
:103AC000FD2A3FF650AF8B4240EBC25008BF20F0BA
:103AD000010070470CF0004C4CEA50207F32C2BF0E
:103AE000D2F1FF0340EAC250704740F400004FF0AB
:103AF0000003013A37E792F0000F00F0004C02BFDC
:103B0000400010F4000F013AF9D040EA0C0093F0A5
:103B1000000F01F0004C02BF490011F4000F013BFF
:103B2000F9D041EA0C0195E70CEAD15392EA0C0F67
:103B300008D142027FF47DAF93EA0C0F7FF470AF9F
:103B4000084676E793EA0C0F04D14B023FF44CAFE2
:103B500008466EE730F0004C18BF31F0004CCAD177
:103B600030F000427FF45CAF31F000437FF43CAFB3
:103B70005FE700BF4FF0FF3C06E000BF4FF0010CD5
:103B800002E000BF4FF0010C4DF804CD4FEA4002B7
:103B90004FEA41037FEA226C18BF7FEA236C11D001
:103BA00001B052EA530C18BF90EA010F58BFB2EBB4
:103BB000030088BFC81738BF6FEAE17018BF40F034
:103BC000010070477FEA226C02D15FEA402C05D1E8
:103BD0007FEA236CE4D15FEA412CE1D05DF8040B6D
:103BE000704700BF844608466146FFE70FB5FFF700
:103BF000C9FF002848BF10F1000F0FBD4DF808EDB8
:103C0000FFF7F4FF0CBF012000205DF808FB00BFA8
:103C10004DF808EDFFF7EAFF34BF012000205DF802
:103C200008FB00BF4DF808EDFFF7E0FF94BF01204F
:103C300000205DF808FB00BF4DF808EDFFF7D2FF4C
:103C400094BF012000205DF808FB00BF4DF808ED8F
:103C5000FFF7C8FF34BF012000205DF808FB00BF5C
:103C60004FEA4002B2F1FE4F0FD34FF09E03B3EB89
:103C700012620DD94FEA002343F0004310F0004FC9
:103C800023FA02F018BF404270474FF0000070471F
:103C900012F1610F01D1420205D110F0004008BFBE
:103CA0006FF0004070474FF00000704749F66843DE
:103CB000C2F200031868704770B549F6284649F605
:103CC0002845C2F20006C2F20005761BB61006D0E7
:103CD000002455F8243001349847A642F9D849F613
:103CE000284549F62C46C2F20005C2F20006761BB2
:103CF00005F08EFFB61006D0002455F824300134AC
:103D00009847A642F9D870BD032AC9B230B407D883
:103D100022B10023C15401339342FBD130BC704720
:103D200000EB020C034601E003F8011C03F003045E
:103D30001A460133002CF7D14FF00133C2EB0C04CB
:103D400003FB01F31FE042F8403C42F83C3C42F8E0
:103D5000383C42F8343C42F8303C42F82C3C42F8C3
:103D6000283C42F8243C42F8203C42F81C3C42F8F3
:103D7000183C42F8143C42F8103C42F80C3C42F823
:103D8000083C42F8043C154640323F2CA4F1400464
:103D9000D9DC2A46C5EB0C0407E042F8103C42F897
:103DA0000C3C42F8083C42F8043C154610320F2CFB
:103DB000A4F11004F1DC2A46C5EB0C0501E042F841
:103DC000043C14460432032DA5F10405F7DC01E0A0
:103DD00004F8011B6445FBD3A0E700BF0FB449F60C
:103DE0006843C2F2000310B51C6882B024B1A36915
:103DF00013B9204602F094FE204605AC049A2346EF
:103E00008168019400F02AF802B0BDE8104004B0C7
:103E1000704700BF0EB410B5044683B018B1836973
:103E20000BB902F07DFE204606AC059A2346816858
:103E3000019400F013F803B0BDE8104003B07047E0
:103E4000936810B5144613B95360184610BD02F0BC
:103E5000CBFF00236360A36010BD00BF2DE9F04FCE
:103E6000ADF5AE6D83B00E4615469A46814603F019
:103E7000ABF900681D90B9F1000F04D0D9F81830E3
:103E8000002B00F05A8149F64023C2F200039E4203
:103E900008BFD9F8046010D049F66023C2F20003CD
:103EA0009E4208BFD9F8086007D049F68023C2F2C5
:103EB00000039E4208BFD9F80C60B6F80CC01FFA88
:103EC0008CF313F4005F09D14CF4005C726EA6F819
:103ED0000CC01FFA8CF322F40052726613F0080F24
:103EE00001F001833269002A01F0FD8203F01A0318
:103EF0000A2B00F0E080002212921A9200231C92FA
:103F00000DF59C641192043419920DF5A4621B9373
:103F100004320DF59063283203331892079300237F
:103F2000CDF84C45CDF85035CDF854352B781A1EC8
:103F300018BF0122252B0CBF002202F0010232B370
:103F40002F4617F8013F1A1E18BF0122252B0CBF60
:103F5000002202F00102002AF3D1B7EB050808BFE6
:103F60003D4614D0C4F80480DDF85035DDF8542502
:103F700001332560072B4244CDF85035CDF8542548
:103F800078DC083411983D46404411903B78002B72
:103F90007CD06B1C4FF0FF372B204FF0200C002102
:103FA0004FF000020F918DF87725CDF82CA06A789C
:103FB0000A915D1CA2F12003582B00F28682DFE8F3
:103FC00013F0980284028402A40284028402840210
:103FD000840284028402AD02BA028402C102CA02CF
:103FE0008402E702F002F002F002F002F002F002B6
:103FF000F002F002F002840284028402840284024D
:10400000840284028402840284020403260384025C
:10401000260384028402840284026A0384028402E6
:1040200081048402840284028402840214048402CF
:1040300084022F04840284028402840284028402A3
:1040400084028402840284024F046504260326034A
:1040500026037303650484028402790384028503C2
:104060009603AD030A048402CC038402F4038402A1
:104070008402C0000DF5A862484631460C32FFF7B5
:10408000DFFE58B90DF59C6404347BE7DDF8543548
:10409000002B41F092810023CDF85035B38913F005
:1040A000400F02D04FF0FF30119011985FB00DF526
:1040B000806DBDE8F08FB6F90E30002BFFF61BAF18
:1040C000376A2CF0020CD6F828E00DF58E64ADF8B6
:1040D00088C40C34B6F80EC02A46534648462146DA
:1040E0001FADCDF89C740027CDF88C54CDF87C54CE
:1040F0004FF48065CDF8A4E4ADF88AC4CDF89054AF
:10410000CDF89474CDF88454FFF7A8FE00281190E0
:1041100009DB2146484602F093FB1199B84218BFCB
:104120004FF0FF311191BDF8883413F0400FBCD02F
:10413000B38943F04003B381B7E7484602F0F0FC8F
:10414000A1E60A9849F6102CC2F2000C169210F063
:10415000200FCDF864C000F06E830B99CB1D23F0C7
:10416000070303F108020B92D3E900AB5AEA0B02F2
:104170000A9B0CBF00220122134240F06B860223EF
:104180004FF000018DF87715002FA2BFDDF828C091
:104190002CF0800CCDF828C0002F18BF42F001028F
:1041A000002A00F01E84012B00F0DE85022B00F0B7
:1041B000C185189913914FEADA084FEADB0C48EAF7
:1041C0004B780AF00700E346C24630305AEA0B0249
:1041D00001F8010DEFD1DDF828C013911CF0010F9B
:1041E00040F08C861898401A10909DF87735109AF8
:1041F0001797BA42B8BF3A460C9213B10C9A0132E3
:104200000C920A9B0A9813F0020315931EBFDDF867
:1042100030C00CF1020CCDF830C010F084001490C6
:104220004DD10F990C9A8F1A002F48DD102F49F6A7
:10423000CC18D8BFC2F2000830DDC2F200080DF57C
:10424000A86B43464FF0100AA8460BF10C0B1D4615
:1042500002E0103F102F1EDDC4F804A0DDF8503539
:10426000DDF85425013325601032072BCDF8542595
:1042700004F10804CDF85035EBDD0DF59C6448469B
:1042800031465A460434FFF7DBFD00287FF406AFC1
:10429000103F102FE0DC2B46454698466760DDF85E
:1042A0005035C4F800805A1CDDF85435CDF850253F
:1042B000DB19072ACDF8543500F38A8508349DF8B8
:1042C00077359BB101236360DDF850350DF5AE62A3
:1042D00007322260DDF854250133CDF85035013224
:1042E000072BCDF8542500F3B6840834159B9BB1F9
:1042F00002236360DDF850350DF5AE6204322260B2
:10430000DDF854250133CDF850350232072BCDF8B6
:10431000542500F3AF840834DDF850C0BCF1800FA1
:1043200000F07683179B109A9F1A002F43DD102F01
:10433000DFF88C8B2EDD43460DF5A86BA8464FF0B9
:10434000100A0BF10C0B1D4602E0103F102F1EDD72
:10435000C4F804A0DDF85035DDF85425013325609C
:104360001032072BCDF8542504F10804CDF8503550
:10437000EBDD0DF59C64484631465A460434FFF7A0
:104380005FFD00287FF48AAE103F102FE0DC2B4643
:10439000454698466760DDF85035DDF85425013311
:1043A000C4F80080D219072BCDF85425CDF850352C
:1043B00000F342840834DDF828C01CF4807F40F00C
:1043C0009D82109813996060DDF85035DDF8542512
:1043D000013321601218072BCDF85035D8BF04F1F6
:1043E0000803CDF8542500F39B830A9911F0040FBC
:1043F00055D00F9ADDF830C0CCEB0207002F4EDD10
:10440000102F49F6CC18D8BFC2F200082EDDC2F238
:1044100000080DF5A86A42461024A8460AF10C0AC5
:10442000154602E0103F102F1DDD5C60DDF85025C1
:10443000DDF8541501321D601031072ACDF85415EE
:1044400003F10803CDF85025ECDD484631465246CD
:10445000FFF7F6FC0DF59C63043300287FF41EAED5
:10446000103F102FE1DC2A46454690465F60DDF89C
:104470005025C3F80080DDF854350132CDF85025C1
:10448000FB18072ACDF854350BDD0DF5A862484618
:1044900031460C32FFF7D4FC00287FF4FFADDDF885
:1044A000543511980C9A0F998A42ACBF8018401865
:1044B0001190002B40F042830DF59C640023DDF841
:1044C0002CA00434CDF8503530E51692002A3FF484
:1044D000DDAD0DF5A46001234FF0000C04300C930A
:1044E0008DF824258DF877C513901093002117912E
:1044F00087E69DF87735002B40F02B850B992B46EE
:104500008DF877C52A780B9153E50B990A9B43F0F8
:1045100001030A932B462A780B914AE50B990B9AD3
:1045200009680F91111D0F9B002BC0F280872A781C
:104530002B460B913DE50B992B468DF877052A7894
:104540000B9136E50B990A9B43F004030A932B4623
:104550002A780B912DE52B4613F8012B2A2A01F01E
:10456000CD80A2F13001092901F237800235002700
:1045700015F8012C07EB87072B46013501EB4707A0
:10458000A2F130010929F3D947EAE7771D4611E581
:104590000B992B460A9A42F080020A922A780B91D4
:1045A00007E5A2F130014FF000082B4608EB880820
:1045B00013F8012B01EB4808A2F130011D4609292F
:1045C000F3D9CDF83C801D46F4E40A9B169243F0E3
:1045D00010030A93DDF828C01CF0200F00F05D8165
:1045E0000B98C31D23F0070303F108010B91D3E9D6
:1045F00000ABBAF1000F7BF10002C0F29B845AEAD3
:104600000B034FF001030CBF00220122BCE50A9806
:10461000169210F0080F00F0ED840B99CB1D23F0DB
:10462000070303F108020B92D3F80480D3F800A02B
:10463000CDF86C80CDF848A05046414604F030F9E2
:104640008346002800F09985504600220023414609
:1046500004F05CFD002840F00B859DF8773549F6A5
:10466000042149F600221698C2F20001C2F20002AB
:104670004FF0030C4728D8BF114613910A99CDF883
:1046800030C021F08001CDF840C00A914FF0000CFD
:10469000CDF85CC0B1E50B990A9B43F008030A937F
:1046A0002B462A780B9184E40A9941F040010A9143
:1046B0000B993CE72A786C2A00F055850B990A9BE8
:1046C0000B9143F010030A932B4672E40A9A12F0FE
:1046D000200F00F082840B98119A036810464FEA6D
:1046E000E0710B9AC3E9000102F1040A1EE416927C
:1046F0000A9A12F0200300F0EF800B9BDA1D0023D2
:1047000022F0070202F1080CCDF82CC0D2E900AB70
:104710005AEA0B000CBF0022012231E50B987821E8
:10472000DDF828C01691036849F610208DF875153C
:1047300030218DF874154CF0020C0B991A1E18BF1D
:104740000122C2F200009A464FF0000B0431CDF86E
:1047500028C0199002230B9112E50B9B16924FF083
:104760000002181D8DF877251B680B901393002B02
:1047700000F0C686002F1398C0F28F8600213A46BB
:1047800003F0A6F80346002800F0F58613981B1ADC
:104790001093BB4240F3BE851097002127EAE777CC
:1047A0009DF877350C97179127E5DDF828C016920C
:1047B0001CF0200F23D00B980123C21D22F007020A
:1047C00002F108010B91D2E900AB5AEA0B020CBFCF
:1047D00000220122D4E40A992B4641F020010A91DB
:1047E0000B992A780B91FFF7E4BB0A9B169243F0D2
:1047F00010030A93DDF828C01CF0200FDBD10A9BC0
:1048000013F0100F00F0D5830B980123021D0B92BB
:1048100001680A1E18BF01228A464FF0000BAFE460
:104820000A98169249F6EC1210F0200FC2F200021C
:1048300019927FF492AC0A9B13F0100F40F01A8388
:104840000A9A12F0400F00F015830B9B03F1040C41
:10485000CDF82CC0B3F800A0D2464FF0000B85E491
:1048600016920DF5A4610B9A4FF0010C4FF0000069
:104870000431CDF830C0136804328DF877050B92FF
:104880001391CDF840C08DF824352FE6DDF828C00F
:1048900016921CF0200F7FF4A3AE0A9A12F0100FAC
:1048A00040F0F1820A9A12F0400F00F0EC820B9B6C
:1048B00003F1040CCDF82CC0B3F900A0D2464FEAA6
:1048C000EA7B96E60A99169241F010010A910A9A3B
:1048D00012F020037FF411AF0A9911F0100200F0DA
:1048E00054830B9A02F1040CCDF82CC011680A1EF7
:1048F00018BF01228A464FF0000B41E4169A652A40
:1049000040F328811298002200231B9904F0F4FB45
:10491000002800F0BE8101236360DDF8502549F6D0
:104920002C23C2F200032360DDF854350132CDF8A8
:1049300050250133072ACDF85435D8BF04F10803B8
:1049400000F39B83DDF870251A98824204DB0A99F4
:1049500011F0010F3FF449AD01225A60DDF85025F6
:10496000DDF8541501321D980131072ACDF8541590
:104970001860CDF8502500F35F8508331A994F1E53
:10498000002F7FF732AD102FDFF8348540F3EA8235
:1049900042460DF5A86AA84610240AF10C0A1546ED
:1049A00003E0103F102F40F3DA825C60DDF8502501
:1049B000DDF8541501321D601031072ACDF8541569
:1049C00003F10803CDF85025EBDD48463146524649
:1049D000FFF736FA0DF59C6304330028E1D0FFF7AA
:1049E0005DBB7BB90A9911F0010F0BD00DF5A462E4
:1049F000302304328DF84B35273201231392109364
:104A0000FFF7F3BB1898002110911390FFF7EDBB4F
:104A10000F980C99471A002F7FF784AC102FDFF8FE
:104A2000A0842EDD43460DF5A86BA8464FF0100A72
:104A30000BF10C0B1D4602E0103F102F1EDDC4F8D9
:104A400004A0DDF85035DDF854250133256010321F
:104A5000072BCDF8542504F10804CDF85035EBDDD3
:104A60000DF59C64484631465A460434FFF7E8F990
:104A700000287FF413AB103F102FE0DC2B46454697
:104A800098466760DDF85035C4F800805A1CDDF8A0
:104A90005435CDF85025DB19072ACDF8543500F3ED
:104AA0003A8208343EE413996360DDF850252160B2
:104AB000DDF854150132CDF85025CB18072ACDF872
:104AC000543500F3498508341D9A0123DDF87075CB
:104AD0006360DDF850352260DDF854250133CDF8F0
:104AE00050350132072BCDF85425D8BF04F1080307
:104AF00000F323851398DDF87025C7191A981F60F5
:104B0000811A5960DDF854158A1ADDF8501512180B
:104B1000CDF854250131CDF85015072940F33282E4
:104B20000DF5A862484631460C32FFF789F9002896
:104B30007FF4B4AA0DF59C63043356E40DF5A86226
:104B4000484631460C32FFF77BF900283FF4B4ACFD
:104B5000FFF7A4BA1A9901294CDD01236360DDF83F
:104B60005035DDF85425013313980132072BCDF869
:104B700054252060CDF8503500F3B281083401236C
:104B80006360DDF85035DDF8542501331D9901329D
:104B9000072BCDF854252160CDF8503500F39281D4
:104BA00008341298002200231B9904F0A5FA00286B
:104BB00040F01D811A9B13985A1E6260DDF8503533
:104BC000411C2160DDF854150133CDF850358A18A9
:104BD000072BCDF8542521DC08341C9B0DF5AC6265
:104BE0001C9822606360DDF85035DDF854250133F0
:104BF000FFF7F0BB0A9A12F0010FAED1139A01230E
:104C00006360DDF850352260DDF854250133CDF8BE
:104C100050350132072BCDF85425DDDD0DF5A862A6
:104C2000484631460C32FFF70BF900287FF436AACC
:104C30000DF59C640434D0E70DF5A8624846314672
:104C40000C32FFF7FDF800287FF428AA0DF59C64CC
:104C50000434FFF7B0BB0DF5A862484631460C326C
:104C6000FFF7EEF800287FF419AA0DF59C640434D0
:104C7000FFF73CBB0DF5A862484631460C32FFF702
:104C8000DFF800287FF40AAA0DF59C640434FFF7CE
:104C900043BBDDF87035002B40F3FD811A998B4240
:104CA000FFF601AF139A6160DDF850352260DDF840
:104CB00054250133CDF850355218072BCDF8542523
:104CC000D8BF04F1080300F32984DDF870451A9871
:104CD000241A002C40F3B381102CDFF8E48140F358
:104CE0009D8142460DF5A86AA84610270AF10C0AD4
:104CF000154603E0103C102C40F38D815F60DDF819
:104D00005025DDF8541501321D601031072ACDF809
:104D1000541503F10803CDF85025EBDD4846314624
:104D20005246FFF78DF80DF59C6304330028E1D05F
:104D3000FFF7B4B9189A1998134613920AF00F02A4
:104D40004FEA1A1141EA0B714FEA1B1C825C8A463A
:104D5000E3465AEA0B0C03F8012DEFD11898139390
:104D6000C01A1090FFF741BA09220023524573EB95
:104D70000B00DDF860801FD223464446B8461F462C
:104D8000504659460A22002304F0E8F90023504611
:104D9000594602F1300C0A2204F801CD04F0DEF984
:104DA0000922002382468B46524573EB0B03E7D35F
:104DB0003B464746A0461C4608F1FF300AF1300A40
:104DC000139008F801AC1899091A1091FFF70DBA61
:104DD0000DF5A862484631460C32FFF731F800283D
:104DE0007FF45CA90DF59C640434FFF768BA1A9946
:104DF0004F1E002F7FF7F1AE102FDFF8C4804EDD7D
:104E000043460DF5A86BA8464FF0100A0BF10C0BAA
:104E10001D4602E0103F102F3EDDC4F804A0DDF86F
:104E20005035DDF85425013325601032072BCDF8BD
:104E3000542504F10804CDF85035EBDD0DF59C64E4
:104E4000484631465A460434FEF7FAFF0028E1D0BE
:104E5000FFF724B916983021DDF828C0012202237B
:104E60008DF874154CF0020C8DF87505CDF828C03E
:104E7000FFF786B90B98011D03680B919A464FF016
:104E8000000BFFF773B90B98011D03680B919A464D
:104E90004FEAEA7BFFF7ADBB2B4645469846676075
:104EA000DDF85035DDF854250133C4F80080D219FF
:104EB000072BCDF85425CDF850357FF78DAEADE6F4
:104EC000DC9900200DF5A862484631460C32FEF709
:104ED000B7FF00287FF4E2A80DF59C64043460E677
:104EE0000DF5A862484631460C32FEF7A9FF0028AE
:104EF0007FF4D4A80DF59C64043440E6302800F01B
:104F0000EC821398302300F8013D18991390091A88
:104F10001091FFF76AB90DF5A862484631460C3288
:104F2000FEF78EFF00287FF4B9A80DF59C640434C9
:104F3000FFF7F8B9DAF1000A6BEB4B0B2D235AEAB5
:104F40000B0C8DF877350CBF002201220123FFF7EF
:104F50001BB90B992B462A780B91FFF72AB82A46E2
:104F6000454690465F60DDF85025DDF85415013266
:104F7000C3F80080C919072ACDF85415CDF850257B
:104F80003FF7CEAD0833FFF730BA0A9810F0400370
:104F900000F0ED810B9913460A1D0B92B1F800A0A9
:104FA000BAF1000218BF0122D2464FF0000BFFF702
:104FB000E7B80A9B13F0400F00F0CC810B98012357
:104FC000011D0B91B0F800A0BAF1000218BF012238
:104FD000D2464FF0000BFFF7D3B80A9B13F0100F27
:104FE00000F0A4810B98119900F1040A036819607C
:104FF000FEF79CBF0B98C31D23F0070303F10801C4
:105000000B91D3F80480D3F800A0CDF86C80CDF8D4
:1050100048A0FFF711BB2A46454690465C60DDF884
:105020005025DDF854150132C3F800800919072A0C
:10503000CDF85415CDF8502500F3EA8208330A99CB
:1050400011F0010F3FF4D1A901225A60DDF850257B
:10505000DDF8541501321D980131072ACDF8541599
:105060001860CDF850253FF75BAD0833FFF7BDB9A9
:105070002D238DF87735FFF7F2BA0DF5A862484673
:1050800031460C32FEF7DCFE00287FF407A80DF550
:105090009C63043356E401236360DDF8502549F630
:1050A0002C23C2F200032360DDF854350132CDF821
:1050B00050250133072ACDF85435D8BF04F1080331
:1050C00000F38781DDF870253AB91A9A2AB9DDF81C
:1050D00028C01CF0010F3FF488A901225A60DDF8B6
:1050E0005025DDF8541501321D980131072ACDF8FD
:1050F00054151860CDF8502500F379810833DDF898
:1051000070757F42002F40F3B381102FDFF8508677
:1051100040F3D28142460DF5A86AA84610240AF150
:105120000C0A154603E0103F102F40F3C2815C606B
:10513000DDF85025DDF8541501321D601031072AC5
:10514000CDF8541503F10803CDF85025EBDD4846A2
:1051500031465246FEF774FE0DF59C630433002879
:10516000E1D0FEF79BBF0B996B1C0A9A42F020021C
:105170000A926A780B91FEF71CBF5046414603F035
:10518000A1FB002840F0FF80B7F1FF3F00F0518203
:105190001698672814BF00230123472808BF43F04F
:1051A000010313B1002F08BF01270DF5AB60434683
:1051B00052460A99C0E90023DDF85C3541F480715C
:1051C0000A91002BC0F2648200211791169866287C
:1051D00014BF00230123462808BF43F001031093A6
:1051E000002B00F0D181BC460323CDF830A00DF593
:1051F000AE61CDF834804846009302910DF5AC6164
:10520000DDE90C230C31CDF804C003910DF5AD613F
:10521000CDF824C0049100F0C7FB169ADDF824C035
:10522000B2F1670318BF0123472A0CBF002303F024
:105230000103139033B90A9B13F0010F08BFDDF887
:1052400068B516D01398109900EB0C0B31B10378A8
:10525000302B00F0DA80DDF870359B445046002298
:105260000023414603F048FF002800F0C281CDF83A
:1052700068B5169A1398672A14BF00230123472A9A
:1052800008BF43F00103C0EB0B001A90002B00F0A5
:105290008A81DDF8701511F1030F109102DB8F4246
:1052A00080F28C81169A023A16921099169A4B1E29
:1052B000CDF87035002B8DF86025C0F234822B229A
:1052C0008DF86125092B00F3B6810DF5AC62303302
:1052D00004328DF8633530238DF862350DF5AC63FB
:1052E0001A981A99D31A18181C930129109040F390
:1052F000108210980130109020EAE0710C911798FC
:10530000002800F06E812D2300218DF8773517914C
:10531000FEF774BF109A4FF0000C9DF8773522EA23
:10532000E272CDF85CC00C92FEF767BF0A9A12F0E9
:10533000400F17BF0B980B9A119900F1040A11BF87
:10534000036802F1040A1368119814BF19801860E9
:10535000FEF7ECBD0B9A131D0B93116801230A1E77
:1053600018BF01228A464FF0000BFEF709BF0B98C9
:10537000021D0B9201680A1E18BF01228A464FF0D7
:10538000000BFEF7FDBE49F60C2249F608231699DC
:10539000C2F20003C2F2000203204729D8BF1A4616
:1053A00013920A9A0C9022F08002CDF85CB00A9217
:1053B0009DF877351090FEF720BF0DF5A86248469E
:1053C00031460C32FEF73CFD00287EF467AEFEF756
:1053D00062BE0DF5A862484631460C32FEF730FD3C
:1053E00000287EF45BAE0DF59C6304336AE60DF590
:1053F000A862484631460C32FEF722FD00287EF4B2
:105400004DAE0DF59C63043379E65046002200232F
:105410004146CDF824C003F06FFEDDF824C000281B
:105420007FF419AFCCF10103CDF8703515E70F9A71
:1054300052420F92FFF787B80DF5A86248463146F1
:105440000C32FEF7FDFC00287EF428AE0DF59C63BF
:105450000433FFF793BA0DF5A862484631460C3283
:10546000FEF7EEFC00287EF419AE0DF59C630433C4
:105470001A9913985960DDF85025DDF85415186015
:1054800001321A98CDF850250918072ACDF854157D
:105490003FF746AB0833FEF7A8BF0021179103F092
:1054A00069FB9DF8773520EAE07210900C92FEF7C8
:1054B000A4BE2A46454690465F60DDF85025DDF8DB
:1054C00054150132C3F80080C919072ACDF85415C4
:1054D000CDF85025BFDC0833CAE7189A1399511A42
:1054E0001091FEF782BE4846314600F049F9002887
:1054F0007EF4D8ADB6F80CC01FFA8CF3FEF7F6BCFC
:10550000062F28BF062749F62421C2F2000127EA08
:10551000E772109713910C92FEF7E8BF0DF5A862A1
:10552000484631460C32FEF78BFC00287EF4B6ADBF
:105530000DF59C630433FFF7C8BB0DF5A862484620
:1055400031460C32FEF77CFC00287EF4A7AD0DF549
:105550009C630433FFF7CEBA0DF5A8624846314686
:105560000C32FEF76DFC00287EF498AD0DF59C64BE
:105570000434FFF7A9BA109727EAE77717900C973A
:105580009DF87735FEF739BE1699652914BF0023BB
:105590000123452908BF43F00103002B46D007F142
:1055A000010C022321E6169B652B76DD169A662AEE
:1055B0001CBFDDF87035109300F083801A9B1098A3
:1055C00083426EDC0A9911F0010F40F08E8020EAD0
:1055D000E07267230C92169391E600271D46FEF7B2
:1055E000E9BC10999DF8773521EAE1710C91FEF73D
:1055F00004BEDDF868359B4598BF9B467FF639AE03
:10560000302203F8012B9B45CDF86835F9D830E6F8
:105610000DF5A862484631460C32FEF711FC002811
:105620007EF43CAD0DF59C63043308E5BC460233C3
:10563000DBE50737B9E546F2676C0DF5906103319C
:10564000C6F2666C8CFB0320DA17C2EBA00202EBF9
:105650008200A3EB400013463030092A01F8010D07
:10566000F0DC3033481EDAB201F8012C079B83428C
:105670006AD90DF5AC63033301E011F8012B03F88F
:10568000012C1A46DDF81CC001338C45F5D825E6FF
:105690002D2208F10048179298E5DDF8700510906A
:1056A00003E6109B1A99002BDABF1098C0F1020391
:1056B00001235B186722109323EAE37316920C937D
:1056C0001DE6DDF870050028109031DD1FB90A993C
:1056D00011F0010F0ED0109866211691431CDB19B2
:1056E000109323EAE3720C9209E610986721169151
:1056F0000130109020EAE0720C9200E60B991A78C3
:105700000F6804310B91002FB8BF4FF0FF37FEF741
:1057100050BC0A9A12F0010F04BF20EAE0730C9308
:105720003FF4EDADE5E52D225B428DF86125C9E53D
:1057300077B90A9B13F0010F0AD14FF0010CCDF895
:1057400030C0CDF840C0DAE50DF5AC620232C5E5F7
:105750000237662127EAE772109716910C92CEE580
:10576000DC99002010B449F66844C2F200048C466B
:10577000134601466246206810BCFEF76FBB00BFAF
:1057800070B549F66845C2F2000506460C46286821
:1057900010B18369002B36D049F64023C2F20003D2
:1057A0009C4238D049F66023C2F200039C4241D0AB
:1057B00049F68023C2F200039C4204BF2B68DC68D8
:1057C000A289114693B213F0080F184618BF226938
:1057D00033D01AB313F0010107D063690021A1602F
:1057E0005B42A36142B1002070BD13F0020F08BFFD
:1057F0006169A160002AF6D1A38913F0800FF2D06D
:105800004FF0FF3070BD01F08BF949F64023C2F232
:1058100000039C42C6D12B685C68D1E703F4207179
:10582000B1F5007FD6D03046214601F001FDA389B5
:105830002269CFE72B689C68C2E713F0100FDFD016
:1058400013F0040F08BF226917D0616B51B104F146
:105850004403994203D0304601F0E6F9A28990B2A0
:105860000023636322694FF6DB71C0F2000100235D
:1058700000EA01016360A181226041F00803A38175
:105880009BB2A6E7000000002DE9F84F03690E69FE
:10589000824689469E4200F38380F21C01F1140582
:1058A00000F11404013E92008B18121803F1040851
:1058B00059685068013103F08BFA0746002839D047
:1058C00000239C461A46E958E0581FFA81FE4FEA29
:1058D000114B81B20EFB07CE51180BFB07FC0CEBF2
:1058E0001E4C1FFA8EFECEEB01011FFA8CF24FEA1E
:1058F0001C4CC2EB10421FFA81FE02EB21424EEA21
:105900000241E1500433121459198845DBD2321D8B
:105910000AEB8203596869B99C4209D25AF82220DD
:1059200012B105E01A681AB9043B013E9C42F9D352
:10593000CAF810604946504602F07EF900282CDB78
:10594000002301379C46EA58E05891B2120C1FFA26
:1059500080F9C2EB1042C1EB0901614402EB214224
:1059600089B241EA0241E15004334FEA224C5A190C
:105970009045E8D2321D0AEB8203596869B99C420E
:1059800009D25AF8222012B105E01A681AB9043B6C
:10599000013E9C42F9D3CAF810603846BDE8F88F42
:1059A0000020BDE8F88F00BF2DE9F04F466AA1B096
:1059B0000446904699462D9D002E00F023843268BF
:1059C00082B1616A4FF0010C766820460B68566020
:1059D0004A6819460CFA02F29A6002F067FA636AA2
:1059E00000221A60B9F1000638DB00232B6040F278
:1059F0000003C7F6F0731A4606EA0303934217D072
:105A00000022002340464946CDE9068903F074FB95
:105A1000002829D02C9801232E990360002900F03A
:105A2000D080794B581E2E9A136021B0BDE8F08FBC
:105A30002C9842F20F730360B8F1000F00F09580CC
:105A400049F63C20C2F200002E990029EDD0C27820
:105A5000C31C002AE7D000F10803E4E726F0004663
:105A60000123B1462B60C2E72046DDE906231EA9CB
:105A700000911FA9019102F06BFAC6F30A55834603
:105A8000002D7ED0DDE90601A5F57E751F9F073D3F
:105A900021F07F4323F4700343F07E51002341F44F
:105AA000E001199340F200030022C3F6F873FDF7FA
:105AB000C5F94FA3D3E90023FDF774FB4EA3D3E947
:105AC0000023FDF7BDF9CDE908012846FDF704FBE9
:105AD0004BA3D3E90023FDF765FB02460B46DDE946
