:0200000460009A
:100000000000012099020000090300000B0300001A
:100010000D0300000F0300001103000000000000AA
:1000200000000000000000000000000013030000BA
:100030001503000000000000170300001903000072
:100040001B0300001D0300001F030000210300002C
:1000500023030000250300002703000029030000FC
:100060002B0300002D0300008D230000BD230000A2
:10007000CD350000FD350000753F0000390300005C
:100080003B030000A53F00003F03000041030000C8
:10009000430300004503000047030000490300003C
:1000A0004B03000000000000000000000000000002
:1000B0000000000000000000000000004D030000F0
:1000C0004F030000510300005303000055030000DC
:1000D00057030000590300005B0300005D030000AC
:1000E0005F0300006103000063030000650300007C
:1000F00067030000690300006B0300006D0300004C
:100100006F0300007103000073030000750300001B
:1001100077030000790300007B0300007D030000EB
:100120007F030000810300008303000085030000BB
:1001300087030000890300008B0300008D0300008B
:100140008F0300009103000093030000950300005B
:1001500097030000990300009B0300009D0300002B
:100160009F030000A1030000A3030000A5030000FB
:10017000A7030000A9030000AB030000AD030000CB
:10018000AF030000B1030000B3030000B50300009B
:10019000B7030000B9030000BB030000BD0300006B
:1001A000BF030000C1030000C3030000C50300003B
:1001B000C7030000C9030000CB030000CD0300000B
:1001C000CF030000D1030000D3030000D5030000DB
:1001D000D7030000D9030000DB030000DD030000AB
:1001E000DF030000E1030000E3030000E50300007B
:1001F000E7030000E9030000EB030000ED0300004B
:10020000EF030000F1030000F3030000F50300001A
:10021000F7030000F9030000FB030000FD030000EA
:10022000FF030000010400000304000005040000B7
:1002300007040000090400000B0400000D04000086
:100240000F04000011040000130400001504000056
:1002500017040000190400001B0400001D04000026
:100260001F040000210400002304000025040000F6
:1002700027040000290400002B0400002D040000C6
:100280002F04000031040000330400003504000096
:100290003704000039040000684880476848002897
:1002A0000BD168486849694A884206D091421CBF10
:1002B00050F8043B41F8043BF8D165486549664A6B
:1002C000884206D091421CBF50F8043B41F8043BE1
:1002D000F8D162486249634A914218BF41F8040B61
:1002E000FAD1000000000000000000000000000043
:1002F000DFF874010FF2030E00474FF000004FF0DB
:100300000001DFF868F1FEE7FEE7FEE7FEE7FEE743
:10031000FEE7FEE7FEE7FEE7FEE7FEE7FEE7FEE7B5
:10032000FEE7FEE7FEE7FEE7FEE7FEE7FEE7FEE7A5
:10033000FEE7FEE7FEE7FEE7FEE7FEE7FEE7FEE795
:10034000FEE7FEE7FEE7FEE7FEE7FEE7FEE7FEE785
:10035000FEE7FEE7FEE7FEE7FEE7FEE7FEE7FEE775
:10036000FEE7FEE7FEE7FEE7FEE7FEE7FEE7FEE765
:10037000FEE7FEE7FEE7FEE7FEE7FEE7FEE7FEE755
:10038000FEE7FEE7FEE7FEE7FEE7FEE7FEE7FEE745
:10039000FEE7FEE7FEE7FEE7FEE7FEE7FEE7FEE735
:1003A000FEE7FEE7FEE7FEE7FEE7FEE7FEE7FEE725
:1003B000FEE7FEE7FEE7FEE7FEE7FEE7FEE7FEE715
:1003C000FEE7FEE7FEE7FEE7FEE7FEE7FEE7FEE705
:1003D000FEE7FEE7FEE7FEE7FEE7FEE7FEE7FEE7F5
:1003E000FEE7FEE7FEE7FEE7FEE7FEE7FEE7FEE7E5
:1003F000FEE7FEE7FEE7FEE7FEE7FEE7FEE7FEE7D5
:10040000FEE7FEE7FEE7FEE7FEE7FEE7FEE7FEE7C4
:10041000FEE7FEE7FEE7FEE7FEE7FEE7FEE7FEE7B4
:10042000FEE7FEE7FEE7FEE7FEE7FEE7FEE7FEE7A4
:10043000FEE7FEE7FEE7FEE7FEE7000055470000A7
:10044000010000007004006070040000080000203B
:1004500080BC00600800002028050020000000008B
:1004600028050020C0070020C5570000E11A000041
:1004700040F22853C2F200031A780AB9012018701A
:10048000704700BF40F20800C2F2000008B50368E0
:100490002BB140F20003C0F2000303B1984708BD3E
:1004A00030B585B08DF80F008DF80E1040F248740D
:1004B000C2F2000420464FF038014FF0000203F072
:1004C0007BFF4FF00005009520464FF038010DF1FD
:1004D0000F024FF0010303F001FF20464FF001012E
:1004E00003F032F9009520464FF038010DF10E026D
:1004F0004FF0010303F0F2FE20464FF0010103F03C
:1005000023F905B030BD00BF08B54FF08000FFF7FC
:10051000C7FF4FF0010008BD70B588B008AD05F801
:10052000090D40F24874C2F2000420464FF0380131
:100530004FF0000203F040FF0DF11F0300934FF056
:10054000010601964FF00003029320464FF0380158
:100550002A46334603F0C6FD2046314603F0F4F840
:100560009DF81F0008B070BD08B54FF00200FFF7FE
:10057000D3FF00F1FF30C0B201288CBF0020012062
:1005800008BD00BF2DE9F0458BB005468846924670
:100590004FF000060AAF07F8116D40F24874C2F23E
:1005A000000420464FF03801324603F005FF06AB49
:1005B00000934FF010030193029620464FF038014C
:1005C0003A464FF0010303F08DFD20464FF0010144
:1005D00003F0BAF89DF81A302B70022B81BF334616
:1005E0002B70AAF80030A8F800302B7823B9AAF8AD
:1005F0000030A8F8003027E006AB2A4603F10C0CC7
:10060000D9784FEA012101F470615180187941EAEB
:100610000001518059794FEA012101F47061D180C4
:10062000987941EA0001D18059794FEA111151813D
:1006300003F1060302F102026345E1D16B88A8F8D9
:100640000030ED88AAF800500BB0BDE8F08500BF7F
:1006500000B583B00DF1060101AAFFF793FF4FF03B
:10066000060005F0DFF8BDF806200280BDF8042082
:1006700042804FF00102828003B000BDB0F9060055
:10068000704700BF2DE9F04F8DB08346BDF85890FC
:10069000BDF85C0003909DF860500295BBF9040022
:1006A000884240F39E80BBF90600904240F3998057
:1006B0002C4601F1FF3005EB450C10EB4C0C00F122
:1006C000908002F1FF3010EBC50000F18A80DBF86A
:1006D0001840AF2B94BF00200120002C14BF002035
:1006E00000F0010010B103F10103DBB203EB83035F
:1006F0004FF0060607964FF0000006904BF2C83008
:10070000C0F2000018440B90DDF8088089B20A910D
:1007100092B2099202F108039CB2C246CDF810B021
:10072000A34606990BB2042BCFBF0025069A13B23D
:100730000B9ED8BFF55C069883B202990A9E01FB16
:100740000362099F3C463E4612B205920A98034452
:100750001BB2089315F0010F14D00299012906D19C
:100760000498089922B24B4600F020FA21E0CDF817
:1007700000A0CDF804900498059932B2534600F0D9
:10078000ADF916E0039A4A4513D0029B012B06D11E
:100790000498089922B2039B00F008FA09E0CDF80A
:1007A00000A003980190049805993AB2534600F0CE
:1007B00095F94644B6B204F10104A4B24744BFB26D
:1007C0005C4502D04FEA5505C4E7069D05F10103DB
:1007D0009BB20693079E06F1FF339BB20793002B53
:1007E0009FD10DB0BDE8F08F2DE9F04F8BB083465F
:1007F00010469DF85020BDF954C0BDF858A01F1EEA
:1008000040F38D80BFB2C7F10104A4B2C7EBC73873
:100810004FEA48081FFA88F84FF003064FF000052A
:1008200002F00103059389B2039180B204901FFA8C
:100830008CFCCDF81CC00CF10100ADF8200002F0DA
:100840000202069214F4004F08D107F1FF37BFB23D
:1008500008F102081FFA88F84444A4B205F1010522
:10086000ADB2059A3AB3ABB202931FFA87F9039A75
:1008700002EB0301049BC9EB0302BDF8200000EB6F
:100880004903CDF800A0584609B212B21BB200F0DD
:1008900081F9039A09EB0201049B0298C0EB030261
:1008A000079800EB0603CDF800A0584609B212B233
:1008B0001BB200F06FF9069A3AB3ABB202931FFA7B
:1008C00087F9039AC3EB0201049BC9EB0302BDF84D
:1008D000200000EB4903CDF800A0584609B212B23F
:1008E0001BB200F057F9039AC9EB0201049B02986E
:1008F000C0EB0302079800EB0603CDF800A05846B2
:1009000009B212B21BB200F045F93AB22BB29A42C8
:1009100005DD3444A4B206F10206B6B292E70BB08C
:10092000BDE8F08F2DE9F04F87B004909046BDF9F7
:100930004070BDF94460BDF848501FFA81F9B4B267
:1009400004EB0901C4EBC43A4FEA4A0A1FFA8AFAD7
:100950001FFA83FB09B205910AEB0B03009701957F
:100960001BB200F0BBF8A04407F1FF330AEB03070A
:1009700009F1FF39CB44C4EB0B040FFA88F84FF0B0
:10098000010300933FB201970295049821B24246B9
:100990003346FFF729FF4FF00203009301970295BA
:1009A0000498059942463346FFF71EFF07B0BDE89D
:1009B000F08F00BF00B583B0B0F90430B0F9062065
:1009C000009201914FF000010A4600F0D7F803B001
:1009D00000BD00BF08B5014640F2CC50C2F2000095
:1009E00002F0BEF808BD00BF08B5014640F2CC5089
:1009F000C2F2000002F04EF808BD00BF10B5044678
:100A00004FF00000FFF7F0FF40F2CC50C2F20000C0
:100A1000214602F0EDF84FF00000FFF7DBFF10BDBC
:100A200070B54FEA1125CEB214463AB12846FFF709
:100A3000E5FF3046FFF7E2FF013CF7D170BD00BF94
:100A400010B504464FEA1020FFF7D8FFE0B2FFF7D9
:100A5000D5FF10BD10B504464FF00100FFF7C4FFED
:100A60002046FFF7CBFF4FF00100FFF7B3FF10BDAB
:100A700038B500F1FF35154445EA004501F1FF3472
:100A80001C4444EA01444FF02A00FFF7E3FF4FEA19
:100A90001560FFF7B3FFC5F30740FFF7AFFFC5F3DE
:100AA0000720FFF7ABFFE8B2FFF7A8FF4FF02B00DE
:100AB000FFF7D0FF4FEA1460FFF7A0FFC4F3074031
:100AC000FFF79CFFC4F30720FFF798FFE0B2FFF7A2
:100AD00095FF4FF02C00FFF7BDFF38BD2DE9F84F13
:100AE00004461D46BDF92860BDF82C70838818B2F5
:100AF000884240DDE0880FFA80FC94453BDD05EB41
:100B0000010A1FFA8AFA0AF1FF381FFA88F806EB81
:100B1000020B1FFA8BFB0BF1FF3C1FFA8CFC4CEA1B
:100B200008095FEAD93926D10029BCBF0FFA8AF536
:100B30000021002ABCBF0FFA8BF600220FFA83FEB9
:100B40000FFA88F8C645DCBFC1EB03052DB203B22E
:100B50000FFA8CFC6345DCBFC2EB000636B288B2EC
:100B600091B2AAB2B3B2FFF783FF2046394605FB24
:100B700006F2FFF755FFBDE8F88F00BF30B583B030
:100B8000BDF91850BDF81C4000950194FFF7A6FF71
:100B900003B030BD10B582B0BDF810400093019491
:100BA0004FF00103FFF79AFF02B010BD10B51C46CD
:100BB000002916DBB0F904308B42CCBF002301239F
:100BC00053EAD2730DD1B0F90630934209DD88B2F1
:100BD00091B24FF001021346FFF74AFF2046FFF79C
:100BE0002FFF10BD10B50C4601F003034374032B17
:100BF00026D8DFE803F0020B141D4FF0F0038380CA
:100C00004FF4A072C2804FF0480419E04FF4A07373
:100C100083804FF0F002C2804FF0280410E04FF0C4
:100C2000F00383804FF4A072C2804FF0880407E085
:100C30004FF4A07383804FF0F002C2804FF0E804BD
:100C40004FF03600FFF706FF2046FFF7D7FE10BD36
:100C500008B504F09BFD08BD10B504464FF0EF0049
:100C6000FFF7F8FE4FF00300FFF7C8FE4FF08000DB
:100C7000FFF7C4FE4FF00200FFF7C0FE4FF0CF00B9
:100C8000FFF7E8FE4FF00000FFF7B8FE4FF0C1009D
:100C9000FFF7B4FE4FF03000FFF7B0FE4FF0ED006D
:100CA000FFF7D8FE4FF06400FFF7A8FE4FF00300F7
:100CB000FFF7A4FE4FF01200FFF7A0FE4FF08100F7
:100CC000FFF79CFE4FF0E800FFF7C4FE4FF08500F1
:100CD000FFF794FE4FF00000FFF790FE4FF0780012
:100CE000FFF78CFE4FF0CB00FFF7B4FE4FF039005A
:100CF000FFF784FE4FF02C00FFF780FE4FF000005E
:100D0000FFF77CFE4FF03400FFF778FE4FF0020053
:100D1000FFF774FE4FF0F700FFF79CFE4FF0200046
:100D2000FFF76CFE4FF0EA00FFF794FE4FF0000073
:100D3000FFF764FE4FF00000FFF760FE4FF0C000C9
:100D4000FFF788FE4FF02300FFF758FE4FF0C10079
:100D5000FFF780FE4FF01000FFF750FE4FF0C50088
:100D6000FFF778FE4FF03E00FFF748FE4FF02800F7
:100D7000FFF744FE4FF0C700FFF76CFE4FF0860010
:100D8000FFF73CFE4FF03600FFF764FE4FF04800DF
:100D9000FFF734FE4FF03700FFF75CFE4FF0000026
:100DA000FFF72CFE4FF00000FFF728FE4FF03A004F
:100DB000FFF750FE4FF05500FFF720FE4FF0B10057
:100DC000FFF748FE4FF00000FFF718FE4FF0180045
:100DD000FFF714FE4FF0B600FFF73CFE4FF008009F
:100DE000FFF70CFE4FF08200FFF708FE4FF02700E0
:100DF000FFF704FE4FF0F200FFF72CFE4FF000006B
:100E0000FFF7FCFD4FF02600FFF724FE4FF0010036
:100E1000FFF7F4FD4FF0E000FFF71CFE4FF00F006E
:100E2000FFF7ECFD4FF03100FFF7E8FD4FF02B002E
:100E3000FFF7E4FD4FF00C00FFF7E0FD4FF00E0070
:100E4000FFF7DCFD4FF00800FFF7D8FD4FF04E0034
:100E5000FFF7D4FD4FF0F100FFF7D0FD4FF0370062
:100E6000FFF7CCFD4FF00700FFF7C8FD4FF0100073
:100E7000FFF7C4FD4FF00300FFF7C0FD4FF00E0079
:100E8000FFF7BCFD4FF00900FFF7B8FD4FF0000081
:100E9000FFF7B4FD4FF0E100FFF7DCFD4FF000007D
:100EA000FFF7ACFD4FF00E00FFF7A8FD4FF0140068
:100EB000FFF7A4FD4FF00300FFF7A0FD4FF0110076
:100EC000FFF79CFD4FF00700FFF798FD4FF0310052
:100ED000FFF794FD4FF0C100FFF790FD4FF0480081
:100EE000FFF78CFD4FF00800FFF788FD4FF00F0073
:100EF000FFF784FD4FF00C00FFF780FD4FF031004D
:100F0000FFF77CFD4FF03600FFF778FD4FF00F0044
:100F1000FFF774FD4FF01100FFF79CFD4FF07800D4
:100F2000FFF796FE4FF02900FFF794FD4FF0780091
:100F3000FFF78EFE4FF0F003A3804FF4A073E38021
:100F400010BD00BF10B4019CC3EB040CC1EB00004A
:100F500000FB0CFCC1EB02019CFBF1FC0CEB030061
:100F600010BC70474FF000031A46C3F1070140FA66
:100F700001F101F0010101FA03F10A44D2B203F1D7
:100F80000103082BF1D150B2704700BF10B57E2885
:100F900094BF002301237E2994BF00220122134223
:100FA00018BF4FF07E5438D113298CBF002303F0B3
:100FB00001038BB1084604F0CBF940F20001C4F202
:100FC000FE2104F0D1FA04464FF0000104F0D4FBF6
:100FD00018BB4FF07E5420E013288CBF002202F093
:100FE000010282B104F0B4F940F20001C4F2FE2122
:100FF00004F0BAFA04464FF0000104F0BDFB60B9FA
:101000004FF07E5409E0084404F0A6F940F20001D4
:10101000C4F27E3104F0A8FA0446204610BD00BF99
:10102000F8B504460E4617464FEA2060FFF79AFFD0
:10103000C5B244F30740FFF795FF3D707870C4F3E5
:1010400000133370C4F340137370C4F38013B37090
:10105000C4F3C014F470F8BD002802DD4FF00100A5
:101060007047002802DA4FF002007047081E18BFD0
:101070000120704710B48C46D1F1010138BF002126
:10108000044600280CBF002001F0010010BBD3F182
:10109000010038BF0020002A0CBF002000F0010032
:1010A00000B1B9B9D2F1010238BF0022002B0CBF48
:1010B000002302F001036BB9D4F1010438BF00240E
:1010C000BCF1000F0CBF4FF0000C04F0010C4FEA14
:1010D0004C0001E04FF0010010BC704770B59C4619
:1010E000003B18BF01239646002A14BF002203F0DC
:1010F000010262B151EA000266D00A1E18BF012245
:1011000000280CBF002202F00102002A5CD1BEF1CF
:10111000000218BF0122BCF1000F14BF002402F02E
:10112000010464B151EA000453D00C1E18BF01241D
:1011300000280CBF002404F00104002C49D1041E37
:1011400018BF01245CEA0E0C14BF002504F0010551
:101150000DB1002942D013EA020606D0002914BFBF
:10116000002504F00105002D38D1003918BF0121F8
:101170005CEA000C14BF002501F00105002D32D1FE
:101180002EB1002814BF002001F0010058BB0B4213
:101190001CBF49F69A10C3F6996028D10A421CBFB9
:1011A00049F69A10C3F6197021D122421CBF49F6A4
:1011B0009A10C3F619701AD123420EBF002049F6C7
:1011C0009A10C3F6996012E049F69A10C3F6996036
:1011D0000DE046F26660C3F6667008E046F26660AF
:1011E000C3F6667003E046F26660C3F6667040F2CE
:1011F0000001C4F2C82104F003F903F095FC0AF0E1
:101200004FF803F07FFFC0B270BD00BF70B59C46C1
:10121000003B18BF01239646002A14BF002203F0AA
:10122000010262B151EA000266D00A1E18BF012213
:1012300000280CBF002202F00102002A5CD1BEF19E
:10124000000218BF0122BCF1000F14BF002402F0FD
:10125000010464B151EA000453D00C1E18BF0124EC
:1012600000280CBF002404F00104002C49D1041E06
:1012700018BF01245CEA0E0C14BF002504F0010520
:101280000DB1002942D013EA020606D0002914BF8E
:10129000002504F00105002D38D1003918BF0121C7
:1012A0005CEA000C14BF002501F00105002D32D1CD
:1012B0002EB1002814BF002001F0010058BB0B42E2
:1012C0001CBF49F69A10C3F6197028D10A421CBFF8
:1012D00049F69A10C3F6996021D122421CBF49F603
:1012E0009A10C3F699601AD123420EBF002049F626
:1012F0009A10C3F6197012E046F26660C3F6667083
:101300000DE049F69A10C3F6996008E046F266606F
:10131000C3F6667003E046F26660C3F6667040F29C
:101320000001C4F2C82104F06BF803F0FDFB09F0E2
:10133000B7FF03F0E7FEC0B270BD00BF00000000C1
:1013400010B5144600281BDA0028B8BF404204F04C
:1013500003F8214604F054F840F20001C4F2FE21E3
:1013600004F002F9044603F0DFFB1BA3D3E90023DA
:1013700003F0BEFE00BB49F69A14C3F699641BE065
:1013800000280ADD0029D9BF49F69A14C3F69964EA
:1013900049F69A14C3F619740EE011B94FF000041F
:1013A0000AE0104603F0C0FB0DA3D3E9002303F0CD
:1013B0000FFC03F0C7FE0446204640F20001C4F2D1
:1013C000C82104F01DF803F0AFFB09F069FF03F03A
:1013D00099FEC0B210BD00BF333333333333D33F34
:1013E000CDCCCCCCCCCCEC3F10B5144600281BDDCA
:1013F0000028B8BF404203F0AFFF214604F000F8D8
:1014000040F20001C4F2FE2104F0AEF8044603F0FD
:101410008BFB1BA3D3E9002303F06AFE00BB49F654
:101420009A14C3F699641BE000280ADA0029D9BF90
:1014300049F69A14C3F6996449F69A14C3F61974D6
:101440000EE011B94FF000040AE0104603F06CFB07
:101450000DA3D3E9002303F0BBFB03F073FE0446A6
:10146000204640F20001C4F2C82103F0C9FF03F096
:101470005BFB09F015FF03F045FEC0B210BD00BFD5
:10148000333333333333D33FCDCCCCCCCCCCEC3F24
:1014900030B583B040F2CC54C2F20004204602F0D2
:1014A000C5F84FF00805009520464FF000010A46A8
:1014B0004FF0020301F06EFA009520464FF0010153
:1014C0004FF000024FF0020301F064FA03B030BDA8
:1014D00070B584B0064647F6EF34009401944FF09F
:1014E000040502954FF026014FF018024FF04C030F
:1014F000FFF7C8F800940194029530464FF03F0181
:101500004FF018024FF04903FFF7BCF80094019424
:10151000029530464FF058014FF018024FF04E033D
:10152000FFF7B0F800940194029530464FF0710136
:101530004FF018024FF04503FFF7A4F80094019410
:10154000029530464FF018014FF048024FF0460325
:10155000FFF798F800940194029530464FF031015E
:101560004FF048024FF04F03FFF78CF800940194BE
:10157000029530464FF04A014FF048024FF04C03BD
:10158000FFF780F800940194029530464FF0630114
:101590004FF048024FF04C03FFF774F800940194A9
:1015A000029530464FF07C014FF048024FF04F0358
:1015B000FFF768F800940194029530464FF09501CA
:1015C0004FF048024FF05703FFF75CF84FF6FF74F7
:1015D00000940194029530464FF02D014FF0A8027F
:1015E0004FF04E03FFF74EF80094019402953046F9
:1015F0004FF046014FF0A8024FF03603FFF742F8D4
:1016000000940194029530464FF05F014FF0A8021C
:101610004FF03403FFF736F840F22C53C2F20003C8
:101620004FF001021A6004B070BD00BF70B584B005
:1016300006464FF6FF74009401944FF0040502959E
:101640004FF026014FF018024FF04C03FFF71AF845
:1016500000940194029530464FF03F014FF018027C
:101660004FF04903FFF70EF80094019402953046BD
:101670004FF058014FF018024FF04E03FFF702F8F9
:1016800000940194029530464FF071014FF018021A
:101690004FF04503FEF7F6FF0094019402953046A3
:1016A0004FF018014FF048024FF04603FEF7EAFFF3
:1016B00000940194029530464FF031014FF04802FA
:1016C0004FF04F03FEF7DEFF009401940295304681
:1016D0004FF04A014FF048024FF04C03FEF7D2FFA3
:1016E00000940194029530464FF063014FF0480298
:1016F0004FF04C03FEF7C6FF00940194029530466C
:101700004FF07C014FF048024FF04F03FEF7BAFF55
:1017100000940194029530464FF095014FF0480235
:101720004FF05703FEF7AEFF47F6EF3400940194F5
:10173000029530464FF02D014FF0A8024FF04E03B6
:10174000FEF7A0FF00940194029530464FF0460149
:101750004FF0A8024FF03603FEF794FF0094019477
:10176000029530464FF05F014FF0A8024FF034036E
:10177000FEF788FF40F22C53C2F200034FF0000244
:101780001A6004B070BD00BF30B583B00446FEF7E8
:10179000EBFE00285BD02046FEF75AFF0446B0F966
:1017A00000004FF00005009529464FF0F002134667
:1017B000FFF7C8FB2080B4F90200009529464FF4DA
:1017C000A0721346FFF7BEFB608040F27453C2F272
:1017D00000031868FEF752FF00B2B4F90030C3EB03
:1017E0000000B4F9022040F22C53C2F200031B683F
:1017F000ABB1A2F10B028A2A26D8A0F17900772892
:1018000022D84BF6C800C0F2000004F053FB40F2AF
:101810007453C2F200031868FFF708FF14E0A2F146
:101820000B028A2A10D800F1FF3077280CD84BF62B
:10183000DC00C0F2000004F03DFB40F27453C2F241
:1018400000031868FFF744FE204603F0E3FF03B0EF
:1018500030BD00BFF0B585B0064647F6EF340094C2
:101860004FF4FC6701974FF0040502954FF0E20139
:101870004FF030024FF04F03FEF704FF0094019742
:10188000029530464FF0FB014FF030024FF04E030F
:10189000FEF7F8FE4FF6FF7400940194029530466F
:1018A0004FF0D7014FF0A8024FF04F03FEF7EAFECA
:1018B00000940194029530464FF0F0014FF0A802D9
:1018C0004FF04603FEF7DEFE009401940295304689
:1018D00040F209114FF0A8024FF04603FEF7D2FE86
:1018E00040F23053C2F200034FF001021A6005B01B
:1018F000F0BD00BFF0B585B006464FF6FF75009508
:1019000001954FF0040402944FF0E2014FF03002D1
:101910004FF04F03FEF7B6FE009501950294304656
:101920004FF0FB014FF030024FF04E03FEF7AAFEDE
:1019300047F6EF3500954FF478470197029430460B
:101940004FF0D7014FF0A8024FF04F03FEF79AFE79
:1019500000950197029430464FF0F0014FF0A80235
:101960004FF04603FEF78EFE009501970294304635
:1019700040F209114FF0A8024FF04603FEF782FE35
:1019800040F23053C2F200034FF000021A6005B07B
:10199000F0BD00BF70B584B004460D46FFF75CF99A
:1019A00028464FF08001FEF7AFFD20464FF00001C2
:1019B000FFF700F820464FF00101FFF713F94FF051
:1019C000780500954FF0110601964FF4FC630293E1
:1019D00020464FF0B4014FF000024FF08C03FEF7A9
:1019E000A1FF009501964FF47843029320464FF0F3
:1019F000B4012A464FF08C03FEF794FF2046FFF710
:101A000079FF2046FFF764FD04B070BD30B583B0A8
:101A10000446FEF7A9FD00285FD04FF0060003F052
:101A200001FF2046FEF714FE0446B0F900004FF017
:101A30000005009529464FF0F0021346FFF782FAA1
:101A40002080B4F90200009529464FF4A072134695
:101A5000FFF778FA608040F27453C2F2000318680E
:101A6000FEF70CFE00B2B4F90030C3EB0000B4F98D
:101A7000022040F23053C2F200031B68ABB1A2F166
:101A8000B5028A2A26D8A0F17900772822D84BF609
:101A9000F000C0F2000004F00DFA40F27453C2F2FC
:101AA00000031868FFF726FF14E0A2F1B5028A2AA6
:101AB00010D800F1FF3077280CD84BF60410C0F294
:101AC000000004F0F7F940F27453C2F20003186802
:101AD000FFF7C0FE204603F09DFE03B030BD00BFFF
:101AE0002DE9F04F89B000AF84B06D4640F27C50D4
:101AF000C2F200004FF416514FF0030200F0CEFD89
:101B00004FF0200003F08EFE40F27456C2F2000641
:101B100030604FF4A07242804FF0F00303804FF02A
:101B20000E0003F07FFE40F27854C2F20004206001
:101B3000FFF7AEFC30682168FFF72CFF02F0CAFC0B
:101B40004FF000004FF0050102F0F4FCC7F804D09C
:101B500040F2000BC4F2050B40F27854C2F20004CC
:101B600040F23052C2F200027A6140F22C53C2F2CB
:101B700000033B614BF61812C0F20002FA6040F21B
:101B80007C53C2F20003BB60DBF8000007F11C01CC
:101B900007F11802FFF744FA387F002867D17B7FEE
:101BA000002B64D1BB7F002B61D1FB7F002B5ED16A
:101BB00097F9196086EAE670A0EBE67097F918804D
:101BC00088EAE871A1EBE871C0B2C9B2FFF7DEF9AB
:101BD0008246304641465246FFF7B2FB804697F9AF
:101BE000190097F918105246FFF7FEFB824697F945
:101BF000180097F91910FFF72FFA81462068FFF7B0
:101C000005FF7A6916682068FFF7BEFD3A69136818
:101C10006FF010022A70002E3ED0D3F1010338BFBE
:101C2000002385F8018033B185F8029085F803A080
:101C300085F8049009E013B94FF00102AA7085F805
:101C400003A013B94FF001022A716B716FF07F038B
:101C5000AB714FF06303EB71F868A97804F02AF9CF
:101C6000B86879684FF0080200F0DCF88CE7797FFB
:101C7000BA7FFB7FFFF732FA8046387F797FBA7FE1
:101C8000FB7FFFF7C3FA8246387F797FBA7FFB7FFD
:101C9000FFF7F0F98146B1E74FF000036B70AB70CE
:101CA000EB702B714FF00103CFE700BF4FF0FF3017
:101CB000704700BFFEE700BF4FF400534B604FF08A
:101CC000000070474FF00100704700BF4FF0010067
:101CD000704700BF4FF00000704700BF4FF0FF306B
:101CE000704700BF4FF00000704700BF4FF4005333
:101CF0004B604FF0000070474FF0FF30704700BF5F
:101D000008B503F059FD4FF00A0303604FF0FF30B0
:101D100008BD00BF08B503F04FFD4FF0020303609C
:101D20004FF0FF3008BD00BF08B503F045FD4FF090
:101D30001F0303604FF0FF3008BD00BF08B503F07C
:101D40003BFD4FF0160303604FF0FF3008BD00BFAE
:101D500008B503F031FD4FF00B0303604FF0FF3087
:101D600008BD00BF08B503F027FD4FF00C0303606A
:101D70004FF0FF3008BD00BF38B515461C4640F295
:101D80003453C2F200031B6883B940F2A450C2F27C
:101D900000004FF461414FF0030200F07FFC40F27D
:101DA0003453C2F200034FF001021A6040F2A45013
:101DB000C2F200002946224600F034F8204638BD21
:101DC00008B540F23453C2F200035B6843B940F2F5
:101DD0003453C2F2000340F2C072C2F200025A60F1
:101DE00040F23453C2F200035A68EFF30883104400
:101DF00083420FD24FF000004FF001014BF620124A
:101E0000C0F200024FF01903FFF7B6FF4FF00100D8
:101E1000FFF750FF40F23453C2F2000358601046FF
:101E200008BD00BF2DE9F00540F2A453C2F2000343
:101E3000984206D040F27C53C2F20003984200D090
:101E400000BE01B900BE02B900BE40F2A453C2F206
:101E50000003984205D040F27C53C2F2000398423E
:101E600033D1131E18BF012300290CBF002303F038
:101E70000103002B29D04FF00007B8464FF0100A9D
:101E800003681B7D90F80AC043EA0C0C80F80AC076
:101E900013F0200F17D00F2A04D95646BC464346EC
:101EA0000F4404E00AB943460BE01646F6E704681F
:101EB000FD5C25700CF1010C03F101039E42F6D884
:101EC0006746C3EB0202002ADAD1BDE8F00570478D
:101ED000F0B440F2A453C2F20003984206D040F29C
:101EE0007C53C2F20003984200D000BE01B900BE8C
:101EF00040F2A453C2F20003984205D040F27C5352
:101F0000C2F20003984228D139B30D782DB34FF0B7
:101F1000000C66460468237D827A43EA02028272DC
:101F200013F0200FF7D0C5B1334601EB0C07026860
:101F3000EDB2157003F1010303EB0C04FD5C0F2BF4
:101F40008CBF00220122002D0CBF002202F00102F2
:101F5000002AECD10DB1A446DCE7F0BC704700BF0D
:101F600010B440F2A453C2F20003984206D040F2EB
:101F70007C53C2F20003984200D000BE01B900BEFB
:101F80000AB900BE36E0002934D040F2A453C2F2B0
:101F90000003984205D040F27C53C2F200039842FD
:101FA00028D1C16002614FF000034361038919B277
:101FB0004FEA511103F01F034FF0010202FA03F43C
:101FC0004EF20013CEF2000301F1600143F821400C
:101FD00042F20921C0F2000101624168C1F8842087
:101FE000018908B24FEA501001F01F0102FA01F214
:101FF00043F8202010BC704740F2A453C2F2000303
:10200000984209D040F27C53C2F20003984203D0B8
:1020100000BE4FF00000704703681B7D827A43EAE0
:1020200002028272026912B14FF000007047C3F3DE
:102030008010704710B4034640F2A450C2F2000072
:10204000834206D040F27C50C2F20000834200D0AE
:1020500000BE01B900BE02B900BE40F2A450C2F2F7
:102060000000834205D040F27C50C2F2000083425F
:102070002AD1101E18BF012000290CBF002400F037
:1020800001040CB31C6894F814C09C7A4CEA040454
:102090009C721CEA000F17D04FF000001C6894F8E7
:1020A00000C001F800C000F101001C6894F814C0E1
:1020B0009C7A4CEA04049C72824294BF00240CF087
:1020C0000104002CEAD101E04FF0000010BC704781
:1020D00010B440F2A453C2F20003984207D040F279
:1020E0007C53C2F20003984201D000BE22E0038973
:1020F0000FFA83FC4FEA5C1C03F01F034FF0010250
:1021000002FA03F44EF20013CEF200030CF1600C5D
:1021100043F82C40046894F804C041EA0C01217192
:10212000018908B24FEA501001F01F0102FA01F2D2
:1021300043F8202010BC704740F2A453C2F20003C1
:10214000984207D040F27C53C2F20003984201D07B
:1021500000BE704703681A7922EA01021A710389E6
:1021600018B24FEA501003F01F034FF0010202FAB9
:1021700003F24EF20013CEF2000300F1600C43F8BC
:102180002C200F2901BF4EF20013CEF200032030A5
:1021900043F82020704700BF08B540F2A453C2F2B4
:1021A0000003984207D040F27C53C2F200039842E9
:1021B00001D000BE08BD03681B7A03F00F030C2B8F
:1021C00020D8DFE803F0071F0D1F131F191F1F1F63
:1021D0001F1F1300436A0BB900BE08BD984708BD16
:1021E000036A0BB900BE08BD984708BDC3690BB9A7
:1021F00000BE08BD984708BD83690BB900BE08BD85
:10220000984708BD00BE08BD10B440F2A453C2F206
:102210000003984206D040F27C53C2F20003984279
:1022200000D000BEC26802B900BE016901B900BE9B
:1022300040F2A453C2F20003984205D040F27C530E
:10224000C2F20003984230D1002A2ED000292CD0AF
:1022500003681B7D827A43EA0202827213F0200F28
:102260001AD002694369C3EB02030F2B04D94FF064
:10227000100C4FF0000302E073B19C46F9E70268CE
:10228000C4684169615C1170426902F101024261F6
:1022900003F101036345F2D3426903699A4201BF26
:1022A000002303614268C2F8843010BC704700BF4D
:1022B00010B440F2A453C2F20003984206D040F298
:1022C0007C53C2F20003984200D000BE01B900BEA8
:1022D000C02A00D900BE40F2A453C2F200039842C3
:1022E00005D040F27C53C2F2000398422FD1C02A9D
:1022F0008CBF0023012300290CBF002303F001033E
:102300002BB3C161036802F0C00242F00A021A72E4
:10231000038919B24FEA511103F01F034FF0010274
:1023200002FA03F44EF20013CEF2000301F1600151
:1023300043F821404168C1F88020018908B24FEA82
:10234000501001F01F0102FA01F243F8202010BCE6
:10235000704700BF40F2A453C2F20003984207D076
:1023600040F27C53C2F20003984201D000BE704795
:1023700029B943684FF00002C3F810227047436840
:102380004FF00102C3F81022704700BF684620F0EA
:1023900007018D4601B540F2A450C2F20000FFF7DC
:1023A000FBFE4EF20013CEF200034FF48062C3F83E
:1023B0008021BDE801408546704700BF684620F097
:1023C00007018D4601B540F27C50C2F20000FFF7D4
:1023D000E3FE4EF20013CEF200034FF40062C3F8A6
:1023E0008021BDE801408546704700BF10B440F22F
:1023F000A453C2F20003984206D040F27C53C2F2CA
:102400000003984200D000BE01B900BE40F2A453C0
:10241000C2F20003984205D040F27C53C2F200039E
:10242000984220D1F9B18161038919B24FEA511163
:1024300003F01F034FF0010202FA03F44EF20013FF
:10244000CEF2000301F1600143F821404168C1F878
:102450008820018908B24FEA501001F01F0102FAEA
:1024600001F243F8202010BC704700BF10B440F2C6
:10247000A453C2F20003984206D040F27C53C2F249
:102480000003984200D000BE01B900BE40F2A45340
:10249000C2F20003984205D040F27C53C2F200031E
:1024A000984224D119B301624FF00003C360036165
:1024B000038919B24FEA511103F01F034FF00102D3
:1024C00002FA03F44EF20013CEF2000301F16001B0
:1024D00043F821404168C1F88420018908B24FEADD
:1024E000501001F01F0102FA01F243F8202010BC45
:1024F000704700BF10B440F2A453C2F200039842E8
:1025000006D040F27C53C2F20003984200D000BED5
:1025100001B900BE40F2A453C2F20003984205D0B4
:1025200040F27C53C2F20003984220D1F9B14162DB
:10253000038919B24FEA511103F01F034FF0010252
:1025400002FA03F44EF20013CEF2000301F160012F
:1025500043F821404168C1F88C20018908B24FEA54
:10256000501001F01F0102FA01F243F8202010BCC4
:10257000704700BF10B4034640F2A450C2F20000FE
:10258000834206D040F27C50C2F20000834200D069
:1025900000BE01B900BE02B900BE40F2A450C2F2B2
:1025A0000000834205D040F27C50C2F2000083421A
:1025B00026D1101E18BF012000290CBF002400F0F6
:1025C0000104ECB11C6894F814C09C7A4CEA040431
:1025D0009C721CF0200F13D00F2A04D94FF0100466
:1025E0004FF0000002E058B11446F9E71A6811F8FC
:1025F00000C082F800C000F10100A042F6D301E063
:102600004FF0000010BC7047024640F2A453C2F2E3
:102610000003984209D040F27C53C2F20003984272
:1026200003D000BE4FF0FF0070471368187D937A07
:1026300040EA030000F09E004FF0000393727047E1
:1026400040F2A453C2F20003984209D040F27C53F6
:10265000C2F20003984203D000BE4FF0FF00704763
:102660000368187E704700BF40F2A453C2F2000313
:10267000984209D040F27C53C2F20003984203D042
:1026800000BE4FF00000704703681B7D827A43EA6A
:102690000202827203F06000704700BF70B504460A
:1026A0000D46164640F2A453C2F20003984206D0EB
:1026B00040F27C53C2F20003984200D000BE05B93C
:1026C00000BE02F049F840F2A453C2F200039C425B
:1026D00026D140F2A453C2F200034FF080421A60A8
:1026E0004FF084425A604FF00A021A8140F2100300
:1026F000C2F20003186842F20003CEF204031A6B20
:1027000042F080021A634EF20012CEF200024FF441
:102710008061C2F880111A6B22F080021A6325E0F2
:1027200040F20003C4F20103236040F20003C4F24C
:10273000202363604FF00B03238140F21403C2F2A5
:102740000003186842F20003CEF204031A6B42F44D
:1027500080721A634EF20012CEF200024FF4006152
:10276000C2F880111A6B22F480721A6323684FF04A
:1027700000021A7115B94FF001050FE0B0FBF5F535
:1027800015F0080F4FEA151518BF0135B5F5803F54
:1027900038BFADB202D300BE4FF0010563684FF001
:1027A0000102C3F89C2123684FEA15221A7123689D
:1027B000EDB21D7062684FF00003C2F89C312268D0
:1027C000167322684FF00E0111726268C2F810325F
:1027D0002361E3606361E36142F20922C0F2000217
:1027E0002262A3616362A37270BD00BF2DE9F0078E
:1027F0000368D3F80080D3F818C05F689E6A1D6B29
:102800005C6BD3F81CA040F25063C2F20003984204
:1028100024D140F25063C2F2000341F20002C4F23C
:1028200000021A604FF00C01998042F20003CEF2D0
:102830000403196B41F4007119634EF20011CEF2DA
:1028400000014FF48059C1F88091196B21F4007197
:102850001963136823F0004313601FE041F2000284
:10286000C4F2010202604FF00D03838042F20003C4
:10287000CEF20403196B41F4806119634EF200112A
:10288000CEF200014FF40059C1F88091196B21F488
:1028900080611963136823F00043136028F001027C
:1028A00003681A600368C3F818C003685F600368B0
:1028B0001A6842F001021A6003689E6203681D6391
:1028C00003685C630368C3F81CA0BDE8F0077047A9
:1028D000F0B440F2506CC2F2000C604506D040F2F9
:1028E000CC5CC2F2000C604500D000BE202B00D9A9
:1028F00000BE082900D100BEB0F804C00FFA8CF663
:102900004FEA56160CF01F0C4FF0010505FA0CF7B4
:102910004EF20014CEF2000406F1200644F82670B0
:102920004FF0000C80F880C00668376827F0020777
:1029300037600668376827F0010737600668376830
:1029400027F0407C2CF00C0C4CF0005C4CEA0101B0
:10295000316001688A6101680E6840F2FF02CFF6BB
:10296000007206EA020242F480720A600268536052
:1029700003681A6842EA05021A6083881AB24FEAAD
:10298000521203F01F0305FA03F544F82250F0BC7D
:10299000704700BFF0B49DF8105040F2506CC2F286
:1029A000000C604506D040F2CC5CC2F2000C6045E1
:1029B00000D000BE072900D900BE202D00D900BEDE
:1029C000B0F804C00FFA8CF64FEA56160CF01F0C44
:1029D0004FF0010707FA0CF74EF20014CEF2000494
:1029E00006F1200644F826704FF0000C80F880C0F5
:1029F0000468266826F0010626600468266846F00A
:102A0000020626600468266846F00106266007294B
:102A10002DD8B2F1007F14BF00240124624508BF05
:102A200044F0010454B9B2F1407F14BF00240124E2
:102A3000B2F1807F08BF44F001044CB100EBC10447
:102A400040F2021CC2F2004C42EA0C02626308E04F
:102A500000EBC10440F2021CC2F2000C42EA0C027C
:102A6000626301F1060100EBC1010D724B728388B4
:102A70001AB24FEA521203F01F034FF0010101FA9C
:102A800003F14EF20013CEF2000343F82210F0BC23
:102A9000704700BF38B5044640F25063C2F20003ED
:102AA000984206D040F2CC53C2F20003984200D0C4
:102AB00000BE2268136813F0020F00D100BE0D465D
:102AC00004EBC1035B6BB3F1FF3F00D100BEA388F1
:102AD00019B24FEA511103F01F034FF0010000FA41
:102AE00003F04EF20013CEF2000301F1200143F88F
:102AF0002100936813F0040F02D02046FFF776FE02
:102B000023681A6822F001021A60226805F10603A0
:102B100004EBC303596811602268597A91612268F5
:102B20001B7A536023681A6842F001021A60226817
:102B3000D1694FF0010303FA05F545EA0105D561B6
:102B4000A28811B24FEA511102F01F0203FA02F2F9
:102B50004EF20013CEF2000343F8212038BD00BF2F
:102B600038B504460D4640F25063C2F20003984265
:102B700006D040F2CC53C2F20003984200D000BE0F
:102B80002268136813F0020F00D100BEA38819B2A7
:102B90004FEA511103F01F034FF0010000FA03F058
:102BA0004EF20013CEF2000301F1200143F82100A0
:102BB000936813F0040F02D02046FFF717FE226837
:102BC000D1694FF0010303FA05F521EA0505D56146
:102BD000A28811B24FEA511102F01F0203FA02F269
:102BE0004EF20013CEF2000343F8212038BD00BF9F
:102BF00010B483B040F25063C2F20003984206D092
:102C000040F2CC53C2F20003984200D000BE0368E9
:102C10001A6812F0020F00D100BE1C6840F2FF02D9
:102C2000CFF6007204EA020242F480721A6003686E
:102C3000DA6A42F00C02DA6203689A6812F0400F16
:102C400007D11A690192019A01929A6812F0400F15
:102C5000F7D0596103689A6812F0010F03D19A689E
:102C600012F0010FFBD09A6812F0020F03D19A689C
:102C700012F0020FFBD0186903B010BC704700BF00
:102C80002DE9F04F83B00446884616469A46BDF8B3
:102C9000307040F25063C2F20003984206D040F216
:102CA000CC53C2F20003984200D000BE23681A68D9
:102CB00012F0020F00D100BE07EB0605ADB2002DE9
:102CC00014BFA9464FF00109DA6A42F00C02DA6239
:102CD00023689B6813F0040F02D02046FFF786FD9F
:102CE00023681A6822F001021A602268116840F213
:102CF000FF03CFF6007301EA030343EA09231360DD
:102D000023684FF008025A6023681A6842F00102F3
:102D10001A6023689A6812F0400F05D11A6901926F
:102D20009A6812F0400FF9D05EB198F800205A610D
:102D3000002D4CD04FF001014FF000008C460346AF
:102D400008E0002D43D04FF0000058614FF0010122
:102D50008C4603464FF0000B2268D2F8089019F019
:102D6000400F11D1126901929E4207D8874284BF59
:102D7000019A0AF8002000F1010080B203F101037A
:102D80009BB201F1FF3189B22268D2F8089019F4A0
:102D9000807F1AD1032918D866450BD918F80C90F2
:102DA000C2F814900CF1010C1FFA8CFC01F1010126
:102DB00089B20AE0654581BFC2F814B00CF1010C7C
:102DC0001FFA8CFC013188BF89B2AB42C4D303B077
:102DD000BDE8F08F10B440F25063C2F20003984295
:102DE00006D040F2CC53C2F20003984200D000BE9D
:102DF00003681B6813F0020F00D000BE83881AB26C
:102E00004FEA521203F01F034FF0010404FA03F4D7
:102E10004EF20013CEF2000302F1200243F82240EA
:102E20004FF00003C367036241674FF0020380F86D
:102E3000803003689A6812F4806F1EBFDA6A42F02D
:102E40000102DA620268116840F2FF03CFF60073F4
:102E500001EA030343F48073136003689A6A22F063
:102E600010029A6203689A6A22F020029A6203684A
:102E70004FF00E02DA6003681A6842F0D0021A605E
:102E800083881AB24FEA521203F01F034FF0010178
:102E900001FA03F14EF20013CEF2000343F82210C0
:102EA00010BC704710B440F25063C2F20003984265
:102EB00006D040F2CC53C2F20003984200D000BECC
:102EC00003681B6813F0020F00D000BE83881CB299
:102ED0004FEA541403F01F034FF0010C0CFA03F3F4
:102EE0004EF20012CEF2000204F1200442F8243027
:102EF0004FF0020380F880304FF00003C367036295
:102F00008360C360036181670368D96A21F00101AE
:102F1000D9620368D96A41F00801D96201680C6876
:102F200040F2FF03CFF6007304EA030343F4807317
:102F30000B600368816F59610368996A21F0100181
:102F400099620368996A21F02001996203684FF041
:102F50000D01D9600368196841F0E00119608388A8
:102F600019B24FEA511103F01F030CFA03F342F8B0
:102F7000213010BC704700BF70B582B004461546C2
:102F800040F25062C2F20002904206D040F2CC52AF
:102F9000C2F20002904200D000BE2268126812F015
:102FA000020F00D000BEA2880FFA82FC4FEA5C1C20
:102FB00002F01F024FF0010000FA02F64EF200127A
:102FC000CEF200020CF1200C42F82C6084F8800054
:102FD000226A0AB9606202E04FF0000262624FF0BA
:102FE000000262670798E067A362069BE3622263C0
:102FF000A160E56022612368DA6A42F00C02DA62BD
:1030000023689B6813F0040F02D02046FFF7EEFB05
:1030100023689A6812F0400F07D11A690192019A49
:1030200001929A6812F0400FF7D01A6822F001025C
:103030001A602268116840F2FF03CFF6007301EABC
:10304000030343F48053136023684FF008025A606F
:1030500023681A6842F001021A6023689A6812F421
:10306000807F1ED14FF0000006464FF0010C226910
:10307000E1688A4204D2A1688A5C5A61014605E08F
:10308000626A0AB9614601E058613146236903F179
:103090000103236123689A6812F4807F01D100291B
:1030A000E5D06DB1DA6A22F00102DA6223684FF0EE
:1030B0000102DA6023681A6842F020021A6003E015
:1030C000DA6A42F00102DA62236A23B923689A6A53
:1030D00022F010029A6223684FF02002DA6023681F
:1030E0009A6A42F020029A6223684FF00E02DA6078
:1030F00023681A6842F0D0021A60A3881AB24FEA15
:10310000521203F01F034FF0010101FA03F14EF2D6
:103110000013CEF2000343F8221002B070BD00BFCE
:1031200010B4838819B24FEA511103F01F034FF016
:10313000010202FA03F44EF20013CEF2000301F191
:10314000200143F8214001680C6844EA02040C6045
:10315000818808B24FEA501001F01F0102FA01F213
:1031600043F8202010BC704710B4838819B24FEA8E
:10317000511103F01F034FF0010202FA03F44EF263
:103180000013CEF2000301F1200143F82140016851
:103190000C6824F001040C60818808B24FEA5010DA
:1031A00001F01F0102FA01F243F8202010BC704721
:1031B00030B483881AB24FEA521203F01F034FF063
:1031C000010C0CFA03F44EF20013CEF2000302F1EC
:1031D000200243F822400468256840F2FF02CFF63F
:1031E000007205EA020242EA0122226002681168C6
:1031F00021F00101116002684FF00801516002687E
:10320000116841EA0C011160828811B24FEA511134
:1032100002F01F020CFA02F243F8212030BC704782
:103220000368986800F00100704700BF10B402689E
:10323000936813F4807F13D10369C1688B4213D262
:103240008168CB5C5361036903F101030361026888
:10325000916811F4807F03D1C1689942F0D803E0EE
:103260000269C3689A4217D30268936813F4807F97
:1032700012D1C36981698B420ED24169CB5C536123
:10328000C36903F10103C3610268916811F4807F8F
:1032900002D181699942F0D8436ACBB10269C3680F
:1032A0009A4215D3C26983699A4211D303689A6816
:1032B00012F4807F0CD14FF0000214465C61036869
:1032C000996811F4807F03D102F10102202AF5D11F
:1032D00010BC704708B5416182614FF00002C261C5
:1032E0004FF001024262FFF7A1FF08BD38B5044666
:1032F000838818B24FEA501003F01F034FF0010506
:1033000005FA03F54EF20013CEF2000300F120009F
:1033100043F820504FF000036361A361E3610B4663
:1033200069B94FF0010363624FF000032362226822
:10333000536323689A6A22F010029A6217E04FF0F2
:1033400000016162236223685A632368DA6A42F0EB
:103350000C02DA6221612046FFF768FF23684FF014
:103360001002DA6023689A6A42F010029A62A38817
:103370001AB24FEA521203F01F034FF0010101FA93
:1033800003F14EF20013CEF2000343F8221038BDD1
:1033900010B582B0044690F88030022B0CD105E0C5
:1033A00013690193636F13B101989847226893687A
:1033B00013F0400FF4D023E0012B03689A6803D088
:1033C00012F0400F16D01BE012F0400F18D11B690D
:1033D0000193236BE26A93423EBF0199A26AD154E2
:1033E000236B03F10103236323689A6812F0400FF3
:1033F000EDD005E01A6901929A6812F0400FF9D0F9
:1034000002B010BD70B582B00446056840F250634A
:10341000C2F20003984206D040F2CC53C2F200033D
:10342000984200D000BE2B6A13F0020F38D094F8F7
:103430008030022B0CD105E013690193636F13B147
:10344000019898472268936813F0400FF4D023E066
:10345000012BAB6803D013F0400F17D01CE013F022
:10346000400F19D12B461B690193236BE26A9342EB
:103470003EBF0199A26AD154236B03F10103236378
:1034800023689A6812F0400FEDD005E02B69019394
:10349000AB6813F0400FF9D023684FF00202DA60F6
:1034A0002B6A13F0010F0ED094F88030022B03D159
:1034B0002368A26F5A6102E02046FFF7B7FE236837
:1034C0004FF00102DA602B6A13F0100F16D020467D
:1034D000FFF75EFF236A2BB1A06A216B9847204655
:1034E000FFF7A4FE4FF00103636223689A6A22F09B
:1034F00010029A6223684FF01002DA602B6A13F010
:10350000040F0BD02368DA6A42F00402DA62204624
:10351000FFF76CF923684FF00402DA602B6A13F0AE
:10352000080F23D02368DA6A42F00802DA6294F8BE
:103530008030022B0ED12268116840F2FF03CFF6D3
:10354000007301EA030343F4807313602368A26FDE
:103550005A6107E0012B05D14FF00003236120469B
:10356000FFF764FE23684FF00802DA602B6A13F05D
:10357000200F29D02046FFF70BFF266B236A73B17B
:103580004FF0000363626361A361E36123684FF05E
:103590001002DA6023689A6A42F010029A624FF0D1
:1035A000000525612368DA6A42F00C02DA622046DF
:1035B000FFF73CFE2563E36F13B1A06A31469847DD
:1035C00023684FF02002DA6002B070BD684620F038
:1035D00007018D4601B540F25060C2F20000FFF7CE
:1035E00011FF4EF20013CEF200034FF48052C3F8E5
:1035F0008021BDE801408546704700BF684620F045
:1036000007018D4601B540F2CC50C2F20000FFF731
:10361000F9FE4EF20013CEF200034FF40052C3F84D
:103620008021BDE801408546704700BF38B504469B
:1036300040F25063C2F20003984206D040F2CC53ED
:10364000C2F20003984200D000BEA3881AB24FEA2B
:10365000521203F01F034FF0010505FA03F14EF279
:103660000013CEF2000302F1200243F8221020469C
:103670004FF000014FF0840202F0AEFB65624FF0A4
:1036800000034FF0FF3104EB0302516303F1080321
:10369000402BF8D140F25063C2F200039C4220D18B
:1036A00040F25063C2F2000341F20002C4F2000291
:1036B0001A604FF00C029A8042F20003CEF204032B
:1036C0001A6B42F400721A634EF20012CEF200023C
:1036D0004FF48051C2F880111A6B22F400721A6301
:1036E0001BE041F20003C4F2010323604FF00D031D
:1036F000A38042F20003CEF204031A6B42F480620C
:103700001A634EF20012CEF200024FF40051C2F8DA
:1037100080111A6B22F480621A6323681A6822F0FF
:1037200000421A6038BD00BF40F2D463C2F2000309
:10373000984206D040F24873C2F20003984200D08B
:1037400000BE90F83C007047034640F2D462C2F2DB
:103750000002904206D040F24872C2F2000290424B
:1037600000D000BE19644FF0000244F23F2CC0F2BA
:103770000F0C02F1010293F83C0062458CBF00215E
:103780000121012814BF002101F001010029F0D11D
:10379000704700BF036C7BB18B4203D9C1EB0303BD
:1037A000036470474FF0030380F83C304FF0000390
:1037B000037280F871300364704700BF40F2D46335
:1037C000C2F20003984206D040F24873C2F20003EE
:1037D000984200D000BE022904D900BE4FF0020377
:1037E000036670470166704740F2D463C2F200037B
:1037F000984206D040F24873C2F20003984200D0CB
:1038000000BE4166704700BF90F868301BB1836905
:103810004FF001029A60704730B583B0044640F221
:10382000D463C2F20003984206D040F24873C2F259
:103830000003984200D000BE626913798DF807300A
:103840009DF80730A3F10803D02B00F28E82DFE849
:1038500013F0D1008C028C028C028C028C028C0240
:103860008C02D1008C028C028C028C028C028C02A5
:103870008C0206018C028C028C028C028C028C025F
:103880008C02F7008C028C028C028C028C028C025F
:103890008C0206018C028C028C028C028C028C023F
:1038A0008C0244018C028C028C028C028C028C02F1
:1038B0008C02F2008C028C028C028C028C028C0234
:1038C0008C0253018C028C028C028C028C028C02C2
:1038D0008C026E018C028C028C028C028C028C0297
:1038E0008C027D018C028C028C028C028C028C0278
:1038F0008C028F018C028C028C028C028C028C0256
:103900008C02D0018C028C028C028C028C028C0204
:103910008C02CC018C028C028C028C028C028C02F8
:103920008C02D0018C028C028C028C028C028C02E4
:103930008C02CC018C028C028C028C028C028C02D8
:103940008C02E6018C028C028C028C028C028C02AE
:103950008C02BB018C028C028C028C028C028C02C9
:103960008C02E6018C028C028C028C028C028C028E
:103970008C02BB018C028C028C028C028C028C02A9
:103980008C02FF018C028C028C028C028C028C0255
:103990008C0248028C028C028C028C028C028C02FB
:1039A0008C0248028C028C028C028C028C028C02EB
:1039B0008C0248028C028C028C028C028C028C02DB
:1039C0008C027A028C028C028C028C028C028C0299
:1039D0008C027A028C028C028C028C028C028C0289
:1039E0008C028C028C028C028C028C028C028C0267
:1039F0008C023902A3694FF000025A61636922798F
:103A00001A72A369E26AC3F80021E36A0BB9A362E0
:103A100003E0012B04BF0023A36394F871301BB1B2
:103A20004FF0000384F8713094F87230227A9A4291
:103A300018BF2372AFE1A3694FF001025A61AAE1F6
:103A4000A3694FF001021A614FF0020384F83C3081
:103A50004FF0000323722046FFF7D6FE9BE1A36AD6
:103A6000616A8B4206D2216AC95C117203F10103BB
:103A7000A36290E1237A032B05D14FF00103E362A7
:103A8000A269536187E14FF000032372237C03F0A6
:103A9000010384F870303BB9A3694FF001051D6143
:103AA0002046FFF7B1FE13E0638A1AB24FEA5212C2
:103AB00003F01F034FF0010101FA03F14EF200136E
:103AC000CEF2000302F1200243F822104FF000056D
:103AD0004FF0000384F83C305CE1A3694FF0010231
:103AE0001A614FF0020384F83C304FF00003237258
:103AF0002046FFF789FE4EE1636B012B04D9A369D1
:103B00004FF001029A6046E1012B04D1A3694FF006
:103B100000029A603FE1A2694FF001039360A2693D
:103B200013614FF0000384F83C30237233E1A36942
:103B30004FF001021A614FF0020384F83C304FF05D
:103B4000000323722046FFF75FFE24E1A36B117A86
:103B5000226BD15403F10103A363626B02F1FF32C4
:103B60009342C0F01881A3694FF000029A6012E1FD
:103B7000117A226BA36BD154237C03F0010384F8E8
:103B800070303BB9A3694FF001051D612046FFF776
:103B90003BFE13E0638A1AB24FEA521203F01F038E
:103BA0004FF0010101FA03F14EF20013CEF20003CF
:103BB00002F1200243F822104FF000054FF00003FD
:103BC000237284F83C30E5E0A3694FF001029A606B
:103BD0004FF00003237284F85C3094F87130002BAE
:103BE00000F0D980A3695A61D5E04FF0010384F851
:103BF00071304FF0040323724FF00003A365E360BC
:103C0000A3695A6932B14FF000025A614FF00103C3
:103C100084F871304FF0010384F85C30BBE0216D13
:103C200061B1A36D606D83420DD2127ACA5403F163
:103C30000103A365E36802EB0322E260A26D636DFA
:103C40009A42C0F0A880A3694FF000029A60A2E0F7
:103C5000237A042B21D1A26D236E9A4204BFE3681C
:103C6000E364636EA3B12046216DB4F858209847F1
:103C700038B92046FFF7C8FDA3694FF001029A60EA
:103C800011E0A2694FF00003936084F868300AE005
:103C9000A3694FF001029A6005E04FF00003E3646E
:103CA0002046FFF7B1FD4FF0000384F85C3094F834
:103CB00071301BB1A3694FF001025A614FF000034C
:103CC000237268E04FF000032372E36494F85C30E1
:103CD000012B04BF022384F85C302046FFF794FDDB
:103CE00059E09DF80730A82B13D14FF0050323723C
:103CF0004FF00003E3604FF0010384F85C30A369E8
:103D00005A6932B14FF000025A614FF0010384F852
:103D10007130E36CA26C934223BF63694FF0FF32B2
:103D20001A7262693FBF616CC95C1172013338BF9E
:103D3000E364E26CA36C9A422DD3A2694FF00003B6
:103D40009360E36427E04FF00003E364A2694FF05F
:103D50000101916084F85C3094F871300BB1A36973
:103D600059614FF00003237215E0A2694FF0000380
:103D700053612372E36494F83C30012B04BF0223A7
:103D800084F83C3094F85C30012B04BF022384F8A3
:103D90005C3000E01DB1A3694FF00002DA60636996
:103DA0001B798DF8073003B030BD00BF436919752A
:103DB00043694FF054021A74704700BF30B440F2A8
:103DC000D463C2F20003984207D040F24873C2F2B3
:103DD0000003984228D000BE26E011F0010F11D058
:103DE0004EF20013CEF200034FF40044C3F88041BA
:103DF00040F2D462C2F20002D2694FF00105C2F86B
:103E000000521C6011F0020F30D04EF20013CEF2BF
:103E100000034FF48032C3F88021C1694FF00100E4
:103E2000C1F804021A6021E011F0010F0DD04EF22A
:103E30000013CEF200034FF48022C3F88021C4693E
:103E40004FF00105C4F800521A6011F0020F0DD0B6
:103E50004EF20013CEF200034FF40022C3F880218B
:103E6000C1694FF00100C1F804021A6030BC70470C
:103E700040F2D463C2F20003984207D040F2487384
:103E8000C2F20003984226D000BE24E011F0010FD8
:103E900010D040F2D463C2F20003DB694FF000029D
:103EA000C3F800224EF20013CEF200034FF400429A
:103EB000C3F8802011F0020F2DD0C3694FF000022B
:103EC000C3F804224EF20013CEF200034FF4803206
:103ED000C3F88020704711F0010F0CD0C3694FF078
:103EE0000002C3F800224EF20013CEF200034FF49A
:103EF0008022C3F8802011F0020F0CD0C3694FF06C
:103F00000002C3F804224EF20013CEF200034FF475
:103F10000022C3F880207047C3694FF00002C3F845
:103F200018227047C3694FF00102C3F81822704786
:103F3000C3694FF00102C3F81C227047C3694FF0F8
:103F40000002C3F810227047C3694FF00102C3F8A2
:103F50001022704783694FF00102C3F88021704737
:103F600083694FF00002C3F880217047C166704733
:103F7000C06E7047684620F007018D4601B540F2DB
:103F8000D460C2F20000FFF747FC4EF20013CEF2FD
:103F900000034FF48042C3F88021BDE8014085460C
:103FA000704700BF684620F007018D4601B540F21A
:103FB0004870C2F20000FFF72FFC4EF20013CEF261
:103FC00000034FF40032C3F88021BDE8014085466C
:103FD000704700BF10B500F083FB04464FF00100AE
:103FE00000F082FB204610BD08B500F07DFB08BD47
:103FF00010B5044640F2D463C2F20003984206D0E2
:1040000040F24873C2F20003984200D000BEFFF7AE
:10401000E1FFA2694FF00003936084F86830FFF776
:10402000E3FF10BD38B5044640F2D463C2F200038A
:10403000984206D040F24873C2F20003984200D082
:1040400000BEFFF7C7FFA3694FF001059D6084F82C
:104050006850FFF7C9FF638A1AB24FEA521203F0A1
:104060001F0305FA03F54EF20013CEF2000343F8E6
:10407000225038BD70B504460D46164640F2D46352
:10408000C2F20003984206D040F24873C2F2000325
:10409000984200D000BEFFF79DFF256566654FF092
:1040A0000003A365FFF7A0FF70BD00BF70B5044615
:1040B0000D46164640F2D463C2F20003984206D081
:1040C00040F24873C2F20003984200D000BEFFF7EE
:1040D00081FF6564A6644FF00003E364FFF784FF8B
:1040E00070BD00BF2DE9F04782B0044688461746F0
:1040F0001D46DDF828A0BDF82C609DF8309040F2F8
:10410000D463C2F20003984206D040F24873C2F270
:104110000003984200D000BE05B900BE07B900BE3A
:1041200006B900BEBAF1000F00D100BE2B1E18BFA9
:104130000123002E0CBF002303F00103002B5AD0F3
:10414000FFF748FF237A13B94FF0030323724FF0B0
:10415000030384F872304FEA480363604FF00003B2
:10416000E36227626562A362C4F830A06663A3635A
:104170004FF0010384F83C3084F8109094F85C30E0
:10418000012B0FBF84F87130A36901225A6194F8A2
:104190007030012B1DD1A3694FF00002DA60636912
:1041A0001B798DF807309DF807308DF80730638A4A
:1041B0001AB24FEA521203F01F034FF0010101FA45
:1041C00003F14EF20013CEF2000302F1600243F855
:1041D0002210638A1AB24FEA521203F01F034FF003
:1041E000010101FA03F14EF20013CEF2000343F88D
:1041F0002210FFF7F9FE02B0BDE8F0872DE9F0418B
:1042000082B004460D4616461F469DF8208040F2B7
:10421000D463C2F20003984206D040F24873C2F25F
:104220000003984200D000BEFFF7D4FE237A13B9F2
:104230004FF0020323724FF0020384F872304FEA0A
:10424000450565604FF00103E362266367634FF045
:104250000002A26384F83C3084F8108094F85C304B
:10426000012B0FBF84F87130A36901225A6194F8C1
:104270007030012B1DD1A3694FF00002DA60636931
:104280001B798DF807309DF807308DF80730638A69
:104290001AB24FEA521203F01F034FF0010101FA64
:1042A00003F14EF20013CEF2000302F1600243F874
:1042B0002210638A1AB24FEA521203F01F034FF022
:1042C000010101FA03F14EF20013CEF2000343F8AC
:1042D0002210FFF789FE02B0BDE8F0812DE9F04120
:1042E00082B004460D4616461F469DF8208040F2D7
:1042F000D463C2F20003984206D040F24873C2F27F
:104300000003984200D000BEFFF764FE237A13B981
:104310004FF0010323724FF0010384F8723005FA65
:1043200003F565604FF00002E26226626762A262F6
:1043300084F83C3084F8108094F85C30012B0FBF77
:1043400084F87130A36901225A6194F87030012B0E
:104350001DD1A3694FF00002DA6063691B798DF803
:1043600007309DF807308DF80730638A1AB24FEA9C
:10437000521203F01F034FF0010101FA03F14EF254
:104380000013CEF2000302F1600243F82210638AA8
:104390001AB24FEA521203F01F034FF0010101FA63
:1043A00003F14EF20013CEF2000343F82210FFF7A0
:1043B0001BFE02B0BDE8F0812DE9F04104460E4637
:1043C000154640F2D463C2F20003984207D040F28F
:1043D0004873C2F2000398424FD000BE4DE0FFF791
:1043E000F9FD074640F2D468C2F2000840464FF09B
:1043F00000014FF0740201F0EFFC4FF00E03A8F83B
:10440000123042F20003C4F20003C8F8143040F244
:104410000003C4F20423C8F8183042F20003CEF2BD
:1044200004031A6B42F400621A634EF20012CEF2D9
:1044300000024FF48041C2F880111A6B22F400622E
:104440001A63A369E3614FEA46062660C5F380025A
:10445000DA61A369C5F340025A60A36905F001055A
:104460001D60636922781A73A3694FF001029A6193
:104470003846FFF7B9FDBDE8F081FFF7ABFD074611
:1044800020464FF000014FF0740201F0A5FC4FF000
:104490001103638242F20003C4F20103636140F23C
:1044A0000003C4F22423A36142F20003CEF204030A
:1044B0001A6B42F480521A634EF20012CEF20002DE
:1044C0004FF40031C2F880111A6B22F480521A6343
:1044D000B7E700BF10B442F20003CEF204031A6B38
:1044E00042F480421A634FF000034BF63C10C0F2D6
:1044F00000004FF0010C4EF20014CEF20004C25A3C
:1045000011B24FEA511102F01F020CFA02F201F14E
:10451000600144F8212003F10203402BEFD142F265
:104520000003CEF204031A6B22F480421A6310BC1B
:10453000704700BF1F2801D900BE70474BF63C13DF
:10454000C0F2000303EB8000036C1960704700BFEA
:104550001F2801D900BE704740F20003C4F2262391
:1045600000F5886043F82010704700BF1F2801D96C
:1045700000BE7047012903D0E1B1022940D133E0E8
:1045800043F20003C4F20103D3F888104FF0010294
:1045900002FA00F242EA0102C3F888204BF63C130B
:1045A000C0F2000303EB8000036C1A6842F00402BF
:1045B0001A60704743F20003C4F20103D3F8881075
:1045C0004FF0010202FA00F221EA0202C3F8882049
:1045D0004BF63C13C0F2000303EB8000036C1A6837
:1045E00042F004021A6070474BF63C13C0F200031D
:1045F00003EB8000036C1A6822F004021A60704713
:1046000000BE70471F2801D900BE70474BF63C130F
:10461000C0F2000303EB8002126C116841F0080144
:10462000116033F810301AB24FEA521203F01F0330
:104630004FF0010101FA03F14EF20013CEF2000334
:1046400043F82210704700BF1F2801D900BE7047F1
:104650004BF63C13C0F2000303EB8000036C1A68B6
:1046600022F008021A6070471F2801D900BE704767
:104670004FF0010202FA00F143F20003C4F2010319
:10468000C3F880104BF63C13C0F2000333F810302F
:1046900019B24FEA511103F01F0302FA03F24EF26E
:1046A0000013CEF2000301F1600143F821207047AE
:1046B000EFF309800046704780F30988704700BF18
:1046C000EFF308800046704780F30888704700BF0A
:1046D000EFF31280704700BF80F31188704700BF6E
:1046E000EFF31080704700BF80F31088704700BF61
:1046F000EFF31380704700BF80F31388704700BF4B
:10470000EFF31480704700BF80F31488704700BF38
:1047100000BA704740BA7047C0BA704790FAA0F02C
:10472000704700BFD0E84F0FC0B27047D0E85F0FAE
:1047300080B2704750E8000F704700BFC1E8430FD8
:1047400018467047C1E8530F1846704741E800000B
:10475000704700BF704700BF30B484B04BF6FC1305
:10476000C0F20003EC460FCB8CE80F0042F20003CE
:10477000CEF204039A6C02F00C0204A90A4452F827
:10478000105C9A6CC2F3011201EB820252F8104CD9
:104790009A6CC2F3811201EB820252F8100CD96CB0
:1047A000DB6CC1F3042101F1010113F4005F18BFB8
:1047B000490040F23023C6F208031A6822F0704222
:1047C00041F2CF13C0F2A1539A4205D14EF62C7399
:1047D000C6F201031A6828E040F61C03C6F208037B
:1047E0001A6844F24133C4F654439A421ED140F64B
:1047F0004003C6F208031A6822F07F4240F20033F9
:10480000C0F201039A4211D9B2F5003F05D241F23C
:104810002C63C6F208031A6807E0B2F5403F05D2E0
:1048200041F6AC63C6F208031A6822B900BE47F627
:104830004002C0F27D1240F20C03C2F200031A6083
:10484000B2FBF5F55D60B2FBF4F49C60B2FBF0F0F6
:10485000D860B2FBF1F119615A6104B030BC704705
:1048600081F0004102E000BF83F0004330B54FEA21
:1048700041044FEA430594EA050F08BF90EA020F8E
:104880001FBF54EA000C55EA020C7FEA645C7FEA21
:10489000655C00F0E2804FEA5454D4EB5555B8BF44
:1048A0006D420CDD2C4480EA020281EA030382EAB5
:1048B000000083EA010180EA020281EA0303362D47
:1048C00088BF30BD11F0004F4FEA01314FF4801C1A
:1048D0004CEA113102D0404261EB410113F0004F2C
:1048E0004FEA03334CEA133302D0524263EB4303E3
:1048F00094EA050F00F0A780A4F10104D5F1200E81
:104900000DDB02FA0EFC22FA05F2801841F10001DB
:1049100003FA0EF2801843FA05F359410EE0A5F1AF
:1049200020050EF1200E012A03FA0EFC28BF4CF0E0
:10493000020C43FA05F3C01851EBE37101F0004596
:1049400007D54FF0000EDCF1000C7EEB00006EEBA3
:104950000101B1F5801F1BD3B1F5001F0CD349082D
:104960005FEA30004FEA3C0C04F101044FEA445284
:1049700012F5800F80F09A80BCF1004F08BF5FEA0B
:10498000500C50F1000041EB045141EA050130BDEB
:104990005FEA4C0C404141EB010111F4801FA4F18E
:1049A0000104E9D191F0000F04BF01460020B1FAE3
:1049B00081F308BF2033A3F10B03B3F120020CDA1B
:1049C0000C3208DD02F1140CC2F10C0201FA0CF0F9
:1049D00021FA02F10CE002F11402D8BFC2F1200C5E
:1049E00001FA02F120FA0CFCDCBF41EA0C01904014
:1049F000E41AA2BF01EB0451294330BD6FEA04045D
:104A00001F3C1CDA0C340EDC04F11404C4F1200247
:104A100020FA04F001FA02F340EA030021FA04F359
:104A200045EA030130BDC4F10C04C4F1200220FAB0
:104A300002F001FA04F340EA0300294630BD21FAEE
:104A400004F0294630BD94F0000F83F4801306BFB4
:104A500081F480110134013D4EE77FEA645C18BFA8
:104A60007FEA655C29D094EA050F08BF90EA020F3F
:104A700005D054EA000C04BF1946104630BD91EA37
:104A8000030F1EBF0021002030BD5FEA545C05D13A
:104A90004000494128BF41F0004130BD14F5800479
:104AA0003CBF01F5801130BD01F0004545F0FE41ED
:104AB00041F470014FF0000030BD7FEA645C1ABF22
:104AC000194610467FEA655C1CBF0B46024650EA59
:104AD000013406BF52EA033591EA030F41F4002185
:104AE00030BD00BF90F0000F04BF0021704730B50B
:104AF0004FF4806404F132044FF000054FF00001E0
:104B000050E700BF90F0000F04BF0021704730B5A0
:104B10004FF4806404F1320410F0004548BF404275
:104B20004FF000013EE700BF42004FEAE2014FEACA
:104B300031014FEA02701FBF12F07F4393F07F4FA5
:104B400081F06051704792F0000F14BF93F07F4FD7
:104B5000704730B54FF4607401F0004521F000411A
:104B600020E700BF50EA010208BF704730B54FF0A0
:104B700000050AE050EA010208BF704730B511F0A5
:104B8000004502D5404261EB41014FF4806404F1DD
:104B900032045FEA915C3FF4DCAE4FF003025FEA5F
:104BA000DC0C18BF03325FEADC0C18BF033202EBE7
:104BB000DC02C2F1200300FA03FC20FA02F001FA41
:104BC00003FE40EA0E0021FA02F11444C1E600BFE0
:104BD00070B54FF0FF0C4CF4E06C1CEA11541DBF93
:104BE0001CEA135594EA0C0F95EA0C0F00F0DEF85E
:104BF0002C4481EA030621EA4C5123EA4C5350EA43
:104C0000013518BF52EA033541F4801143F4801393
:104C100038D0A0FB02CE4FF00005E1FB02E506F024
:104C20000042E0FB03E54FF00006E1FB03569CF079
:104C3000000F18BF4EF0010EA4F1FF04B6F5007F7F
:104C400064F5407404D25FEA4E0E6D4146EB0606F1
:104C500042EAC62141EA55514FEAC52040EA5E507A
:104C60004FEACE2EB4F1FD0C88BFBCF5E06F1ED824
:104C7000BEF1004F08BF5FEA500E50F1000041EB5B
:104C8000045170BD06F0004646EA010140EA020008
:104C900081EA0301B4EB5C04C2BFD4EB0C0541EA2A
:104CA000045170BD41F480114FF0000E013C00F33F
:104CB000AB8014F1360FDEBF002001F0004170BD63
:104CC000C4F10004203C35DA0C341BDC04F114047C
:104CD000C4F1200500FA05F320FA04F001FA05F208
:104CE00040EA020001F0004221F0004110EBD370D5
:104CF00021FA04F642EB06015EEA430E08BF20EA01
:104D0000D37070BDC4F10C04C4F1200500FA04F3A3
:104D100020FA05F001FA04F240EA020001F0004135
:104D200010EBD37041F100015EEA430E08BF20EAA8
:104D3000D37070BDC4F1200500FA05F24EEA020EF0
:104D400020FA04F301FA05F243EA020321FA04F01F
:104D500001F0004121FA04F220EA020000EBD370D6
:104D60005EEA430E08BF20EAD37070BD94F0000FD6
:104D70000FD101F00046400041EB010111F4801F0A
:104D800008BF013CF7D041EA060195F0000F18BFBB
:104D9000704703F00046520043EB030313F4801FF7
:104DA00008BF013DF7D043EA0603704794EA0C0FB1
:104DB0000CEA135518BF95EA0C0F0CD050EA4106C7
:104DC00018BF52EA4306D1D181EA030101F0004144
:104DD0004FF0000070BD50EA410606BF104619466C
:104DE00052EA430619D094EA0C0F02D150EA013678
:104DF00013D195EA0C0F05D152EA03361CBF1046B9
:104E000019460AD181EA030101F0004141F0FE4157
:104E100041F470014FF0000070BD41F0FE4141F4DB
:104E2000780170BD70B54FF0FF0C4CF4E06C1CEADB
:104E300011541DBF1CEA135594EA0C0F95EA0C0F90
:104E400000F0A7F8A4EB050481EA030E52EA03354B
:104E50004FEA013100F088804FEA03334FF080556C
:104E600045EA131343EA12634FEA022245EA111599
:104E700045EA10654FEA00260EF000419D4208BF4A
:104E8000964244F1FD0404F5407402D25B084FEAF7
:104E90003202B61A65EB03055B084FEA32024FF4A3
:104EA00080104FF4002CB6EB020E75EB030E22BF00
:104EB000B61A754640EA0C005B084FEA3202B6EBC0
:104EC000020E75EB030E22BFB61A754640EA5C006F
:104ED0005B084FEA3202B6EB020E75EB030E22BFFF
:104EE000B61A754640EA9C005B084FEA3202B6EB00
:104EF000020E75EB030E22BFB61A754640EADC00BF
:104F000055EA060E18D04FEA051545EA16754FEA20
:104F100006164FEAC30343EA52734FEAC2025FEA3E
:104F20001C1CC0D111F4801F0BD141EA00014FF0CD
:104F300000004FF0004CB6E711F4801F04BF01439E
:104F40000020B4F1FD0C88BFBCF5E06F3FF6AFAEBA
:104F5000B5EB030C04BFB6EB020C5FEA500C50F14A
:104F6000000041EB045170BD0EF0004E4EEA1131CD
:104F700014EB5C04C2BFD4EB0C0541EA045170BDD4
:104F800041F480114FF0000E013C90E645EA060E18
:104F90008DE60CEA135594EA0C0F08BF95EA0C0F46
:104FA0003FF43BAF94EA0C0F0AD150EA01347FF48E
:104FB00034AF95EA0C0F7FF425AF104619462CE765
:104FC00095EA0C0F06D152EA03353FF4FDAE1046C8
:104FD000194622E750EA410618BF52EA43067FF419
:104FE000C5AE50EA41047FF40DAF52EA43057FF4A9
:104FF000EBAE12E74FF0FF3C06E000BF4FF0010CB4
:1050000002E000BF4FF0010C4DF804CD4FEA410C17
:105010007FEA6C5C4FEA430C18BF7FEA6C5C1BD0E4
:1050200001B050EA410C0CBF52EA430C91EA030F65
:1050300002BF90EA020F0020704710F1000F91EAC2
:10504000030F58BF994208BF90422CBFD8176FEA90
:10505000E37040F0010070474FEA410C7FEA6C5C5E
:1050600002D150EA013C07D14FEA430C7FEA6C5C65
:10507000D6D152EA033CD3D05DF8040B704700BF91
:105080008446104662468C461946634600E000BFDF
:1050900001B5FFF7B7FF002848BF10F1000F01BDB1
:1050A0004DF808EDFFF7F4FF0CBF012000205DF87C
:1050B00008FB00BF4DF808EDFFF7EAFF34BF012001
:1050C00000205DF808FB00BF4DF808EDFFF7E0FF9A
:1050D00094BF012000205DF808FB00BF4DF808EDEB
:1050E000FFF7CEFF94BF012000205DF808FB00BF52
:1050F0004DF808EDFFF7C4FF34BF012000205DF834
:1051000008FB00BF4A0011D212F5001211D20DD5D2
:105110006FF47873B3EB62520ED44FEAC12343F0BD
:10512000004343EA505323FA02F070474FF0000067
:10513000704750EA013002D14FF0FF3070474FF016
:10514000000070474FEA4102B2F1E04324BFB3F5DB
:10515000001CDCF1FE5C0DD901F0004C4FEAC002EE
:105160004CEA5070B2F1004F40EB830008BF20F0D2
:105170000100704711F0804F21D113F13872BCBF8C
:1051800001F00040704741F480114FEA5252C2F1E1
:105190001802C2F1200C10FA0CF320FA02F018BF2A
:1051A00040F001004FEAC1234FEAD32303FA0CFC7D
:1051B00040EA0C0023FA02F34FEA4303CCE77FEA0C
:1051C000625307D150EA01331EBF4FF0FE4040F456
:1051D0004000704701F0004040F0FE4040F4000005
:1051E000704700BF80F0004002E000BF81F0004146
:1051F00042001FBF5FEA410392EA030F7FEA226C7D
:105200007FEA236C6AD04FEA1262D2EB1363C1BF0C
:10521000D218414048404140B8BF5B42192B88BF7B
:10522000704710F0004F40F4000020F07F4018BF9E
:10523000404211F0004F41F4000121F07F4118BFBE
:10524000494292EA030F3FD0A2F1010241FA03FC66
:1052500010EB0C00C3F1200301FA03F100F000434E
:1052600002D5494260EB4000B0F5000F13D3B0F116
:10527000807F06D340084FEA310102F10102FE2A85
:1052800051D2B1F1004F40EBC25008BF20F00100F5
:1052900040EA03007047490040EB000010F4000FA3
:1052A000A2F10102EDD1B0FA80FCACF1080CB2EB36
:1052B0000C0200FA0CF0AABF00EBC2505242184395
:1052C000BCBFD0401843704792F0000F81F400013A
:1052D00006BF80F400000132013BB5E74FEA41030D
:1052E0007FEA226C18BF7FEA236C21D092EA030F79
:1052F00004D092F0000F08BF0846704790EA010FF3
:105300001CBF0020704712F07F4F04D1400028BF1F
:1053100040F00040704712F100723CBF00F5000001
:10532000704700F0004343F0FE4040F40000704737
:105330007FEA226216BF08467FEA236301464202E3
:1053400006BF5FEA412390EA010F40F480007047F6
:105350004FF0000304E000BF10F0004348BF40429C
:105360005FEA000C08BF704743F0964301464FF0D8
:1053700000001CE050EA010208BF70474FF0000334
:105380000AE000BF50EA010208BF704711F0004375
:1053900002D5404261EB41015FEA010C02BF844645
:1053A0000146002043F0B64308BFA3F18053A3F5A4
:1053B0000003BCFA8CF2083AA3EBC25310DB01FAEB
:1053C00002FC634400FA02FCC2F12002BCF1004F6F
:1053D00020FA02F243EB020008BF20F00100704700
:1053E00002F1200201FA02FCC2F1200250EA4C0054
:1053F00021FA02F243EB020008BF20EADC7070479A
:105400004FF0FF0C1CEAD0521EBF1CEAD15392EAA7
:105410000C0F93EA0C0F6FD01A4480EA010C400283
:1054200018BF5FEA41211ED04FF0006343EA5010DD
:1054300043EA5111A0FB01310CF00040B1F5000F1F
:105440003EBF490041EAD3715B0040EA010062F1CE
:105450007F02FD2A1DD8B3F1004F40EBC25008BFB8
:1054600020F00100704790F0000F0CF0004C08BFD6
:1054700049024CEA502040EA51207F3AC2BFD2F1A3
:10548000FF0340EAC250704740F400004FF00003B1
:10549000013A5DDC12F1190FDCBF00F000407047EB
:1054A000C2F10002410021FA02F1C2F1200200FA29
:1054B00002FC5FEA310040F1000053EA4C0308BFF0
:1054C00020EADC70704792F0000F00F0004C02BF41
:1054D000400010F4000F013AF9D040EA0C0093F0BC
:1054E000000F01F0004C02BF490011F4000F013B16
:1054F000F9D041EA0C018FE70CEAD15392EA0C0F84
:1055000018BF93EA0C0F0AD030F0004C18BF31F0EE
:10551000004CD8D180EA010000F00040704790F0C4
:10552000000F17BF90F0004F084691F0000F91F068
:10553000004F14D092EA0C0F01D142020FD193EA2E
:105540000C0F03D14B0218BF084608D180EA0100B6
:1055500000F0004040F0FE4040F40000704740F092
:10556000FE4040F4400070474FF0FF0C1CEAD05260
:105570001EBF1CEAD15392EA0C0F93EA0C0F69D0BC
:10558000A2EB030280EA010C49024FEA402037D027
:105590004FF0805343EA111143EA10130CF000401E
:1055A0008B4238BF5B0042F17D024FF4000C8B420E
:1055B00024BF5B1A40EA0C00B3EB510F24BFA3EBEE
:1055C000510340EA5C00B3EB910F24BFA3EB9103BE
:1055D00040EA9C00B3EBD10F24BFA3EBD10340EA18
:1055E000DC001B0118BF5FEA1C1CE0D1FD2A3FF65E
:1055F00050AF8B4240EBC25008BF20F00100704713
:105600000CF0004C4CEA50207F32C2BFD2F1FF03B5
:1056100040EAC250704740F400004FF00003013AE6
:1056200037E792F0000F00F0004C02BF400010F48A
:10563000000F013AF9D040EA0C0093F0000F01F09E
:10564000004C02BF490011F4000F013BF9D041EAC0
:105650000C0195E70CEAD15392EA0C0F08D14202F3
:105660007FF47DAF93EA0C0F7FF470AF084676E7C6
:1056700093EA0C0F04D14B023FF44CAF08466EE79F
:1056800030F0004C18BF31F0004CCAD130F000426D
:105690007FF45CAF31F000437FF43CAF5FE700BFC5
:1056A0004FF0FF3C06E000BF4FF0010C02E000BFEE
:1056B0004FF0010C4DF804CD4FEA40024FEA410390
:1056C0007FEA226C18BF7FEA236C11D001B052EA46
:1056D000530C18BF90EA010F58BFB2EB030088BF0C
:1056E000C81738BF6FEAE17018BF40F0010070477B
:1056F0007FEA226C02D15FEA402C05D17FEA236C5D
:10570000E4D15FEA412CE1D05DF8040B704700BFA3
:10571000844608466146FFE70FB5FFF7C9FF00283A
:1057200048BF10F1000F0FBD4DF808EDFFF7F4FF73
:105730000CBF012000205DF808FB00BF4DF808ED0C
:10574000FFF7EAFF34BF012000205DF808FB00BF2F
:105750004DF808EDFFF7E0FF94BF012000205DF851
:1057600008FB00BF4DF808EDFFF7D2FF94BF012002
:1057700000205DF808FB00BF4DF808EDFFF7C8FFFB
:1057800034BF012000205DF808FB00BF40F2240375
:10579000C2F2000300B585B06946186800F0D0FB7E
:1057A000B0F1FF3F06D0009B0198C018029BC018C3
:1057B000039BC01805B000BD40F22403C2F20003F1
:1057C0001868704770B54BF670464BF67045C0F2DE
:1057D0000006C0F20005761BB61006D0002455F86E
:1057E000243001349847A642F9D84BF670454BF661
:1057F0007446C0F20005C0F20006761B06F02CFAD3
:10580000B61006D0002455F8243001349847A6423B
:10581000F9D870BD40F224030146C2F200031868B3
:1058200003F086BA40F224030146C2F2000318686E
:1058300000F000B82DE9F04F01F10B04162C83B0F5
:1058400006462FD8002310248C422CBF194643F063
:105850000101002930D1304600F028FBB4F5FC7F6F
:105860002ED24FEAD40E40F21815C2F2000505EB15
:10587000CE02D368934200F006825A6803F108050D
:10588000D968304622F0030C9A6863445C688A60E9
:1058900044F00104D1605C6000F00AFB284603B0CC
:1058A000BDE8F08F24F00704E30F8C422CBF1946AB
:1058B00043F001010029CED00C2300253360EDE731
:1058C0005FEA542E04BF4FEAD40E4FEACE0040F0F8
:1058D000908040F21815C2F200052818C36898425B
:1058E00006D10DE0002A80F26F81DB68984207D074
:1058F000596821F003010A1B0F2AF3DD0EF1FF3E68
:105900000EF1010E40F21817C2F2000707F108016C
:105910008B68994208BF7A6826D05A6822F0030C37
:10592000C4EB0C020F2A00F39481002AC96089603D
:1059300080F29980BCF5007F80F065814FEADC0C35
:105940004FF0010A7A6807EBCC004FEAAC0C0AFA78
:105950000CFCD860D0F808804CEA02027A60C3F8E8
:105960000880C8F80C3083604FF0010C4FEAAE039A
:105970000CFA03FC944500F2828012EA0C0F08D165
:105980002EF0030E4FEA4C0C0EF1040E12EA0C0F2F
:10599000F8D007EBCE09F246C846D8F80C30984547
:1059A00007D168E1002A80F27881DB68984500F031
:1059B0006281586820F00300021B0F2AF2DD1D46A9
:1059C0001F19D3F80CC044F0010E55F8084F3046AB
:1059D000BA5042F00102C3F804E0CCF80840C4F821
:1059E0000CC08F60CF607A60B960F96000F060FA37
:1059F00054E7BEF1040F9EBF4FEA941E0EF1380E1D
:105A00004FEACE007FF665AFBEF1140F9CBF0EF1DA
:105A10005B0E4FEACE007FF65CAFBEF1540F9EBF27
:105A20004FEA143E0EF16E0E4FEACE007FF651AFF4
:105A3000BEF5AA7F9EBF4FEAD43E0EF1770E4FEA25
:105A4000CE007FF646AF40F254539E4595BF4FEAD5
:105A5000944E4FF47C700EF17C0E4FF07E0E98BF8A
:105A60004FEACE0035E703EB0C0203F108053046A0
:105A7000536843F00103536000F01AFA0EE7D7F8B9
:105A80000880D8F8043023F00309C4EB09024C4520
:105A900094BF002301230F2AD8BF43F00103002B3A
:105AA00000F0A18040F2405BD5F80824C2F2000B60
:105AB000DBF8003010331B19B2F1FF3F06D003F5BD
:105AC0007E631F3323F47E6323F01F0319463046A1
:105AD000019300F021FA019BB0F1FF3F824600F0F4
