:020000042000DA
:100000000000012099020020090300200B030020BA
:100010000D0300200F03002011030020000000004A
:10002000000000000000000000000000130300209A
:100030001503002000000000170300201903002012
:100040001B0300201D0300201F03002021030020AC
:10005000230300202503002027030020290300207C
:100060002B0300202D030020990B0020C90B00203A
:10007000330300203503002037030020390300201C
:100080003B0300203D0300203F03002041030020EC
:1000900043030020450300204703002049030020BC
:1000A0004B030020000000000000000000000000E2
:1000B0000000000000000000000000004D030020D0
:1000C0004F0300205103002053030020550300205C
:1000D00057030020590300205B0300205D0300202C
:1000E0005F030020610300206303002065030020FC
:1000F00067030020690300206B0300206D030020CC
:100100006F0300207103002073030020750300209B
:1001100077030020790300207B0300207D0300206B
:100120007F0300208103002083030020850300203B
:1001300087030020890300208B0300208D0300200B
:100140008F030020910300209303002095030020DB
:1001500097030020990300209B0300209D030020AB
:100160009F030020A1030020A3030020A50300207B
:10017000A7030020A9030020AB030020AD0300204B
:10018000AF030020B1030020B3030020B50300201B
:10019000B7030020B9030020BB030020BD030020EB
:1001A000BF030020C1030020C3030020C5030020BB
:1001B000C7030020C9030020CB030020CD0300208B
:1001C000CF030020D1030020D3030020D50300205B
:1001D000D7030020D9030020DB030020DD0300202B
:1001E000DF030020E1030020E3030020E5030020FB
:1001F000E7030020E9030020EB030020ED030020CB
:10020000EF030020F1030020F3030020F50300209A
:10021000F7030020F9030020FB030020FD0300206A
:10022000FF03002001040020030400200504002037
:1002300007040020090400200B0400200D04002006
:100240000F040020110400201304002015040020D6
:1002500017040020190400201B0400201D040020A6
:100260001F04002021040020230400202504002076
:1002700027040020290400202B0400202D04002046
:100280002F04002031040020330400203504002016
:100290003704002039040020684880476848002857
:1002A0000BD168486849694A884206D091421CBF10
:1002B00050F8043B41F8043BF8D165486549664A6B
:1002C000884206D091421CBF50F8043B41F8043BE1
:1002D000F8D162486249634A914218BF41F8040B61
:1002E000FAD1000000000000000000000000000043
:1002F000DFF874010FF2030E00474FF000004FF0DB
:100300000001DFF868F1FEE7FEE7FEE7FEE7FEE743
:10031000FEE7FEE7FEE7FEE7FEE7FEE7FEE7FEE7B5
:10032000FEE7FEE7FEE7FEE7FEE7FEE7FEE7FEE7A5
:10033000FEE7FEE7FEE7FEE7FEE7FEE7FEE7FEE795
:10034000FEE7FEE7FEE7FEE7FEE7FEE7FEE7FEE785
:10035000FEE7FEE7FEE7FEE7FEE7FEE7FEE7FEE775
:10036000FEE7FEE7FEE7FEE7FEE7FEE7FEE7FEE765
:10037000FEE7FEE7FEE7FEE7FEE7FEE7FEE7FEE755
:10038000FEE7FEE7FEE7FEE7FEE7FEE7FEE7FEE745
:10039000FEE7FEE7FEE7FEE7FEE7FEE7FEE7FEE735
:1003A000FEE7FEE7FEE7FEE7FEE7FEE7FEE7FEE725
:1003B000FEE7FEE7FEE7FEE7FEE7FEE7FEE7FEE715
:1003C000FEE7FEE7FEE7FEE7FEE7FEE7FEE7FEE705
:1003D000FEE7FEE7FEE7FEE7FEE7FEE7FEE7FEE7F5
:1003E000FEE7FEE7FEE7FEE7FEE7FEE7FEE7FEE7E5
:1003F000FEE7FEE7FEE7FEE7FEE7FEE7FEE7FEE7D5
:10040000FEE7FEE7FEE7FEE7FEE7FEE7FEE7FEE7C4
:10041000FEE7FEE7FEE7FEE7FEE7FEE7FEE7FEE7B4
:10042000FEE7FEE7FEE7FEE7FEE7FEE7FEE7FEE7A4
:10043000FEE7FEE7FEE7FEE7FEE70000F90F00201B
:1004400000000000000000200000002084110020B7
:100450008411002084110020A01100200000000061
:10046000A0110020F811002005110020A104002097
:1004700041F2A013C2F200031A780AB901201870E1
:10048000704700BF41F28410C2F2000008B5036853
:100490002BB140F20003C0F2000303B1984708BD3E
:1004A0002DE9F0438FB000AF4FF07F4CC7F818C074
:1004B0004FF47F0CC7F81CC04FF0100CC7F820C0D9
:1004C0004FF0200CC7F824C04FF0400CC7F828C0EC
:1004D0004FF0800CC7F82CC04FF0060CC7F830C0A6
:1004E0003E6B06F1FF3CC7F804C0B44664464FF0CB
:1004F00000054FF0FF384FF00F0904EA080405EA41
:1005000009054FEA547C4FEAC5014CEA01014FEA64
:10051000C4004FF0FF344FF00F0500EA040001EA79
:100520000501314608464FF000014FF0FF344FF00F
:100530000F0500EA040001EA05014FEA507C4FEA8A
:10054000C1034CEA03034FEAC0024FF0FF304FF003
:100550000F0102EA000203EA0103334603F1070335
:1005600003F107034FEAD3034FEAC303ADEB030DD7
:100570006B4603F107034FEAD3034FEAC303BB60A3
:1005800041F2A410C2F200004FF461414FF00302A7
:1005900000F08AFC40F20003C4F205031B68FB6014
:1005A000FA68BB6902EA03034FEA1363BB74FA6893
:1005B000FB6902EA03034FEA1343FB74FA683B6AE0
:1005C00002EA03034FEA13133B75FA687B6A02EAF7
:1005D00003034FEA53137B75FA68BB6A02EA03030D
:1005E0004FEA9313BB75FA68FB6A02EA03034FEA0A
:1005F000D313FB75BB68BA7C1A70BB68FA7C5A705F
:10060000BB683A7D9A70BB687A7DDA70BB68BA7D48
:100610001A71BB68FA7D5A71BA68334641F2A41068
:10062000C2F2000011461A4600F002F8B2E700BF1D
:100630002DE9F00541F2CC13C2F20003984206D036
:1006400041F2A413C2F20003984200D000BE01B9E7
:1006500000BE02B900BE41F2CC13C2F200039842C0
:1006600005D041F2A413C2F20003984233D1131E05
:1006700018BF012300290CBF002303F00103002B46
:1006800029D04FF00007B8464FF0100A03681B7DD1
:1006900090F80AC043EA0C0C80F80AC013F0200F4F
:1006A00017D00F2A04D95646BC4643460F4404E0EF
:1006B0000AB943460BE01646F6E70468FD5C257070
:1006C0000CF1010C03F101039E42F6D86746C3EB1F
:1006D0000202002ADAD1BDE8F0057047F0B441F219
:1006E000CC13C2F20003984206D041F2A413C2F226
:1006F0000003984200D000BE01B900BE41F2CC1305
:10070000C2F20003984205D041F2A413C2F20003E2
:10071000984228D139B30D782DB34FF0000C6646BE
:100720000468237D827A43EA0202827213F0200F6A
:10073000F7D0C5B1334601EB0C070268EDB2157076
:1007400003F1010303EB0C04FD5C0F2B8CBF0022B3
:100750000122002D0CBF002202F00102002AECD180
:100760000DB1A446DCE7F0BC704700BF10B441F205
:10077000CC13C2F20003984206D041F2A413C2F295
:100780000003984200D000BE01B900BE0AB900BE05
:1007900036E0002934D041F2CC13C2F20003984273
:1007A00005D041F2A413C2F20003984228D1C160DF
:1007B00002614FF000034361038919B24FEA5111FE
:1007C00003F01F034FF0010202FA03F44EF200138C
:1007D000CEF2000301F1600143F8214040F61521FB
:1007E000C2F2000101624168C1F88420018908B2A7
:1007F0004FEA501001F01F0102FA01F243F82020E5
:1008000010BC704741F2CC13C2F20003984209D0E9
:1008100041F2A413C2F20003984203D000BE4FF08D
:100820000000704703681B7D827A43EA02028272ED
:10083000026912B14FF000007047C3F38010704797
:1008400010B4034641F2CC10C2F20000834206D03D
:1008500041F2A410C2F20000834200D000BE01B9F0
:1008600000BE02B900BE41F2CC10C2F200008342C9
:1008700005D041F2A410C2F2000083422AD1101E1A
:1008800018BF012000290CBF002400F001040CB3A4
:100890001C6894F814C09C7A4CEA04049C721CEA0C
:1008A000000F17D04FF000001C6894F800C001F84A
:1008B00000C000F101001C6894F814C09C7A4CEA56
:1008C00004049C72824294BF00240CF00104002CAA
:1008D000EAD101E04FF0000010BC704710B441F2C3
:1008E000CC13C2F20003984207D041F2A413C2F223
:1008F0000003984201D000BE22E003890FFA83FC76
:100900004FEA5C1C03F01F034FF0010202FA03F4EC
:100910004EF20013CEF200030CF1600C43F82C40B1
:10092000046894F804C041EA0C012171018908B2FD
:100930004FEA501001F01F0102FA01F243F82020A3
:1009400010BC704741F2CC13C2F20003984207D0AA
:1009500041F2A413C2F20003984201D000BE7047D6
:1009600003681A7922EA01021A71038918B24FEA60
:10097000501003F01F034FF0010202FA03F24EF28F
:100980000013CEF2000300F1600C43F82C200F2975
:1009900001BF4EF20013CEF20003203043F82020B6
:1009A000704700BF08B541F2CC13C2F20003984271
:1009B00007D041F2A413C2F20003984201D000BE56
:1009C00008BD03681B7A03F00F030C2B20D8DFE867
:1009D00003F0071F0D1F131F191F1F1F1F1F1300D9
:1009E000436A0BB900BE08BD984708BD036A0BB93E
:1009F00000BE08BD984708BDC3690BB900BE08BD5D
:100A0000984708BD83690BB900BE08BD984708BD6B
:100A100000BE08BD10B441F2CC13C2F200039842EC
:100A200006D041F2A413C2F20003984200D000BEE7
:100A3000C26802B900BE016901B900BE41F2CC131F
:100A4000C2F20003984205D041F2A413C2F200039F
:100A5000984230D1002A2ED000292CD003681B7D6B
:100A6000827A43EA0202827213F0200F1AD00269DE
:100A70004369C3EB02030F2B04D94FF0100C4FF066
:100A8000000302E073B19C46F9E70268C46841695B
:100A9000615C1170426902F10102426103F10103DC
:100AA0006345F2D3426903699A4201BF002303619F
:100AB0004268C2F8843010BC704700BF10B441F2E5
:100AC000CC13C2F20003984206D041F2A413C2F242
:100AD0000003984200D000BE01B900BEC02A00D970
:100AE00000BE41F2CC13C2F20003984205D041F29D
:100AF000A413C2F2000398422FD1C02A8CBF002356
:100B0000012300290CBF002303F001032BB3C161B3
:100B1000036802F0C00242F00A021A72038919B295
:100B20004FEA511103F01F034FF0010202FA03F4E0
:100B30004EF20013CEF2000301F1600143F82140B0
:100B40004168C1F88020018908B24FEA501001F0D5
:100B50001F0102FA01F243F8202010BC704700BFC9
:100B600041F2CC13C2F20003984207D041F2A41321
:100B7000C2F20003984201D000BE704729B9436811
:100B80004FF00002C3F81022704743684FF0010293
:100B9000C3F81022704700BF684620F007018D4659
:100BA00001B541F2CC10C2F20000FFF7FBFE4EF29D
:100BB0000013CEF200034FF48062C3F88021BDE839
:100BC00001408546704700BF684620F007018D460A
:100BD00001B541F2A410C2F20000FFF7E3FE4EF2AD
:100BE0000013CEF200034FF40062C3F88021BDE889
:100BF00001408546704700BF10B441F2CC13C2F2E9
:100C00000003984206D041F2A413C2F200039842B6
:100C100000D000BE01B900BE41F2CC13C2F2000305
:100C2000984205D041F2A413C2F20003984220D1A9
:100C3000F9B18161038919B24FEA511103F01F0321
:100C40004FF0010202FA03F44EF20013CEF2000359
:100C500001F1600143F821404168C1F88820018911
:100C600008B24FEA501001F01F0102FA01F243F8F6
:100C7000202010BC704700BF10B441F2CC13C2F268
:100C80000003984206D041F2A413C2F20003984236
:100C900000D000BE01B900BE41F2CC13C2F2000385
:100CA000984205D041F2A413C2F20003984224D125
:100CB00019B301624FF00003C3600361038919B2E5
:100CC0004FEA511103F01F034FF0010202FA03F43F
:100CD0004EF20013CEF2000301F1600143F821400F
:100CE0004168C1F88420018908B24FEA501001F030
:100CF0001F0102FA01F243F8202010BC704700BF28
:100D000010B441F2CC13C2F20003984206D041F273
:100D1000A413C2F20003984200D000BE01B900BE85
:100D200041F2CC13C2F20003984205D041F2A41361
:100D3000C2F20003984220D1F9B14162038919B28D
:100D40004FEA511103F01F034FF0010202FA03F4BE
:100D50004EF20013CEF2000301F1600143F821408E
:100D60004168C1F88C20018908B24FEA501001F0A7
:100D70001F0102FA01F243F8202010BC704700BFA7
:100D800010B4034641F2CC10C2F20000834206D0F8
:100D900041F2A410C2F20000834200D000BE01B9AB
:100DA00000BE02B900BE41F2CC10C2F20000834284
:100DB00005D041F2A410C2F20000834226D1101ED9
:100DC00018BF012000290CBF002400F00104ECB181
:100DD0001C6894F814C09C7A4CEA04049C721CF0C1
:100DE000200F13D00F2A04D94FF010044FF0000049
:100DF00002E058B11446F9E71A6811F800C082F809
:100E000000C000F10100A042F6D301E04FF0000065
:100E100010BC7047024641F2CC13C2F20003984264
:100E200009D041F2A413C2F20003984203D000BEDD
:100E30004FF0FF0070471368187D937A40EA030073
:100E400000F09E004FF000039372704741F2CC1304
:100E5000C2F20003984209D041F2A413C2F2000387
:100E6000984203D000BE4FF0FF0070470368187E21
:100E7000704700BF41F2CC13C2F20003984209D080
:100E800041F2A413C2F20003984203D000BE4FF017
:100E90000000704703681B7D827A43EA0202827277
:100EA00003F06000704700BF70B504460D4616465B
:100EB00041F2CC13C2F20003984206D041F2A413CF
:100EC000C2F20003984200D000BE05B900BE00F097
:100ED00095F841F2CC13C2F200039C4226D141F2B4
:100EE000CC13C2F200034FF080421A604FF08442EC
:100EF0005A604FF00A021A8141F28C13C2F20003C9
:100F0000186842F20003CEF204031A6B42F080022A
:100F10001A634EF20012CEF200024FF48061C2F862
:100F200080111A6B22F080021A6325E040F2000360
:100F3000C4F20103236040F20003C4F22023636083
:100F40004FF00B03238141F29013C2F200031868A3
:100F500042F20003CEF204031A6B42F480721A6369
:100F60004EF20012CEF200024FF40061C2F880117E
:100F70001A6B22F480721A6323684FF000021A7110
:100F800015B94FF001050FE0B0FBF5F515F0080FAE
:100F90004FEA151518BF0135B5F5803F38BFADB222
:100FA00002D300BE4FF0010563684FF00102C3F8A1
:100FB0009C2123684FEA15221A712368EDB21D7037
:100FC00062684FF00003C2F89C31226816732268F1
:100FD0004FF00E0111726268C2F810322361E360B3
:100FE0006361E36140F61522C2F200022262A3614E
:100FF0006362A37270BD00BF704700BF30B484B09D
:1010000041F25413C2F20003EC460FCB8CE80F0000
:1010100042F20003CEF204039A6C02F00C0204A91F
:101020000A4452F8105C9A6CC2F3011201EB82027E
:1010300052F8104C9A6CC2F3811201EB820252F802
:10104000100CD96CDB6CC1F3042101F1010113F424
:10105000005F18BF490040F23023C6F208031A6847
:1010600022F0704241F2CF13C0F2A1539A4205D14F
:101070004EF62C73C6F201031A6828E040F61C03F2
:10108000C6F208031A6844F24133C4F654439A4244
:101090001ED140F64003C6F208031A6822F07F42D0
:1010A00040F20033C0F201039A4211D9B2F5003F79
:1010B00005D241F22C63C6F208031A6807E0B2F5C4
:1010C000403F05D241F6AC63C6F208031A6822B964
:1010D00000BE47F64002C0F27D1241F28813C2F210
:1010E00000031A60B2FBF5F55D60B2FBF4F49C609E
:1010F000B2FBF0F0D860B2FBF1F119615A6104B0B3
:1011000030BC704770B541F27C1641F27C15C2F2DA
:101110000006C2F20005761BB61006D0002455F872
:10112000243001349847A642F9D841F27C1541F2A7
:101130008016C2F20005C2F20006761B00F012F81B
:10114000B61006D0002455F8243001349847A64242
:10115000F9D870BD0100000002000000040000008A
:1011600001000000F8B500BFF8BC08BC9E467047FF
:10117000F8B500BFF8BC08BC9E4670478504002047
:0411800071040020D6
:101184000000000040787D01105E5F00105E5F008B
:0C119400105E5F00105E5F0040787D017F
:04000005200002993C
:00000001FF
