S02B00004E36345F636F6E74726F6C6C65725F697465725F345F4D53535F4D53535F434D335F305F6170702EB0
S315200000000000012099020020090300200B03002094
S315200000100D0300200F030020110300200000000024
S315200000200000000000000000000000001303002074
S3152000003015030020000000001703002019030020EC
S315200000401B0300201D0300201F0300202103002086
S315200000502303002025030020270300202903002056
S315200000602B0300202D030020250D0020550D0020F8
S3152000007033030020350300203703002039030020F6
S315200000803B0300203D0300203F03002041030020C6
S315200000904303002045030020470300204903002096
S315200000A04B030020000000000000000000000000BC
S315200000B00000000000000000000000004D030020AA
S315200000C04F03002051030020530300205503002036
S315200000D057030020590300205B0300205D03002006
S315200000E05F030020610300206303002065030020D6
S315200000F067030020690300206B0300206D030020A6
S315200001006F03002071030020730300207503002075
S3152000011077030020790300207B0300207D03002045
S315200001207F03002081030020830300208503002015
S3152000013087030020890300208B0300208D030020E5
S315200001408F030020910300209303002095030020B5
S3152000015097030020990300209B0300209D03002085
S315200001609F030020A1030020A3030020A503002055
S31520000170A7030020A9030020AB030020AD03002025
S31520000180AF030020B1030020B3030020B5030020F5
S31520000190B7030020B9030020BB030020BD030020C5
S315200001A0BF030020C1030020C3030020C503002095
S315200001B0C7030020C9030020CB030020CD03002065
S315200001C0CF030020D1030020D3030020D503002035
S315200001D0D7030020D9030020DB030020DD03002005
S315200001E0DF030020E1030020E3030020E5030020D5
S315200001F0E7030020E9030020EB030020ED030020A5
S31520000200EF030020F1030020F3030020F503002074
S31520000210F7030020F9030020FB030020FD03002044
S31520000220FF03002001040020030400200504002011
S3152000023007040020090400200B0400200D040020E0
S315200002400F040020110400201304002015040020B0
S3152000025017040020190400201B0400201D04002080
S315200002601F04002021040020230400202504002050
S3152000027027040020290400202B0400202D04002020
S315200002802F040020310400203304002035040020F0
S315200002903704002039040020684880476848002831
S315200002A00BD168486849694A884206D091421CBFEA
S315200002B050F8043B41F8043BF8D165486549664A45
S315200002C0884206D091421CBF50F8043B41F8043BBB
S315200002D0F8D162486249634A914218BF41F8040B3B
S315200002E0FAD100000000000000000000000000001D
S315200002F0DFF874010FF2030E00474FF000004FF0B5
S315200003000001DFF868F1FEE7FEE7FEE7FEE7FEE71D
S31520000310FEE7FEE7FEE7FEE7FEE7FEE7FEE7FEE78F
S31520000320FEE7FEE7FEE7FEE7FEE7FEE7FEE7FEE77F
S31520000330FEE7FEE7FEE7FEE7FEE7FEE7FEE7FEE76F
S31520000340FEE7FEE7FEE7FEE7FEE7FEE7FEE7FEE75F
S31520000350FEE7FEE7FEE7FEE7FEE7FEE7FEE7FEE74F
S31520000360FEE7FEE7FEE7FEE7FEE7FEE7FEE7FEE73F
S31520000370FEE7FEE7FEE7FEE7FEE7FEE7FEE7FEE72F
S31520000380FEE7FEE7FEE7FEE7FEE7FEE7FEE7FEE71F
S31520000390FEE7FEE7FEE7FEE7FEE7FEE7FEE7FEE70F
S315200003A0FEE7FEE7FEE7FEE7FEE7FEE7FEE7FEE7FF
S315200003B0FEE7FEE7FEE7FEE7FEE7FEE7FEE7FEE7EF
S315200003C0FEE7FEE7FEE7FEE7FEE7FEE7FEE7FEE7DF
S315200003D0FEE7FEE7FEE7FEE7FEE7FEE7FEE7FEE7CF
S315200003E0FEE7FEE7FEE7FEE7FEE7FEE7FEE7FEE7BF
S315200003F0FEE7FEE7FEE7FEE7FEE7FEE7FEE7FEE7AF
S31520000400FEE7FEE7FEE7FEE7FEE7FEE7FEE7FEE79E
S31520000410FEE7FEE7FEE7FEE7FEE7FEE7FEE7FEE78E
S31520000420FEE7FEE7FEE7FEE7FEE7FEE7FEE7FEE77E
S31520000430FEE7FEE7FEE7FEE7FEE700008511002067
S315200004400000000000000020000000200C18002002
S315200004500C1800200C18002028180020000000008E
S3152000046028180020801800208D170020A1040020C5
S3152000047041F62803C2F200031A780AB9012018703F
S31520000480704700BF41F60C00C2F2000008B50368B1
S315200004902BB140F20003C0F2000303B1984708BD18
S315200004A02DE9F04387B000AF4FF0060CC7F814C013
S315200004B07E6906F1FF3CC7F804C0B44664464FF097
S315200004C000054FF0FF384FF00F0904EA080405EA4B
S315200004D009054FEA547C4FEAC5014CEA01014FEA6F
S315200004E0C4004FF0FF344FF00F0500EA040001EA84
S315200004F00501314608464FF000014FF0FF344FF01A
S315200005000F0500EA040001EA05014FEA507C4FEA94
S31520000510C1034CEA03034FEAC0024FF0FF304FF00D
S315200005200F0102EA000203EA0103334603F107033F
S3152000053003F107034FEAD3034FEAC303ADEB030DE1
S315200005406B4603F107034FEAD3034FEAC303BB60AD
S3152000055041F62C00C2F200004FF461414FF0030235
S3152000056000F068FD40F20003C4F205031B68FB603F
S31520000570BB68F868194600F0C9F8BB689B78002B61
S3152000058015D1BB68DB78002B11D1BB681B79002BFA
S315200005900DD1BB685B79002B09D1BB685A78BB6843
S315200005A01B781046194600F03DF8034601E04FF04F
S315200005B06403FB74BA68334641F62C00C2F200008D
S315200005C011461A4600F0FAF8CCE700BF80B485B091
S315200005D000AF0346FB714FF00003FB724FF00003A0
S315200005E0FB6014E097F90720FB68C3F1070342FA82
S315200005F003F303F00102FB6802FA03F3DAB2FB7A93
S315200006001344DBB2FB72FB6803F10103FB60FB685A
S31520000610072BE7DDFB7A5BB2184607F11407BD46C8
S3152000062080BC704780B584B000AF02460B46FA7195
S31520000630BB71FB797E2B06D9BB797E2B03D94FF074
S315200006406403FB7355E0FB797E2B1CD9BB791846D6
S3152000065000F0D4FE03461846294900F0DBFF034686
S315200006601846284900F022FF0346184601F06EF886
S315200006700346FB73FB7B002B01D0FB7B01E04FF095
S315200006806403FB7335E0BB797E2B1CD9FB791846B6
S3152000069000F0B4FE03461846194900F0BBFF034696
S315200006A01846184900F002FF0346184601F04EF896
S315200006B00346FB73FB7B002B01D0FB7B01E04FF055
S315200006C06403FB7315E0FA79BB791344184600F0EE
S315200006D099FE034618460C4900F09CFF034618462F
S315200006E0084900F0E3FE0346184601F02FF80346BA
S315200006F0FB73FB7B184607F11007BD4680BD00BF84
S315200007000000FE420000C84200007E4380B584B04F
S3152000071000AF786039607B684FEA1363BB7297F944
S315200007200A301846FFF752FF0346DBB2BB727B68DE
S3152000073003F47F034FEA1343FB7297F90B301846F5
S31520000740FFF744FF0346DBB2FB727B6803F010031E
S315200007504FEA13133B737B6803F020034FEA5313CE
S315200007607B737B6803F040034FEA9313BB737B686C
S3152000077003F080034FEAD313FB73BA7A3B681A70EF
S315200007803B6803F10103FA7A1A703B6803F102030E
S315200007903A7B1A703B6803F103037A7B1A703B6835
S315200007A003F10403BA7B1A703B6803F10503FA7B55
S315200007B01A7007F11007BD4680BD00BF2DE9F00570
S315200007C041F65403C2F20003984206D041F62C03A8
S315200007D0C2F20003984200D000BE01B900BE02B9A1
S315200007E000BE41F65403C2F20003984205D041F6FA
S315200007F02C03C2F20003984233D1131E18BF0123E3
S3152000080000290CBF002303F00103002B29D04FF051
S315200008100007B8464FF0100A03681B7D90F80AC0FF
S3152000082043EA0C0C80F80AC013F0200F17D00F2AC9
S3152000083004D95646BC4643460F4404E00AB943460B
S315200008400BE01646F6E70468FD5C25700CF1010CFA
S3152000085003F101039E42F6D86746C3EB0202002A43
S31520000860DAD1BDE8F0057047F0B441F65403C2F280
S315200008700003984206D041F62C03C2F200039842A8
S3152000088000D000BE01B900BE41F65403C2F20003F7
S31520000890984205D041F62C03C2F20003984228D193
S315200008A039B30D782DB34FF0000C66460468237DCE
S315200008B0827A43EA0202827213F0200FF7D0C5B182
S315200008C0334601EB0C070268EDB2157003F1010304
S315200008D003EB0C04FD5C0F2B8CBF00220122002DA4
S315200008E00CBF002202F00102002AECD10DB1A44671
S315200008F0DCE7F0BC704700BF10B441F65403C2F2E7
S315200009000003984206D041F62C03C2F20003984217
S3152000091000D000BE01B900BE0AB900BE36E00029EB
S3152000092034D041F65403C2F20003984205D041F672
S315200009302C03C2F20003984228D1C16002614FF015
S3152000094000034361038919B24FEA511103F01F03D3
S315200009504FF0010202FA03F44EF20013CEF2000326
S3152000096001F1600143F8214040F6A131C2F20001B5
S3152000097001624168C1F88420018908B24FEA50100B
S3152000098001F01F0102FA01F243F8202010BC704743
S3152000099041F65403C2F20003984209D041F62C03D3
S315200009A0C2F20003984203D000BE4FF00000704709
S315200009B003681B7D827A43EA02028272026912B1BF
S315200009C04FF000007047C3F38010704710B4034601
S315200009D041F65400C2F20000834206D041F62C00B4
S315200009E0C2F20000834200D000BE01B900BE02B9A7
S315200009F000BE41F65400C2F20000834205D041F603
S31520000A002C00C2F2000083422AD1101E18BF0120FA
S31520000A1000290CBF002400F001040CB31C6894F8D4
S31520000A2014C09C7A4CEA04049C721CEA000F17D06E
S31520000A304FF000001C6894F800C001F800C000F1D7
S31520000A4001001C6894F814C09C7A4CEA04049C7239
S31520000A50824294BF00240CF00104002CEAD101E06C
S31520000A604FF0000010BC704710B441F65403C2F298
S31520000A700003984207D041F62C03C2F200039842A5
S31520000A8001D000BE22E003890FFA83FC4FEA5C1CEA
S31520000A9003F01F034FF0010202FA03F44EF2001393
S31520000AA0CEF200030CF1600C43F82C40046894F855
S31520000AB004C041EA0C012171018908B24FEA5010A5
S31520000AC001F01F0102FA01F243F8202010BC704702
S31520000AD041F65403C2F20003984207D041F62C0394
S31520000AE0C2F20003984201D000BE704703681A790B
S31520000AF022EA01021A71038918B24FEA501003F054
S31520000B001F034FF0010202FA03F24EF20013CEF257
S31520000B10000300F1600C43F82C200F2901BF4EF290
S31520000B200013CEF20003203043F82020704700BF88
S31520000B3008B541F65403C2F20003984207D041F6A5
S31520000B402C03C2F20003984201D000BE08BD036800
S31520000B501B7A03F00F030C2B20D8DFE803F0071FC6
S31520000B600D1F131F191F1F1F1F1F1300436A0BB9C9
S31520000B7000BE08BD984708BD036A0BB900BE08BD74
S31520000B80984708BDC3690BB900BE08BD984708BD84
S31520000B9083690BB900BE08BD984708BD00BE08BDD5
S31520000BA010B441F65403C2F20003984206D041F62F
S31520000BB02C03C2F20003984200D000BEC26802B9DC
S31520000BC000BE016901B900BE41F65403C2F200031A
S31520000BD0984205D041F62C03C2F20003984230D148
S31520000BE0002A2ED000292CD003681B7D827A43EA66
S31520000BF00202827213F0200F1AD002694369C3EBF6
S31520000C0002030F2B04D94FF0100C4FF0000302E023
S31520000C1073B19C46F9E70268C4684169615C11704A
S31520000C20426902F10102426103F101036345F2D3F5
S31520000C30426903699A4201BF002303614268C2F8F0
S31520000C40843010BC704700BF10B441F65403C2F282
S31520000C500003984206D041F62C03C2F200039842C4
S31520000C6000D000BE01B900BEC02A00D900BE41F6A0
S31520000C705403C2F20003984205D041F62C03C2F277
S31520000C80000398422FD1C02A8CBF002301230029BC
S31520000C900CBF002303F001032BB3C161036802F0EC
S31520000CA0C00242F00A021A72038919B24FEA5111A0
S31520000CB003F01F034FF0010202FA03F44EF2001371
S31520000CC0CEF2000301F1600143F821404168C1F8EA
S31520000CD08020018908B24FEA501001F01F0102FA64
S31520000CE001F243F8202010BC704700BF41F65403A0
S31520000CF0C2F20003984207D041F62C03C2F2000349
S31520000D00984201D000BE704729B943684FF00002CF
S31520000D10C3F81022704743684FF00102C3F810222F
S31520000D20704700BF684620F007018D4601B541F6A1
S31520000D305400C2F20000FFF7FBFE4EF20013CEF283
S31520000D4000034FF48062C3F88021BDE80140854648
S31520000D50704700BF684620F007018D4601B541F671
S31520000D602C00C2F20000FFF7E3FE4EF20013CEF293
S31520000D7000034FF40062C3F88021BDE80140854698
S31520000D80704700BF10B441F65403C2F200039842E4
S31520000D9006D041F62C03C2F20003984200D000BED2
S31520000DA001B900BE41F65403C2F20003984205D0B1
S31520000DB041F62C03C2F20003984220D1F9B1816199
S31520000DC0038919B24FEA511103F01F034FF00102B4
S31520000DD002FA03F44EF20013CEF2000301F1600191
S31520000DE043F821404168C1F88820018908B24FEABA
S31520000DF0501001F01F0102FA01F243F8202010BC26
S31520000E00704700BF10B441F65403C2F20003984263
S31520000E1006D041F62C03C2F20003984200D000BE51
S31520000E2001B900BE41F65403C2F20003984205D030
S31520000E3041F62C03C2F20003984224D119B3016271
S31520000E404FF00003C3600361038919B24FEA5111C1
S31520000E5003F01F034FF0010202FA03F44EF20013CF
S31520000E60CEF2000301F1600143F821404168C1F848
S31520000E708420018908B24FEA501001F01F0102FABE
S31520000E8001F243F8202010BC704700BF10B441F691
S31520000E905403C2F20003984206D041F62C03C2F254
S31520000EA00003984200D000BE01B900BE41F65403AB
S31520000EB0C2F20003984205D041F62C03C2F2000389
S31520000EC0984220D1F9B14162038919B24FEA5111F2
S31520000ED003F01F034FF0010202FA03F44EF200134F
S31520000EE0CEF2000301F1600143F821404168C1F8C8
S31520000EF08C20018908B24FEA501001F01F0102FA36
S31520000F0001F243F8202010BC704700BF10B40346FE
S31520000F1041F65400C2F20000834206D041F62C006E
S31520000F20C2F20000834200D000BE01B900BE02B961
S31520000F3000BE41F65400C2F20000834205D041F6BD
S31520000F402C00C2F20000834226D1101E18BF0120B9
S31520000F5000290CBF002400F00104ECB11C6894F8B1
S31520000F6014C09C7A4CEA04049C721CF0200F13D007
S31520000F700F2A04D94FF010044FF0000002E058B1B8
S31520000F801446F9E71A6811F800C082F800C000F18B
S31520000F900100A042F6D301E04FF0000010BC7047DC
S31520000FA0024641F65403C2F20003984209D041F6A4
S31520000FB02C03C2F20003984203D000BE4FF0FF007C
S31520000FC070471368187D937A40EA030000F09E006C
S31520000FD04FF000039372704741F65403C2F20003A8
S31520000FE0984209D041F62C03C2F20003984203D05E
S31520000FF000BE4FF0FF0070470368187E704700BFA1
S3152000100041F65403C2F20003984209D041F62C035C
S31520001010C2F20003984203D000BE4FF00000704792
S3152000102003681B7D827A43EA0202827203F0600023
S31520001030704700BF70B504460D46164641F6540368
S31520001040C2F20003984206D041F62C03C2F20003F6
S31520001050984200D000BE05B900BE00F095F841F6D2
S315200010605403C2F200039C4226D141F65403C2F235
S3152000107000034FF080421A604FF084425A604FF0CE
S315200010800A021A8141F61403C2F20003186842F2DA
S315200010900003CEF204031A6B42F080021A634EF26A
S315200010A00012CEF200024FF48061C2F880111A6B52
S315200010B022F080021A6325E040F20003C4F2010305
S315200010C0236040F20003C4F2202363604FF00B0339
S315200010D0238141F61803C2F20003186842F2000386
S315200010E0CEF204031A6B42F480721A634EF2001297
S315200010F0CEF200024FF40061C2F880111A6B22F47E
S3152000110080721A6323684FF000021A7115B94FF0E6
S3152000111001050FE0B0FBF5F515F0080F4FEA1515A0
S3152000112018BF0135B5F5803F38BFADB202D300BE3A
S315200011304FF0010563684FF00102C3F89C21236834
S315200011404FEA15221A712368EDB21D7062684FF0BE
S315200011500003C2F89C312268167322684FF00E01F4
S3152000116011726268C2F810322361E3606361E36141
S3152000117040F6A132C2F200022262A3616362A37228
S3152000118070BD00BF704700BF30B484B041F2DC733D
S31520001190C2F20003EC460FCB8CE80F0042F20003AC
S315200011A0CEF204039A6C02F00C0204A90A4452F807
S315200011B0105C9A6CC2F3011201EB820252F8104CB9
S315200011C09A6CC2F3811201EB820252F8100CD96C90
S315200011D0DB6CC1F3042101F1010113F4005F18BF98
S315200011E0490040F23023C6F208031A6822F0704202
S315200011F041F2CF13C0F2A1539A4205D14EF62C7379
S31520001200C6F201031A6828E040F61C03C6F208035A
S315200012101A6844F24133C4F654439A421ED140F62A
S315200012204003C6F208031A6822F07F4240F20033D8
S31520001230C0F201039A4211D9B2F5003F05D241F21C
S315200012402C63C6F208031A6807E0B2F5403F05D2C0
S3152000125041F6AC63C6F208031A6822B900BE47F607
S315200012604002C0F27D1241F61003C2F200031A605A
S31520001270B2FBF5F55D60B2FBF4F49C60B2FBF0F0D6
S31520001280D860B2FBF1F119615A6104B030BC7047E5
S3152000129080F0004002E000BF81F0004142001FBF05
S315200012A05FEA410392EA030F7FEA226C7FEA236C0E
S315200012B06AD04FEA1262D2EB1363C1BFD218414003
S315200012C048404140B8BF5B42192B88BF704710F099
S315200012D0004F40F4000020F07F4018BF404211F03C
S315200012E0004F41F4000121F07F4118BF494292EAA4
S315200012F0030F3FD0A2F1010241FA03FC10EB0C00D0
S31520001300C3F1200301FA03F100F0004302D549425C
S3152000131060EB4000B0F5000F13D3B0F1807F06D309
S3152000132040084FEA310102F10102FE2A51D2B1F101
S31520001330004F40EBC25008BF20F0010040EA0300F6
S315200013407047490040EB000010F4000FA2F10102A3
S31520001350EDD1B0FA80FCACF1080CB2EB0C0200FA2D
S315200013600CF0AABF00EBC25052421843BCBFD0407B
S315200013701843704792F0000F81F4000106BF80F4F5
S3152000138000000132013BB5E74FEA41037FEA226CB8
S3152000139018BF7FEA236C21D092EA030F04D092F083
S315200013A0000F08BF0846704790EA010F1CBF0020B7
S315200013B0704712F07F4F04D1400028BF40F0004014
S315200013C0704712F100723CBF00F50000704700F034
S315200013D0004343F0FE4040F4000070477FEA22625B
S315200013E016BF08467FEA23630146420206BF5FEA2C
S315200013F0412390EA010F40F4800070474FF000032C
S3152000140004E000BF10F0004348BF40425FEA000CF2
S3152000141008BF704743F0964301464FF000001CE09A
S3152000142050EA010208BF70474FF000030AE000BFF0
S3152000143050EA010208BF704711F0004302D540422E
S3152000144061EB41015FEA010C02BF844601460020A0
S3152000145043F0B64308BFA3F18053A3F50003BCFABB
S315200014608CF2083AA3EBC25310DB01FA02FC634468
S3152000147000FA02FCC2F12002BCF1004F20FA02F26F
S3152000148043EB020008BF20F00100704702F1200262
S3152000149001FA02FCC2F1200250EA4C0021FA02F2C3
S315200014A043EB020008BF20EADC7070474FF0FF0CC8
S315200014B01CEAD0521EBF1CEAD15392EA0C0F93EAC3
S315200014C00C0F6FD01A4480EA010C400218BF5FEA65
S315200014D041211ED04FF0006343EA501043EA5111D8
S315200014E0A0FB01310CF00040B1F5000F3EBF4900D2
S315200014F041EAD3715B0040EA010062F17F02FD2AD6
S315200015001DD8B3F1004F40EBC25008BF20F00100B8
S31520001510704790F0000F0CF0004C08BF49024CEACF
S31520001520502040EA51207F3AC2BFD2F1FF0340EA61
S31520001530C250704740F400004FF00003013A5DDCD2
S3152000154012F1190FDCBF00F000407047C2F1000213
S31520001550410021FA02F1C2F1200200FA02FC5FEA00
S31520001560310040F1000053EA4C0308BF20EADC704A
S31520001570704792F0000F00F0004C02BF400010F4BC
S31520001580000F013AF9D040EA0C0093F0000F01F069
S31520001590004C02BF490011F4000F013BF9D041EA8B
S315200015A00C018FE70CEAD15392EA0C0F18BF93EA8D
S315200015B00C0F0AD030F0004C18BF31F0004CD8D1B7
S315200015C080EA010000F00040704790F0000F17BF3E
S315200015D090F0004F084691F0000F91F0004F14D084
S315200015E092EA0C0F01D142020FD193EA0C0F03D1DC
S315200015F04B0218BF084608D180EA010000F00040DF
S3152000160040F0FE4040F40000704740F0FE4040F4B9
S31520001610400070474FF0FF0C1CEAD0521EBF1CEA58
S31520001620D15392EA0C0F93EA0C0F69D0A2EB030276
S3152000163080EA010C49024FEA402037D04FF0805310
S3152000164043EA111143EA10130CF000408B4238BFD5
S315200016505B0042F17D024FF4000C8B4224BF5B1AE3
S3152000166040EA0C00B3EB510F24BFA3EB510340EA31
S315200016705C00B3EB910F24BFA3EB910340EA9C00DF
S31520001680B3EBD10F24BFA3EBD10340EADC001B014F
S3152000169018BF5FEA1C1CE0D1FD2A3FF650AF8B42F3
S315200016A040EBC25008BF20F0010070470CF0004C00
S315200016B04CEA50207F32C2BFD2F1FF0340EAC2502B
S315200016C0704740F400004FF00003013A37E792F0EC
S315200016D0000F00F0004C02BF400010F4000F013A4A
S315200016E0F9D040EA0C0093F0000F01F0004C02BF45
S315200016F0490011F4000F013BF9D041EA0C0195E7AE
S315200017000CEAD15392EA0C0F08D142027FF47DAF46
S3152000171093EA0C0F7FF470AF084676E793EA0C0F36
S3152000172004D14B023FF44CAF08466EE730F0004C34
S3152000173018BF31F0004CCAD130F000427FF45CAFC4
S3152000174031F000437FF43CAF5FE700BF42000ED28A
S31520001750B2F1FE4F0BD34FF09E03B3EB126209D4C6
S315200017604FEA002343F0004323FA02F070474FF07C
S315200017700000704712F1610F01D1420202D14FF0F1
S31520001780FF3070474FF00000704700BF70B541F63C
S31520001790040641F60405C2F20006C2F20005761BD5
S315200017A0B61006D0002455F8243001349847A642B6
S315200017B0F9D841F6040541F60806C2F20005C2F240
S315200017C00006761B00F012F8B61006D0002455F855
S315200017D0243001349847A642F9D870BD0100000094
S315200017E0020000000400000001000000F8B500BF60
S315200017F0F8BC08BC9E467047F8B500BFF8BC08BCCC
S311200018009E4670478504002071040020DD
S3152000180C0000000040787D01105E5F00105E5F00D6
S3112000181C105E5F00105E5F0040787D01CA
S705200002993F
