S02100007069787943616D5F4D53535F4D53535F434D335F305F6170702E7372656333
S315200000000000012099020020090300200B03002094
S315200000100D0300200F030020110300200000000024
S315200000200000000000000000000000001303002074
S3152000003015030020000000001703002019030020EC
S315200000401B0300201D0300201F0300202103002086
S315200000502303002025030020270300202903002056
S315200000602B0300202D0300209D140020C9140020FE
S315200000703303002035030020FD2C00203903002007
S315200000803B030020292D00203F03002041030020B0
S315200000907106002045030020470300204903002065
S315200000A04B030020000000000000000000000000BC
S315200000B00000000000000000000000004D030020AA
S315200000C04F03002051030020530300205503002036
S315200000D057030020590300205B0300205D03002006
S315200000E05F030020610300206303002065030020D6
S315200000F067030020690300206B0300206D030020A6
S315200001006F03002071030020730300207503002075
S3152000011077030020790300207B0300207D03002045
S315200001207F03002081030020830300208503002015
S3152000013087030020890300208B0300208D030020E5
S315200001408F030020910300209303002095030020B5
S3152000015097030020990300209B0300209D03002085
S315200001609F030020A1030020A3030020A503002055
S31520000170A7030020A9030020AB030020AD03002025
S31520000180AF030020B1030020B3030020B5030020F5
S31520000190B7030020B9030020BB030020BD030020C5
S315200001A0BF030020C1030020C3030020C503002095
S315200001B0C7030020C9030020CB030020CD03002065
S315200001C0CF030020D1030020D3030020D503002035
S315200001D0D7030020D9030020DB030020DD03002005
S315200001E0DF030020E1030020E3030020E5030020D5
S315200001F0E7030020E9030020EB030020ED030020A5
S31520000200EF030020F1030020F3030020F503002074
S31520000210F7030020F9030020FB030020FD03002044
S31520000220FF03002001040020030400200504002011
S3152000023007040020090400200B0400200D040020E0
S315200002400F040020110400201304002015040020B0
S3152000025017040020190400201B0400201D04002080
S315200002601F04002021040020230400202504002050
S3152000027027040020290400202B0400202D04002020
S315200002802F040020310400203304002035040020F0
S315200002903704002039040020684880476848002831
S315200002A00BD168486849694A884206D091421CBFEA
S315200002B050F8043B41F8043BF8D165486549664A45
S315200002C0884206D091421CBF50F8043B41F8043BBB
S315200002D0F8D162486249634A914218BF41F8040B3B
S315200002E0FAD100000000000000000000000000001D
S315200002F0DFF874010FF2030E00474FF000004FF0B5
S315200003000001DFF868F1FEE7FEE7FEE7FEE7FEE71D
S31520000310FEE7FEE7FEE7FEE7FEE7FEE7FEE7FEE78F
S31520000320FEE7FEE7FEE7FEE7FEE7FEE7FEE7FEE77F
S31520000330FEE7FEE7FEE7FEE7FEE7FEE7FEE7FEE76F
S31520000340FEE7FEE7FEE7FEE7FEE7FEE7FEE7FEE75F
S31520000350FEE7FEE7FEE7FEE7FEE7FEE7FEE7FEE74F
S31520000360FEE7FEE7FEE7FEE7FEE7FEE7FEE7FEE73F
S31520000370FEE7FEE7FEE7FEE7FEE7FEE7FEE7FEE72F
S31520000380FEE7FEE7FEE7FEE7FEE7FEE7FEE7FEE71F
S31520000390FEE7FEE7FEE7FEE7FEE7FEE7FEE7FEE70F
S315200003A0FEE7FEE7FEE7FEE7FEE7FEE7FEE7FEE7FF
S315200003B0FEE7FEE7FEE7FEE7FEE7FEE7FEE7FEE7EF
S315200003C0FEE7FEE7FEE7FEE7FEE7FEE7FEE7FEE7DF
S315200003D0FEE7FEE7FEE7FEE7FEE7FEE7FEE7FEE7CF
S315200003E0FEE7FEE7FEE7FEE7FEE7FEE7FEE7FEE7BF
S315200003F0FEE7FEE7FEE7FEE7FEE7FEE7FEE7FEE7AF
S31520000400FEE7FEE7FEE7FEE7FEE7FEE7FEE7FEE79E
S31520000410FEE7FEE7FEE7FEE7FEE7FEE7FEE7FEE78E
S31520000420FEE7FEE7FEE7FEE7FEE7FEE7FEE7FEE77E
S31520000430FEE7FEE7FEE7FEE7FEE70000E12F0020ED
S31520000440000000000000002000000020C8980020C6
S31520000450C8980020C8980020E89D002000000000D1
S31520000460E89D0020D09F002031320020A1060020E8
S3152000047049F6E853C2F200031A780AB90120187027
S31520000480704700BF49F6C800C2F2000008B50368ED
S315200004902BB140F20003C0F2000303B1984708BD18
S315200004A080B483B000AF0346FB804EF20013CEF239
S315200004B00003B7F906204FEA5212F98801F01F010E
S315200004C04FF0010000FA01F143F8221007F10C0762
S315200004D0BD4680BC704700BF80B483B000AF0346E2
S315200004E0FB804EF20013CEF20003B7F906204FEA46
S315200004F05212F98801F01F014FF0010000FA01F1B4
S3152000050002F1200243F8221007F10C07BD4680BCF9
S31520000510704700BF80B483B000AF0346FB804EF225
S315200005200013CEF20003B7F906204FEA5212F988DB
S3152000053001F01F014FF0010000FA01F102F1600203
S3152000054043F8221007F10C07BD4680BC704700BF58
S3152000055080B582B000AF0346FB714FF01400FFF761
S31520000560BBFF42F20003CEF2040342F20002CEF2B7
S315200005700402126B22F040021A6345F20003C4F211
S3152000058000034FF000025A6540F20003C4F20A232A
S315200005904FF00002C3F8802140F20003C4F20A2380
S315200005A04FF00002C3F8882140F20003C4F20A2368
S315200005B0FA79C3F8842145F20003C4F200034FF010
S315200005C001021A614FF01400FFF7A4FF07F1080794
S315200005D0BD4680BD80B400AF40F20003C4F20A23BA
S315200005E04FF00102C3F88021BD4680BC704700BF92
S315200005F080B483B000AF786045F20003C4F20003F4
S315200006007A689A6007F10C07BD4680BC704700BF28
S3152000061080B500AF40F20003C4F20A234FF0010276
S31520000620C3F888214FF01400FFF73AFF80BD00BFC2
S3152000063080B400AF45F20003C4F200034FF001027C
S315200006401A61BFF34F8FBD4680BC704780B500AF9F
S315200006504FF00000FFF77CFF42F60050C0F2311049
S31520000660FFF7C6FFFFF7B6FFFFF7D2FF80BD00BF3B
S3152000067080B582B002AF4FF00003009349F6547064
S31520000680C2F200004FF0540149F6EC52C2F20002C9
S315200006904FF0640301F09AFAFFF7CAFFBD4680BD0A
S315200006A080B58CB000AF49F65470C2F200004FF00E
S315200006B054014FF0000201F059F9FFF7C7FF49F640
S315200006C05470C2F2000001F095FB0346002B14D1B2
S315200006D049F6EC53C2F200031B881A4649F6EC533E
S315200006E0C2F200035B8849F20060C2F200001146A4
S315200006F01A4602F02FFE00BFE1E749F65470C2F217
S31520000700000001F077FB034649F20860C2F20000C0
S31520000710194602F01FFED2E780B483B000AF78609E
S315200007204FF0FF33184607F10C07BD4680BC7047D3
S3152000073080B584B000AFF860B9607A6002F072FDCF
S3152000074003464FF00C021A604FF0FF33184607F1AC
S315200007501007BD4680BD00BF80B483B000AF78606F
S31520000760FEE700BF80B500AF02F05CFD03464FF008
S315200007700B021A604FF0FF33184680BD80B483B059
S3152000078000AF786039603B684FF400525A604FF0F2
S315200007900003184607F10C07BD4680BC704700BF12
S315200007A080B400AF4FF001031846BD4680BC7047A9
S315200007B080B483B000AF78604FF00103184607F18C
S315200007C00C07BD4680BC704780B582B000AF78600C
S315200007D0396002F027FD03464FF016021A604FF0EB
S315200007E0FF33184607F10807BD4680BD80B582B0A5
S315200007F000AF7860396002F015FD03464FF01F0206
S315200008001A604FF0FF33184607F10807BD4680BD32
S3152000081080B485B000AFF860B9607A604FF000030D
S31520000820184607F11407BD4680BC704780B485B0D2
S3152000083000AFF860B9607A604FF0FF33184607F1D1
S315200008401407BD4680BC704780B485B000AFF86001
S31520000850B9607A604FF00003184607F11407BD46C9
S3152000086080BC704780B584B000AFF860B9607A600C
S315200008703B6049F65063C2F200031B68002B10D17F
S3152000088049F6B860C2F200004FF461414FF003020E
S3152000089000F0FAF849F65063C2F200034FF0010265
S315200008A01A603B6849F6B860C2F2000079681A46B9
S315200008B000F0ECF93B68184607F11007BD4680BDED
S315200008C080B584B000AF786049F65863C2F2000361
S315200008D01B68002B08D149F65863C2F2000349F67B
S315200008E0D072C2F200021A6049F65863C2F20003BF
S315200008F01B68BB60EFF30883FB6049F65863C2F2BE
S3152000090000031A687B681A44FB689A420FD94FF095
S3152000091000004FF0010149F22862C2F200024FF0B6
S315200009201903FFF79FFF4FF00100FFF715FF49F668
S315200009305863C2F200031A687B681A4449F6586362
S31520000940C2F200031A60BB68184607F11007BD46BD
S3152000095080BD00BF80B483B000AF786039603B684B
S315200009604FF400525A604FF00003184607F10C0767
S31520000970BD4680BC704700BF80B483B000AF7860AE
S315200009804FF0FF33184607F10C07BD4680BC704771
S3152000099080B582B000AF786002F044FC03464FF089
S315200009A002021A604FF0FF33184607F10807BD46CA
S315200009B080BD00BF80B582B000AF786002F032FC07
S315200009C003464FF00A021A604FF0FF33184607F12C
S315200009D00807BD4680BD00BF80B483B000AF034684
S315200009E0FB804EF20013CEF20003B7F906204FEA41
S315200009F05212F98801F01F014FF0010000FA01F1AF
S31520000A0043F8221007F10C07BD4680BC704700BF93
S31520000A1080B483B000AF0346FB804EF20013CEF2C3
S31520000A200003B7F906204FEA5212F98801F01F0198
S31520000A304FF0010000FA01F102F1200243F82210E2
S31520000A4007F10C07BD4680BC704700BF80B483B059
S31520000A5000AF0346FB804EF20013CEF20003B7F937
S31520000A6006204FEA5212F98801F01F014FF00100CB
S31520000A7000FA01F102F1600243F8221007F10C0797
S31520000A80BD4680BC704700BF80B588B000AFF86017
S31520000A90B9601346FB714FF00103FB824FF0000350
S31520000AA0BB61FA6849F6B863C2F200039A4207D0DE
S31520000AB0FA6849F69063C2F200039A4200D000BE5B
S31520000AC0BB68002B00D100BE02F090FAFA6849F606
S31520000AD0B863C2F200039A422ED1FB684FF08042DF
S31520000AE01A60FB684FF084425A60FB684FF00A0296
S31520000AF01A8149F6D403C2F200031B68BB6142F295
S31520000B000003CEF2040342F20002CEF20402126B7C
S31520000B1042F080021A634FF00A00FFF797FF42F275
S31520000B200003CEF2040342F20002CEF20402126B5C
S31520000B3022F080021A6331E0FA6840F20003C4F220
S31520000B4001031360FA6840F20003C4F220235360C5
S31520000B50FB684FF00B021A8149F6D803C2F2000354
S31520000B601B68BB6142F20003CEF2040342F200028C
S31520000B70CEF20402126B42F480721A634FF00B001D
S31520000B80FFF764FF42F20003CEF2040342F20002B2
S31520000B90CEF20402126B22F480721A63FB681B6881
S31520000BA04FF000021A71BB68002B21D0BA69BB68CE
S31520000BB0B2FBF3F3FB61FB6903F00803002B06D0BD
S31520000BC0FB694FEA131303F10103FB6103E0FB69A1
S31520000BD04FEA1313FB61FA694FF6FF739A4200D965
S31520000BE000BEFA694FF6FF739A4201D8FB69FB8271
S31520000BF0FB685B684FF00102C3F89C21FB681B6809
S31520000C00FA8A4FEA122292B2D2B21A71FB681B6894
S31520000C10FA8AD2B21A70FB685B684FF00002C3F8FA
S31520000C209C21FB681B68FA791A73FB681B684FF0D6
S31520000C300E021A72FB685B684FF00002C3F810229E
S31520000C40FB684FF000021A61FB684FF00002DA6081
S31520000C50FB684FF000025A61FB684FF00002DA6130
S31520000C60FA6841F27D23C2F200031362FB684FF05B
S31520000C7000029A61FB684FF000025A62FB684FF04F
S31520000C8000029A7207F12007BD4680BD80B489B064
S31520000C9000AFF860B9607A604FF000033B61FA68F4
S31520000CA049F6B863C2F200039A4207D0FA6849F6B9
S31520000CB09063C2F200039A4200D000BEBB68002BAC
S31520000CC000D100BE7B68002B00D100BEFA6849F631
S31520000CD0B863C2F200039A4206D0FA6849F69063D6
S31520000CE0C2F200039A423DD1BB68002B3AD07B6802
S31520000CF0002B37D0FB681B681B7DFB76FB689A7A36
S31520000D00FB7E42EA0303DAB2FB689A72FB7E03F0AB
S31520000D102003002B23D04FF01003FB617B680F2BA1
S31520000D2001D87B68FB614FF000037B610EE0FB6816
S31520000D301B68B9683A690A4412781A703B6903F14C
S31520000D4001033B617B6903F101037B617A69FB69DE
S31520000D509A42ECD37A687B69C3EB02037B607B689B
S31520000D60002BC7D107F12407BD4680BC704700BFC2
S31520000D7080B487B000AF786039604FF00003BB6065
S31520000D807A6849F6B863C2F200039A4207D07A68B5
S31520000D9049F69063C2F200039A4200D000BE3B6837
S31520000DA0002B00D100BE7A6849F6B863C2F2000370
S31520000DB09A4206D07A6849F69063C2F200039A42B4
S31520000DC038D13B68002B35D03A68BB6813441B7872
S31520000DD03B612CE07B681B681B7DFB757B689A7AE0
S31520000DE0FB7D42EA0303DAB27B689A72FB7D03F04D
S31520000DF02003002BEED04FF00003FB6011E07B6850
S31520000E001B683A69D2B21A70FB6803F10103FB60D2
S31520000E10BB6803F10103BB603A68BB6813441B78C7
S31520000E203B613B69002B02D0FB680F2BE7D93B695E
S31520000E30002BCFD107F11C07BD4680BC704700BFF1
S31520000E4080B584B000AFF860B9607A60FA6849F678
S31520000E50B863C2F200039A4207D0FA6849F6906353
S31520000E60C2F200039A4200D000BEBB68002B00D11C
S31520000E7000BE7B68002B00D100BE7B68002B32D0E1
S31520000E80BB68002B2FD0FA6849F6B863C2F200037C
S31520000E909A4206D0FA6849F69063C2F200039A4253
S31520000EA021D1FB68BA68DA60FB687A681A61FB6848
S31520000EB04FF000025A61FB681B891BB21846FFF7E8
S31520000EC0C5FDFA6841F27D23C2F200031362FB6876
S31520000ED05B684FF00102C3F88420FB681B891BB2B4
S31520000EE01846FFF779FD07F11007BD4680BD00BF04
S31520000EF080B485B000AF78604FF00003BB734FF02D
S31520000F000003FB737A6849F6B863C2F200039A427B
S31520000F1007D07A6849F69063C2F200039A4200D05D
S31520000F2000BE7A6849F6B863C2F200039A4206D038
S31520000F307A6849F69063C2F200039A4217D17B6819
S31520000F401B681B7DFB737B689A7AFB7B42EA030353
S31520000F50DAB27B689A727B681B69002B07D1FB7B10
S31520000F6003F04003002B02D04FF00103BB73BB7B81
S31520000F705BB2184607F11407BD4680BC704700BF18
S31520000F8080B487B000AFF860B9607A604FF0000394
S31520000F903B614FF00003FB75FA6849F6B863C2F26D
S31520000FA000039A4207D0FA6849F69063C2F200031A
S31520000FB09A4200D000BEBB68002B00D100BE7B68E1
S31520000FC0002B00D100BEFA6849F6B863C2F20003CE
S31520000FD09A4206D0FA6849F69063C2F200039A4212
S31520000FE034D1BB68002B31D07B68002B2ED0FB6818
S31520000FF01B681B7DFB75FB689A7AFB7D42EA03031F
S31520001000DAB2FB689A7217E0BA683B691344FA6849
S3152000101012681278D2B21A703B6903F101033B6160
S31520001020FB681B681B7DFB75FB689A7AFB7D42EA91
S315200010300303DAB2FB689A72FB7D03F00103DBB28D
S31520001040002B03D03A697B689A42DDD33B69184668
S3152000105007F11C07BD4680BC704700BF80B582B033
S3152000106000AF78600B46FB707A6849F6B863C2F227
S3152000107000039A4207D07A6849F69063C2F20003C9
S315200010809A4200D000BE7A6849F6B863C2F20003DD
S315200010909A4206D07A6849F69063C2F200039A42D1
S315200010A016D17B681B891BB21846FFF7CFFC7B68DD
S315200010B01B687A6812681279D1B2FA7841EA02027C
S315200010C0D2B21A717B681B891BB21846FFF784FCC3
S315200010D007F10807BD4680BD80B582B000AF7860B5
S315200010E00B46FB707A6849F6B863C2F200039A424F
S315200010F007D07A6849F69063C2F200039A4200D07C
S3152000110000BE7A6849F6B863C2F200039A4206D056
S315200011107A6849F69063C2F200039A421CD17B6832
S315200011201B687A6812681279D1B2FA786FEA0202DD
S31520001130D2B201EA0202D2B21A717B681B891BB2B3
S315200011401846FFF783FCFB780F2B05D17B681B899C
S315200011501BB21846FFF75CFC07F10807BD4680BDA9
S3152000116080B584B000AF78607A6849F6B863C2F279
S3152000117000039A4207D07A6849F69063C2F20003C8
S315200011809A4200D000BE7A6849F6B863C2F20003DC
S315200011909A4206D07A6849F69063C2F200039A42D0
S315200011A067D17B681B681B7ADBB203F00F03FB73E6
S315200011B0FB7B0C2B54D801A252F823F0F11100200E
S315200011C0611200200D120020611200202912002039
S315200011D061120020451200206112002061120020B9
S315200011E061120020611200206112002029120020C5
S315200011F07B685B6A002B00D100BE7B685B6A002B94
S3152000120030D07B685B6A7868984732E07B681B6AD7
S31520001210002B00D100BE7B681B6A002B24D07B6884
S315200012201B6A7868984724E07B68DB69002B00D12D
S3152000123000BE7B68DB69002B18D07B68DB69786889
S31520001240984716E07B689B69002B00D100BE7B681F
S315200012509B69002B0CD07B689B697868984708E0CF
S3152000126000BE06E000BF04E000BF02E000BF00E0D1
S3152000127000BF07F11007BD4680BD00BF80B487B010
S3152000128000AF78607A6849F6B863C2F200039A42E2
S3152000129007D07A6849F69063C2F200039A4200D0DA
S315200012A000BE7B68DB68002B00D100BE7B681B6913
S315200012B0002B00D100BE7A6849F6B863C2F200035B
S315200012C09A4206D07A6849F69063C2F200039A429F
S315200012D052D17B68DB68002B4ED07B681B69002BC4
S315200012E04AD07B681B681B7DFB727B689A7AFB7AE7
S315200012F042EA0303DAB27B689A72FB7A03F0200390
S31520001300002B29D04FF010033B617B681A697B685C
S315200013105B69C3EB02037B617B690F2B01D87B6979
S315200013203B614FF00003FB6012E07B681B687A6824
S31520001330D1687A6852690A4412781A707B685B69A8
S3152000134003F101027B685A61FB6803F10103FB602C
S31520001350FA683B699A42E8D37B685A697B681B69BD
S315200013609A4209D17B684FF000021A617B685B685C
S315200013704FF00002C3F8842007F11C07BD4680BC4D
S31520001380704700BF80B584B000AFF860B9601346DF
S31520001390FB71FA6849F6B863C2F200039A4207D095
S315200013A0FA6849F69063C2F200039A4200D000BE62
S315200013B0BB68002B00D100BEFB79C02B00D900BE34
S315200013C0FA6849F6B863C2F200039A4206D0FA6870
S315200013D049F69063C2F200039A4223D1BB68002BE0
S315200013E020D0FB79C02B1DD8FB68BA68DA61FB6870
S315200013F01A68FB7903F0C00343F00A03DBB21372C9
S31520001400FB681B891BB21846FFF720FBFB685B684D
S315200014104FF00102C3F88020FB681B891BB21846D7
S31520001420FFF7DAFA07F11007BD4680BD80B483B016
S3152000143000AF78600B46FB707A6849F6B863C2F253
S3152000144000039A4207D07A6849F69063C2F20003F5
S315200014509A4200D000BE7A6849F6B863C2F2000309
S315200014609A4206D07A6849F69063C2F200039A42FD
S315200014700FD1FB78002B06D17B685B684FF000020A
S31520001480C3F8102205E07B685B684FF00102C3F8C1
S31520001490102207F10C07BD4680BC7047684620F035
S315200014A007018D4689B500AF49F6B860C2F2000043
S315200014B0FFF756FE4FF00A00FFF7C8FABD46BDE813
S315200014C089408546704700BF684620F007018D4653
S315200014D089B500AF49F69060C2F20000FFF740FEE2
S315200014E04FF00B00FFF7B2FABD46BDE889408546AE
S315200014F0704700BF80B582B000AF786039607A68E7
S3152000150049F6B863C2F200039A4207D07A6849F6D0
S315200015109063C2F200039A4200D000BE3B68002BC3
S3152000152000D100BE7A6849F6B863C2F200039A4237
S3152000153006D07A6849F69063C2F200039A4217D120
S315200015403B68002B14D07B683A689A617B681B89BC
S315200015501BB21846FFF77AFA7B685B684FF00102E8
S31520001560C3F888207B681B891BB21846FFF734FA1C
S3152000157007F10807BD4680BD80B582B000AF786010
S3152000158039607A6849F6B863C2F200039A4207D0F6
S315200015907A6849F69063C2F200039A4200D000BEF0
S315200015A03B68002B00D100BE7A6849F6B863C2F2C8
S315200015B000039A4206D07A6849F69063C2F2000385
S315200015C09A421FD13B68002B1CD07B683A681A626E
S315200015D07B684FF00002DA607B684FF000021A61E8
S315200015E07B681B891BB21846FFF730FA7B685B685D
S315200015F04FF00102C3F884207B681B891BB2184672
S31520001600FFF7EAF907F10807BD4680BD80B582B02D
S3152000161000AF786039607A6849F6B863C2F2000391
S315200016209A4207D07A6849F69063C2F200039A423A
S3152000163000D000BE3B68002B00D100BE7A6849F678
S31520001640B863C2F200039A4206D07A6849F69063DC
S31520001650C2F200039A4217D13B68002B14D07B6854
S315200016603A685A627B681B891BB21846FFF7EEF967
S315200016707B685B684FF00102C3F88C207B681B896E
S315200016801BB21846FFF7A8F907F10807BD4680BD2B
S3152000169080B489B000AFF860B9607A604FF000037B
S315200016A0FB754FF00003BB61FA6849F6B863C2F2D6
S315200016B000039A4207D0FA6849F69063C2F2000303
S315200016C09A4200D000BEBB68002B00D100BE7B68CA
S315200016D0002B00D100BEFA6849F6B863C2F20003B7
S315200016E09A4206D0FA6849F69063C2F200039A42FB
S315200016F031D1BB68002B2ED07B68002B2BD0FB680A
S315200017001B681B7DFB75FB689A7AFB7D42EA030307
S31520001710DAB2FB689A72FB7D03F02003002B1AD005
S315200017204FF01003FB617B680F2B01D87B68FB61B0
S315200017304FF00003BB610AE0FB681B68B968BA6911
S315200017400A4412781A70BB6903F10103BB61BA69B6
S31520001750FB699A42F0D3BB69184607F12407BD46B8
S3152000176080BC704780B485B000AF78604FF0FF33FF
S31520001770FB737A6849F6B863C2F200039A4207D02F
S315200017807A6849F69063C2F200039A4200D000BEFE
S315200017907A6849F6B863C2F200039A4206D07A689C
S315200017A049F69063C2F200039A4213D17B689A7A73
S315200017B07B681B681B7DDBB242EA0303DAB27B68D7
S315200017C09A727B689B7A23F06103FB737B684FF0E8
S315200017D000029A72FB7B184607F11407BD4680BCAF
S315200017E0704700BF80B485B000AF78604FF0FF33FC
S315200017F0FB737A6849F6B863C2F200039A4207D0AF
S315200018007A6849F69063C2F200039A4200D000BE7D
S315200018107A6849F6B863C2F200039A4206D07A681B
S3152000182049F69063C2F200039A4203D17B681B6893
S315200018301B7EFB73FB7B184607F11407BD4680BC55
S31520001840704700BF80B485B000AF78604FF00003CA
S31520001850FB737A6849F6B863C2F200039A4207D04E
S315200018607A6849F69063C2F200039A4200D000BE1D
S315200018707A6849F6B863C2F200039A4206D07A68BB
S3152000188049F69063C2F200039A420FD17B681B6827
S315200018901B7DFB737B689A7AFB7B42EA0303DAB2F1
S315200018A07B689A72FB7B03F06003FB73FB7B184615
S315200018B007F11407BD4680BC704700BF80B483B0D3
S315200018C000AF0346FB804EF20013CEF20003B7F9B9
S315200018D006204FEA5212F98801F01F014FF001004D
S315200018E000FA01F143F8221007F10C07BD4680BC2F
S315200018F0704700BF80B483B000AF0346FB804EF232
S315200019000013CEF20003B7F906204FEA5212F988E7
S3152000191001F01F014FF0010000FA01F102F120024F
S3152000192043F8221007F10C07BD4680BC704700BF64
S3152000193080B483B000AF0346FB804EF20013CEF294
S315200019400003B7F906204FEA5212F98801F01F0169
S315200019504FF0010000FA01F102F1600243F8221073
S3152000196007F10C07BD4680BC704700BF80B584B028
S3152000197000AF786013460A46FA70BB70BB78FB60EE
S315200019807A6849F6E063C2F200039A4207D07A6881
S3152000199049F65473C2F200039A4200D000BE01F009
S315200019A08FF90346BB6078684FF000014FF0740250
S315200019B001F066FC7A6849F6E063C2F200039A42B7
S315200019C02CD17B684FF00E025A827A6842F20003CD
S315200019D0C4F2000353617A6840F20003C4F2042380
S315200019E0936142F20003CEF2040342F20002CEF2E9
S315200019F00402126B42F400621A634FF00E00FFF7E6
S31520001A0097FF42F20003CEF2040342F20002CEF226
S31520001A100402126B22F400621A632BE07B684FF0FB
S31520001A2011025A827A6842F20003C4F2010353611A
S31520001A307A6840F20003C4F22423936142F2000341
S31520001A40CEF2040342F20002CEF20402126B42F4FA
S31520001A5080521A634FF01100FFF76AFF42F200032B
S31520001A60CEF2040342F20002CEF20402126B22F4FA
S31520001A7080521A637B689B691A467B68DA61FB7819
S31520001A804FEA43027B681A607B689B69FA684FEAD3
S31520001A90920202F00102DA617B689B69FA684FEADA
S31520001AA0520202F001025A607B689B69FA6802F0D2
S31520001AB001021A607B685B697A681268D2B21A736F
S31520001AC07B689B694FF001029A61B86801F00AF9B8
S31520001AD007F11007BD4680BD80B586B000AFF8601F
S31520001AE07A600A46FA727B80FA6849F6E063C2F2A7
S31520001AF000039A4207D0FA6849F65473C2F20003EB
S31520001B009A4200D000BE01F0DBF803467B61FB68F9
S31520001B101B7A002B03D1FB684FF001021A72FB6877
S31520001B204FF0010283F87220FB7A4FEA4302FB68EA
S31520001B305A60FB684FF00002DA62FB687A681A6224
S31520001B407A88FB685A62FB684FF000029A62FB684B
S31520001B504FF0010283F83C20FB6897F820201A7486
S31520001B60FB6893F85C30DBB2012B05D1FB684FF0A4
S31520001B70010283F8712004E0FB689B694FF00102A3
S31520001B805A61FB6893F87030012B11D1FB689B6971
S31520001B904FF00002DA60FB685B691B79FB74FB7C03
S31520001BA0DBB2FB74FB685B8A1BB21846FFF7C0FEEC
S31520001BB0FB685B8A1BB21846FFF780FE786901F046
S31520001BC091F807F11807BD4680BD00BF80B586B0E5
S31520001BD000AFF8607A600A46FA727B80FA6849F6A6
S31520001BE0E063C2F200039A4207D0FA6849F65473BA
S31520001BF0C2F200039A4200D000BE01F061F803460B
S31520001C007B61FB681B7A002B03D1FB684FF0020235
S31520001C101A72FB684FF0020283F87220FB7A4FEAB1
S31520001C204302FB685A60FB684FF00102DA62FB68E8
S31520001C307A681A637A88FB685A63FB684FF0000259
S31520001C409A63FB684FF0010283F83C20FB6897F803
S31520001C5020201A74FB6893F85C30DBB2012B05D187
S31520001C60FB684FF0010283F8712004E0FB689B6952
S31520001C704FF001025A61FB6893F87030012B11D1A5
S31520001C80FB689B694FF00002DA60FB685B691B7991
S31520001C90FB74FB7CDBB2FB74FB685B8A1BB21846C9
S31520001CA0FFF746FEFB685B8A1BB21846FFF706FE67
S31520001CB0786901F017F807F11807BD4680BD00BF07
S31520001CC080B586B000AFF8607A600A46FA727B80EB
S31520001CD0FA6849F6E063C2F200039A4207D0FA682E
S31520001CE049F65473C2F200039A4200D000BE7B88A4
S31520001CF0002B00D100BE7B68002B00D100BEBB8C20
S31520001D00002B00D100BE3B6A002B00D100BEBB8C4D
S31520001D10002B6AD07B88002B67D000F0D1FF0346CA
S31520001D207B61FB681B7A002B03D1FB684FF0030213
S31520001D301A72FB684FF0030283F87220FB7A4FEA8F
S31520001D404302FB685A60FB684FF00002DA62FB68C8
S31520001D507A681A627A88FB685A62FB684FF000023A
S31520001D609A62FB683A6A1A63BA8CFB685A63FB6804
S31520001D704FF000029A63FB684FF0010283F83C2083
S31520001D80FB6897F828201A74FB6893F85C30DBB25E
S31520001D90012B05D1FB684FF0010283F8712004E086
S31520001DA0FB689B694FF001025A61FB6893F870301B
S31520001DB0012B11D1FB689B694FF00002DA60FB68AA
S31520001DC05B691B79FB74FB7CDBB2FB74FB685B8A6B
S31520001DD01BB21846FFF7ACFDFB685B8A1BB21846A0
S31520001DE0FFF76CFD786900F07DFF07F11807BD4607
S31520001DF080BD00BF80B485B000AF78607A6849F6B0
S31520001E00E063C2F200039A4207D07A6849F6547317
S31520001E10C2F200039A4200D000BE7B6893F83C30A1
S31520001E20FB73FB7B184607F11407BD4680BC704741
S31520001E3080B485B000AF786039607A6849F6E0638F
S31520001E40C2F200039A4207D07A6849F65473C2F266
S31520001E5000039A4200D000BE7B683A681A647B6809
S31520001E6093F83C30FB73FB7B012BF8D0FB7B1846A9
S31520001E7007F11407BD4680BC704700BF80B483B00D
S31520001E8000AF786039607B681B6C002B1ED07B68A6
S31520001E901A6C3B689A4207D97B681A6C3B68C3EB7D
S31520001EA002027B681A6411E07B684FF0030283F814
S31520001EB03C207B684FF000021A727B684FF00002CC
S31520001EC083F871207B684FF000021A6407F10C0733
S31520001ED0BD4680BC704700BF80B586B000AFF860B5
S31520001EE0B9601346FB80FA6849F6E063C2F2000344
S31520001EF09A4207D0FA6849F65473C2F200039A420E
S31520001F0000D000BE00F0DCFE03467B61FB68BA68A9
S31520001F105A64FA88FB689A64FB684FF00002DA6418
S31520001F20786900F0DFFE07F11807BD4680BD00BFC7
S31520001F3080B586B000AFF860B9601346FB80FA68BA
S31520001F4049F6E063C2F200039A4207D0FA6849F6DE
S31520001F505473C2F200039A4200D000BE00F0B0FED5
S31520001F6003467B61FB68BA681A65FA88FB685A657E
S31520001F70FB684FF000029A65786900F0B3FE07F11E
S31520001F801807BD4680BD00BF80B483B000AF78601F
S31520001F900B46FB707A6849F6E063C2F200039A4268
S31520001FA007D07A6849F65473C2F200039A4200D0E9
S31520001FB000BEFB78022B00D900BEFB78022B04D989
S31520001FC07B684FF002021A6602E0FA787B681A668E
S31520001FD007F10C07BD4680BC704700BF80B483B0B4
S31520001FE000AF786039607A6849F6E063C2F2000390
S31520001FF09A4207D07A6849F65473C2F200039A428D
S3152000200000D000BE7B683A685A6607F10C07BD46C9
S3152000201080BC704780B584B000AF78607A6849F696
S31520002020E063C2F200039A4207D07A6849F65473F5
S31520002030C2F200039A4200D000BE00F041FE0346E1
S31520002040FB607B689B694FF001029A607B684FF0CA
S31520002050010283F86820F86800F044FE7B685B8AFA
S315200020601BB21846FFF72AFC07F11007BD4680BDB4
S3152000207080B584B000AF78607A6849F6E063C2F232
S3152000208000039A4207D07A6849F65473C2F20003D5
S315200020909A4200D000BE00F013FE0346FB607B6828
S315200020A09B694FF000029A607B684FF0000283F82C
S315200020B06820F86800F016FE07F11007BD4680BDBF
S315200020C080B483B000AF78607B6893F86830002BCB
S315200020D004D07B689B694FF001029A6007F10C07D8
S315200020E0BD4680BC704700BF80B584B000AF786025
S315200020F04FF00103BB737A6849F6E063C2F200032E
S315200021009A4207D07A6849F65473C2F200039A427B
S3152000211000D000BE7B685B691B79FB72FB7ADBB261
S31520002120A3F10803D02B00F21C8401A252F823F05D
S3152000213075240020632900206329002063290020BC
S3152000214063290020632900206329002063290020B9
S31520002150752400206329002063290020632900209C
S315200021606329002063290020632900206329002099
S3152000217019250020632900206329002063290020D7
S315200021806329002063290020632900206329002079
S31520002190F5240020632900206329002063290020DC
S315200021A06329002063290020632900206329002059
S315200021B01925002063290020632900206329002097
S315200021C06329002063290020632900206329002039
S315200021D0AD250020632900206329002063290020E3
S315200021E06329002063290020632900206329002019
S315200021F0E924002063290020632900206329002088
S3152000220063290020632900206329002063290020F8
S31520002210D12500206329002063290020632900207E
S3152000222063290020632900206329002063290020D8
S31520002230212600206329002063290020632900200D
S3152000224063290020632900206329002063290020B8
S3152000225045260020632900206329002063290020C9
S315200022606329002063290020632900206329002098
S315200022707F2600206329002063290020632900206F
S315200022806329002063290020632900206329002078
S3152000229021270020632900206329002063290020AC
S315200022A06329002063290020632900206329002058
S315200022B01727002063290020632900206329002096
S315200022C06329002063290020632900206329002038
S315200022D0212700206329002063290020632900206C
S315200022E06329002063290020632900206329002018
S315200022F01727002063290020632900206329002056
S3152000230063290020632900206329002063290020F7
S3152000231063270020632900206329002063290020E9
S3152000232063290020632900206329002063290020D7
S31520002330E32600206329002063290020632900204A
S3152000234063290020632900206329002063290020B7
S3152000235063270020632900206329002063290020A9
S315200023606329002063290020632900206329002097
S31520002370E32600206329002063290020632900200A
S315200023806329002063290020632900206329002077
S31520002390BF2700206329002063290020632900200D
S315200023A06329002063290020632900206329002057
S315200023B09728002063290020632900206329002014
S315200023C06329002063290020632900206329002037
S315200023D097280020632900206329002063290020F4
S315200023E06329002063290020632900206329002017
S315200023F097280020632900206329002063290020D4
S3152000240063290020632900206329002063290020F6
S315200024102929002063290020632900206329002020
S3152000242063290020632900206329002063290020D6
S315200024302929002063290020632900206329002000
S3152000244063290020632900206329002063290020B6
S3152000245063290020632900206329002063290020A6
S315200024606329002063290020632900206329002096
S31520002470692800207B689B694FF000025A617B68BF
S315200024805B697A685268D2B21A727B689B697A68ED
S31520002490D26AC3F800217B68DB6A002B04D17B68F3
S315200024A04FF000029A6207E07B68DB6A012B03D1BA
S315200024B07B684FF000029A637B6893F87130002B9B
S315200024C004D07B684FF0000283F871207B681A7A6B
S315200024D07B6893F872309A4200F067827B6893F8A3
S315200024E072207B681A7269E27B689B694FF0010251
S315200024F05A6163E27B689B694FF001021A617B682F
S315200025004FF0020283F83C207B684FF000021A72DB
S315200025107868FFF7D5FD51E27B689A6A7B685B6A2B
S315200025209A420DD27B685A697B68196A7B689B6AD6
S3152000253019440978117203F101027B689A623DE21F
S315200025407B681B7A032B09D17B684FF00102DA6284
S315200025507B689B694FF001025A612FE27B684FF03E
S3152000256000021A727B681B7C03F001037B737B6875
S315200025707A7B83F870207B7B002B08D17B689B6954
S315200025804FF001021A617868FFF79AFD08E07B6830
S315200025905B8A1BB21846FFF7ADF94FF00003BB73F9
S315200025A07B684FF0000283F83C2007E27B689B693A
S315200025B04FF001021A617B684FF0020283F83C203B
S315200025C07B684FF000021A727868FFF779FDF5E113
S315200025D07B685B6B012B05D97B689B694FF00102F9
S315200025E09A60EBE17B685B6B012B05D17B689B696D
S315200025F04FF000029A60E1E17B689B694FF001028F
S315200026009A607B689B694FF001021A617B684FF0E4
S31520002610000283F83C207B684FF000021A72CDE15D
S315200026207B689B694FF001021A617B684FF00202BA
S3152000263083F83C207B684FF000021A727868FFF717
S315200026403FFDBBE17B681A6B7B689B6B1A447968FC
S315200026504969097AC9B2117003F101027B689A634C
S315200026607B689A6B7B685B6B03F1FF339A42C0F001
S315200026709E817B689B694FF000029A609EE17B6891
S315200026801A6B7B689B6B13447A685269127AD2B2B2
S315200026901A707B681B7C03F001037B737B687A7B53
S315200026A083F870207B7B002B08D17B689B694FF0D9
S315200026B001021A617868FFF703FD08E07B685B8AF0
S315200026C01BB21846FFF716F94FF00003BB737B6861
S315200026D04FF000021A727B684FF0000283F83C200C
S315200026E06CE17B689B694FF001029A607B684FF032
S315200026F000021A727B684FF0000283F85C207B6828
S3152000270093F87130002B00F054817B689B694FF061
S3152000271001025A6152E17B684FF0010283F8712071
S315200027207B684FF004021A727B684FF000029A65AC
S315200027307B684FF00002DA607B689B695B69002B3F
S3152000274009D07B689B694FF000025A617B684FF085
S31520002750010283F871207B684FF0010283F85C2028
S315200027602CE17B681B6D002B1CD07B689A6D7B68E7
S315200027705B6D9A4216D27B685B691B7A3B737B68DA
S315200027801A6D7B689B6D1A44397B117003F1010227
S315200027907B689A657B68DB684FEA03223B7B1A4499
S315200027A07B68DA607B689A6D7B685B6D9A42C0F0C5
S315200027B002817B689B694FF000029A60FEE07B688D
S315200027C01B7A042B35D17B689A6D7B681B6E9A42E7
S315200027D003D17B68DA687B68DA647B685B6E002BE2
S315200027E021D07B685B6E7A68116D7A68926D92B2A1
S315200027F0786898470346FB73FB7B002B08D17868E3
S31520002800FFF75EFC7B689B694FF001029A6017E038
S315200028107B689B694FF000029A607B684FF000024C
S3152000282083F868200CE07B689B694FF001029A6070
S3152000283006E07B684FF00002DA647868FFF740FC18
S315200028407B684FF0000283F85C207B6893F8713038
S31520002850002B04D07B689B694FF001025A617B688C
S315200028604FF000021A72A9E07B684FF000021A723C
S315200028707B684FF00002DA647B6893F85C30DBB249
S31520002880012B04D17B684FF0020283F85C20786824
S31520002890FFF716FC92E0FB7ADBB2A82B1BD17B68F4
S315200028A04FF005021A727B684FF00002DA607B68EF
S315200028B04FF0010283F85C207B689B695B69002BE3
S315200028C009D07B689B694FF000025A617B684FF004
S315200028D0010283F871207B68DA6C7B689B6C9A42D4
S315200028E005D37B685B694FF0FF321A720CE07B6878
S315200028F05A697B68596C7B68DB6C194409781172BC
S3152000290003F101027B68DA647B68DA6C7B689B6C76
S315200029109A4252D37B689B694FF000029A607B688B
S315200029204FF00002DA6449E07B684FF00002DA6477
S315200029307B689B694FF001029A607B684FF000022A
S3152000294083F85C207B6893F87130002B04D07B6879
S315200029509B694FF001025A617B684FF000021A72A0
S315200029602CE07B689B694FF000025A617B684FF030
S3152000297000021A727B684FF00002DA647B6893F8D3
S315200029803C30DBB2012B04D17B684FF0020283F886
S315200029903C207B6893F85C30DBB2012B0ED17B6840
S315200029A04FF0020283F85C2008E000BF06E000BF7B
S315200029B004E000BF02E000BF00E000BFBB7B002BAD
S315200029C004D07B689B694FF00002DA607B685B6904
S315200029D01B79FB7207F11007BD4680BD80B483B01A
S315200029E000AF78600B46FB707B685B69FA781A75D6
S315200029F07B685B694FF054021A7407F10C07BD46D9
S31520002A0080BC704780B582B000AF78600B46FB7003
S31520002A107A6849F6E063C2F200039A4207D07A68E0
S31520002A2049F65473C2F200039A4200D000BE7A6877
S31520002A3049F6E063C2F200039A4227D1FB7803F0FD
S31520002A400103DBB2002B0DD04FF00F00FEF770FF15
S31520002A507B68DB694FF00102C3F800224FF00F00BC
S31520002A60FEF72CFFFB7803F00203002B36D04FF045
S31520002A701000FEF75DFF7B68DB694FF00102C3F8AB
S31520002A8004224FF01000FEF719FF28E0FB7803F030
S31520002A900103DBB2002B0DD04FF01200FEF748FFEA
S31520002AA07B68DB694FF00102C3F800224FF0120069
S31520002AB0FEF704FFFB7803F00203002B0FD04FF044
S31520002AC01300FEF735FF7B68DB694FF00102C3F880
S31520002AD004224FF01300FEF7F1FE00E000BF07F1DD
S31520002AE00807BD4680BD00BF80B582B000AF7860C4
S31520002AF00B46FB707A6849F6E063C2F200039A42FD
S31520002B0007D07A6849F65473C2F200039A4200D07D
S31520002B1000BE7A6849F6E063C2F200039A421FD1EA
S31520002B20FB7803F00103DBB2002B09D07B68DB695D
S31520002B304FF00002C3F800224FF00F00FEF7DAFE36
S31520002B40FB7803F00203002B2AD07B68DB694FF069
S31520002B500002C3F804224FF01000FEF7CBFE20E05F
S31520002B60FB7803F00103DBB2002B09D07B68DB691D
S31520002B704FF00002C3F800224FF01200FEF7BAFE13
S31520002B80FB7803F00203002B0BD07B68DB694FF048
S31520002B900002C3F804224FF01300FEF7ABFE00E05C
S31520002BA000BF07F10807BD4680BD00BF80B483B0D3
S31520002BB000AF78607B68DB694FF00002C3F818220B
S31520002BC007F10C07BD4680BC704700BF80B483B0B8
S31520002BD000AF78607B68DB694FF00102C3F81822EA
S31520002BE007F10C07BD4680BC704700BF80B483B098
S31520002BF000AF78607B68DB694FF00102C3F81C22C6
S31520002C0007F10C07BD4680BC704700BF80B483B077
S31520002C1000AF78607B68DB694FF00002C3F81022B2
S31520002C2007F10C07BD4680BC704700BF80B483B057
S31520002C3000AF78607B68DB694FF00102C3F8102291
S31520002C4007F10C07BD4680BC704700BF80B483B037
S31520002C5000AF78607B689B694FF00102C3F8802142
S31520002C6007F10C07BD4680BC704700BF80B483B017
S31520002C7000AF78607B689B694FF00002C3F8802123
S31520002C8007F10C07BD4680BC704700BF80B483B0F7
S31520002C9000AF786039607B683A68DA6607F10C071E
S31520002CA0BD4680BC704700BF80B483B000AF78605B
S31520002CB07B68DB6E184607F10C07BD4680BC704763
S31520002CC080B582B000AF00F079F803467B604FF004
S31520002CD0010000F083F87B68184607F10807BD4617
S31520002CE080BD00BF80B582B000AF7860786800F004
S31520002CF075F807F10807BD4680BD00BF684620F07D
S31520002D0007018D4689B500AF49F6E060C2F20000A2
S31520002D10FFF7EAF94FF00E00FEF70AFEBD46BDE8C2
S31520002D2089408546704700BF684620F007018D46DA
S31520002D3089B500AF49F65470C2F20000FFF7D4F906
S31520002D404FF01100FEF7F4FDBD46BDE889408546EB
S31520002D50704700BF4FF00004EFF309842046704708
S31520002D6023461846034683F3098870474FF000042C
S31520002D70EFF308842046704723461846034683F31C
S31520002D800888704780B483B000AF4FF000037B60A3
S31520002D90EFF312837B607B68184607F10C07BD466C
S31520002DA080BC704780B483B000AF78607B6883F3C3
S31520002DB0118807F10C07BD4680BC704780B483B0EC
S31520002DC000AF4FF000037B60EFF310837B607B68DE
S31520002DD0184607F10C07BD4680BC704780B483B007
S31520002DE000AF78607B6883F3108807F10C07BD4637
S31520002DF080BC704780B483B000AF4FF000037B6087
S31520002E00EFF313837B607B68184607F10C07BD46FA
S31520002E1080BC704780B483B000AF78607B6883F352
S31520002E20138807F10C07BD4680BC704780B483B079
S31520002E3000AF4FF000037B60EFF314837B607B6869
S31520002E40184607F10C07BD4680BC704780B483B096
S31520002E5000AF78607B6883F3148807F10C07BD46C2
S31520002E6080BC704780B485B000AF78604FF0000317
S31520002E70FB607B681BBAFB60FB68184607F11407EA
S31520002E80BD4680BC704700BF80B485B000AF034606
S31520002E90FB804FF00003FB60FB885BBAFB60FB689E
S31520002EA0184607F11407BD4680BC704780B485B02C
S31520002EB000AF0346FB804FF00003FB60FB88DBBAC4
S31520002EC0FB60FB68184607F11407BD4680BC7047B7
S31520002ED080B485B000AF78604FF00003FB607B685C
S31520002EE093FAA3F3FB60FB68184607F11407BD4667
S31520002EF080BC704780B485B000AF78604FF0000387
S31520002F00FB737B68D3E84F3FFB73FB7B184607F1C7
S31520002F101407BD4680BC704780B485B000AF78608A
S31520002F204FF00003FB817B68D3E85F3FFB81FB8981
S31520002F30184607F11407BD4680BC704780B485B09B
S31520002F4000AF78604FF00003FB607B6853E8003FDA
S31520002F50FB60FB68184607F11407BD4680BC704726
S31520002F6080B485B000AF03463960FB714FF0000393
S31520002F70FB603B68FA79C3E8412F0B46FB60FB6890
S31520002F80184607F11407BD4680BC704780B485B04B
S31520002F9000AF03463960FB804FF00003FB603B68BF
S31520002FA0FA88C3E8512F0B46FB60FB68184607F1E9
S31520002FB01407BD4680BC704780B485B000AF7860EA
S31520002FC039604FF00003FB603B687A6843E80023D2
S31520002FD0FB60FB68184607F11407BD4680BC7047A6
S31520002FE080B400AFBD4680BC704700BF80B58AB0B4
S31520002FF000AF49F24463C2F20003BC460FCB8CE813
S315200030000F0042F20003CEF204039B6C4FEA9303B7
S3152000301003F003034FEA830307F12802134453F80E
S31520003020283C3B6142F20003CEF204039B6C4FEA3C
S31520003030131303F003034FEA830307F12802134413
S3152000304053F8283C7B6142F20003CEF204039B6CCA
S315200030504FEA931303F003034FEA830307F1280291
S31520003060134453F8283CBB6142F20003CEF204031A
S31520003070DB6C4FEA132303F01F033B6242F200038B
S31520003080CEF20403DB6C4FEA533303F001037B6279
S315200030903B6A03F10103FB617B6A002B03D0FB69CA
S315200030A04FEA4303FB6100F049F8024649F6D00394
S315200030B0C2F200031A6049F6D003C2F200031A686E
S315200030C03B69B2FBF3F249F6D403C2F200031A605D
S315200030D049F6D003C2F200031A687B69B2FBF3F209
S315200030E049F6D803C2F200031A6049F6D003C2F2A9
S315200030F000031A68BB69B2FBF3F249F6DC03C2F29D
S3152000310000031A6049F6D003C2F200031A68FB696D
S31520003110B2FBF3F249F6E003C2F200031A6049F665
S31520003120D003C2F200031A6849F6CC03C2F20003A8
S315200031301A6007F12807BD4680BD00BF80B48BB05A
S3152000314000AF4FF000037B6040F61C03C6F2080375
S31520003150BB6040F23023C6F20803FB60FB681B68A5
S3152000316023F070433B613A6941F2CF13C0F2A15379
S315200031709A4208D14EF62C73C6F201037B617B6915
S315200031801B687B603DE0BB681A6844F24133C4F695
S3152000319054439A4235D140F64003C6F20803BB6138
S315200031A0BB691B68FB61FB6923F07F43FB61FA69FE
S315200031B040F20033C0F201039A4222D9FA694FF64F
S315200031C0FF73C0F201039A4208D841F22C63C6F27B
S315200031D008033B623B6A1B687B6012E0FA694FF684
S315200031E0FF73C0F202039A4208D841F6AC63C6F2D6
S315200031F008037B627B6A1B687B6002E04FF000035A
S315200032007B607B68002B05D100BE47F64003C0F2E9
S315200032107D137B607B68184607F12C07BD4680BC72
S31520003220704700BF49F6E403C2F2000318687047EE
S3152000323070B549F6B80649F6B805C2F20006C2F2DC
S315200032400005761BB61006D0002455F8243001342C
S315200032509847A642F9D849F6B80549F6BC06C2F2FF
S315200032600005C2F20006761B06F01AFBB61006D041
S31520003270002455F8243001349847A642F9D870BD69
S31520003280032AC9B230B407D822B10023C15401336E
S315200032909342FBD130BC704700EB020C034601E0A1
S315200032A003F8011C03F003041A460133002CF7D15E
S315200032B04FF00133C2EB0C0403FB01F31FE042F88D
S315200032C0403C42F83C3C42F8383C42F8343C42F818
S315200032D0303C42F82C3C42F8283C42F8243C42F848
S315200032E0203C42F81C3C42F8183C42F8143C42F878
S315200032F0103C42F80C3C42F8083C42F8043C154687
S3152000330040323F2CA4F14004D9DC2A46C5EB0C04FC
S3152000331007E042F8103C42F80C3C42F8083C42F8E0
S31520003320043C154610320F2CA4F11004F1DC2A4679
S31520003330C5EB0C0501E042F8043C14460432032D8B
S31520003340A5F10405F7DC01E004F8011B6445FBD375
S31520003350A0E700BF0FB449F6E403C2F2000310B59C
S315200033601C6882B024B1A36913B9204602F094FEEA
S31520003370204605AC049A23468168019400F02AF879
S3152000338002B0BDE8104004B0704700BF0EB410B5BF
S31520003390044683B018B183690BB902F07DFE20463E
S315200033A006AC059A23468168019400F013F803B011
S315200033B0BDE8104003B07047936810B5144613B9A2
S315200033C05360184610BD02F0CBFF00236360A36054
S315200033D010BD00BF2DE9F04FADF5AE6D83B00E46A2
S315200033E015469A46814603F0ABF900681D90B9F15F
S315200033F0000F04D0D9F81830002B00F05A8149F27A
S31520003400D063C2F200039E4208BFD9F8046010D0F0
S3152000341049F2F063C2F200039E4208BFD9F8086061
S3152000342007D049F21073C2F200039E4208BFD9F8B2
S315200034300C60B6F80CC01FFA8CF313F4005F09D1A8
S315200034404CF4005C726EA6F80CC01FFA8CF322F4C2
S315200034500052726613F0080F01F001833269002AC8
S3152000346001F0FD8203F01A030A2B00F0E08000220F
S3152000347012921A9200231C920DF59C641192043428
S3152000348019920DF5A4621B9304320DF59063283230
S315200034900333189207930023CDF84C45CDF85035C9
S315200034A0CDF854352B781A1E18BF0122252B0CBFB8
S315200034B0002202F0010232B32F4617F8013F1A1EEE
S315200034C018BF0122252B0CBF002202F00102002A80
S315200034D0F3D1B7EB050808BF3D4614D0C4F80480E5
S315200034E0DDF85035DDF8542501332560072B42449D
S315200034F0CDF85035CDF8542578DC083411983D4662
S31520003500404411903B78002B7CD06B1C4FF0FF374A
S315200035102B204FF0200C00214FF000020F918DF848
S315200035207725CDF82CA06A780A915D1CA2F120039C
S31520003530582B00F28682DFE813F098028402840278
S31520003540A402840284028402840284028402AD02DC
S31520003550BA028402C102CA028402E702F002F00221
S31520003560F002F002F002F002F002F002F002840211
S3152000357084028402840284028402840284028402F5
S31520003580840204032603840226038402840284021E
S3152000359084026A03840284028104840284028402EF
S315200035A0840284021404840284022F048402840286
S315200035B084028402840284028402840284028402B5
S315200035C04F04650426032603260373036504840239
S315200035D084027903840285039603AD030A048402D8
S315200035E0CC038402F40384028402C0000DF5A86291
S315200035F0484631460C32FFF7DFFE58B90DF59C647C
S3152000360004347BE7DDF85435002B41F0928100230A
S31520003610CDF85035B38913F0400F02D04FF0FF306C
S31520003620119011985FB00DF5806DBDE8F08FB6F959
S315200036300E30002BFFF61BAF376A2CF0020CD6F8A3
S3152000364028E00DF58E64ADF888C40C34B6F80EC0AB
S315200036502A465346484621461FADCDF89C7400277E
S31520003660CDF88C54CDF87C544FF48065CDF8A4E485
S31520003670ADF88AC4CDF89054CDF89474CDF884541E
S31520003680FFF7A8FE0028119009DB2146484602F0E4
S3152000369093FB1199B84218BF4FF0FF311191BDF835
S315200036A0883413F0400FBCD0B38943F04003B38174
S315200036B0B7E7484602F0F0FCA1E60A9849F2A06C6A
S315200036C0C2F2000C169210F0200FCDF864C000F064
S315200036D06E830B99CB1D23F0070303F108020B928F
S315200036E0D3E900AB5AEA0B020A9B0CBF0022012247
S315200036F0134240F06B8602234FF000018DF87715B8
S31520003700002FA2BFDDF828C02CF0800CCDF828C0F1
S31520003710002F18BF42F00102002A00F01E84012B60
S3152000372000F0DE85022B00F0C185189913914FEA2F
S31520003730DA084FEADB0C48EA4B780AF00700E34642
S31520003740C24630305AEA0B0201F8010DEFD1DDF8FE
S3152000375028C013911CF0010F40F08C861898401A4F
S3152000376010909DF87735109A1797BA42B8BF3A4607
S315200037700C9213B10C9A01320C920A9B0A9813F000
S31520003780020315931EBFDDF830C00CF1020CCDF8F4
S3152000379030C010F0840014904DD10F990C9A8F1AD6
S315200037A0002F48DD102F49F25C68D8BFC2F200080E
S315200037B030DDC2F200080DF5A86B43464FF0100A23
S315200037C0A8460BF10C0B1D4602E0103F102F1EDD04
S315200037D0C4F804A0DDF85035DDF854250133256002
S315200037E01032072BCDF8542504F10804CDF85035B6
S315200037F0EBDD0DF59C64484631465A460434FFF706
S31520003800DBFD00287FF406AF103F102FE0DC2B46AF
S31520003810454698466760DDF85035C4F800805A1C46
S31520003820DDF85435CDF85025DB19072ACDF8543567
S3152000383000F38A8508349DF877359BB101236360B0
S31520003840DDF850350DF5AE6207322260DDF85425DD
S315200038500133CDF850350132072BCDF8542500F32E
S31520003860B6840834159B9BB102236360DDF850357E
S315200038700DF5AE6204322260DDF854250133CDF811
S3152000388050350232072BCDF8542500F3AF84083487
S31520003890DDF850C0BCF1800F00F07683179B109A9C
S315200038A09F1A002F43DD102FDFF88C8B2EDD434629
S315200038B00DF5A86BA8464FF0100A0BF10C0B1D4610
S315200038C002E0103F102F1EDDC4F804A0DDF85035AD
S315200038D0DDF85425013325601032072BCDF8542509
S315200038E004F10804CDF85035EBDD0DF59C6448460F
S315200038F031465A460434FFF75FFD00287FF48AAE2E
S31520003900103F102FE0DC2B46454698466760DDF8D1
S315200039105035DDF854250133C4F80080D219072B21
S31520003920CDF85425CDF8503500F342840834DDF81F
S3152000393028C01CF4807F40F09D8210981399606007
S31520003940DDF85035DDF85425013321601218072B98
S31520003950CDF85035D8BF04F10803CDF8542500F32F
S315200039609B830A9911F0040F55D00F9ADDF830C0C9
S31520003970CCEB0207002F4EDD102F49F25C68D8BF32
S31520003980C2F200082EDDC2F200080DF5A86A4246F2
S315200039901024A8460AF10C0A154602E0103F102F03
S315200039A01DDD5C60DDF85025DDF8541501321D6003
S315200039B01031072ACDF8541503F10803CDF8502508
S315200039C0ECDD484631465246FFF7F6FC0DF59C6382
S315200039D0043300287FF41EAE103F102FE1DC2A4668
S315200039E0454690465F60DDF85025C3F80080DDF837
S315200039F054350132CDF85025FB18072ACDF8543519
S31520003A000BDD0DF5A862484631460C32FFF7D4FC93
S31520003A1000287FF4FFADDDF8543511980C9A0F99E4
S31520003A208A42ACBF801840181190002B40F0428388
S31520003A300DF59C640023DDF82CA00434CDF8503518
S31520003A4030E51692002A3FF4DDAD0DF5A460012382
S31520003A504FF0000C04300C938DF824258DF877C593
S31520003A60139010930021179187E69DF87735002B48
S31520003A7040F02B850B992B468DF877C52A780B912C
S31520003A8053E50B990A9B43F001030A932B462A78A8
S31520003A900B914AE50B990B9A09680F91111D0F9B03
S31520003AA0002BC0F280872A782B460B913DE50B9997
S31520003AB02B468DF877052A780B9136E50B990A9BCC
S31520003AC043F004030A932B462A780B912DE52B46C7
S31520003AD013F8012B2A2A01F0CD80A2F13001092901
S31520003AE001F237800235002715F8012C07EB8707EE
S31520003AF02B46013501EB4707A2F130010929F3D9FD
S31520003B0047EAE7771D4611E50B992B460A9A42F0BC
S31520003B1080020A922A780B9107E5A2F130014FF034
S31520003B2000082B4608EB880813F8012B01EB480800
S31520003B30A2F130011D460929F3D9CDF83C801D4656
S31520003B40F4E40A9B169243F010030A93DDF828C08A
S31520003B501CF0200F00F05D810B98C31D23F0070396
S31520003B6003F108010B91D3E900ABBAF1000F7BF109
S31520003B700002C0F29B845AEA0B034FF001030CBFEC
S31520003B8000220122BCE50A98169210F0080F00F0D8
S31520003B90ED840B99CB1D23F0070303F108020B924A
S31520003BA0D3F80480D3F800A0CDF86C80CDF848A0D7
S31520003BB05046414604F030F98346002800F09985A6
S31520003BC0504600220023414605F026F9002840F001
S31520003BD00B859DF8773549F2946149F290621698E3
S31520003BE0C2F20001C2F200024FF0030C4728D8BFF0
S31520003BF0114613910A99CDF830C021F08001CDF8F5
S31520003C0040C00A914FF0000CCDF85CC0B1E50B998D
S31520003C100A9B43F008030A932B462A780B9184E4E7
S31520003C200A9941F040010A910B993CE72A786C2ABF
S31520003C3000F055850B990A9B0B9143F010030A93CC
S31520003C402B4672E40A9A12F0200F00F082840B9819
S31520003C50119A036810464FEAE0710B9AC3E90001F6
S31520003C6002F1040A1EE416920A9A12F0200300F0CA
S31520003C70EF800B9BDA1D002322F0070202F1080CCD
S31520003C80CDF82CC0D2E900AB5AEA0B000CBF0022BB
S31520003C90012231E50B987821DDF828C016910368BA
S31520003CA049F2A0608DF8751530218DF874154CF009
S31520003CB0020C0B991A1E18BF0122C2F200009A4666
S31520003CC04FF0000B0431CDF828C0199002230B9138
S31520003CD012E50B9B16924FF00002181D8DF87725E2
S31520003CE01B680B901393002B00F0C686002F1398A9
S31520003CF0C0F28F8600213A4603F0A6F80346002834
S31520003D0000F0F58613981B1A1093BB4240F3BE852C
S31520003D101097002127EAE7779DF877350C971791BA
S31520003D2027E5DDF828C016921CF0200F23D00B982B
S31520003D300123C21D22F0070202F108010B91D2E9EC
S31520003D4000AB5AEA0B020CBF00220122D4E40A99E6
S31520003D502B4641F020010A910B992A780B91FFF707
S31520003D60E4BB0A9B169243F010030A93DDF828C0A1
S31520003D701CF0200FDBD10A9B13F0100F00F0D58327
S31520003D800B980123021D0B9201680A1E18BF0122FF
S31520003D908A464FF0000BAFE40A98169249F27C62ED
S31520003DA010F0200FC2F2000219927FF492AC0A9B07
S31520003DB013F0100F40F01A830A9A12F0400F00F009
S31520003DC015830B9B03F1040CCDF82CC0B3F800A08F
S31520003DD0D2464FF0000B85E416920DF5A4610B9A9E
S31520003DE04FF0010C4FF000000431CDF830C01368BD
S31520003DF004328DF877050B921391CDF840C08DF8DB
S31520003E0024352FE6DDF828C016921CF0200F7FF40B
S31520003E10A3AE0A9A12F0100F40F0F1820A9A12F01D
S31520003E20400F00F0EC820B9B03F1040CCDF82CC064
S31520003E30B3F900A0D2464FEAEA7B96E60A99169293
S31520003E4041F010010A910A9A12F020037FF411AF73
S31520003E500A9911F0100200F054830B9A02F1040C17
S31520003E60CDF82CC011680A1E18BF01228A464FF0D1
S31520003E70000B41E4169A652A40F328811298002205
S31520003E8000231B9904F0BEFF002800F0BE81012309
S31520003E906360DDF8502549F2BC63C2F2000323605B
S31520003EA0DDF854350132CDF850250133072ACDF8F7
S31520003EB05435D8BF04F1080300F39B83DDF8702541
S31520003EC01A98824204DB0A9911F0010F3FF449AD9A
S31520003ED001225A60DDF85025DDF8541501321D986F
S31520003EE00131072ACDF854151860CDF8502500F376
S31520003EF05F8508331A994F1E002F7FF732AD102F9A
S31520003F00DFF8348540F3EA8242460DF5A86AA846D2
S31520003F1010240AF10C0A154603E0103F102F40F337
S31520003F20DA825C60DDF85025DDF8541501321D601B
S31520003F301031072ACDF8541503F10803CDF8502582
S31520003F40EBDD484631465246FFF736FA0DF59C63BF
S31520003F5004330028E1D0FFF75DBB7BB90A9911F045
S31520003F60010F0BD00DF5A462302304328DF84B35AA
S31520003F702732012313921093FFF7F3BB18980021E1
S31520003F8010911390FFF7EDBB0F980C99471A002F4D
S31520003F907FF784AC102FDFF8A0842EDD43460DF585
S31520003FA0A86BA8464FF0100A0BF10C0B1D4602E039
S31520003FB0103F102F1EDDC4F804A0DDF85035DDF8C3
S31520003FC05425013325601032072BCDF8542504F1F2
S31520003FD00804CDF85035EBDD0DF59C644846314696
S31520003FE05A460434FFF7E8F900287FF413AB103F54
S31520003FF0102FE0DC2B46454698466760DDF85035A5
S31520004000C4F800805A1CDDF85435CDF85025DB194C
S31520004010072ACDF8543500F33A8208343EE4139942
S315200040206360DDF850252160DDF854150132CDF8A6
S315200040305025CB18072ACDF8543500F34985083486
S315200040401D9A0123DDF870756360DDF85035226016
S31520004050DDF854250133CDF850350132072BCDF844
S315200040605425D8BF04F1080300F323851398DDF8FF
S315200040707025C7191A981F60811A5960DDF85415E2
S315200040808A1ADDF850151218CDF854250131CDF8CD
S315200040905015072940F332820DF5A862484631466D
S315200040A00C32FFF789F900287FF4B4AA0DF59C633A
S315200040B0043356E40DF5A862484631460C32FFF724
S315200040C07BF900283FF4B4ACFFF7A4BA1A9901296A
S315200040D04CDD01236360DDF85035DDF854250133CE
S315200040E013980132072BCDF854252060CDF8503592
S315200040F000F3B281083401236360DDF85035DDF822
S31520004100542501331D990132072BCDF85425216002
S31520004110CDF8503500F392810834129800220023FE
S315200041201B9904F06FFE002840F01D811A9B1398FE
S315200041305A1E6260DDF85035411C2160DDF85415A9
S315200041400133CDF850358A18072BCDF8542521DCBC
S3152000415008341C9B0DF5AC621C9822606360DDF868
S315200041605035DDF854250133FFF7F0BB0A9A12F0DB
S31520004170010FAED1139A01236360DDF8503522601A
S31520004180DDF854250133CDF850350132072BCDF813
S315200041905425DDDD0DF5A862484631460C32FFF781
S315200041A00BF900287FF436AA0DF59C640434D0E779
S315200041B00DF5A862484631460C32FFF7FDF8002877
S315200041C07FF428AA0DF59C640434FFF7B0BB0DF5E7
S315200041D0A862484631460C32FFF7EEF800287FF4F5
S315200041E019AA0DF59C640434FFF73CBB0DF5A862B3
S315200041F0484631460C32FFF7DFF800287FF40AAA3A
S315200042000DF59C640434FFF743BBDDF87035002BB5
S3152000421040F3FD811A998B42FFF601AF139A616034
S31520004220DDF850352260DDF854250133CDF85035C0
S315200042305218072BCDF85425D8BF04F1080300F3F4
S315200042402984DDF870451A98241A002C40F3B3818E
S31520004250102CDFF8E48140F39D8142460DF5A86AD3
S31520004260A84610270AF10C0A154603E0103C102C2C
S3152000427040F38D815F60DDF85025DDF8541501325D
S315200042801D601031072ACDF8541503F10803CDF827
S315200042905025EBDD484631465246FFF78DF80DF5A1
S315200042A09C6304330028E1D0FFF7B4B9189A199813
S315200042B0134613920AF00F024FEA1A1141EA0B71C4
S315200042C04FEA1B1C825C8A46E3465AEA0B0C03F82B
S315200042D0012DEFD118981393C01A1090FFF741BA09
S315200042E009220023524573EB0B00DDF860801FD2B4
S315200042F023464446B8461F46504659460A220023BE
S3152000430004F0DAFD00235046594602F1300C0A2209
S3152000431004F801CD04F0D0FD0922002382468B4605
S31520004320524573EB0B03E7D33B464746A0461C4654
S3152000433008F1FF300AF1300A139008F801AC1899F9
S31520004340091A1091FFF70DBA0DF5A86248463146B5
S315200043500C32FFF731F800287FF45CA90DF59C6438
S315200043600434FFF768BA1A994F1E002F7FF7F1AE73
S31520004370102FDFF8C4804EDD43460DF5A86BA84606
S315200043804FF0100A0BF10C0B1D4602E0103F102FC8
S315200043903EDDC4F804A0DDF85035DDF854250133A0
S315200043A025601032072BCDF8542504F10804CDF8EA
S315200043B05035EBDD0DF59C64484631465A460434AB
S315200043C0FEF7FAFF0028E1D0FFF724B9169830212E
S315200043D0DDF828C0012202238DF874154CF0020C5A
S315200043E08DF87505CDF828C0FFF786B90B98011D05
S315200043F003680B919A464FF0000BFFF773B90B98A1
S31520004400011D03680B919A464FEAEA7BFFF7ADBB85
S315200044102B46454698466760DDF85035DDF854252D
S315200044200133C4F80080D219072BCDF85425CDF8D6
S3152000443050357FF78DAEADE66C9600200DF5A8625F
S31520004440484631460C32FEF7B7FF00287FF4E2A833
S315200044500DF59C64043460E60DF5A86248463146A5
S315200044600C32FEF7A9FF00287FF4D4A80DF59C6432
S31520004470043440E6302800F0EC821398302300F80C
S31520004480013D18991390091A1091FFF76AB90DF595
S31520004490A862484631460C32FEF78EFF00287FF48C
S315200044A0B9A80DF59C640434FFF7F8B9DAF1000ACF
S315200044B06BEB4B0B2D235AEA0B0C8DF877350CBF83
S315200044C0002201220123FFF71BB90B992B462A78DC
S315200044D00B91FFF72AB82A46454690465F60DDF8DD
S315200044E05025DDF854150132C3F80080C919072A72
S315200044F0CDF85415CDF850253FF7CEAD0833FFF74C
S3152000450030BA0A9810F0400300F0ED810B9913465B
S315200045100A1D0B92B1F800A0BAF1000218BF0122C1
S31520004520D2464FF0000BFFF7E7B80A9B13F0400F77
S3152000453000F0CC810B980123011D0B91B0F800A04F
S31520004540BAF1000218BF0122D2464FF0000BFFF746
S31520004550D3B80A9B13F0100F00F0A4810B98119981
S3152000456000F1040A03681960FEF79CBF0B98C31D6F
S3152000457023F0070303F108010B91D3F80480D3F845
S3152000458000A0CDF86C80CDF848A0FFF711BB2A46D5
S31520004590454690465C60DDF85025DDF8541501321D
S315200045A0C3F800800919072ACDF85415CDF85025EF
S315200045B000F3EA8208330A9911F0010F3FF4D1A9DA
S315200045C001225A60DDF85025DDF8541501321D9878
S315200045D00131072ACDF854151860CDF850253FF73C
S315200045E05BAD0833FFF7BDB92D238DF87735FFF77F
S315200045F0F2BA0DF5A862484631460C32FEF7DCFECB
S3152000460000287FF407A80DF59C63043356E40123A4
S315200046106360DDF8502549F2BC63C2F200032360D3
S31520004620DDF854350132CDF850250133072ACDF86F
S315200046305435D8BF04F1080300F38781DDF87025CF
S315200046403AB91A9A2AB9DDF828C01CF0010F3FF4AE
S3152000465088A901225A60DDF85025DDF8541501326B
S315200046601D980131072ACDF854151860CDF850252C
S3152000467000F379810833DDF870757F42002F40F30F
S31520004680B381102FDFF8508640F3D28142460DF5D4
S31520004690A86AA84610240AF10C0A154603E0103F22
S315200046A0102F40F3C2815C60DDF85025DDF85415EB
S315200046B001321D601031072ACDF8541503F1080385
S315200046C0CDF85025EBDD484631465246FEF774FEBE
S315200046D00DF59C6304330028E1D0FEF79BBF0B99B0
S315200046E06B1C0A9A42F020020A926A780B91FEF716
S315200046F01CBF5046414603F0A1FB002840F0FF8036
S31520004700B7F1FF3F00F051821698672814BF0023A7
S315200047100123472808BF43F0010313B1002F08BF28
S3152000472001270DF5AB60434652460A99C0E900239E
S31520004730DDF85C3541F480710A91002BC0F2648269
S31520004740002117911698662814BF002301234628B6
S3152000475008BF43F001031093002B00F0D181BC4623
S315200047600323CDF830A00DF5AE61CDF83480484650
S31520004770009302910DF5AC61DDE90C230C31CDF8E7
S3152000478004C003910DF5AD61CDF824C0049100F06D
S31520004790C7FB169ADDF824C0B2F1670318BF0123C0
S315200047A0472A0CBF002303F00103139033B90A9B59
S315200047B013F0010F08BFDDF868B516D013981099CD
S315200047C000EB0C0B31B10378302B00F0DA80DDF8EA
S315200047D070359B44504600220023414604F012FBCC
S315200047E0002800F0C281CDF868B5169A1398672A7A
S315200047F014BF00230123472A08BF43F00103C0EB5F
S315200048000B001A90002B00F08A81DDF8701511F14B
S31520004810030F109102DB8F4280F28C81169A023AA6
S3152000482016921099169A4B1ECDF87035002B8DF8DE
S315200048306025C0F234822B228DF86125092B00F3E6
S31520004840B6810DF5AC62303304328DF863353023F2
S315200048508DF862350DF5AC631A981A99D31A181883
S315200048601C930129109040F310821098013010906B
S3152000487020EAE0710C911798002800F06E812D2314
S3152000488000218DF877351791FEF774BF109A4FF0F7
S31520004890000C9DF8773522EAE272CDF85CC00C92C6
S315200048A0FEF767BF0A9A12F0400F17BF0B980B9AB4
S315200048B0119900F1040A11BF036802F1040A136872
S315200048C0119814BF19801860FEF7ECBD0B9A131DC2
S315200048D00B93116801230A1E18BF01228A464FF046
S315200048E0000BFEF709BF0B98021D0B9201680A1EEA
S315200048F018BF01228A464FF0000BFEF7FDBE49F293
S315200049009C6249F298631699C2F20003C2F2000231
S3152000491003204729D8BF1A4613920A9A0C9022F0F0
S315200049208002CDF85CB00A929DF877351090FEF79C
S3152000493020BF0DF5A862484631460C32FEF73CFDF5
S3152000494000287EF467AEFEF762BE0DF5A8624846E3
S3152000495031460C32FEF730FD00287EF45BAE0DF5B5
S315200049609C6304336AE60DF5A862484631460C324C
S31520004970FEF722FD00287EF44DAE0DF59C63043330
S3152000498079E65046002200234146CDF824C004F0A3
S3152000499039FADDF824C000287FF419AFCCF10103E1
S315200049A0CDF8703515E70F9A52420F92FFF787B868
S315200049B00DF5A862484631460C32FEF7FDFC00286C
S315200049C07EF428AE0DF59C630433FFF793BA0DF5FC
S315200049D0A862484631460C32FEF7EEFC00287EF4EB
S315200049E019AE0DF59C6304331A9913985960DDF8B6
S315200049F05025DDF85415186001321A98CDF8502547
S31520004A000918072ACDF854153FF746AB0833FEF7A9
S31520004A10A8BF0021179103F069FB9DF8773520EA9E
S31520004A20E07210900C92FEF7A4BE2A4645469046A8
S31520004A305F60DDF85025DDF854150132C3F800809B
S31520004A40C919072ACDF85415CDF85025BFDC0833EF
S31520004A50CAE7189A1399511A1091FEF782BE484652
S31520004A60314600F049F900287EF4D8ADB6F80CC0DE
S31520004A701FFA8CF3FEF7F6BC062F28BF062749F24D
S31520004A80B461C2F2000127EAE772109713910C92E3
S31520004A90FEF7E8BF0DF5A862484631460C32FEF710
S31520004AA08BFC00287EF4B6AD0DF59C630433FFF72E
S31520004AB0C8BB0DF5A862484631460C32FEF77CFC91
S31520004AC000287EF4A7AD0DF59C630433FFF7CEBA1C
S31520004AD00DF5A862484631460C32FEF76DFC0028DB
S31520004AE07EF498AD0DF59C640434FFF7A9BA1097AF
S31520004AF027EAE77717900C979DF87735FEF739BEAA
S31520004B001699652914BF00230123452908BF43F0C0
S31520004B100103002B46D007F1010C022321E6169B48
S31520004B20652B76DD169A662A1CBFDDF87035109344
S31520004B3000F083801A9B109883426EDC0A9911F04C
S31520004B40010F40F08E8020EAE07267230C921693C4
S31520004B5091E600271D46FEF7E9BC10999DF87735AA
S31520004B6021EAE1710C91FEF704BEDDF868359B451C
S31520004B7098BF9B467FF639AE302203F8012B9B4522
S31520004B80CDF86835F9D830E60DF5A86248463146A5
S31520004B900C32FEF711FC00287EF43CAD0DF59C632B
S31520004BA0043308E5BC460233DBE50737B9E546F2B0
S31520004BB0676C0DF590610331C6F2666C8CFB0320A1
S31520004BC0DA17C2EBA00202EB8200A3EB40001346E9
S31520004BD03030092A01F8010DF0DC3033481EDAB2F4
S31520004BE001F8012C079B83426AD90DF5AC63033388
S31520004BF001E011F8012B03F8012C1A46DDF81CC040
S31520004C0001338C45F5D825E62D2208F10048179268
S31520004C1098E5DDF87005109003E6109B1A99002B95
S31520004C20DABF1098C0F1020301235B1867221093A4
S31520004C3023EAE37316920C931DE6DDF8700500282F
S31520004C40109031DD1FB90A9911F0010F0ED010987E
S31520004C5066211691431CDB19109323EAE3720C920A
S31520004C6009E61098672116910130109020EAE0722B
S31520004C700C9200E60B991A780F6804310B91002FDD
S31520004C80B8BF4FF0FF37FEF750BC0A9A12F0010F5B
S31520004C9004BF20EAE0730C933FF4EDADE5E52D2249
S31520004CA05B428DF86125C9E577B90A9B13F0010FA0
S31520004CB00AD14FF0010CCDF830C0CDF840C0DAE56E
S31520004CC00DF5AC620232C5E50237662127EAE772A6
S31520004CD0109716910C92CEE56C96002010B449F6EA
S31520004CE0E404C2F200048C4613460146624620685C
S31520004CF010BCFEF76FBB00BF70B549F6E405C2F2E3
S31520004D00000506460C46286810B18369002B36D06C
S31520004D1049F2D063C2F200039C4238D049F2F063D4
S31520004D20C2F200039C4241D049F21073C2F2000342
S31520004D309C4204BF2B68DC68A289114693B213F00B
S31520004D40080F184618BF226933D01AB313F0010191
S31520004D5007D063690021A1605B42A36142B10020B4
S31520004D6070BD13F0020F08BF6169A160002AF6D159
S31520004D70A38913F0800FF2D04FF0FF3070BD01F001
S31520004D808BF949F2D063C2F200039C42C6D12B684C
S31520004D905C68D1E703F42071B1F5007FD6D03046A8
S31520004DA0214601F001FDA3892269CFE72B689C6883
S31520004DB0C2E713F0100FDFD013F0040F08BF2269EB
S31520004DC017D0616B51B104F14403994203D03046A8
S31520004DD001F0E6F9A28990B20023636322694FF6B7
S31520004DE0DB71C0F20001002300EA01016360A181AA
S31520004DF0226041F00803A3819BB2A6E700000000D1
S31520004E002DE9F84F03690E69824689469E4200F3D2
S31520004E108380F21C01F1140500F11404013E920076
S31520004E208B18121803F1040859685068013103F0F1
S31520004E308BFA0746002839D000239C461A46E958A3
S31520004E40E0581FFA81FE4FEA114B81B20EFB07CEC6
S31520004E5051180BFB07FC0CEB1E4C1FFA8EFECEEBFB
S31520004E6001011FFA8CF24FEA1C4CC2EB10421FFACA
S31520004E7081FE02EB21424EEA0241E1500433121434
S31520004E8059198845DBD2321D0AEB8203596869B964
S31520004E909C4209D25AF8222012B105E01A681AB9A2
S31520004EA0043B013E9C42F9D3CAF81060494650465D
S31520004EB002F07EF900282CDB002301379C46EA58B5
S31520004EC0E05891B2120C1FFA80F9C2EB1042C1EBE6
S31520004ED00901614402EB214289B241EA0241E150D3
S31520004EE004334FEA224C5A199045E8D2321D0AEB78
S31520004EF08203596869B99C4209D25AF8222012B114
S31520004F0005E01A681AB9043B013E9C42F9D3CAF857
S31520004F1010603846BDE8F88F0020BDE8F88F00BF46
S31520004F202DE9F04F466AA1B00446904699462D9D3C
S31520004F30002E00F02384326882B1616A4FF0010CA2
S31520004F40766820460B6856604A6819460CFA02F2C3
S31520004F509A6002F067FA636A00221A60B9F10006C5
S31520004F6038DB00232B6040F20003C7F6F0731A46A5
S31520004F7006EA0303934217D00022002340464946FF
S31520004F80CDE9068903F03EFF002829D02C9801237D
S31520004F902E990360002900F0D080794B581E2E9A56
S31520004FA0136021B0BDE8F08F2C9842F20F73036096
S31520004FB0B8F1000F00F0958049F2CC60C2F20000F3
S31520004FC02E990029EDD0C278C31C002AE7D000F123
S31520004FD00803E4E726F000460123B1462B60C2E72A
S31520004FE02046DDE906231EA900911FA9019102F0A2
S31520004FF06BFAC6F30A558346002D7ED0DDE90601FD
S31520005000A5F57E751F9F073D21F07F4323F470038E
S3152000501043F07E51002341F4E001199340F200034E
S315200050200022C3F6F87303F0D1FA4FA3D3E9002385
S3152000503003F080FC4EA3D3E9002303F0C9FACDE99F
S315200050400801284603F010FC4BA3D3E9002303F004
S3152000505071FC02460B46DDE9080103F0B9FACDE9F9
S31520005060080103F001FF002200230646DDE90801BE
S3152000507003F0D2FE40B1304603F0F6FBDDE908230B
S3152000508003F0C0FE00B9013E162E5BD9012318930A
S31520005090013FB7EB050A42BFCAF1000ACDF83CA092
S315200050A04FF0000A01D400220F92002EC0F2718325
S315200050B0B2440023179615932A9B092B62D8052BF9
S315200050C040F377862A98002704382A902A998B1E3F
S315200050D0032B00F2DD83DFE813F0A503D803D50305
S315200050E0C40326F07F4626F47006002E7FF464AFB4
S315200050F049F2C060C2F2000062E71F9F1E9BFB18A8
S3152000510003F586639D1C202DDCBFC5F1200008FA1F
S3152000511000F008DD1E3BC5F1400216FA02F228FA1D
S3152000512003F342EA030003F08FFBA5F5866501220F
S31520005130033D1992A1F1F87170E749F2BC60C2F201
S3152000514000002EE749F27873DDE90601C2F200037A
S3152000515003EBC603D3E9002303F05EFE002840F0EC
S315200051602083189094E700BF61436F63A787D23FDF
S31520005170B3C8608B288AC63FFB799F501344D33F20
S31520005180BD96002000234FF0FF301F4601212A93B1
S315200051901190169108902B93656A00236B60204628
S315200051A0696802F05BF9636A28601B681093002F18
S315200051B000F05B81002E40F32A8449F2787306F0D2
S315200051C00F02C2F20003351103EBC20315F0100FD4
S315200051D0D3E90001CDE90C0100F0E78249F650033E
S315200051E0DDE90601C2F2000305F00F054FF00308C2
S315200051F0D3E9082303F0C8FCCDE91201BDB149F675
S315200052005007DDE90C23C2F2000715F0010F104606
S31520005210194607D0D7E9002308F1010803F08AFBD5
S3152000522002460B4608376D10EFD1CDE90C23DDE998
S315200052300C23DDE9120103F0A7FCCDE90C01189936
S31520005240002900F0DE8040F20003DDE90C01002297
S31520005250C3F6F0734FF0000503F0DEFD08B14FF002
S315200052600105089A002AD4BF002505F00105002D66
S3152000527000F0C780119B002B40F3F58040F200031D
S315200052800022C4F22403DDE90C0103F053FBCDE92F
S315200052900C0108F10100711E129103F0E5FA024695
S315200052A00B46DDE90C0103F045FB40F2000300222A
S315200052B0C4F21C0303F08CF9DDF844C08046A1F14A
S315200052C05079169B002B00F0AD8349F2787340F29B
S315200052D00001C2F20003002003EBCC03C3F6E07109
S315200052E0CDF80CC053E9022303F04EFC42464B4650
S315200052F0109D03F06BF980468946DDE90C0103F029
S31520005300B3FD074603F0B0FA02460B46DDE90C0171
S3152000531003F05CF907F13003CDE90C01404605F8AE
S31520005320013B4946DDE90C2303F094FD002840F0BB
S31520005330138240F20001DDE90C230020C3F6F07150
S3152000534003F044F902460B464046494603F082FDE7
S31520005350DDF80CC0002840F0E783BCF1010F40F3D4
S315200053608280CDF868B00127CDF870A01D966646DC
S31520005370DDE90CAB0C9410E040F200010020C3F6EE
S31520005380F07103F023F942464B4603F045FD002811
S3152000539040F0C783B74280F28B8440F20003404638
S315200053A049460022C4F22403013503F0C3FA40F231
S315200053B000030022C4F224038046894650465946FB
S315200053C003F0B8FA8B46824603F04EFD044603F0FE
S315200053D04BFA303402460B465046594603F0F6F84F
S315200053E0109A4B46D4554246013782468B4603F0E7
S315200053F013FD52465B460028BED0DDF868B00C9CF3
S31520005400AAE1404603F030FADDE90C2303F092FAD4
S3152000541040F200030022C4F21C0303F0D9F8089AD4
S31520005420A1F150758046A946002A40F0EC8240F250
S315200054300003DDE90C010022C4F2140303F0C6F8D0
S3152000544042462B46CDE90C0103F004FD002840F02E
S315200054504A824246DDE90C0105F1004303F0DCFCFB
S31520005460002840F0D581DDE906891E9B6FEA0307F7
S315200054704FEAD7770E2ECCBF002707F00107002F63
S3152000548000F0B7802B9849F27873C2F2000308998E
S3152000549003EBC603C20F0029CCBF002202F0010293
S315200054A0D3E90001CDE90401002A40F0A08102469B
S315200054B00B464046494603F067FB109D03F0D4FC9B
S315200054C0824603F0D1F9DDE9042303F033FA0246DC
S315200054D00B464046494603F079F80AF1300305F8B1
S315200054E0013B089A012A8046894652D040F20003A1
S315200054F00022C4F2240303F01DFA00220023CDE982
