:020000042000DA
:100000000000012099020020090300200B030020BA
:100010000D0300200F03002011030020000000004A
:10002000000000000000000000000000130300209A
:100030001503002000000000170300201903002012
:100040001B0300201D0300201F03002021030020AC
:10005000230300202503002027030020290300207C
:100060002B0300202D030020D92500200526002089
:100070005531002081310020A53F002039030020A8
:100080003B030020D13F00203F030020410300201C
:1000900043030020450300204703002049030020BC
:1000A0004B030020000000000000000000000000E2
:1000B0000000000000000000000000004D030020D0
:1000C0004F0300205103002053030020550300205C
:1000D00057030020590300205B0300205D0300202C
:1000E0005F030020610300206303002065030020FC
:1000F00067030020690300206B0300206D030020CC
:100100006F0300207103002073030020750300209B
:1001100077030020790300207B0300207D0300206B
:100120007F0300208103002083030020850300203B
:1001300087030020890300208B0300208D0300200B
:100140008F030020910300209303002095030020DB
:1001500097030020990300209B0300209D030020AB
:100160009F030020A1030020A3030020A50300207B
:10017000A7030020A9030020AB030020AD0300204B
:10018000AF030020B1030020B3030020B50300201B
:10019000B7030020B9030020BB030020BD030020EB
:1001A000BF030020C1030020C3030020C5030020BB
:1001B000C7030020C9030020CB030020CD0300208B
:1001C000CF030020D1030020D3030020D50300205B
:1001D000D7030020D9030020DB030020DD0300202B
:1001E000DF030020E1030020E3030020E5030020FB
:1001F000E7030020E9030020EB030020ED030020CB
:10020000EF030020F1030020F3030020F50300209A
:10021000F7030020F9030020FB030020FD0300206A
:10022000FF03002001040020030400200504002037
:1002300007040020090400200B0400200D04002006
:100240000F040020110400201304002015040020D6
:1002500017040020190400201B0400201D040020A6
:100260001F04002021040020230400202504002076
:1002700027040020290400202B0400202D04002046
:100280002F04002031040020330400203504002016
:100290003704002039040020684880476848002857
:1002A0000BD168486849694A884206D091421CBF10
:1002B00050F8043B41F8043BF8D165486549664A6B
:1002C000884206D091421CBF50F8043B41F8043BE1
:1002D000F8D162486249634A914218BF41F8040B61
:1002E000FAD1000000000000000000000000000043
:1002F000DFF874010FF2030E00474FF000004FF0DB
:100300000001DFF868F1FEE7FEE7FEE7FEE7FEE743
:10031000FEE7FEE7FEE7FEE7FEE7FEE7FEE7FEE7B5
:10032000FEE7FEE7FEE7FEE7FEE7FEE7FEE7FEE7A5
:10033000FEE7FEE7FEE7FEE7FEE7FEE7FEE7FEE795
:10034000FEE7FEE7FEE7FEE7FEE7FEE7FEE7FEE785
:10035000FEE7FEE7FEE7FEE7FEE7FEE7FEE7FEE775
:10036000FEE7FEE7FEE7FEE7FEE7FEE7FEE7FEE765
:10037000FEE7FEE7FEE7FEE7FEE7FEE7FEE7FEE755
:10038000FEE7FEE7FEE7FEE7FEE7FEE7FEE7FEE745
:10039000FEE7FEE7FEE7FEE7FEE7FEE7FEE7FEE735
:1003A000FEE7FEE7FEE7FEE7FEE7FEE7FEE7FEE725
:1003B000FEE7FEE7FEE7FEE7FEE7FEE7FEE7FEE715
:1003C000FEE7FEE7FEE7FEE7FEE7FEE7FEE7FEE705
:1003D000FEE7FEE7FEE7FEE7FEE7FEE7FEE7FEE7F5
:1003E000FEE7FEE7FEE7FEE7FEE7FEE7FEE7FEE7E5
:1003F000FEE7FEE7FEE7FEE7FEE7FEE7FEE7FEE7D5
:10040000FEE7FEE7FEE7FEE7FEE7FEE7FEE7FEE7C4
:10041000FEE7FEE7FEE7FEE7FEE7FEE7FEE7FEE7B4
:10042000FEE7FEE7FEE7FEE7FEE7FEE7FEE7FEE7A4
:10043000FEE7FEE7FEE7FEE7FEE7000035400020AE
:1004400000000000000000200000002010AE00208E
:1004500010AE002010AE002030B3002000000000DD
:1004600030B30020C8B50020A5420020491E00205E
:100470004BF23033C2F200031A780AB90120187027
:10048000704700BF4AF61060C2F2000008B503686A
:100490002BB140F20003C0F2000303B1984708BD3E
:1004A00080B582B000AF78600B46FB70FB784FF0F0
:1004B0008000194600F09CF94FF00103184607F13F
:1004C0000807BD4680BD00BF80B584B000AF78602E
:1004D0004FF0020000F058F90346FB73FB7B012B41
:1004E00002D0FB7B022B02D14FF0010301E04FF061
:1004F0000003184607F11007BD4680BD80B58EB0D9
:1005000004AFF860B9607A604FF00003FB744BF2FF
:100510004C50C2F200004FF038014FF0000202F0E0
:100520009DFE07F1130307F1140200924FF0100231
:1005300001924FF0000202924BF24C50C2F20000C6
:100540004FF038011A464FF0010302F0B7FF4BF2AB
:100550004C50C2F200004FF0010103F045F8BA7DA3
:10056000FB681A70FB681B78022B0BD9FB684FF0F5
:1005700000021A707B684FF000021A807B681A88AC
:10058000BB681A80FB681B78002B08D17B684FF092
:1005900000021A807B681A88BB681A80C7E04FF097
:1005A000000387F82730B5E097F8270097F8272051
:1005B00013464FEA430313444FEA430303F1030393
:1005C00007F12802134413F8143C1A4602F00F02F4
:1005D000F9684FEA40030B445A8097F8270097F8D0
:1005E0002730FA684FEA430313445B884FEA03233A
:1005F0009AB2F9684FEA40030B445A8097F82700F3
:1006000097F82730FA684FEA43031344598897F85C
:10061000272013464FEA430313444FEA430303F1F1
:10062000040307F12802134413F8143C41EA0303BE
:100630009AB2F9684FEA40030B445A8097F82700B2
:1006400097F8272013464FEA430313444FEA430326
:1006500003F1050307F12802134413F8143C1A466A
:1006600002F00F02F9684FEA40030B44DA8097F872
:10067000270097F82730FA684FEA43031344DB88D2
:100680004FEA03239AB2F9684FEA40030B44DA8039
:1006900097F8270097F82730FA684FEA4303134486
:1006A000D98897F8273003F1010213464FEA430334
:1006B00013444FEA430307F12802134413F8143C90
:1006C00041EA03039AB2F9684FEA40030B44DA8027
:1006D00097F8270097F8272013464FEA430313445F
:1006E0004FEA430303F1050307F12802134413F80B
:1006F000143C4FEA1313DBB21A46F96800F1040305
:100700004FEA43030B445A8097F8273003F1010363
:1007100087F8273097F82730012B7FF645AFFB6825
:100720005A88BB681A80FB68DA887B681A8007F1F0
:100730002807BD4680BD00BF80B586B000AF786099
:100740004FF00103FB7407F1100207F10E03786804
:1007500011461A46FFF7D2FE4FF0060003F0D2FD15
:1007600003467B613B8A1A467B691A80FB891A46DD
:100770007B695A80FA7C7B699A807B69184607F10D
:100780001807BD4680BD00BF80B588B004AF0346E2
:10079000FB714BF24C50C2F200004FF038014FF0A9
:1007A000000202F05BFD07F1070307F10F02009260
:1007B0004FF0010201924FF0000202924BF24C50B6
:1007C000C2F200004FF038011A464FF0010302F068
:1007D00075FE4BF24C50C2F200004FF0010102F0E6
:1007E00003FFFB7B184607F11007BD4680BD00BF25
:1007F00080B584B002AF02460B46FA71BB714BF272
:100800004C50C2F200004FF038014FF0000202F0ED
:1008100025FD07F107034FF0000200924BF24C5008
:10082000C2F200004FF038011A464FF0010302F007
:10083000CBFD4BF24C50C2F200004FF0010102F030
:10084000D3FE07F106034FF0000200924BF24C502A
:10085000C2F200004FF038011A464FF0010302F0D7
:10086000B3FD4BF24C50C2F200004FF0010102F018
:10087000BBFE07F10807BD4680BD00BF80B584B050
:1008800002AF78600B467B807B689B887A68D28851
:100890001BB212B200927A88019278684FF0000180
:1008A0004FF0000200F022FE07F10807BD4680BDB0
:1008B00080B58AB002AFF86079813A81FB80FB880D
:1008C000C3F101039BB2FB824FF001033B83FB8822
:1008D0001A464FEAC232C3EB02034FEA43039BB20C
:1008E0007B834FF00003BB83FB88FB83A2E0B7F957
:1008F0001630002B0DDBFB8B03F1FF33FB837B8B6F
:1009000003F102039BB27B83FA8A7B8B13449BB275
:10091000FB82BB8B03F10103BB833B8B03F102031F
:100920009BB23B83FA8A3B8B13449BB2FB8297F8C2
:10093000283003F00103DBB2002B39D07A89BB8B5E
:1009400013449BB219463A89FB8BC3EB02039BB25B
:100950001A46FB8B4FEA430398B2BB8D03449BB20C
:1009600003F101039BB209B212B21BB2388E0090A0
:10097000F86800F09FFD7A89FB8B13449BB21946FF
:100980003A89BB8BC3EB02039BB21A46BB8B4FEA7F
:10099000430398B2BB8D03449BB203F101039BB2A6
:1009A00009B212B21BB2388E0090F86800F082FDD6
:1009B00097F8283003F00203002B3BD07A89BB8BD9
:1009C000C3EB02039BB219463A89FB8BC3EB0203CC
:1009D0009BB21A46FB8B4FEA430398B2BB8D03448C
:1009E0009BB203F101039BB209B212B21BB2388E63
:1009F0000090F86800F05EFD7A89FB8BC3EB020380
:100A00009BB219463A89BB8BC3EB02039BB21A46D1
:100A1000BB8B4FEA430398B2BB8D03449BB203F1F7
:100A200001039BB209B212B21BB2388E0090F86873
:100A300000F040FDB7F91C20B7F91E309A42FFF6CE
:100A400056AF07F12007BD4680BD00BF80B588B016
:100A500004AFF86079813A81FB807A89BB8B1344BB
:100A60009BB21A46BB8B19464FEAC131C3EB010357
:100A70004FEA430399B2FB880B449BB211B2B7F91A
:100A800008201BB2B7F918000090388C0190F86864
:100A900000F08CFC7A89FB8813449AB2BB8BC3EBC1
:100AA00002039BB203F1FF339BB219463A89BB8B19
:100AB00013449BB21A46BB8B18464FEAC030C3EBB7
:100AC00000034FEA430398B23B8B03449BB203F10C
:100AD000FF339BB2184609B212B2B7F91C304FF07F
:100AE000010CCDF800C000B20190388C0290F8687B
:100AF000FFF7DEFE7A89BB8B13449BB219463A8915
:100B0000BB8B13449BB21A46BB8B18464FEAC030CE
:100B1000C3EB00034FEA430398B23B8B03449BB201
:100B200003F1FF339BB2184609B212B2B7F91C3079
:100B30004FF0020CCDF800C000B20190388C02904A
:100B4000F868FFF7B5FE07F11007BD4680BD00BF8E
:100B500080B588B002AFF86079813A81FB71FB689B
:100B60009B88B7F90A201BB29A4280F2ED80FB689D
:100B7000DB88B7F908201BB29A4280F2E780B7F908
:100B80000A1097F8282013464FEA430313444FEA0C
:100B900043030B4403F1FF33002BC0F2D980B7F9B4
:100BA000082097F828304FEAC303134403F1FF33BA
:100BB000002BC0F2CF80FB689B69002B06D1FB792C
:100BC000AF2B03D9FB7903F10103FB714FF0000355
:100BD000BB75B3E097F91630042B10DCFA79134695
:100BE0004FEA830313441A4697F916301A444AF21F
:100BF0002063C2F2000313441B78FB7502E04FF040
:100C00000003FB754FF000037B758EE0FB7D03F066
:100C10000103DBB2002B3ED097F82830012B13D113
:100C200097F916309AB27B8913449BB21A4697F90A
:100C3000153099B23B890B449BB211B21AB23B8C6E
:100C4000F86800F057FB68E097F916309BB297F808
:100C5000282002FB03F39AB27B8913449BB2194606
:100C600097F915309BB297F8282002FB03F39AB24C
:100C70003B8913449BB21A4697F8283097F828000E
:100C800009B212B21BB200B20090388C0190F86821
:100C900000F08CFB41E0BA8C3B8C9A423DD097F837
:100CA0002830012B13D197F916309AB27B8913445F
:100CB0009BB21A4697F9153099B23B890B449BB207
:100CC00011B21AB2BB8CF86800F014FB25E097F95A
:100CD00016309BB297F8282002FB03F39AB27B8967
:100CE00013449BB2194697F915309BB297F8282008
:100CF00002FB03F39AB23B8913449BB21A4697F85E
:100D0000283097F8280009B212B21BB200B2009046
:100D1000B88C0190F86800F049FB7B7D03F101037A
:100D20007B75FB7D4FEA5303FB7597F91530072B55
:100D30007FF76CAFBB7D03F10103BB7597F91630EC
:100D4000052B7FF747AF06E000BF04E000BF02E0DD
:100D500000BF00E000BF07F11807BD4680BD00BF1F
:100D600080B483B000AF78607B68DB881BB2184624
:100D700007F10C07BD4680BC704700BF80B586B048
:100D800000AF78604FF00003FB6003F075FA034694
:100D90007B617B693B6103E003F06EFA03463B61D4
:100DA0003A697B69C3EB0202FB689A42F4D307F10C
:100DB0001807BD4680BD00BF80B582B000AF0346B6
:100DC000FB71FB794BF2D030C2F20000194601F002
:100DD00061FE07F10807BD4680BD00BF80B582B047
:100DE00000AF0346FB714FF00000FFF7E5FFFB7912
:100DF0004BF2D030C2F20000194601F017FF4FF05D
:100E0000000000F005F807F10807BD4680BD00BFEF
:100E100080B582B000AF0346FB71FB794BF2D03056
:100E2000C2F20000194601F0B9FE07F10807BD46FD
:100E300080BD00BF80B582B000AF0346FB714FF0AC
:100E40000100FFF7B9FFFB791846FFF7C7FF4FF026
:100E50000100FFF7DDFF07F10807BD4680BD00BFB9
:100E600080B582B000AF78604FF0EF00FFF7E2FF8F
:100E70004FF00300FFF7B2FF4FF08000FFF7AEFF27
:100E80004FF00200FFF7AAFF4FF0CF00FFF7D2FFAD
:100E90004FF00000FFF7A2FF4FF0C100FFF79EFFE9
:100EA0004FF03000FFF79AFF4FF0ED00FFF7C2FF61
:100EB0004FF06400FFF792FF4FF00300FFF78EFF43
:100EC0004FF01200FFF78AFF4FF08100FFF786FF17
:100ED0004FF0E800FFF7AEFF4FF08500FFF77EFF11
:100EE0004FF00000FFF77AFF4FF07800FFF776FF32
:100EF0004FF0CB00FFF79EFF4FF03900FFF76EFF7A
:100F00004FF02C00FFF76AFF4FF00000FFF766FF7D
:100F10004FF03400FFF762FF4FF00200FFF75EFF73
:100F20004FF0F700FFF786FF4FF02000FFF756FF66
:100F30004FF0EA00FFF77EFF4FF00000FFF74EFF93
:100F40004FF00000FFF74AFF4FF0C000FFF772FFBD
:100F50004FF02300FFF742FF4FF0C100FFF76AFF99
:100F60004FF01000FFF73AFF4FF0C500FFF762FFA8
:100F70004FF03E00FFF732FF4FF02800FFF72EFF43
:100F80004FF0C700FFF756FF4FF08600FFF726FF30
:100F90004FF03600FFF74EFF4FF04800FFF71EFFFF
:100FA0004FF03700FFF746FF4FF00000FFF716FF46
:100FB0004FF00000FFF712FF4FF03A00FFF73AFF43
:100FC0004FF05500FFF70AFF4FF0B100FFF732FF77
:100FD0004FF00000FFF702FF4FF01800FFF7FEFE92
:100FE0004FF0B600FFF726FF4FF00800FFF7F6FEC0
:100FF0004FF08200FFF7F2FE4FF02700FFF7EEFE02
:101000004FF0F200FFF716FF4FF00000FFF7E6FE8B
:101010004FF02600FFF70EFF4FF00100FFF7DEFE56
:101020004FF0E000FFF706FF4FF00F00FFF7D6FE8E
:101030004FF03100FFF7D2FE4FF02B00FFF7CEFE4E
:101040004FF00C00FFF7CAFE4FF00E00FFF7C6FE90
:101050004FF00800FFF7C2FE4FF04E00FFF7BEFE54
:101060004FF0F100FFF7BAFE4FF03700FFF7B6FE82
:101070004FF00700FFF7B2FE4FF01000FFF7AEFE93
:101080004FF00300FFF7AAFE4FF00E00FFF7A6FE99
:101090004FF00900FFF7A2FE4FF00000FFF79EFEA1
:1010A0004FF0E100FFF7C6FE4FF00000FFF796FE9D
:1010B0004FF00E00FFF792FE4FF01400FFF78EFE88
:1010C0004FF00300FFF78AFE4FF01100FFF786FE96
:1010D0004FF00700FFF782FE4FF03100FFF77EFE72
:1010E0004FF0C100FFF77AFE4FF04800FFF776FEA1
:1010F0004FF00800FFF772FE4FF00F00FFF76EFE93
:101100004FF00C00FFF76AFE4FF03100FFF766FE6C
:101110004FF03600FFF762FE4FF00F00FFF75EFE64
:101120004FF01100FFF786FE4FF07800FFF726FE24
:101130004FF02900FFF77EFE4FF07800FFF71EFE0C
:101140007B684FF0F0029A807B684FF4A072DA80DF
:1011500007F10807BD4680BD80B582B000AF78605A
:101160000B46FB70FB7803F003037A6853747B68CB
:101170005B7C032B39D801A252F823F08D1100209B
:10118000A5110020BD110020D51100204FF048030B
:10119000FB707B684FF0F0029A807B684FF4A0727E
:1011A000DA8022E04FF02803FB707B684FF4A072D6
:1011B0009A807B684FF0F002DA8016E06FF07703D8
:1011C000FB707B684FF0F0029A807B684FF4A0724E
:1011D000DA800AE06FF01703FB707B684FF4A072AF
:1011E0009A807B684FF0F002DA804FF03600FFF70C
:1011F00021FEFB781846FFF7F1FD07F10807BD4611
:1012000080BD00BF80B584B000AFF880B9807A801F
:101210003B80FB884FEA0342F9887B880B4403F14B
:10122000FF3342EA0303BB60BB884FEA0342B9883D
:101230003B880B4403F1FF3342EA0303FB604FF0AA
:101240002A00FFF7F7FDBB684FEA1363DBB21846CD
:10125000FFF7C4FDBB684FEA1343DBB21846FFF744
:10126000BDFDBB684FEA1323DBB21846FFF7B6FD9E
:10127000BB68DBB21846FFF7B1FD4FF02B00FFF75C
:10128000D9FDFB684FEA1363DBB21846FFF7A6FDF2
:10129000FB684FEA1343DBB21846FFF79FFDFB687C
:1012A0004FEA1323DBB21846FFF798FDFB68DBB269
:1012B0001846FFF793FD4FF02C00FFF7BBFD07F139
:1012C0001007BD4680BD00BF80B582B000AF0346A9
:1012D000FB80FB884FEA13239BB2DBB21846FFF773
:1012E0007DFDFB88DBB21846FFF778FD07F10807A4
:1012F000BD4680BD80B584B000AFF86079813A8189
:10130000FB80B7F90A30002B20DBFB689B88B7F91C
:101310000A201BB29A421BDAB7F90830002B19DBFE
:10132000FB68DB88B7F908201BB29A4214DA7A8985
:101330003B89104619464FF001024FF00103FFF7B9
:1013400061FFFB881846FFF7BFFF06E000BF04E01F
:1013500000BF02E000BF00E000BF07F11007BD467C
:1013600080BD00BF80B586B000AFF8600B467A60E4
:101370007B817B894FEA13239BB2BB757B89FB750D
:101380007B683B610BE0BB7D1846FFF727FDFB7DCB
:101390001846FFF723FD3B6903F1FF333B613B69CF
:1013A000002BF0D107F11807BD4680BD80B586B08F
:1013B00000AFF86079813A81FB80FB689B88B7F9C0
:1013C0000A201BB29A4269DAFB68DB88B7F9082069
:1013D0001BB29A4264DA7A89FB8813449BB203F108
:1013E000FF339BB23B823A893B8C13449BB203F19F
:1013F000FF339BB27B82B7F91030002B52DBB7F979
:101400001230002B50DBB7F90A30002B07DA4FF00F
:1014100000037B813B8A03F101039BB2FB80B7F998
:101420000830002B07DA4FF000033B817B8A03F181
:1014300001039BB23B84FB689B88B7F910201BB269
:101440009A4207DBFB689B889AB27B89C3EB020355
:101450009BB2FB80FB68DB88B7F912201BB29A4273
:1014600007DBFB68DB889AB23B89C3EB02039BB2C4
:101470003B84B7F90630B7F9202002FB03F37B6108
:1014800078893989FA883B8CFFF7BCFE7B69BA8C76
:10149000F86811461A46FFF765FF06E000BF04E052
:1014A00000BF02E000BF00E000BF07F11807BD4623
:1014B00080BD00BF80B586B002AFF86079813A8107
:1014C000FB80B7F90A20B7F90830B7F90610009188
:1014D000398B0191F86811461A464FF00103FFF766
:1014E00065FF07F11007BD4680BD00BF80B586B01F
:1014F00002AFF86079813A81FB80B7F90A10B7F939
:101500000820B7F90630B7F918000090B88B0190A1
:10151000F868FFF74BFF07F11007BD4680BD00BF1D
:1015200080B485B000AFF860B9607A603B60FA685B
:10153000BB68C3EB0203B9693A68C2EB010202FB64
:1015400003F27968BB68C3EB010392FBF3F23B68DB
:101550001344184607F11407BD4680BC704700BF0E
:1015600080B586B004AF78604FF6FF7300934FF6F6
:10157000FF7301934FF00403029378684FF0E20188
:101580004FF030024FF04F03FFF7E2FA4FF6FF73D0
:1015900000934FF6FF7301934FF0040302937868B2
:1015A0004FF0FB014FF030024FF04E03FFF7D0FA3F
:1015B00047F6EF3300934FF4784301934FF0040361
:1015C000029378684FF0D7014FF0A8024FF04F0315
:1015D000FFF7BEFA47F6EF3300934FF478430193D9
:1015E0004FF00403029378684FF0F0014FF0A80227
:1015F0004FF04603FFF7ACFA47F6EF3300934FF492
:10160000784301934FF004030293786840F2091184
:101610004FF0A8024FF04603FFF79AFA4BF234332B
:10162000C2F200034FF000021A6007F10807BD463E
:1016300080BD00BF80B586B004AF786047F6EF3359
:1016400000934FF4FC6301934FF004030293786816
:101650004FF0E2014FF030024FF04F03FFF778FAFE
:1016600047F6EF3300934FF4FC6301934FF004030C
:10167000029378684FF0FB014FF030024FF04E03B9
:10168000FFF766FA4FF6FF7300934FF6FF7301936F
:101690004FF00403029378684FF0D7014FF0A8028F
:1016A0004FF04F03FFF754FA4FF6FF7300934FF6D6
:1016B000FF7301934FF00403029378684FF0F00139
:1016C0004FF0A8024FF04603FFF742FA4FF6FF73C0
:1016D00000934FF6FF7301934FF004030293786871
:1016E00040F209114FF0A8024FF04603FFF730FA1D
:1016F0004BF23433C2F200034FF001021A6007F1DB
:101700000807BD4680BD00BF80B586B004AF7860D5
:101710004FF6FF7300934FF6FF7301934FF00403EE
:10172000029378684FF026014FF018024FF04C03F7
:10173000FFF70EFA4FF6FF7300934FF6FF73019316
:101740004FF00403029378684FF03F014FF0180206
:101750004FF04903FFF7FCF94FF6FF7300934FF684
:10176000FF7301934FF00403029378684FF0580120
:101770004FF018024FF04E03FFF7EAF94FF6FF73F0
:1017800000934FF6FF7301934FF0040302937868C0
:101790004FF071014FF018024FF04503FFF7D8F9F1
:1017A0004FF6FF7300934FF6FF7301934FF004035E
:1017B000029378684FF018014FF048024FF046034B
:1017C000FFF7C6F94FF6FF7300934FF6FF730193CF
:1017D0004FF00403029378684FF031014FF0480254
:1017E0004FF04F03FFF7B4F94FF6FF7300934FF636
:1017F000FF7301934FF00403029378684FF04A019E
:101800004FF048024FF04C03FFF7A2F94FF6FF7379
:1018100000934FF6FF7301934FF00403029378682F
:101820004FF063014FF048024FF04C03FFF790F97F
:101830004FF6FF7300934FF6FF7301934FF00403CD
:10184000029378684FF07C014FF048024FF04F034D
:10185000FFF77EF94FF6FF7300934FF6FF73019386
:101860004FF00403029378684FF095014FF048025F
:101870004FF05703FFF76CF947F6EF33009347F645
:10188000EF3301934FF00403029378684FF02D017A
:101890004FF0A8024FF04E03FFF75AF947F6EF3327
:1018A000009347F6EF3301934FF0040302937868F7
:1018B0004FF046014FF0A8024FF03603FFF748F90A
:1018C00047F6EF33009347F6EF3301934FF00403ED
:1018D000029378684FF05F014FF0A8024FF0340395
:1018E000FFF736F94BF23833C2F200034FF0000233
:1018F0001A6007F10807BD4680BD00BF80B586B0FD
:1019000004AF786047F6EF33009347F6EF33019367
:101910004FF00403029378684FF026014FF018024D
:101920004FF04C03FFF714F947F6EF33009347F6F7
:10193000EF3301934FF00403029378684FF03F01B7
:101940004FF018024FF04903FFF702F947F6EF3363
:10195000009347F6EF3301934FF004030293786846
:101960004FF058014FF018024FF04E03FFF7F0F818
:1019700047F6EF33009347F6EF3301934FF004033C
:10198000029378684FF071014FF018024FF0450351
:10199000FFF7DEF847F6EF33009347F6EF33019396
:1019A0004FF00403029378684FF018014FF048029B
:1019B0004FF04603FFF7CCF847F6EF33009347F6B6
:1019C000EF3301934FF00403029378684FF0310135
:1019D0004FF048024FF04F03FFF7BAF847F6EF33E6
:1019E000009347F6EF3301934FF0040302937868B6
:1019F0004FF04A014FF048024FF04C03FFF7A8F8B0
:101A000047F6EF33009347F6EF3301934FF00403AB
:101A1000029378684FF063014FF048024FF04C0397
:101A2000FFF796F847F6EF33009347F6EF3301934D
:101A30004FF00403029378684FF07C014FF04802A6
:101A40004FF04F03FFF784F847F6EF33009347F664
:101A5000EF3301934FF00403029378684FF0950140
:101A60004FF048024FF05703FFF772F84FF6FF733D
:101A700000934FF6FF7301934FF0040302937868CD
:101A80004FF02D014FF0A8024FF04E03FFF760F822
:101A90004FF6FF7300934FF6FF7301934FF004036B
:101AA000029378684FF046014FF0A8024FF03603DA
:101AB000FFF74EF84FF6FF7300934FF6FF73019355
:101AC0004FF00403029378684FF05F014FF0A802D3
:101AD0004FF03403FFF73CF84BF23833C2F2000307
:101AE0004FF001021A6007F10807BD4680BD00BF34
:101AF00080B588B002AF78607868FEF7E5FC0346F1
:101B0000002B00F091804FF0060002F0FBFB034633
:101B1000FB607868FEF710FE0346FB60FB681B88DD
:101B20001BB24FF00002009218464FF000014FF038
:101B3000F0024FF0F003FFF7F3FC03469AB2FB68A4
:101B40001A80FB685B881BB24FF0000200921846B7
:101B50004FF000014FF4A0724FF4A073FFF7E0FCC8
:101B600003469AB2FB685A804BF27833C2F2000304
:101B70001B681846FFF7F4F803469BB21AB2FB68DD
:101B80001B881BB2C3EB02033B61FB685B881BB283
:101B90007B614BF23433C2F200031B68002B1CD074
:101BA0007B69B42B36DD7A6940F23F139A4233DC0D
:101BB0003B69782B32DD3B69F02B31DC4AF6203073
:101BC000C2F2000002F0E6FE4BF27833C2F20003EC
:101BD0001B681846FFF7C4FC23E07B69B42B20DDAB
:101BE0007A6940F23F139A421BDC3B69002B18DDF7
:101BF0003B69782B15DC4AF63430C2F2000002F063
:101C0000C9FE4BF27833C2F200031B681846FFF797
:101C100011FD06E000BF04E000BF02E000BF00E0ED
:101C200000BFF86802F066FB07F11807BD4680BDEB
:101C300080B588B002AF78607868FEF745FC03464F
:101C4000002B00F08D804FF0060002F05BFB034696
:101C5000FB607868FEF770FD0346FB60FB681B883D
:101C60001BB24FF00002009218464FF000014FF0F7
:101C7000F0024FF0F003FFF753FC03469AB2FB6803
:101C80001A80FB685B881BB24FF000020092184676
:101C90004FF000014FF4A0724FF4A073FFF740FC27
:101CA00003469AB2FB685A804BF27833C2F20003C3
:101CB0001B681846FFF754F803469BB21AB2FB683C
:101CC0001B881BB2C3EB02033B61FB685B881BB242
:101CD0007B614BF23833C2F200031B68002B1AD031
:101CE0007B690A2B32DD7B69952B31DC3B69782BD4
:101CF00030DD3B69F02B2FDC4AF64830C2F20000A1
:101D000002F048FE4BF27833C2F200031B6818461B
:101D1000FFF7FAFC21E07B690A2B1EDD7B69952B1E
:101D20001BDC3B69002B18DD3B69782B15DC4AF680
:101D30005C30C2F2000002F02DFE4BF27833C2F2AA
:101D400000031B681846FFF7D9FD06E000BF04E05A
:101D500000BF02E000BF00E000BFF86802F0CAFA6E
:101D600007F11807BD4680BD80B582B002AF4BF2C7
:101D7000D030C2F2000000F0B3FC4FF00803009333
:101D80004BF2D030C2F200004FF000014FF00002E1
:101D90004FF0020300F0EEFD4FF0080300934BF20A
:101DA000D030C2F200004FF001014FF000024FF0BE
:101DB000020300F0DFFDBD4680BD00BF80B586B0E8
:101DC00004AF786039607868FFF74AF838684FF0F8
:101DD0008001FEF765FB78684FF00001FEF74EFDCD
:101DE00078684FF00101FFF7B7F94FF078030093DF
:101DF0004FF0110301934FF4FC63029378684FF0A6
:101E0000B4014FF000024FF08C03FEF71FFE4FF0BD
:101E1000780300934FF0110301934FF4784302933A
:101E200078684FF0B4014FF078024FF08C03FEF762
:101E30000DFE7868FFF794FB7868FFF75FFD07F108
:101E40000807BD4680BD00BF80B582B000AF4FF02F
:101E5000200002F057FA03461A464BF27833C2F2DA
:101E600000031A604BF27833C2F200031B684FF490
:101E7000A0725A804BF27833C2F200031B684FF015
:101E8000F0021A804FF00E0002F03CFA03461A46A8
:101E90004BF27C33C2F200031A60FFF765FF4BF28E
:101EA0007833C2F200031A684BF27C33C2F20003AB
:101EB0001B6810461946FFF781FF4BF27C33C2F2D4
:101EC00000031B681846FFF713FE4BF23433C2F2CF
:101ED00000031B68002B0CBF00230123FB714BF296
:101EE0007C33C2F200031B681846FFF7A1FEE4E74B
:101EF00080B483B000AF78604FF0FF33184607F12D
:101F00000C07BD4680BC704780B483B000AF7860DA
:101F1000FEE700BF80B483B000AF786039603B68F3
:101F20004FF400525A604FF00003184607F10C07B7
:101F3000BD4680BC704700BF80B483B000AF7860FE
:101F40004FF00103184607F10C07BD4680BC7047EF
:101F500080B485B000AFF860B9607A604FF00003DC
:101F6000184607F11407BD4680BC704780B485B0A1
:101F700000AFF860B9607A604FF00003184607F1CF
:101F80001407BD4680BC704780B584B000AFF860D0
:101F9000B9607A603B604BF23C33C2F200031B68CD
:101FA000002B10D14BF2A830C2F200004FF4614177
:101FB0004FF0030200F08AF84BF23C33C2F2000308
:101FC0004FF001021A603B684BF2A830C2F20000E9
:101FD00079681A4600F07CF93B68184607F110074B
:101FE000BD4680BD80B584B000AF78604BF2403311
:101FF000C2F200031B68002B08D14BF24033C2F23F
:1020000000034BF2C852C2F200021A604BF2403396
:10201000C2F200031B68BB60EFF30883FB604BF266
:102020004033C2F200031A687B681A44FB689A4284
:102030000FD94FF000004FF001014AF67032C2F2A2
:1020400000024FF01903FFF79FFF4FF00100FFF769
:102050005BFF4BF24033C2F200031A687B681A44FC
:102060004BF24033C2F200031A60BB68184607F116
:102070001007BD4680BD00BF80B483B000AF78605C
:102080004FF0FF33184607F10C07BD4680BC704780
:1020900080B483B000AF0346FB804EF20013CEF253
:1020A0000003B7F906204FEA5212F98801F01F0128
:1020B0004FF0010000FA01F102F1600243F8221032
:1020C00007F10C07BD4680BC704700BF80B588B0E3
:1020D00000AFF860B9601346FB714FF00103FB825B
:1020E0004FF00003BB61FA684BF2A833C2F2000361
:1020F0009A4207D0FA684BF28033C2F200039A4248
:1021000000D000BEBB68002B00D100BE01F098FFDC
:10211000FA684BF2A833C2F200039A422ED1FB6850
:102120004FF080421A60FB684FF084425A60FB68AF
:102130004FF00A021A814AF61C63C2F200031B68C0
:10214000BB6142F20003CEF2040342F20002CEF27F
:102150000402126B42F080021A634FF00A00FFF78C
:1021600097FF42F20003CEF2040342F20002CEF2E5
:102170000402126B22F080021A6331E0FA6840F226
:102180000003C4F201031360FA6840F20003C4F2D2
:1021900020235360FB684FF00B021A814AF620633C
:1021A000C2F200031B68BB6142F20003CEF20403DB
:1021B00042F20002CEF20402126B42F480721A6301
:1021C0004FF00B00FFF764FF42F20003CEF204036E
:1021D00042F20002CEF20402126B22F480721A6301
:1021E000FB681B684FF000021A71BB68002B21D0FE
:1021F000BA69BB68B2FBF3F3FB61FB6903F0080348
:10220000002B06D0FB694FEA131303F10103FB61B6
:1022100003E0FB694FEA1313FB61FA694FF6FF73A2
:102220009A4200D900BEFA694FF6FF739A4201D86C
:10223000FB69FB82FB685B684FF00102C3F89C21DD
:10224000FB681B68FA8A4FEA122292B2D2B21A7164
:10225000FB681B68FA8AD2B21A70FB685B684FF0A1
:102260000002C3F89C21FB681B68FA791A73FB68AB
:102270001B684FF00E021A72FB685B684FF0000299
:10228000C3F81022FB684FF000021A61FB684FF0A0
:102290000002DA60FB684FF000025A61FB684FF001
:1022A0000002DA61FA6842F2D143C2F2000313621B
:1022B000FB684FF000029A61FB684FF000025A621F
:1022C000FB684FF000029A7207F12007BD4680BDFF
:1022D00080B489B000AFF860B9607A604FF0000355
:1022E0003B61FA684BF2A833C2F200039A4207D06E
:1022F000FA684BF28033C2F200039A4200D000BE6B
:10230000BB68002B00D100BE7B68002B00D100BE53
:10231000FA684BF2A833C2F200039A4206D0FA6878
:102320004BF28033C2F200039A423DD1BB68002BCE
:102330003AD07B68002B37D0FB681B681B7DFB768F
:10234000FB689A7AFB7E42EA0303DAB2FB689A7270
:10235000FB7E03F02003002B23D04FF01003FB6122
:102360007B680F2B01D87B68FB614FF000037B611A
:102370000EE0FB681B68B9683A690A4412781A7063
:102380003B6903F101033B617B6903F101037B615D
:102390007A69FB699A42ECD37A687B69C3EB0203E2
:1023A0007B607B68002BC7D107F12407BD4680BC4A
:1023B000704700BF80B584B000AF78607A684BF298
:1023C000A833C2F200039A4207D07A684BF28033F6
:1023D000C2F200039A4200D000BE7A684BF2A833E2
:1023E000C2F200039A4206D07A684BF28033C2F2FE
:1023F00000039A4267D17B681B681B7ADBB203F04B
:102400000F03FB73FB7B0C2B54D801A252F823F073
:1024100045240020B524002061240020B52400209C
:102420007D240020B524002099240020B52400201C
:10243000B5240020B5240020B5240020B5240020B8
:102440007D2400207B685B6A002B00D100BE7B6886
:102450005B6A002B30D07B685B6A7868984732E013
:102460007B681B6A002B00D100BE7B681B6A002BB7
:1024700024D07B681B6A7868984724E07B68DB6916
:10248000002B00D100BE7B68DB69002B18D07B6875
:10249000DB697868984716E07B689B69002B00D160
:1024A00000BE7B689B69002B0CD07B689B697868B9
:1024B000984708E000BE06E000BF04E000BF02E06D
:1024C00000BF00E000BF07F11007BD4680BD00BFA0
:1024D00080B487B000AF78607A684BF2A833C2F25C
:1024E00000039A4207D07A684BF28033C2F20003AD
:1024F0009A4200D000BE7B68DB68002B00D100BE92
:102500007B681B69002B00D100BE7A684BF2A833B0
:10251000C2F200039A4206D07A684BF28033C2F2CC
:1025200000039A4252D17B68DB68002B4ED07B6857
:102530001B69002B4AD07B681B681B7DFB727B6884
:102540009A7AFB7A42EA0303DAB27B689A72FB7AE0
:1025500003F02003002B29D04FF010033B617B6870
:102560001A697B685B69C3EB02037B617B690F2B94
:1025700001D87B693B614FF00003FB6012E07B6890
:102580001B687A68D1687A6852690A4412781A70AE
:102590007B685B6903F101027B685A61FB6803F1A8
:1025A0000103FB60FA683B699A42E8D37B685A6989
:1025B0007B681B699A4209D17B684FF000021A615F
:1025C0007B685B684FF00002C3F8842007F11C07AA
:1025D000BD4680BC704700BF684620F007018D46AD
:1025E00089B500AF4BF2A830C2F20000FFF7E2FE5F
:1025F0004FF00A00FFF74CFDBD46BDE88940854617
:10260000704700BF684620F007018D4689B500AFCE
:102610004BF28030C2F20000FFF7CCFE4FF00B000F
:10262000FFF736FDBD46BDE889408546704700BFCF
:1026300080B483B000AF0346FB804EF20013CEF2AD
:102640000003B7F906204FEA5212F98801F01F0182
:102650004FF0010000FA01F143F8221007F10C07D6
:10266000BD4680BC704700BF80B483B000AF034656
:10267000FB804EF20013CEF20003B7F906204FEABA
:102680005212F98801F01F014FF0010000FA01F128
:1026900002F1200243F8221007F10C07BD4680BC6E
:1026A000704700BF80B483B000AF0346FB804EF29A
:1026B0000013CEF20003B7F906204FEA5212F98850
:1026C00001F01F014FF0010000FA01F102F1600278
:1026D00043F8221007F10C07BD4680BC704700BFCD
:1026E00080B584B000AF78607A684BF25443C2F290
:1026F00000039A4207D07A684BF2D033C2F200034B
:102700009A4200D000BE7B689B881BB21846FFF738
:10271000ABFF78684FF000014FF0840202F0CCF874
:102720007B684FF001025A624FF00003FB810DE01D
:10273000FB897A6803F106034FEAC30313444FF0A1
:10274000FF325A60FB8903F10103FB81FB89072BF0
:10275000EED97A684BF25443C2F200039A4226D172
:102760007A6841F20003C4F2000313607B684FF003
:102770000C029A8042F20003CEF2040342F20002FD
:10278000CEF20402126B42F400721A634FF00C0096
:10279000FFF788FF42F20003CEF2040342F2000288
:1027A000CEF20402126B22F400721A6325E07A68FA
:1027B00041F20003C4F2010313607B684FF00D0285
:1027C0009A8042F20003CEF2040342F20002CEF2FB
:1027D0000402126B42F480621A634FF00D00FFF79F
:1027E00061FF42F20003CEF2040342F20002CEF295
:1027F0000402126B22F480621A637B681B687A6899
:102800001268126822F000421A6007F11007BD46F4
:1028100080BD00BF80B58AB000AF78607B681B6860
:102820001B68FB607B681B689B693B617B681B685E
:102830005B687B617B681B689B6ABB617B681B680C
:102840001B6BFB617B681B685B6B3B627B681B6877
:10285000DB697B627A684BF25443C2F200039A420E
:102860002ED17A6841F20003C4F2000313607B6842
:102870004FF00C029A8042F20003CEF2040342F2BF
:102880000002CEF20402126B42F400721A634FF09F
:102890000C00FFF707FF42F20003CEF2040342F2FE
:1028A0000002CEF20402126B22F400721A637B68FB
:1028B0001B687A681268126822F000421A602DE0E4
:1028C0007A6841F20003C4F2010313607B684FF0A1
:1028D0000D029A8042F20003CEF2040342F200029B
:1028E000CEF20402126B42F480621A634FF00D00C4
:1028F000FFF7D8FE42F20003CEF2040342F20002D8
:10290000CEF20402126B22F480621A637B681B68A9
:102910007A681268126822F000421A60FB6823F09D
:102920000103FB607B681B68FA681A607B681B68A0
:102930003A699A617B681B687A695A607B681B6890
:102940007A681268126842F001021A607B681B689C
:10295000BA699A627B681B68FA691A637B681B68AC
:102960003A6A5A637B681B687A6ADA6107F128075A
:10297000BD4680BD80B584B000AFF8607A600A467D
:10298000FA72FB70FA684BF25443C2F200039A42A7
:1029900007D0FA684BF2D033C2F200039A4200D05B
:1029A00000BEFB7A072B00D900BE3B7E202B00D94E
:1029B00000BEFB689B881BB21846FFF755FEFB68FC
:1029C0004FF0000283F88020FB681B68FA681268E9
:1029D000126822F001021A60FB681B68FA6812682C
:1029E000126842F002021A60FB681B68FA681268FB
:1029F000126842F001021A60FB7A072B3FD87B680D
:102A0000002B0BD07B68B3F1007F07D07B68B3F15C
:102A1000807F03D07B68B3F1407F0FD1FA7A796869
:102A200040F20213C2F2004341EA0303F96802F1E3
:102A300006024FEAC2020A4453600EE0FA7A79684D
:102A400040F20213C2F2000341EA0303F96802F103
:102A500006024FEAC2020A445360FB7AFA6803F1A5
:102A600006034FEAC30313443A7E1A72FB7AFA68EC
:102A700003F106034FEAC3031344FA785A72FB6862
:102A80009B881BB21846FFF7D3FD07F11007BD4620
:102A900080BD00BF80B584B000AF78600B46FB708E
:102AA0007A684BF25443C2F200039A4207D07A6824
:102AB0004BF2D033C2F200039A4200D000BE7B68D2
:102AC0001B681B6803F00203002B00D100BEFB78DB
:102AD0007A6803F106034FEAC30313445B68B3F15A
:102AE000FF3F00D100BE7B689B881BB21846FFF7F2
:102AF000BBFD7B681B689B6803F00403FB60FB68FD
:102B0000002B02D07868FFF785FE7B681B687A6827
:102B10001268126822F001021A607B681A68FB785A
:102B2000796803F106034FEAC3030B445B68136043
:102B30007B681A68FB78796803F106034FEAC303E0
:102B40000B445B7A93617B681A68FB78796803F1C0
:102B500006034FEAC3030B441B7A53607B681B6870
:102B60007A681268126842F001021A607B681B687A
:102B70007A681268D169FA784FF0010000FA02F21F
:102B800041EA0202DA617B689B881BB21846FFF7B4
:102B90004FFD07F11007BD4680BD00BF80B584B072
:102BA00000AF78600B46FB707A684BF25443C2F278
:102BB00000039A4207D07A684BF2D033C2F2000386
:102BC0009A4200D000BE7B681B681B6803F00203BA
:102BD000002B00D100BE7B689B881BB21846FFF714
:102BE00043FD7B681B689B6803F00403FB60FB6884
:102BF000002B02D07868FFF70DFE7B681B687A68AF
:102C00001268D169FA784FF0010000FA02F26FEA17
:102C1000020201EA0202DA617B689B881BB2184655
:102C2000FFF706FD07F11007BD4680BD80B487B0F1
:102C300000AF786039607A684BF25443C2F2000307
:102C40009A4207D07A684BF2D033C2F200039A421C
:102C500000D000BE7B681B681B6803F00203002BDA
:102C600000D100BE7B681A687B681B68196840F257
:102C7000FF03CFF6007301EA030343F4807313608C
:102C80007B681B687A681268D26A42F00C02DA62CA
:102C90007B681B689B6803F04003FB600BE07B686C
:102CA0001B681B69BB60BB68BB607B681B689B685B
:102CB00003F04003FB60FB68002BF0D07B681B68CF
:102CC0003A685A617B681B689B6803F001037B616B
:102CD00005E07B681B689B6803F001037B617B69EF
:102CE000002BF6D07B681B689B6803F002033B61F6
:102CF00005E07B681B689B6803F002033B613B694E
:102D0000002BF6D07B681B681B69184607F11C076F
:102D1000BD4680BC704700BF80B485B000AF78600E
:102D20004FF00003FB600EE07B681B687A689168D7
:102D30007A6812690A4412785A617B681B6903F148
:102D400001027B681A617B681B689B6803F48073CF
:102D5000002B05D17B681A697B68DB689A42E3D354
:102D60007B681A697B68DB689A421CD30EE07B683B
:102D70001B687A6851697A68D2690A4412785A6184
:102D80007B68DB6903F101027B68DA617B681B68A1
:102D90009B6803F48073002B05D17B68DA697B683C
:102DA0009B699A42E3D37B685B6A002B1FD07B68E8
:102DB0001A697B68DB689A4219D37B68DA697B6899
:102DC0009B699A4213D308E07B681B684FF00002AE
:102DD0005A61FB6803F10103FB607B681B689B6819
:102DE00003F48073002B02D1FB681F2BECD907F191
:102DF0001407BD4680BC704780B584B000AF7860D2
:102E00007B6893F88030022B15D10CE07B681B683F
:102E10001B69FB607B685B6F002B04D07B685B6F7A
:102E2000FA68104698477B681B689B6803F040036C
:102E3000002BEBD032E07B6893F88030012B25D15A
:102E400017E07B681B681B69FB607B681A6B7B68FB
:102E5000DB6A9A4207D27B689A6A7B681B6B1344D1
:102E6000FA68D2B21A707B681B6B03F101027B68AF
:102E70001A637B681B689B6803F04003002BE0D05B
:102E80000CE07B681B681B69FB6000E000BF7B688F
:102E90001B689B6803F04003002BF2D007F110077A
:102EA000BD4680BD80B586B000AF78607B681B688A
:102EB00003F120033B617A684BF25443C2F20003F2
:102EC0009A4207D07A684BF2D033C2F200039A429A
:102ED00000D000BE3B691B6803F00203002B52D0F8
:102EE0007B6893F88030022B15D10CE07B681B685F
:102EF0001B69FB607B685B6F002B04D07B685B6F9A
:102F0000FA68104698477B681B689B6803F040038B
:102F1000002BEBD032E07B6893F88030012B25D179
:102F200017E07B681B681B69FB607B681A6B7B681A
:102F3000DB6A9A4207D27B689A6A7B681B6B1344F0
:102F4000FA68D2B21A707B681B6B03F101027B68CE
:102F50001A637B681B689B6803F04003002BE0D07A
:102F60000CE07B681B681B69FB6000E000BF7B68AE
:102F70001B689B6803F04003002BF2D07B681B6842
:102F80004FF00202DA603B691B6803F00103DBB219
:102F9000002B12D07B6893F88030022B05D17B6820
:102FA0001B687A68926F5A6102E07868FFF7B4FE96
:102FB0007B681B684FF00102DA603B691B6803F015
:102FC0001003002B23D07868FFF716FF7B681B6A7D
:102FD000002B0BD07B681B6A7A68916A7A68126B47
:102FE0000846114698477868FFF796FE7B684FF0D1
:102FF00001025A627B681B687A681268926A22F042
:1030000010029A627B681B684FF01002DA603B691D
:103010001B6803F00403002B0FD07B681B687A68E1
:103020001268D26A42F00402DA627868FFF7F2FBB3
:103030007B681B684FF00402DA603B691B6803F091
:103040000803002B31D07B681B687A681268D26A4B
:1030500042F00802DA627B6893F88030022B13D1C9
:103060007B681A687B681B68196840F2FF03CFF61B
:10307000007301EA030343F4807313607B681B68E9
:103080007A68926F5A610BE07B6893F88030012B6D
:1030900006D17B684FF000021A617868FFF73CFEAA
:1030A0007B681B684FF00802DA603B691B6803F01D
:1030B0002003002B49D07868FFF79EFE7B681B6BCE
:1030C0007B617B681B6A002B1CD07B684FF0000281
:1030D0005A627B684FF000025A617B684FF0000231
:1030E0009A617B684FF00002DA617B681B684FF0E1
:1030F0001002DA607B681B687A681268926A42F094
:1031000010029A627B684FF000021A617B681B68AC
:103110007A681268D26A42F00C02DA627868FFF7C5
:10312000FBFD7B684FF000021A637B68DB6F002BAE
:1031300006D07B68DB6F7A68926A10467969984797
:103140007B681B684FF02002DA6007F11807BD4664
:1031500080BD00BF684620F007018D4689B500AFED
:103160004BF25440C2F20000FFF79CFE4FF00C00FF
:10317000FFF798FABD46BDE889408546704700BF15
:10318000684620F007018D4689B500AF4BF2D0307C
:10319000C2F20000FFF786FE4FF00D00FFF782FA43
:1031A000BD46BDE889408546704700BF80B483B006
:1031B00000AF0346FB804EF20013CEF20003B7F9D6
:1031C00006204FEA5212F98801F01F014FF001006A
:1031D00000FA01F143F8221007F10C07BD4680BC4C
:1031E000704700BF80B483B000AF0346FB804EF24F
:1031F0000013CEF20003B7F906204FEA5212F98805
:1032000001F01F014FF0010000FA01F102F120026C
:1032100043F8221007F10C07BD4680BC704700BF81
:1032200080B483B000AF0346FB804EF20013CEF2B1
:103230000003B7F906204FEA5212F98801F01F0186
:103240004FF0010000FA01F102F1600243F8221090
:1032500007F10C07BD4680BC704700BF80B584B045
:1032600000AF786013460A46FA70BB70BB78FB600B
:103270007A684BF2D843C2F200039A4207D07A68C8
:103280004BF24C53C2F200039A4200D000BE00F051
:103290006BFE0346BB6078684FF000014FF074028C
:1032A00001F00AFB7A684BF2D843C2F200039A425B
:1032B0002CD17B684FF00E025A827A6842F20003EA
:1032C000C4F2000353617A6840F20003C4F204239D
:1032D000936142F20003CEF2040342F20002CEF206
:1032E0000402126B42F400621A634FF00E00FFF703
:1032F00097FF42F20003CEF2040342F20002CEF244
:103300000402126B22F400621A632BE07B684FF018
:1033100011025A827A6842F20003C4F20103536137
:103320007A6840F20003C4F22423936142F200035E
:10333000CEF2040342F20002CEF20402126B42F417
:1033400080521A634FF01100FFF76AFF42F2000348
:10335000CEF2040342F20002CEF20402126B22F417
:1033600080521A637B689B691A467B68DA61FB7836
:103370004FEA43027B681A607B689B69FA684FEAF0
:10338000920202F00102DA617B689B69FA684FEAF7
:10339000520202F001025A607B689B69FA6802F0EF
:1033A00001021A607B685B697A681268D2B21A738C
:1033B0007B689B694FF001029A61B86800F0E6FDF6
:1033C00007F11007BD4680BD80B586B000AFF8603C
:1033D0007A600A46FA727B80FA684BF2D843C2F2EE
:1033E00000039A4207D0FA684BF24C53C2F2000332
:1033F0009A4200D000BE00F0B7FD03467B61FB6837
:103400001B7A002B03D1FB684FF001021A72FB6894
:103410004FF0010283F87220FB7A4FEA4302FB6807
:103420005A60FB684FF00002DA62FB687A681A6241
:103430007A88FB685A62FB684FF000029A62FB6868
:103440004FF0010283F83C20FB6897F820201A74A3
:10345000FB6893F85C30DBB2012B05D1FB684FF0C1
:10346000010283F8712004E0FB689B694FF00102C0
:103470005A61FB6893F87030012B11D1FB689B698E
:103480004FF00002DA60FB685B691B79FB74FB7C20
:10349000DBB2FB74FB685B8A1BB21846FFF7C0FE09
:1034A000FB685B8A1BB21846FFF780FE786900F064
:1034B0006DFD07F11807BD4680BD00BF80B586B021
:1034C00000AFF8607A600A46FA727B80FA684BF2C5
:1034D000D843C2F200039A4207D0FA684BF24C5329
:1034E000C2F200039A4200D000BE7B88002B00D1BC
:1034F00000BEBB8C002B00D100BE3B6A002B00D16C
:1035000000BEBB8C002B6AD07B88002B67D000F0FC
:103510002BFD03467B61FB681B7A002B03D1FB6804
:103520004FF003021A72FB684FF0030283F8722017
:10353000FB7A4FEA4302FB685A60FB684FF00002D7
:10354000DA62FB687A681A627A88FB685A62FB68FA
:103550004FF000029A62FB683A6A1A63BA8CFB6801
:103560005A63FB684FF000029A63FB684FF0010258
:1035700083F83C20FB6897F828201A74FB6893F8BE
:103580005C30DBB2012B05D1FB684FF0010283F800
:10359000712004E0FB689B694FF001025A61FB68EF
:1035A00093F87030012B11D1FB689B694FF000023A
:1035B000DA60FB685B691B79FB74FB7CDBB2FB7434
:1035C000FB685B8A1BB21846FFF72AFEFB685B8A22
:1035D0001BB21846FFF7EAFD786900F0D7FC07F147
:1035E0001807BD4680BD00BF80B485B000AF7860CD
:1035F00039604FF00003BB607A684BF2D843C2F2E7
:1036000000039A4207D07A684BF24C53C2F200038F
:103610009A4200D000BE7B683A681A647B6893F8CF
:103620003C30FB73BB6803F10103BB60FB7B012BE8
:1036300004D1BA6840F2E7339A42EFD9FB7B1846CF
:1036400007F11407BD4680BC704700BF80B483B04B
:1036500000AF78607B6893F86830002B04D07B68FB
:103660009B694FF001029A6007F10C07BD4680BCD0
:10367000704700BF80B584B000AF78604FF00103A1
:10368000BB737A684BF2D843C2F200039A4207D068
:103690007A684BF24C53C2F200039A4200D000BE4B
:1036A0007B685B691B79FB72FB7ADBB2A3F10803D1
:1036B000D02B00F21C8401A252F823F0013A002022
:1036C000EF3E0020EF3E0020EF3E0020EF3E0020C6
:1036D000EF3E0020EF3E0020EF3E0020013A0020A8
:1036E000EF3E0020EF3E0020EF3E0020EF3E0020A6
:1036F000EF3E0020EF3E0020EF3E0020A53A0020E4
:10370000EF3E0020EF3E0020EF3E0020EF3E002085
:10371000EF3E0020EF3E0020EF3E0020813A0020E7
:10372000EF3E0020EF3E0020EF3E0020EF3E002065
:10373000EF3E0020EF3E0020EF3E0020A53A0020A3
:10374000EF3E0020EF3E0020EF3E0020EF3E002045
:10375000EF3E0020EF3E0020EF3E0020393B0020EE
:10376000EF3E0020EF3E0020EF3E0020EF3E002025
:10377000EF3E0020EF3E0020EF3E0020753A002093
:10378000EF3E0020EF3E0020EF3E0020EF3E002005
:10379000EF3E0020EF3E0020EF3E00205D3B00208A
:1037A000EF3E0020EF3E0020EF3E0020EF3E0020E5
:1037B000EF3E0020EF3E0020EF3E0020AD3B00201A
:1037C000EF3E0020EF3E0020EF3E0020EF3E0020C5
:1037D000EF3E0020EF3E0020EF3E0020D13B0020D6
:1037E000EF3E0020EF3E0020EF3E0020EF3E0020A5
:1037F000EF3E0020EF3E0020EF3E00200B3C00207B
:10380000EF3E0020EF3E0020EF3E0020EF3E002084
:10381000EF3E0020EF3E0020EF3E0020AD3C0020B8
:10382000EF3E0020EF3E0020EF3E0020EF3E002064
:10383000EF3E0020EF3E0020EF3E0020A33C0020A2
:10384000EF3E0020EF3E0020EF3E0020EF3E002044
:10385000EF3E0020EF3E0020EF3E0020AD3C002078
:10386000EF3E0020EF3E0020EF3E0020EF3E002024
:10387000EF3E0020EF3E0020EF3E0020A33C002062
:10388000EF3E0020EF3E0020EF3E0020EF3E002004
:10389000EF3E0020EF3E0020EF3E0020EF3C0020F6
:1038A000EF3E0020EF3E0020EF3E0020EF3E0020E4
:1038B000EF3E0020EF3E0020EF3E00206F3C002056
:1038C000EF3E0020EF3E0020EF3E0020EF3E0020C4
:1038D000EF3E0020EF3E0020EF3E0020EF3C0020B6
:1038E000EF3E0020EF3E0020EF3E0020EF3E0020A4
:1038F000EF3E0020EF3E0020EF3E00206F3C002016
:10390000EF3E0020EF3E0020EF3E0020EF3E002083
:10391000EF3E0020EF3E0020EF3E00204B3D002018
:10392000EF3E0020EF3E0020EF3E0020EF3E002063
:10393000EF3E0020EF3E0020EF3E0020233E00201F
:10394000EF3E0020EF3E0020EF3E0020EF3E002043
:10395000EF3E0020EF3E0020EF3E0020233E0020FF
:10396000EF3E0020EF3E0020EF3E0020EF3E002023
:10397000EF3E0020EF3E0020EF3E0020233E0020DF
:10398000EF3E0020EF3E0020EF3E0020EF3E002003
:10399000EF3E0020EF3E0020EF3E0020B53E00202D
:1039A000EF3E0020EF3E0020EF3E0020EF3E0020E3
:1039B000EF3E0020EF3E0020EF3E0020B53E00200D
:1039C000EF3E0020EF3E0020EF3E0020EF3E0020C3
:1039D000EF3E0020EF3E0020EF3E0020EF3E0020B3
:1039E000EF3E0020EF3E0020EF3E0020EF3E0020A3
:1039F000EF3E0020EF3E0020EF3E0020F53D00208E
:103A00007B689B694FF000025A617B685B697A684A
:103A10005268D2B21A727B689B697A68D26AC3F81C
:103A200000217B68DB6A002B04D17B684FF0000229
:103A30009A6207E07B68DB6A012B03D17B684FF059
:103A400000029A637B6893F87130002B04D07B6886
:103A50004FF0000283F871207B681A7A7B6893F834
:103A600072309A4200F067827B6893F872207B681C
:103A70001A7269E27B689B694FF001025A6163E246
:103A80007B689B694FF001021A617B684FF002026C
:103A900083F83C207B684FF000021A727868FFF7C9
:103AA000D5FD51E27B689A6A7B685B6A9A420DD2C7
:103AB0007B685A697B68196A7B689B6A1944097834
:103AC000117203F101027B689A623DE27B681B7A06
:103AD000032B09D17B684FF00102DA627B689B6996
:103AE0004FF001025A612FE27B684FF000021A7218
:103AF0007B681B7C03F001037B737B687A7B83F814
:103B000070207B7B002B08D17B689B694FF0010202
:103B10001A617868FFF79AFD08E07B685B8A1BB240
:103B20001846FFF75FFB4FF00003BB737B684FF055
:103B3000000283F83C2007E27B689B694FF001029A
:103B40001A617B684FF0020283F83C207B684FF0DB
:103B500000021A727868FFF779FDF5E17B685B6B0C
:103B6000012B05D97B689B694FF001029A60EBE15C
:103B70007B685B6B012B05D17B689B694FF0000272
:103B80009A60E1E17B689B694FF001029A607B6873
:103B90009B694FF001021A617B684FF0000283F8C5
:103BA0003C207B684FF000021A72CDE17B689B6974
:103BB0004FF001021A617B684FF0020283F83C204B
:103BC0007B684FF000021A727868FFF73FFDBBE197
:103BD0007B681A6B7B689B6B1A4479684969097A20
:103BE000C9B2117003F101027B689A637B689A6B1A
:103BF0007B685B6B03F1FF339A42C0F09E817B6868
:103C00009B694FF000029A609EE17B681A6B7B68AB
:103C10009B6B13447A685269127AD2B21A707B682D
:103C20001B7C03F001037B737B687A7B83F8702035
:103C30007B7B002B08D17B689B694FF001021A61E6
:103C40007868FFF703FD08E07B685B8A1BB21846C3
:103C5000FFF7C8FA4FF00003BB737B684FF0000218
:103C60001A727B684FF0000283F83C206CE17B689D
:103C70009B694FF001029A607B684FF000021A7254
:103C80007B684FF0000283F85C207B6893F871300A
:103C9000002B00F054817B689B694FF001025A6150
:103CA00052E17B684FF0010283F871207B684FF08E
:103CB00004021A727B684FF000029A657B684FF02D
:103CC0000002DA607B689B695B69002B09D07B6826
:103CD0009B694FF000025A617B684FF0010283F844
:103CE00071207B684FF0010283F85C202CE17B6837
:103CF0001B6D002B1CD07B689A6D7B685B6D9A42B4
:103D000016D27B685B691B7A3B737B681A6D7B6894
:103D10009B6D1A44397B117003F101027B689A652F
:103D20007B68DB684FEA03223B7B1A447B68DA60DE
:103D30007B689A6D7B685B6D9A42C0F002817B68FC
:103D40009B694FF000029A60FEE07B681B7A042BAF
:103D500035D17B689A6D7B681B6E9A4203D17B6874
:103D6000DA687B68DA647B685B6E002B21D07B6845
:103D70005B6E7A68116D7A68926D92B27868984736
:103D80000346FB73FB7B002B08D17868FFF75EFCD2
:103D90007B689B694FF001029A6017E07B689B6922
:103DA0004FF000029A607B684FF0000283F86820B1
:103DB0000CE07B689B694FF001029A6006E07B682B
:103DC0004FF00002DA647868FFF740FC7B684FF040
:103DD000000283F85C207B6893F87130002B04D0DC
:103DE0007B689B694FF001025A617B684FF00002CB
:103DF0001A72A9E07B684FF000021A727B684FF0DC
:103E00000002DA647B6893F85C30DBB2012B04D1EA
:103E10007B684FF0020283F85C207868FFF716FC9D
:103E200092E0FB7ADBB2A82B1BD17B684FF0050236
:103E30001A727B684FF00002DA607B684FF0010273
:103E400083F85C207B689B695B69002B09D07B68E9
:103E50009B694FF000025A617B684FF0010283F8C2
:103E600071207B68DA6C7B689B6C9A4205D37B6817
:103E70005B694FF0FF321A720CE07B685A697B680D
:103E8000596C7B68DB6C19440978117203F10102EB
:103E90007B68DA647B68DA6C7B689B6C9A4252D3ED
:103EA0007B689B694FF000029A607B684FF00002CC
:103EB000DA6449E07B684FF00002DA647B689B6952
:103EC0004FF001029A607B684FF0000283F85C209B
:103ED0007B6893F87130002B04D07B689B694FF0AE
:103EE00001025A617B684FF000021A722CE07B6875
:103EF0009B694FF000025A617B684FF000021A7212
:103F00007B684FF00002DA647B6893F83C30DBB2E8
:103F1000012B04D17B684FF0020283F83C207B68C0
:103F200093F85C30DBB2012B0ED17B684FF00202BC
:103F300083F85C2008E000BF06E000BF04E000BF9B
:103F400002E000BF00E000BFBB7B002B04D07B6819
:103F50009B694FF00002DA607B685B691B79FB723A
:103F600007F11007BD4680BD80B582B000AF00F0FC
:103F700045F803467B604FF0010000F04FF87B6886
:103F8000184607F10807BD4680BD00BF80B582B066
:103F900000AF7860786800F041F807F10807BD4687
:103FA00080BD00BF684620F007018D4689B500AF8F
:103FB0004BF2D840C2F20000FFF75CFB4FF00E005E
:103FC000FFF72EF9BD46BDE889408546704700BF22
:103FD000684620F007018D4689B500AF4BF24C5082
:103FE000C2F20000FFF746FB4FF01100FFF718F98F
:103FF000BD46BDE889408546704700BF80B483B0A8
:1040000000AF4FF000037B60EFF310837B607B68B1
:10401000184607F10C07BD4680BC704780B483B0DA
:1040200000AF78607B6883F3108807F10C07BD460A
:1040300080BC704780B400AFBD4680BC704700BFF5
:1040400080B58AB000AF4AF68C33C2F20003BC469A
:104050000FCB8CE80F0042F20003CEF204039B6CFE
:104060004FEA930303F003034FEA830307F12802A7
:10407000134453F8283C3B6142F20003CEF20403A0
:104080009B6C4FEA131303F003034FEA830307F11A
:104090002802134453F8283C7B6142F20003CEF21D
:1040A00004039B6C4FEA931303F003034FEA83036B
:1040B00007F12802134453F8283CBB6142F2000385
:1040C000CEF20403DB6C4FEA132303F01F033B62C1
:1040D00042F20003CEF20403DB6C4FEA533303F0E9
:1040E00001037B623B6A03F10103FB617B6A002BE6
:1040F00003D0FB694FEA4303FB6100F049F8024635
:104100004AF61863C2F200031A604AF61863C2F254
:1041100000031A683B69B2FBF3F24AF61C63C2F271
:1041200000031A604AF61863C2F200031A687B693A
:10413000B2FBF3F24AF62063C2F200031A604AF6B9
:104140001863C2F200031A68BB69B2FBF3F24AF6C5
:104150002463C2F200031A604AF61863C2F2000335
:104160001A68FB69B2FBF3F24AF62863C2F2000355
:104170001A604AF61863C2F200031A684AF614631A
:10418000C2F200031A6007F12807BD4680BD00BFD8
:1041900080B48BB000AF4FF000037B6040F61C038F
:1041A000C6F20803BB6040F23023C6F20803FB608E
:1041B000FB681B6823F070433B613A6941F2CF13FF
:1041C000C0F2A1539A4208D14EF62C73C6F20103F5
:1041D0007B617B691B687B603DE0BB681A6844F2C9
:1041E0004133C4F654439A4235D140F64003C6F2F7
:1041F0000803BB61BB691B68FB61FB6923F07F435C
:10420000FB61FA6940F20033C0F201039A4222D9FD
:10421000FA694FF6FF73C0F201039A4208D841F2DF
:104220002C63C6F208033B623B6A1B687B6012E0AA
:10423000FA694FF6FF73C0F202039A4208D841F6BA
:10424000AC63C6F208037B627B6A1B687B6002E09A
:104250004FF000037B607B68002B05D100BE47F662
:104260004003C0F27D137B607B68184607F12C0782
:10427000BD4680BC704700BF4AF62C63C2F2000303
:1042800000B585B06946186800F0CAFBB0F1FF3F81
:1042900006D0009B0198C018029BC018039BC01851
:1042A00005B000BD70B54AF600664AF60065C2F278
:1042B0000006C2F20005761BB61006D0002455F8A1
:1042C000243001349847A642F9D84AF600654AF6E8
:1042D0000466C2F20005C2F20006761B06F084FDF9
:1042E000B61006D0002455F8243001349847A64271
:1042F000F9D870BD4AF62C630146C2F20003186873
:1043000003F086BA4AF62C630146C2F2000318682D
:1043100000F000B82DE9F04F01F10B04162C83B02A
:1043200006462FD8002310248C422CBF194643F098
:104330000101002930D1304600F028FBB4F5FC7FA4
:104340002ED24FEAD40E4AF62075C2F2000505EBD4
:10435000CE02D368934200F006825A6803F1080542
:10436000D968304622F0030C9A6863445C688A601E
:1043700044F00104D1605C6000F00AFB284603B001
:10438000BDE8F08F24F00704E30F8C422CBF1946E0
:1043900043F001010029CED00C2300253360EDE766
:1043A0005FEA542E04BF4FEAD40E4FEACE0040F02D
:1043B00090804AF62075C2F200052818C36898421A
:1043C00006D10DE0002A80F26F81DB68984207D0A9
:1043D000596821F003010A1B0F2AF3DD0EF1FF3E9D
:1043E0000EF1010E4AF62077C2F2000707F108012C
:1043F0008B68994208BF7A6826D05A6822F0030C6D
:10440000C4EB0C020F2A00F39481002AC960896072
:1044100080F29980BCF5007F80F065814FEADC0C6A
:104420004FF0010A7A6807EBCC004FEAAC0C0AFAAD
:104430000CFCD860D0F808804CEA02027A60C3F81D
:104440000880C8F80C3083604FF0010C4FEAAE03CF
:104450000CFA03FC944500F2828012EA0C0F08D19A
:104460002EF0030E4FEA4C0C0EF1040E12EA0C0F64
:10447000F8D007EBCE09F246C846D8F80C3098457C
:1044800007D168E1002A80F27881DB68984500F066
:104490006281586820F00300021B0F2AF2DD1D46DE
:1044A0001F19D3F80CC044F0010E55F8084F3046E0
:1044B000BA5042F00102C3F804E0CCF80840C4F856
:1044C0000CC08F60CF607A60B960F96000F060FA6C
:1044D00054E7BEF1040F9EBF4FEA941E0EF1380E52
:1044E0004FEACE007FF665AFBEF1140F9CBF0EF110
:1044F0005B0E4FEACE007FF65CAFBEF1540F9EBF5D
:104500004FEA143E0EF16E0E4FEACE007FF651AF29
:10451000BEF5AA7F9EBF4FEAD43E0EF1770E4FEA5A
:10452000CE007FF646AF40F254539E4595BF4FEA0A
:10453000944E4FF47C700EF17C0E4FF07E0E98BFBF
:104540004FEACE0035E703EB0C0203F108053046D5
:10455000536843F00103536000F01AFA0EE7D7F8EE
:104560000880D8F8043023F00309C4EB09024C4555
:1045700094BF002301230F2AD8BF43F00103002B6F
:1045800000F0A1804BF2443BD5F80824C2F2000BA6
:10459000DBF8003010331B19B2F1FF3F06D003F5F2
:1045A0007E631F3323F47E6323F01F0319463046D6
:1045B000019300F021FA019BB0F1FF3F824600F029
:1045C000F48008EB0901814200F2EC80DBF8042062
:1045D0009A185145CBF8042000F04581D5F80854CD
:1045E0004AF62070C2F20000B5F1FF3F08BFC0F8E4
:1045F00008A403D05244511ACBF804101AF007054E
:10460000304617BFC5F108054FF48055AA4405F59B
:10461000805553441B051B0DED1A294600F0ECF99B
:10462000B0F1FF3F00F02C81CAEB0001491941F0C5
:104630000101DBF804204BF24433C7F808A0C2F2B2
:104640000003AA18B845CBF80420CAF8041017D004
:10465000B9F10F0F40F2DF80A9F10C01052521F01F
:10466000070108EB01000F2985604560D8F80400B8
:1046700000F0010041EA0000C8F8040000F2AC803C
:10468000D0464BF24433DBF82C10C2F200038A42CE
:10469000DBF8301088BFDA624BF24433C2F2000319
:1046A0008A4288BF1A6382E05C189A68D9683046EB
:1046B000666803F108058A6046F00103D160636013
:1046C00000F066F95AE608EB040342F0010244F0F8
:1046D00001043046C8F8044008F108055A60BB6080
:1046E00000F056F94AE64FEA5C22042A54D9142A0B
:1046F00000F289805B324FEAC208A8444AF620776C
:10470000C2F20007D8F80800404503D16FE0806886
:10471000804504D0426822F003029445F7D3D0F8D4
:104720000CC0C3F80CC098607A68C360CCF808303D
:104730008AE61F19304644F00104CF605C6003F143
:104740000805BA5042F001028F607A60B960F960E2
:1047500000F01EF912E60AF1010A1AF0030F5FD009
:1047600003F1080889E603F10802D3689A4208BFFA
:104770000EF1020E3FF436AEEFE51D461918DA6869
:10478000304655F8083F4C68936044F00104DA6005
:104790004C6000F0FDF8F1E54FEA9C1238324FEA28
:1047A000C208AAE7B8453FF411AFD7F80880D8F897
:1047B000042022F00302944294BF00230123121B21
:1047C0000F2AD8BF43F00103002B3FF47CAF3046E3
:1047D000002500F0DDF8D1E508F10801304601932D
:1047E00003F016F8019BD7F808805A6849E74FF0A4
:1047F000010AD7F80480921084460AFA02F248EAC5
:1048000002027A608DE7542A24D84FEA1C326E32B5
:104810004FEAC20871E70123D046CAF80430C6E760
:104820004A461EF0030F13460EF1FF3E33D053F8F5
:1048300008299A42F5D07B684FEA4C0C9C453FF61C
:104840008EAEBCF1000F3FF48AAE1CEA030F27D0F6
:10485000D6460EE6B2F5AA7F15D84FEADC3277329B
:104860004FEAC20849E70805000D00287FF4B6AEFC
:10487000D7F808804B4443F00103C8F8043000E740
:1048800001210025D5E640F2545082420DD94FF463
:104890007C787E2231E77B6823EA0C037B60CBE7E0
:1048A0004FEA4C0C0AF1040ACFE74FEA9C427C32F3
:1048B0004FEAC20821E700BF032AC9B230B407D8C3
:1048C00022B10023C15401339342FBD130BC704765
:1048D00000EB020C034601E003F8011C03F00304A3
:1048E0001A460133002CF7D14FF00133C2EB0C0410
:1048F00003FB01F31FE042F8403C42F83C3C42F825
:10490000383C42F8343C42F8303C42F82C3C42F807
:10491000283C42F8243C42F8203C42F81C3C42F837
:10492000183C42F8143C42F8103C42F80C3C42F867
:10493000083C42F8043C154640323F2CA4F14004A8
:10494000D9DC2A46C5EB0C0407E042F8103C42F8DB
:104950000C3C42F8083C42F8043C154610320F2C3F
:10496000A4F11004F1DC2A46C5EB0C0501E042F885
:10497000043C14460432032DA5F10405F7DC01E0E4
:1049800004F8011B6445FBD3A0E700BF704700BFDC
:10499000704700BF0FB44AF62C63C2F2000310B593
:1049A0001C6882B024B1A36913B9204602F0ACFEA2
:1049B000204605AC049A23468168019400F042F831
:1049C00002B0BDE8104004B0704700BF0EB410B58F
:1049D000044683B018B183690BB902F095FE2046F6
:1049E00006AC059A23468168019400F02BF803B0C9
:1049F000BDE8104003B0704738B54BF2C054C2F266
:104A000000040546084600232360FDF7EBFAB0F1E9
:104A1000FF3F00D038BD2368002BFBD02B6038BD92
:104A20000846FDF729BB00BF936810B5144613B9BB
:104A30005360184610BD02F0CBFF00236360A360F3
:104A400010BD00BF2DE9F04FADF5AE6D83B00E4641
:104A500015469A46814603F0ABF900681D90B9F1FE
:104A6000000F04D0D9F81830002B00F05A814AF614
:104A70001843C2F200039E4208BFD9F8046010D068
:104A80004AF63843C2F200039E4208BFD9F80860D4
:104A900007D04AF65843C2F200039E4208BFD9F835
:104AA0000C60B6F80CC01FFA8CF313F4005F09D148
:104AB0004CF4005C726EA6F80CC01FFA8CF322F462
:104AC0000052726613F0080F01F001833269002A68
:104AD00001F0FD8203F01A030A2B00F0E0800022AF
:104AE00012921A9200231C920DF59C6411920434C8
:104AF00019920DF5A4621B9304320DF590632832D0
:104B00000333189207930023CDF84C45CDF8503568
:104B1000CDF854352B781A1E18BF0122252B0CBF57
:104B2000002202F0010232B32F4617F8013F1A1E8D
:104B300018BF0122252B0CBF002202F00102002A1F
:104B4000F3D1B7EB050808BF3D4614D0C4F8048084
:104B5000DDF85035DDF8542501332560072B42443C
:104B6000CDF85035CDF8542578DC083411983D4601
:104B7000404411903B78002B7CD06B1C4FF0FF37EA
:104B80002B204FF0200C00214FF000020F918DF8E8
:104B90007725CDF82CA06A780A915D1CA2F120033C
:104BA000582B00F28682DFE813F098028402840218
:104BB000A402840284028402840284028402AD027C
:104BC000BA028402C102CA028402E702F002F002C1
:104BD000F002F002F002F002F002F002F0028402B1
:104BE0008402840284028402840284028402840295
:104BF00084020403260384022603840284028402BE
:104C000084026A038402840281048402840284028E
:104C1000840284021404840284022F048402840225
:104C20008402840284028402840284028402840254
:104C30004F046504260326032603730365048402D8
:104C400084027903840285039603AD030A04840277
:104C5000CC038402F40384028402C0000DF5A86230
:104C6000484631460C32FFF7DFFE58B90DF59C641B
:104C700004347BE7DDF85435002B41F092810023AA
:104C8000CDF85035B38913F0400F02D04FF0FF300C
:104C9000119011985FB00DF5806DBDE8F08FB6F9F9
:104CA0000E30002BFFF61BAF376A2CF0020CD6F843
:104CB00028E00DF58E64ADF888C40C34B6F80EC04B
:104CC0002A465346484621461FADCDF89C7400271E
:104CD000CDF88C54CDF87C544FF48065CDF8A4E425
:104CE000ADF88AC4CDF89054CDF89474CDF88454BE
:104CF000FFF7A8FE0028119009DB2146484602F084
:104D000093FB1199B84218BF4FF0FF311191BDF8D4
:104D1000883413F0400FBCD0B38943F04003B38113
:104D2000B7E7484602F0F0FCA1E60A984AF6E83CEC
:104D3000C2F2000C169210F0200FCDF864C000F003
:104D40006E830B99CB1D23F0070303F108020B922E
:104D5000D3E900AB5AEA0B020A9B0CBF00220122E6
:104D6000134240F06B8602234FF000018DF8771557
:104D7000002FA2BFDDF828C02CF0800CCDF828C091
:104D8000002F18BF42F00102002A00F01E84012B00
:104D900000F0DE85022B00F0C185189913914FEACF
:104DA000DA084FEADB0C48EA4B780AF00700E346E2
:104DB000C24630305AEA0B0201F8010DEFD1DDF89E
:104DC00028C013911CF0010F40F08C861898401AEF
:104DD00010909DF87735109A1797BA42B8BF3A46A7
:104DE0000C9213B10C9A01320C920A9B0A9813F0A0
:104DF000020315931EBFDDF830C00CF1020CCDF894
:104E000030C010F0840014904DD10F990C9A8F1A75
:104E1000002F48DD102F4AF6A438D8BFC2F2000890
:104E200030DDC2F200080DF5A86B43464FF0100AC2
:104E3000A8460BF10C0B1D4602E0103F102F1EDDA3
:104E4000C4F804A0DDF85035DDF8542501332560A1
:104E50001032072BCDF8542504F10804CDF8503555
:104E6000EBDD0DF59C64484631465A460434FFF7A5
:104E7000DBFD00287FF406AF103F102FE0DC2B464F
:104E8000454698466760DDF85035C4F800805A1CE6
:104E9000DDF85435CDF85025DB19072ACDF8543507
:104EA00000F38A8508349DF877359BB10123636050
:104EB000DDF850350DF5AE6207322260DDF854257D
:104EC0000133CDF850350132072BCDF8542500F3CE
:104ED000B6840834159B9BB102236360DDF850351E
:104EE0000DF5AE6204322260DDF854250133CDF8B1
:104EF00050350232072BCDF8542500F3AF84083427
:104F0000DDF850C0BCF1800F00F07683179B109A3B
:104F10009F1A002F43DD102FDFF88C8B2EDD4346C8
:104F20000DF5A86BA8464FF0100A0BF10C0B1D46AF
:104F300002E0103F102F1EDDC4F804A0DDF850354C
:104F4000DDF85425013325601032072BCDF85425A8
:104F500004F10804CDF85035EBDD0DF59C644846AE
:104F600031465A460434FFF75FFD00287FF48AAECD
:104F7000103F102FE0DC2B46454698466760DDF871
:104F80005035DDF854250133C4F80080D219072BC1
:104F9000CDF85425CDF8503500F342840834DDF8BF
:104FA00028C01CF4807F40F09D82109813996060A7
:104FB000DDF85035DDF85425013321601218072B38
:104FC000CDF85035D8BF04F10803CDF8542500F3CF
:104FD0009B830A9911F0040F55D00F9ADDF830C069
:104FE000CCEB0207002F4EDD102F4AF6A438D8BFB5
:104FF000C2F200082EDDC2F200080DF5A86A424692
:105000001024A8460AF10C0A154602E0103F102FA2
:105010001DDD5C60DDF85025DDF8541501321D60A2
:105020001031072ACDF8541503F10803CDF85025A7
:10503000ECDD484631465246FFF7F6FC0DF59C6321
:10504000043300287FF41EAE103F102FE1DC2A4607
:10505000454690465F60DDF85025C3F80080DDF8D6
:1050600054350132CDF85025FB18072ACDF85435B8
:105070000BDD0DF5A862484631460C32FFF7D4FC33
:1050800000287FF4FFADDDF8543511980C9A0F9984
:105090008A42ACBF801840181190002B40F0428328
:1050A0000DF59C640023DDF82CA00434CDF85035B8
:1050B00030E51692002A3FF4DDAD0DF5A460012322
:1050C0004FF0000C04300C938DF824258DF877C533
:1050D000139010930021179187E69DF87735002BE8
:1050E00040F02B850B992B468DF877C52A780B91CC
:1050F00053E50B990A9B43F001030A932B462A7848
:105100000B914AE50B990B9A09680F91111D0F9BA2
:10511000002BC0F280872A782B460B913DE50B9936
:105120002B468DF877052A780B9136E50B990A9B6B
:1051300043F004030A932B462A780B912DE52B4666
:1051400013F8012B2A2A01F0CD80A2F130010929A0
:1051500001F237800235002715F8012C07EB87078D
:105160002B46013501EB4707A2F130010929F3D99C
:1051700047EAE7771D4611E50B992B460A9A42F05C
:1051800080020A922A780B9107E5A2F130014FF0D4
:1051900000082B4608EB880813F8012B01EB4808A0
:1051A000A2F130011D460929F3D9CDF83C801D46F6
:1051B000F4E40A9B169243F010030A93DDF828C02A
:1051C0001CF0200F00F05D810B98C31D23F0070336
:1051D00003F108010B91D3E900ABBAF1000F7BF1A9
:1051E0000002C0F29B845AEA0B034FF001030CBF8C
:1051F00000220122BCE50A98169210F0080F00F078
:10520000ED840B99CB1D23F0070303F108020B92E9
:10521000D3F80480D3F800A0CDF86C80CDF848A076
:105220005046414603F04AFE8346002800F0998527
:10523000504600220023414604F02EFE002840F094
:105240000B859DF877354AF6DC314AF6D832169848
:10525000C2F20001C2F200024FF0030C4728D8BF8F
:10526000114613910A99CDF830C021F08001CDF894
:1052700040C00A914FF0000CCDF85CC0B1E50B992D
:105280000A9B43F008030A932B462A780B9184E487
:105290000A9941F040010A910B993CE72A786C2A5F
:1052A00000F055850B990A9B0B9143F010030A936C
:1052B0002B4672E40A9A12F0200F00F082840B98B9
:1052C000119A036810464FEAE0710B9AC3E9000196
:1052D00002F1040A1EE416920A9A12F0200300F06A
:1052E000EF800B9BDA1D002322F0070202F1080C6D
:1052F000CDF82CC0D2E900AB5AEA0B000CBF00225B
:10530000012231E50B987821DDF828C01691036859
:105310004AF6E8308DF8751530218DF874154CF08B
:10532000020C0B991A1E18BF0122C2F200009A4605
:105330004FF0000B0431CDF828C0199002230B91D7
:1053400012E50B9B16924FF00002181D8DF8772581
:105350001B680B901393002B00F0C686002F139848
:10536000C0F28F8600213A4602F0C4FD03460028B1
:1053700000F0F58613981B1A1093BB4240F3BE85CC
:105380001097002127EAE7779DF877350C9717915A
:1053900027E5DDF828C016921CF0200F23D00B98CB
:1053A0000123C21D22F0070202F108010B91D2E98C
:1053B00000AB5AEA0B020CBF00220122D4E40A9986
:1053C0002B4641F020010A910B992A780B91FFF7A7
:1053D000E4BB0A9B169243F010030A93DDF828C041
:1053E0001CF0200FDBD10A9B13F0100F00F0D583C7
:1053F0000B980123021D0B9201680A1E18BF01229F
:105400008A464FF0000BAFE40A9816924AF6C4326F
:1054100010F0200FC2F2000219927FF492AC0A9BA6
:1054200013F0100F40F01A830A9A12F0400F00F0A8
:1054300015830B9B03F1040CCDF82CC0B3F800A02E
:10544000D2464FF0000B85E416920DF5A4610B9A3D
:105450004FF0010C4FF000000431CDF830C013685C
:1054600004328DF877050B921391CDF840C08DF87A
:1054700024352FE6DDF828C016921CF0200F7FF4AB
:10548000A3AE0A9A12F0100F40F0F1820A9A12F0BD
:10549000400F00F0EC820B9B03F1040CCDF82CC004
:1054A000B3F900A0D2464FEAEA7B96E60A99169233
:1054B00041F010010A910A9A12F020037FF411AF13
:1054C0000A9911F0100200F054830B9A02F1040CB7
:1054D000CDF82CC011680A1E18BF01228A464FF071
:1054E000000B41E4169A652A40F3288112980022A5
:1054F00000231B9904F0C6FC002800F0BE810123A4
:105500006360DDF850254AF60443C2F200032360CD
:10551000DDF854350132CDF850250133072ACDF896
:105520005435D8BF04F1080300F39B83DDF87025E0
:105530001A98824204DB0A9911F0010F3FF449AD39
:1055400001225A60DDF85025DDF8541501321D980E
:105550000131072ACDF854151860CDF8502500F315
:105560005F8508331A994F1E002F7FF732AD102F39
:10557000DFF8348540F3EA8242460DF5A86AA84672
:1055800010240AF10C0A154603E0103F102F40F3D7
:10559000DA825C60DDF85025DDF8541501321D60BB
:1055A0001031072ACDF8541503F10803CDF8502522
:1055B000EBDD484631465246FFF736FA0DF59C635F
:1055C00004330028E1D0FFF75DBB7BB90A9911F0E5
:1055D000010F0BD00DF5A462302304328DF84B354A
:1055E0002732012313921093FFF7F3BB1898002181
:1055F00010911390FFF7EDBB0F980C99471A002FED
:105600007FF784AC102FDFF8A0842EDD43460DF524
:10561000A86BA8464FF0100A0BF10C0B1D4602E0D8
:10562000103F102F1EDDC4F804A0DDF85035DDF862
:105630005425013325601032072BCDF8542504F191
:105640000804CDF85035EBDD0DF59C644846314635
:105650005A460434FFF7E8F900287FF413AB103FF3
:10566000102FE0DC2B46454698466760DDF8503544
:10567000C4F800805A1CDDF85435CDF85025DB19EC
:10568000072ACDF8543500F33A8208343EE41399E2
:105690006360DDF850252160DDF854150132CDF846
:1056A0005025CB18072ACDF8543500F34985083426
:1056B0001D9A0123DDF870756360DDF850352260B6
:1056C000DDF854250133CDF850350132072BCDF8E4
:1056D0005425D8BF04F1080300F323851398DDF89F
:1056E0007025C7191A981F60811A5960DDF8541582
:1056F0008A1ADDF850151218CDF854250131CDF86D
:105700005015072940F332820DF5A862484631460C
:105710000C32FFF789F900287FF4B4AA0DF59C63D9
:10572000043356E40DF5A862484631460C32FFF7C3
:105730007BF900283FF4B4ACFFF7A4BA1A99012909
:105740004CDD01236360DDF85035DDF8542501336D
:1057500013980132072BCDF854252060CDF8503531
:1057600000F3B281083401236360DDF85035DDF8C1
:10577000542501331D990132072BCDF854252160A2
:10578000CDF8503500F3928108341298002200239E
:105790001B9904F077FB002840F01D811A9B139899
:1057A0005A1E6260DDF85035411C2160DDF8541549
:1057B0000133CDF850358A18072BCDF8542521DC5C
:1057C00008341C9B0DF5AC621C9822606360DDF808
:1057D0005035DDF854250133FFF7F0BB0A9A12F07B
:1057E000010FAED1139A01236360DDF850352260BA
:1057F000DDF854250133CDF850350132072BCDF8B3
:105800005425DDDD0DF5A862484631460C32FFF720
:105810000BF900287FF436AA0DF59C640434D0E718
:105820000DF5A862484631460C32FFF7FDF8002816
:105830007FF428AA0DF59C640434FFF7B0BB0DF586
:10584000A862484631460C32FFF7EEF800287FF494
:1058500019AA0DF59C640434FFF73CBB0DF5A86252
:10586000484631460C32FFF7DFF800287FF40AAAD9
:105870000DF59C640434FFF743BBDDF87035002B55
:1058800040F3FD811A998B42FFF601AF139A6160D4
:10589000DDF850352260DDF854250133CDF8503560
:1058A0005218072BCDF85425D8BF04F1080300F394
:1058B0002984DDF870451A98241A002C40F3B3812E
:1058C000102CDFF8E48140F39D8142460DF5A86A73
:1058D000A84610270AF10C0A154603E0103C102CCC
:1058E00040F38D815F60DDF85025DDF854150132FD
:1058F0001D601031072ACDF8541503F10803CDF8C7
:105900005025EBDD484631465246FFF78DF80DF540
:105910009C6304330028E1D0FFF7B4B9189A1998B2
:10592000134613920AF00F024FEA1A1141EA0B7163
:105930004FEA1B1C825C8A46E3465AEA0B0C03F8CA
:10594000012DEFD118981393C01A1090FFF741BAA8
:1059500009220023524573EB0B00DDF860801FD253
:1059600023464446B8461F46504659460A2200235D
:1059700004F0E2FA00235046594602F1300C0A22A4
:1059800004F801CD04F0D8FA0922002382468B46A0
:10599000524573EB0B03E7D33B464746A0461C46F4
:1059A00008F1FF300AF1300A139008F801AC189999
:1059B000091A1091FFF70DBA0DF5A8624846314655
:1059C0000C32FFF731F800287FF45CA90DF59C64D8
:1059D0000434FFF768BA1A994F1E002F7FF7F1AE13
:1059E000102FDFF8C4804EDD43460DF5A86BA846A6
:1059F0004FF0100A0BF10C0B1D4602E0103F102F68
:105A00003EDDC4F804A0DDF85035DDF8542501333F
:105A100025601032072BCDF8542504F10804CDF889
:105A20005035EBDD0DF59C64484631465A4604344A
:105A3000FEF7FAFF0028E1D0FFF724B916983021CD
:105A4000DDF828C0012202238DF874154CF0020CF9
:105A50008DF87505CDF828C0FFF786B90B98011DA4
:105A600003680B919A464FF0000BFFF773B90B9840
:105A7000011D03680B919A464FEAEA7BFFF7ADBB25
:105A80002B46454698466760DDF85035DDF85425CD
:105A90000133C4F80080D219072BCDF85425CDF876
:105AA00050357FF78DAEADE6B4AB00200DF5A862A2
:105AB000484631460C32FEF7B7FF00287FF4E2A8D3
:105AC0000DF59C64043460E60DF5A8624846314645
:105AD0000C32FEF7A9FF00287FF4D4A80DF59C64D2
