S0260000746F7563685F73637265656E5F4D53535F4D53535F434D335F305F6170702E7372656307
S315200000000000012099020020090300200B03002094
S315200000100D0300200F030020110300200000000024
S315200000200000000000000000000000001303002074
S3152000003015030020000000001703002019030020EC
S315200000401B0300201D0300201F0300202103002086
S315200000502303002025030020270300202903002056
S315200000602B0300202D030020211500204D150020F4
S315200000709D200020C92000203703002039030020BE
S315200000803B0300203D0300203F03002041030020C6
S315200000904303002045030020470300204903002096
S315200000A04B030020000000000000000000000000BC
S315200000B00000000000000000000000004D030020AA
S315200000C04F03002051030020530300205503002036
S315200000D057030020590300205B0300205D03002006
S315200000E05F030020610300206303002065030020D6
S315200000F067030020690300206B0300206D030020A6
S315200001006F03002071030020730300207503002075
S3152000011077030020790300207B0300207D03002045
S315200001207F03002081030020830300208503002015
S3152000013087030020890300208B0300208D030020E5
S315200001408F030020910300209303002095030020B5
S3152000015097030020990300209B0300209D03002085
S315200001609F030020A1030020A3030020A503002055
S31520000170A7030020A9030020AB030020AD03002025
S31520000180AF030020B1030020B3030020B5030020F5
S31520000190B7030020B9030020BB030020BD030020C5
S315200001A0BF030020C1030020C3030020C503002095
S315200001B0C7030020C9030020CB030020CD03002065
S315200001C0CF030020D1030020D3030020D503002035
S315200001D0D7030020D9030020DB030020DD03002005
S315200001E0DF030020E1030020E3030020E5030020D5
S315200001F0E7030020E9030020EB030020ED030020A5
S31520000200EF030020F1030020F3030020F503002074
S31520000210F7030020F9030020FB030020FD03002044
S31520000220FF03002001040020030400200504002011
S3152000023007040020090400200B0400200D040020E0
S315200002400F040020110400201304002015040020B0
S3152000025017040020190400201B0400201D04002080
S315200002601F04002021040020230400202504002050
S3152000027027040020290400202B0400202D04002020
S315200002802F040020310400203304002035040020F0
S315200002903704002039040020684880476848002831
S315200002A00BD168486849694A884206D091421CBFEA
S315200002B050F8043B41F8043BF8D165486549664A45
S315200002C0884206D091421CBF50F8043B41F8043BBB
S315200002D0F8D162486249634A914218BF41F8040B3B
S315200002E0FAD100000000000000000000000000001D
S315200002F0DFF874010FF2030E00474FF000004FF0B5
S315200003000001DFF868F1FEE7FEE7FEE7FEE7FEE71D
S31520000310FEE7FEE7FEE7FEE7FEE7FEE7FEE7FEE78F
S31520000320FEE7FEE7FEE7FEE7FEE7FEE7FEE7FEE77F
S31520000330FEE7FEE7FEE7FEE7FEE7FEE7FEE7FEE76F
S31520000340FEE7FEE7FEE7FEE7FEE7FEE7FEE7FEE75F
S31520000350FEE7FEE7FEE7FEE7FEE7FEE7FEE7FEE74F
S31520000360FEE7FEE7FEE7FEE7FEE7FEE7FEE7FEE73F
S31520000370FEE7FEE7FEE7FEE7FEE7FEE7FEE7FEE72F
S31520000380FEE7FEE7FEE7FEE7FEE7FEE7FEE7FEE71F
S31520000390FEE7FEE7FEE7FEE7FEE7FEE7FEE7FEE70F
S315200003A0FEE7FEE7FEE7FEE7FEE7FEE7FEE7FEE7FF
S315200003B0FEE7FEE7FEE7FEE7FEE7FEE7FEE7FEE7EF
S315200003C0FEE7FEE7FEE7FEE7FEE7FEE7FEE7FEE7DF
S315200003D0FEE7FEE7FEE7FEE7FEE7FEE7FEE7FEE7CF
S315200003E0FEE7FEE7FEE7FEE7FEE7FEE7FEE7FEE7BF
S315200003F0FEE7FEE7FEE7FEE7FEE7FEE7FEE7FEE7AF
S31520000400FEE7FEE7FEE7FEE7FEE7FEE7FEE7FEE79E
S31520000410FEE7FEE7FEE7FEE7FEE7FEE7FEE7FEE78E
S31520000420FEE7FEE7FEE7FEE7FEE7FEE7FEE7FEE77E
S31520000430FEE7FEE7FEE7FEE7FEE70000F5200020E8
S31520000440000000000000002000000020B0890020ED
S31520000450B0890020B0890020D08E00200000000046
S31520000460D08E00207090002065230020250C0020CF
S3152000047048F6D063C2F200031A780AB90120187030
S31520000480704700BF48F6B010C2F2000008B50368F6
S315200004902BB140F20003C0F2000303B1984708BD18
S315200004A080B584B002AF78600B467B807B689B88E2
S315200004B07A68D2881BB212B200927A880192786842
S315200004C04FF000014FF0000200F092FB07F1080701
S315200004D0BD4680BD80B586B002AFF86079813A818D
S315200004E0FB80B7F90A10B7F90820B7F90630B88BA0
S315200004F00090F86800F062FB3A893B8B13449BB26C
S3152000050003F1FF339BB2B7F90A101AB2B7F90630D6
S31520000510B88B0090F86800F051FBB7F90A10B7F9CC
S315200005200820B7F91830B88B0090F86800F02AFB3D
S315200005307A89FB8813449BB203F1FF339BB219B22D
S31520000540B7F90820B7F91830B88B0090F86800F092
S3152000055019FB07F11007BD4680BD00BF80B483B0EC
S3152000056000AF78607B689B881BB2184607F10C07A2
S31520000570BD4680BC704700BF80B483B000AF7860B2
S315200005807B68DB881BB2184607F10C07BD4680BC8A
S31520000590704700BF80B586B000AF78604FF000038B
S315200005A0FB6001F0C9FE03467B617B693B6103E08A
S315200005B001F0C2FE03463B613A697B69C3EB020246
S315200005C0FB689A42F4D307F11807BD4680BD00BFE9
S315200005D080B582B000AF0346FB71FB7948F66470A4
S315200005E0C2F20000194601F0F9F907F10807BD46E5
S315200005F080BD00BF80B582B000AF0346FB714FF0CF
S315200006000000FFF7E5FFFB7948F66470C2F20000B0
S31520000610194601F0AFFA4FF0000000F005F807F197
S315200006200807BD4680BD00BF80B582B000AF034637
S31520000630FB71FB7948F66470C2F20000194601F09E
S3152000064051FA07F10807BD4680BD00BF80B582B0CC
S3152000065000AF0346FB714FF00100FFF7B9FFFB79AE
S315200006601846FFF7C7FF4FF00100FFF7DDFF07F140
S315200006700807BD4680BD00BF80B582B000AF786058
S315200006804FF0EF00FFF7E2FF4FF00300FFF7B2FF56
S315200006904FF08000FFF7AEFF4FF00200FFF7AAFFF2
S315200006A04FF0CF00FFF7D2FF4FF00000FFF7A2FF79
S315200006B04FF0C100FFF79EFF4FF03000FFF79AFF83
S315200006C04FF0ED00FFF7C2FF4FF06400FFF792FFF7
S315200006D04FF00300FFF78EFF4FF01200FFF78AFF5F
S315200006E04FF08100FFF786FF4FF0E800FFF7AEFFDF
S315200006F04FF08500FFF77EFF4FF00000FFF77AFFEF
S315200007004FF07800FFF776FF4FF0CB00FFF79EFF04
S315200007104FF03900FFF76EFF4FF02C00FFF76AFF0E
S315200007204FF00000FFF766FF4FF03400FFF762FF3F
S315200007304FF00200FFF75EFF4FF0F700FFF786FF4E
S315200007404FF02000FFF756FF4FF0EA00FFF77EFF3D
S315200007504FF00000FFF74EFF4FF00000FFF74AFF73
S315200007604FF0C000FFF772FF4FF02300FFF742FF64
S315200007704FF0C100FFF76AFF4FF01000FFF73AFF76
S315200007804FF0C500FFF762FF4FF03E00FFF732FF44
S315200007904FF02800FFF72EFF4FF0C700FFF756FF58
S315200007A04FF08600FFF726FF4FF03600FFF74EFF8B
S315200007B04FF04800FFF71EFF4FF03700FFF746FFC8
S315200007C04FF00000FFF716FF4FF00000FFF712FF73
S315200007D04FF03A00FFF73AFF4FF05500FFF70AFFB8
S315200007E04FF0B100FFF732FF4FF00000FFF702FF96
S315200007F04FF01800FFF7FEFE4FF0B600FFF726FF7A
S315200008004FF00800FFF7F6FE4FF08200FFF7F2FEEA
S315200008104FF02700FFF7EEFE4FF0F200FFF716FF2E
S315200008204FF00000FFF7E6FE4FF02600FFF70EFF21
S315200008304FF00100FFF7DEFE4FF0E000FFF706FF66
S315200008404FF00F00FFF7D6FE4FF03100FFF7D2FE34
S315200008504FF02B00FFF7CEFE4FF00C00FFF7CAFE3D
S315200008604FF00E00FFF7C6FE4FF00800FFF7C2FE5E
S315200008704FF04E00FFF7BEFE4FF0F100FFF7BAFE35
S315200008804FF03700FFF7B6FE4FF00700FFF7B2FE36
S315200008904FF01000FFF7AEFE4FF00300FFF7AAFE61
S315200008A04FF00E00FFF7A6FE4FF00900FFF7A2FE5D
S315200008B04FF00000FFF79EFE4FF0E100FFF7C6FE67
S315200008C04FF00000FFF796FE4FF00E00FFF792FE66
S315200008D04FF01400FFF78EFE4FF00300FFF78AFE5D
S315200008E04FF01100FFF786FE4FF00700FFF782FE5C
S315200008F04FF03100FFF77EFE4FF0C100FFF77AFE82
S315200009004FF04800FFF776FE4FF00800FFF772FE23
S315200009104FF00F00FFF76EFE4FF00C00FFF76AFE58
S315200009204FF03100FFF766FE4FF03600FFF762FE0C
S315200009304FF00F00FFF75EFE4FF01100FFF786FE27
S315200009404FF07800FFF726FE4FF02900FFF77EFED6
S315200009504FF07800FFF71EFE7B684FF0F0029A807A
S315200009607B684FF4A072DA8007F10807BD4680BD88
S3152000097080B584B000AFF880B9807A803B80FB8850
S315200009804FEA0342F9887B880B4403F1FF3342EA9E
S315200009900303BB60BB884FEA0342B9883B880B44FC
S315200009A003F1FF3342EA0303FB604FF02A00FFF70F
S315200009B04DFEBB684FEA1363DBB21846FFF71AFEFB
S315200009C0BB684FEA1343DBB21846FFF713FEBB683A
S315200009D04FEA1323DBB21846FFF70CFEBB68DBB2E7
S315200009E01846FFF707FE4FF02B00FFF72FFEFB6898
S315200009F04FEA1363DBB21846FFF7FCFDFB684FEAAC
S31520000A001343DBB21846FFF7F5FDFB684FEA1323C5
S31520000A10DBB21846FFF7EEFDFB68DBB21846FFF7A0
S31520000A20E9FD4FF02C00FFF711FE07F11007BD4638
S31520000A3080BD00BF80B586B000AFF8600B467A60F7
S31520000A407B817B894FEA13239BB2BB757B89FB7520
S31520000A507B683B610BE0BB7D1846FFF7CBFDFB7D3A
S31520000A601846FFF7C7FD3B6903F1FF333B613B693E
S31520000A70002BF0D107F11807BD4680BD80B586B0A2
S31520000A8000AFF86079813A81FB80FB689B88B7F9D3
S31520000A900A201BB29A4269DAFB68DB88B7F908207C
S31520000AA01BB29A4264DA7A89FB8813449BB203F11B
S31520000AB0FF339BB23B823A893B8C13449BB203F1B2
S31520000AC0FF339BB27B82B7F91030002B52DBB7F98C
S31520000AD01230002B50DBB7F90A30002B07DA4FF023
S31520000AE000037B813B8A03F101039BB2FB80B7F9AC
S31520000AF00830002B07DA4FF000033B817B8A03F195
S31520000B0001039BB23B84FB689B88B7F910201BB27C
S31520000B109A4207DBFB689B889AB27B89C3EB020368
S31520000B209BB2FB80FB68DB88B7F912201BB29A4286
S31520000B3007DBFB68DB889AB23B89C3EB02039BB2D7
S31520000B403B84B7F90630B7F9202002FB03F37B611B
S31520000B5078893989FA883B8CFFF70AFF7B69BA8C3A
S31520000B60F86811461A46FFF765FF06E000BF04E065
S31520000B7000BF02E000BF00E000BF07F11807BD4636
S31520000B8080BD00BF80B586B002AFF86079813A811A
S31520000B90FB80B7F90A20B7F90830B7F9061000919B
S31520000BA0398B0191F86811461A464FF00103FFF779
S31520000BB065FF07F11007BD4680BD00BF80B586B032
S31520000BC002AFF86079813A81FB80B7F90A10B7F94C
S31520000BD00820B7F906304FF001000090388B0190BD
S31520000BE0F868FFF74BFF07F11007BD4680BD00BF31
S31520000BF080B586B002AFF86079813A81FB80B7F97B
S31520000C000A10B7F90820B7F90630B7F9180000908E
S31520000C10B88B0190F868FFF731FF07F11007BD4642
S31520000C2080BD00BF80B582B002AF4FF0200001F03A
S31520000C30C9FB03461A4648F61073C2F200031A602F
S31520000C4048F61073C2F200031B684FF4A0725A8054
S31520000C5048F61073C2F200031B684FF0F0021A80A8
S31520000C6048F66470C2F2000000F0DEFC4FF0080384
S31520000C70009348F66470C2F200004FF000014FF076
S31520000C8000024FF0070300F019FE4FF0080300930F
S31520000C9048F66470C2F200004FF001014FF00002E6
S31520000CA04FF0070300F00AFE48F61073C2F2000365
S31520000CB01B68184600F09CF8FEE700BF90B58BB085
S31520000CC002AF786013460A467A803B807868FFF741
S31520000CD045FC03469BB21BB24FEAD37213444FEA3C
S31520000CE063039BB21BB203F1FF33BB617868FFF746
S31520000CF043FC03469BB21BB24FEAD37213444FEA1E
S31520000D0063039BB21BB203F1FF33FB6178684FF09C
S31520000D100001FFF7C5FB7868FFF720FC03469CB26D
S31520000D207868FFF729FC03469BB222B21BB29A428F
S31520000D3006DA7868FFF712FC03469BB21BB205E081
S31520000D407868FFF719FC03469BB21BB2FB60FB6871
S31520000D503B6146E03B694FEAD37213444FEA630393
S31520000D607B61BB699AB27B699BB2C3EB02039BB2E0
S31520000D701946FB699AB27B699BB2C3EB02039BB20D
S31520000D801A463B699BB2386980B209B212B21BB2CD
S31520000D9000B20090788801907868FFF729FFBB6938
S31520000DA09AB27B699BB2C3EB02039BB21946FB69DD
S31520000DB09AB27B699BB2C3EB02039BB21A463B698C
S31520000DC09BB2386980B209B212B21BB200B200904F
S31520000DD0388801907868FFF77DFB3B69A3F106030D
S31520000DE03B613B69002BB5DC07F12407BD4690BD6E
S31520000DF080B582B000AF786048F2E060C2F20000B1
S31520000E0001F028FE7868FFF737FC48F2F060C2F25E
S31520000E10000001F01FFE78684FF6E0714FF61F02C2
S31520000E20FFF74CFF48F20C70C2F2000001F012FEF0
S31520000E3007F10807BD4680BD80B483B000AF786057
S31520000E404FF0FF33184607F10C07BD4680BC7047AC
S31520000E5080B483B000AF7860FEE700BF80B483B073
S31520000E6000AF786039603B684FF400525A604FF00B
S31520000E700003184607F10C07BD4680BC704700BF2B
S31520000E8080B483B000AF78604FF00103184607F1B5
S31520000E900C07BD4680BC704780B485B000AFF860B3
S31520000EA0B9607A604FF00003184607F11407BD4673
S31520000EB080BC704780B485B000AFF860B9607A60B6
S31520000EC04FF00003184607F11407BD4680BC704753
S31520000ED080B584B000AFF860B9607A603B6048F6B0
S31520000EE0D463C2F200031B68002B10D148F63C7075
S31520000EF0C2F200004FF461414FF0030200F08AF87D
S31520000F0048F6D463C2F200034FF001021A603B6830
S31520000F1048F63C70C2F2000079681A4600F07CF967
S31520000F203B68184607F11007BD4680BD80B584B0E2
S31520000F3000AF786048F6D863C2F200031B68002B26
S31520000F4008D148F6D863C2F2000349F27002C2F211
S31520000F5000021A6048F6D863C2F200031B68BB6021
S31520000F60EFF30883FB6048F6D863C2F200031A68E1
S31520000F707B681A44FB689A420FD94FF000004FF065
S31520000F80010148F21472C2F200024FF01903FFF772
S31520000F909FFF4FF00100FFF75BFF48F6D863C2F2D0
S31520000FA000031A687B681A4448F6D863C2F2000325
S31520000FB01A60BB68184607F11007BD4680BD00BF02
S31520000FC080B483B000AF78604FF0FF33184607F146
S31520000FD00C07BD4680BC704780B483B000AF034683
S31520000FE0FB804EF20013CEF20003B7F906204FEA3B
S31520000FF05212F98801F01F014FF0010000FA01F1A9
S3152000100002F1600243F8221007F10C07BD4680BCAE
S31520001010704700BF80B588B000AFF860B96013464E
S31520001020FB714FF00103FB824FF00003BB61FA68AE
S3152000103048F63C73C2F200039A4207D0FA6848F693
S315200010401473C2F200039A4200D000BEBB68002B84
S3152000105000D100BE01F054F8FA6848F63C73C2F29B
S3152000106000039A422ED1FB684FF080421A60FB683B
S315200010704FF084425A60FB684FF00A021A8148F604
S31520001080BC13C2F200031B68BB6142F20003CEF21E
S31520001090040342F20002CEF20402126B42F08002F6
S315200010A01A634FF00A00FFF797FF42F20003CEF2D1
S315200010B0040342F20002CEF20402126B22F08002F6
S315200010C01A6331E0FA6840F20003C4F201031360A8
S315200010D0FA6840F20003C4F220235360FB684FF005
S315200010E00B021A8148F6C013C2F200031B68BB61CB
S315200010F042F20003CEF2040342F20002CEF20402D0
S31520001100126B42F480721A634FF00B00FFF764FFF4
S3152000111042F20003CEF2040342F20002CEF20402AF
S31520001120126B22F480721A63FB681B684FF0000270
S315200011301A71BB68002B21D0BA69BB68B2FBF3F3E6
S31520001140FB61FB6903F00803002B06D0FB694FEA1D
S31520001150131303F10103FB6103E0FB694FEA131349
S31520001160FB61FA694FF6FF739A4200D900BEFA690D
S315200011704FF6FF739A4201D8FB69FB82FB685B68D6
S315200011804FF00102C3F89C21FB681B68FA8A4FEADC
S31520001190122292B2D2B21A71FB681B68FA8AD2B2B4
S315200011A01A70FB685B684FF00002C3F89C21FB684D
S315200011B01B68FA791A73FB681B684FF00E021A72C5
S315200011C0FB685B684FF00002C3F81022FB684FF003
S315200011D000021A61FB684FF00002DA60FB684FF0EC
S315200011E000025A61FB684FF00002DA61FA6841F2A8
S315200011F01943C2F200031362FB684FF000029A61A2
S31520001200FB684FF000025A62FB684FF000029A72A8
S3152000121007F12007BD4680BD80B489B000AFF860D5
S31520001220B9607A604FF000033B61FA6848F63C7378
S31520001230C2F200039A4207D0FA6848F61473C2F243
S3152000124000039A4200D000BEBB68002B00D100BE2E
S315200012507B68002B00D100BEFA6848F63C73C2F2C8
S3152000126000039A4206D0FA6848F61473C2F20003C5
S315200012709A423DD1BB68002B3AD07B68002B37D0F1
S31520001280FB681B681B7DFB76FB689A7AFB7E42EA2D
S315200012900303DAB2FB689A72FB7E03F02003002B6D
S315200012A023D04FF01003FB617B680F2B01D87B689E
S315200012B0FB614FF000037B610EE0FB681B68B96899
S315200012C03A690A4412781A703B6903F101033B61BB
S315200012D07B6903F101037B617A69FB699A42ECD34E
S315200012E07A687B69C3EB02037B607B68002BC7D1DE
S315200012F007F12407BD4680BC704700BF80B584B087
S3152000130000AF78607A6848F63C73C2F200039A42CE
S3152000131007D07A6848F61473C2F200039A4200D0C6
S3152000132000BE7A6848F63C73C2F200039A4206D0A1
S315200013307A6848F61473C2F200039A4267D17B6832
S315200013401B681B7ADBB203F00F03FB73FB7B0C2BB2
S3152000135054D801A252F823F08D130020FD1300204B
S31520001360A9130020FD130020C5130020FD13002023
S31520001370E1130020FD130020FD130020FD130020A3
S31520001380FD130020FD130020C51300207B685B6A37
S31520001390002B00D100BE7B685B6A002B30D07B68B7
S315200013A05B6A7868984732E07B681B6A002B00D11D
S315200013B000BE7B681B6A002B24D07B681B6A78687A
S315200013C0984724E07B68DB69002B00D100BE7B6850
S315200013D0DB69002B18D07B68DB697868984716E0B4
S315200013E07B689B69002B00D100BE7B689B69002B24
S315200013F00CD07B689B697868984708E000BE06E0B9
S3152000140000BF04E000BF02E000BF00E000BF07F11C
S315200014101007BD4680BD00BF80B487B000AF78609E
S315200014207A6848F63C73C2F200039A4207D07A687B
S3152000143048F61473C2F200039A4200D000BE7B68BD
S31520001440DB68002B00D100BE7B681B69002B00D116
S3152000145000BE7A6848F63C73C2F200039A4206D070
S315200014607A6848F61473C2F200039A4252D17B6816
S31520001470DB68002B4ED07B681B69002B4AD07B682B
S315200014801B681B7DFB727B689A7AFB7A42EA030310
S31520001490DAB27B689A72FB7A03F02003002B29D0FC
S315200014A04FF010033B617B681A697B685B69C3EB6D
S315200014B002037B617B690F2B01D87B693B614FF06F
S315200014C00003FB6012E07B681B687A68D1687A6843
S315200014D052690A4412781A707B685B6903F101022B
S315200014E07B685A61FB6803F10103FB60FA683B697C
S315200014F09A42E8D37B685A697B681B699A4209D16C
S315200015007B684FF000021A617B685B684FF000022F
S31520001510C3F8842007F11C07BD4680BC704700BF76
S31520001520684620F007018D4689B500AF48F63C7025
S31520001530C2F20000FFF7E2FE4FF00A00FFF74CFD73
S31520001540BD46BDE889408546704700BF684620F005
S3152000155007018D4689B500AF48F61470C2F2000027
S31520001560FFF7CCFE4FF00B00FFF736FDBD46BDE87A
S3152000157089408546704700BF80B483B000AF0346DC
S31520001580FB804EF20013CEF20003B7F906204FEA95
S315200015905212F98801F01F014FF0010000FA01F103
S315200015A043F8221007F10C07BD4680BC704700BFE8
S315200015B080B483B000AF0346FB804EF20013CEF218
S315200015C00003B7F906204FEA5212F98801F01F01ED
S315200015D04FF0010000FA01F102F1200243F8221037
S315200015E007F10C07BD4680BC704700BF80B483B0AE
S315200015F000AF0346FB804EF20013CEF20003B7F98C
S3152000160006204FEA5212F98801F01F014FF001001F
S3152000161000FA01F102F1600243F8221007F10C07EB
S31520001620BD4680BC704700BF80B584B000AF7860EF
S315200016307A6848F6E873C2F200039A4207D07A68BD
S3152000164048F66473C2F200039A4200D000BE7B685B
S315200016509B881BB21846FFF7ABFF78684FF0000156
S315200016604FF0840201F088F97B684FF001025A623C
S315200016704FF00003FB810DE0FB897A6803F1060336
S315200016804FEAC30313444FF0FF325A60FB8903F13C
S315200016900103FB81FB89072BEED97A6848F6E873AC
S315200016A0C2F200039A4226D17A6841F20003C4F2BC
S315200016B0000313607B684FF00C029A8042F200030D
S315200016C0CEF2040342F20002CEF20402126B42F47E
S315200016D000721A634FF00C00FFF788FF42F20003F6
S315200016E0CEF2040342F20002CEF20402126B22F47E
S315200016F000721A6325E07A6841F20003C4F20103FE
S3152000170013607B684FF00D029A8042F20003CEF2FE
S31520001710040342F20002CEF20402126B42F480620B
S315200017201A634FF00D00FFF761FF42F20003CEF27D
S31520001730040342F20002CEF20402126B22F480620B
S315200017401A637B681B687A681268126822F0004266
S315200017501A6007F11007BD4680BD00BF80B58AB06C
S3152000176000AF78607B681B681B68FB607B681B6822
S315200017709B693B617B681B685B687B617B681B6838
S315200017809B6ABB617B681B681B6BFB617B681B6864
S315200017905B6B3B627B681B68DB697B627A6848F619
S315200017A0E873C2F200039A422ED17A6841F200030E
S315200017B0C4F2000313607B684FF00C029A8042F259
S315200017C00003CEF2040342F20002CEF20402126BB0
S315200017D042F400721A634FF00C00FFF707FF42F243
S315200017E00003CEF2040342F20002CEF20402126B90
S315200017F022F400721A637B681B687A681268126882
S3152000180022F000421A602DE07A6841F20003C4F209
S31520001810010313607B684FF00D029A8042F20003A9
S31520001820CEF2040342F20002CEF20402126B42F41C
S3152000183080621A634FF00D00FFF7D8FE42F20003D4
S31520001840CEF2040342F20002CEF20402126B22F41C
S3152000185080621A637B681B687A681268126822F0B5
S3152000186000421A60FB6823F00103FB607B681B685B
S31520001870FA681A607B681B683A699A617B681B68FC
S315200018807A695A607B681B687A681268126842F027
S3152000189001021A607B681B68BA699A627B681B68BA
S315200018A0FA691A637B681B683A6A5A637B681B6805
S315200018B07A6ADA6107F12807BD4680BD80B584B013
S315200018C000AFF8607A600A46FA72FB70FA6848F64A
S315200018D0E873C2F200039A4207D0FA6848F66473A6
S315200018E0C2F200039A4200D000BEFB7A072B00D931
S315200018F000BE3B7E202B00D900BEFB689B881BB216
S315200019001846FFF755FEFB684FF0000283F880204B
S31520001910FB681B68FA681268126822F001021A60D6
S31520001920FB681B68FA681268126842F002021A60A5
S31520001930FB681B68FA681268126842F001021A6096
S31520001940FB7A072B3FD87B68002B0BD07B68B3F143
S31520001950007F07D07B68B3F1807F03D07B68B3F12B
S31520001960407F0FD1FA7A796840F20213C2F200431F
S3152000197041EA0303F96802F106024FEAC2020A4469
S3152000198053600EE0FA7A796840F20213C2F200033D
S3152000199041EA0303F96802F106024FEAC2020A4449
S315200019A05360FB7AFA6803F106034FEAC303134434
S315200019B03A7E1A72FB7AFA6803F106034FEAC303EA
S315200019C01344FA785A72FB689B881BB21846FFF7B5
S315200019D0D3FD07F11007BD4680BD00BF80B584B09A
S315200019E000AF78600B46FB707A6848F6E873C2F25F
S315200019F000039A4207D07A6848F66473C2F200035D
S31520001A009A4200D000BE7B681B681B6803F0020365
S31520001A10002B00D100BEFB787A6803F106034FEA5B
S31520001A20C30313445B68B3F1FF3F00D100BE7B685C
S31520001A309B881BB21846FFF7BBFD7B681B689B681B
S31520001A4003F00403FB60FB68002B02D07868FFF7E5
S31520001A5085FE7B681B687A681268126822F001028C
S31520001A601A607B681A68FB78796803F106034FEAE7
S31520001A70C3030B445B6813607B681A68FB7879683C
S31520001A8003F106034FEAC3030B445B7A93617B6839
S31520001A901A68FB78796803F106034FEAC3030B44FF
S31520001AA01B7A53607B681B687A681268126842F05A
S31520001AB001021A607B681B687A681268D169FA7815
S31520001AC04FF0010000FA02F241EA0202DA617B6875
S31520001AD09B881BB21846FFF74FFD07F11007BD463E
S31520001AE080BD00BF80B584B000AF78600B46FB7028
S31520001AF07A6848F6E873C2F200039A4207D07A68F9
S31520001B0048F66473C2F200039A4200D000BE7B6896
S31520001B101B681B6803F00203002B00D100BE7B6804
S31520001B209B881BB21846FFF743FD7B681B689B68A2
S31520001B3003F00403FB60FB68002B02D07868FFF7F4
S31520001B400DFE7B681B687A681268D169FA784FF0B7
S31520001B50010000FA02F26FEA020201EA0202DA61E9
S31520001B607B689B881BB21846FFF706FD07F1100716
S31520001B70BD4680BD80B487B000AF786039607A6892
S31520001B8048F6E873C2F200039A4207D07A6848F60C
S31520001B906473C2F200039A4200D000BE7B681B68C1
S31520001BA01B6803F00203002B00D100BE7B681A6875
S31520001BB07B681B68196840F2FF03CFF6007301EAC1
S31520001BC0030343F4807313607B681B687A6812688A
S31520001BD0D26A42F00C02DA627B681B689B6803F0CB
S31520001BE04003FB600BE07B681B681B69BB60BB681E
S31520001BF0BB607B681B689B6803F04003FB60FB6847
S31520001C00002BF0D07B681B683A685A617B681B689A
S31520001C109B6803F001037B6105E07B681B689B687A
S31520001C2003F001037B617B69002BF6D07B681B6880
S31520001C309B6803F002033B6105E07B681B689B6899
S31520001C4003F002033B613B69002BF6D07B681B68DF
S31520001C501B69184607F11C07BD4680BC704700BFAC
S31520001C6080B485B000AF78604FF00003FB600EE0D3
S31520001C707B681B687A6891687A6812690A441278C8
S31520001C805A617B681B6903F101027B681A617B68D4
S31520001C901B689B6803F48073002B05D17B681A6947
S31520001CA07B68DB689A42E3D37B681A697B68DB68CA
S31520001CB09A421CD30EE07B681B687A6851697A6861
S31520001CC0D2690A4412785A617B68DB6903F1010202
S31520001CD07B68DA617B681B689B6803F48073002B42
S31520001CE005D17B68DA697B689B699A42E3D37B6876
S31520001CF05B6A002B1FD07B681A697B68DB689A4277
S31520001D0019D37B68DA697B689B699A4213D308E00A
S31520001D107B681B684FF000025A61FB6803F10103E0
S31520001D20FB607B681B689B6803F48073002B02D1E1
S31520001D30FB681F2BECD907F11407BD4680BC704702
S31520001D4080B584B000AF78607B6893F88030022B32
S31520001D5015D10CE07B681B681B69FB607B685B6F99
S31520001D60002B04D07B685B6FFA68104698477B6827
S31520001D701B689B6803F04003002BEBD032E07B68A6
S31520001D8093F88030012B25D117E07B681B681B69EF
S31520001D90FB607B681A6B7B68DB6A9A4207D27B689A
S31520001DA09A6A7B681B6B1344FA68D2B21A707B68F6
S31520001DB01B6B03F101027B681A637B681B689B68B7
S31520001DC003F04003002BE0D00CE07B681B681B6906
S31520001DD0FB6000E000BF7B681B689B6803F0400344
S31520001DE0002BF2D007F11007BD4680BD80B586B026
S31520001DF000AF78607B681B6803F120033B617A683B
S31520001E0048F6E873C2F200039A4207D07A6848F689
S31520001E106473C2F200039A4200D000BE3B691B687D
S31520001E2003F00203002B52D07B6893F88030022BFC
S31520001E3015D10CE07B681B681B69FB607B685B6FB8
S31520001E40002B04D07B685B6FFA68104698477B6846
S31520001E501B689B6803F04003002BEBD032E07B68C5
S31520001E6093F88030012B25D117E07B681B681B690E
S31520001E70FB607B681A6B7B68DB6A9A4207D27B68B9
S31520001E809A6A7B681B6B1344FA68D2B21A707B6815
S31520001E901B6B03F101027B681A637B681B689B68D6
S31520001EA003F04003002BE0D00CE07B681B681B6925
S31520001EB0FB6000E000BF7B681B689B6803F0400363
S31520001EC0002BF2D07B681B684FF00202DA603B6978
S31520001ED01B6803F00103DBB2002B12D07B6893F85A
S31520001EE08030022B05D17B681B687A68926F5A6115
S31520001EF002E07868FFF7B4FE7B681B684FF00102AA
S31520001F00DA603B691B6803F01003002B23D0786846
S31520001F10FFF716FF7B681B6A002B0BD07B681B6ABA
S31520001F207A68916A7A68126B0846114698477868EB
S31520001F30FFF796FE7B684FF001025A627B681B68AA
S31520001F407A681268926A22F010029A627B681B688D
S31520001F504FF01002DA603B691B6803F00403002B84
S31520001F600FD07B681B687A681268D26A42F0040236
S31520001F70DA627868FFF7F2FB7B681B684FF0040291
S31520001F80DA603B691B6803F00803002B31D07B68BD
S31520001F901B687A681268D26A42F00802DA627B68A5
S31520001FA093F88030022B13D17B681A687B681B68F4
S31520001FB0196840F2FF03CFF6007301EA030343F4E6
S31520001FC0807313607B681B687A68926F5A610BE096
S31520001FD07B6893F88030012B06D17B684FF0000296
S31520001FE01A617868FFF73CFE7B681B684FF0080291
S31520001FF0DA603B691B6803F02003002B49D0786820
S31520002000FFF79EFE7B681B6B7B617B681B6A002B40
S315200020101CD07B684FF000025A627B684FF00002AA
S315200020205A617B684FF000029A617B684FF000028C
S31520002030DA617B681B684FF01002DA607B681B68E8
S315200020407A681268926A42F010029A627B684FF0B0
S3152000205000021A617B681B687A681268D26A42F0AD
S315200020600C02DA627868FFF7FBFD7B684FF000020E
S315200020701A637B68DB6F002B06D07B68DB6F7A6880
S31520002080926A1046796998477B681B684FF0200250
S31520002090DA6007F11807BD4680BD00BF684620F00C
S315200020A007018D4689B500AF48F6E870C2F20000F8
S315200020B0FFF79CFE4FF00C00FFF798FABD46BDE8EF
S315200020C089408546704700BF684620F007018D4647
S315200020D089B500AF48F66470C2F20000FFF786FEAD
S315200020E04FF00D00FFF782FABD46BDE889408546D0
S315200020F0704700BF80B400AFBD4680BC704700BFAC
S3152000210080B58AB000AF48F23073C2F20003BC46F5
S315200021100FCB8CE80F0042F20003CEF204039B6C37
S315200021204FEA930303F003034FEA830307F12802E0
S31520002130134453F8283C3B6142F20003CEF20403D9
S315200021409B6C4FEA131303F003034FEA830307F153
S315200021502802134453F8283C7B6142F20003CEF256
S3152000216004039B6C4FEA931303F003034FEA8303A4
S3152000217007F12802134453F8283CBB6142F20003BE
S31520002180CEF20403DB6C4FEA132303F01F033B62FA
S3152000219042F20003CEF20403DB6C4FEA533303F022
S315200021A001037B623B6A03F10103FB617B6A002B1F
S315200021B003D0FB694FEA4303FB6100F049F802466E
S315200021C048F6B813C2F200031A6048F6B813C2F2F2
S315200021D000031A683B69B2FBF3F248F6BC13C2F25D
S315200021E000031A6048F6B813C2F200031A687B6926
S315200021F0B2FBF3F248F6C013C2F200031A6048F6A7
S31520002200B813C2F200031A68BB69B2FBF3F248F6B0
S31520002210C413C2F200031A6048F6B813C2F20003D0
S315200022201A68FB69B2FBF3F248F6C813C2F2000340
S315200022301A6048F6B813C2F200031A6848F6B413B7
S31520002240C2F200031A6007F12807BD4680BD00BF11
S3152000225080B48BB000AF4FF000037B6040F61C03C8
S31520002260C6F20803BB6040F23023C6F20803FB60C7
S31520002270FB681B6823F070433B613A6941F2CF1338
S31520002280C0F2A1539A4208D14EF62C73C6F201032E
S315200022907B617B691B687B603DE0BB681A6844F202
S315200022A04133C4F654439A4235D140F64003C6F230
S315200022B00803BB61BB691B68FB61FB6923F07F4395
S315200022C0FB61FA6940F20033C0F201039A4222D937
S315200022D0FA694FF6FF73C0F201039A4208D841F219
S315200022E02C63C6F208033B623B6A1B687B6012E0E4
S315200022F0FA694FF6FF73C0F202039A4208D841F6F4
S31520002300AC63C6F208037B627B6A1B687B6002E0D3
S315200023104FF000037B607B68002B05D100BE47F69B
S315200023204003C0F27D137B607B68184607F12C07BB
S31520002330BD4680BC704700BF48F6CC13C2F20003EE
S3152000234000B585B06946186800F0CAFBB0F1FF3FBA
S3152000235006D0009B0198C018029BC018039BC0188A
S3152000236005B000BD70B548F6A01648F6A015C2F215
S315200023700006C2F20005761BB61006D0002455F8DA
S31520002380243001349847A642F9D848F6A01548F6D5
S31520002390A416C2F20005C2F20006761B06F0F4FA75
S315200023A0B61006D0002455F8243001349847A642AA
S315200023B0F9D870BD48F6CC130146C2F2000318685E
S315200023C003F086BA48F6CC130146C2F20003186819
S315200023D000F000B82DE9F04F01F10B04162C83B064
S315200023E006462FD8002310248C422CBF194643F0D2
S315200023F00101002930D1304600F028FBB4F5FC7FDE
S315200024002ED24FEAD40E48F6C025C2F2000505EBBF
S31520002410CE02D368934200F006825A6803F108057B
S31520002420D968304622F0030C9A6863445C688A6057
S3152000243044F00104D1605C6000F00AFB284603B03A
S31520002440BDE8F08F24F00704E30F8C422CBF194619
S3152000245043F001010029CED00C2300253360EDE79F
S315200024605FEA542E04BF4FEAD40E4FEACE0040F066
S31520002470908048F6C025C2F200052818C368984205
S3152000248006D10DE0002A80F26F81DB68984207D0E2
S31520002490596821F003010A1B0F2AF3DD0EF1FF3ED6
S315200024A00EF1010E48F6C027C2F2000707F1080117
S315200024B08B68994208BF7A6826D05A6822F0030CA6
S315200024C0C4EB0C020F2A00F39481002AC9608960AC
S315200024D080F29980BCF5007F80F065814FEADC0CA4
S315200024E04FF0010A7A6807EBCC004FEAAC0C0AFAE7
S315200024F00CFCD860D0F808804CEA02027A60C3F857
S315200025000880C8F80C3083604FF0010C4FEAAE0308
S315200025100CFA03FC944500F2828012EA0C0F08D1D3
S315200025202EF0030E4FEA4C0C0EF1040E12EA0C0F9D
S31520002530F8D007EBCE09F246C846D8F80C309845B5
S3152000254007D168E1002A80F27881DB68984500F09F
S315200025506281586820F00300021B0F2AF2DD1D4617
S315200025601F19D3F80CC044F0010E55F8084F304619
S31520002570BA5042F00102C3F804E0CCF80840C4F88F
S315200025800CC08F60CF607A60B960F96000F060FAA5
S3152000259054E7BEF1040F9EBF4FEA941E0EF1380E8B
S315200025A04FEACE007FF665AFBEF1140F9CBF0EF149
S315200025B05B0E4FEACE007FF65CAFBEF1540F9EBF96
S315200025C04FEA143E0EF16E0E4FEACE007FF651AF63
S315200025D0BEF5AA7F9EBF4FEAD43E0EF1770E4FEA94
S315200025E0CE007FF646AF40F254539E4595BF4FEA44
S315200025F0944E4FF47C700EF17C0E4FF07E0E98BFF9
S315200026004FEACE0035E703EB0C0203F1080530460E
S31520002610536843F00103536000F01AFA0EE7D7F827
S315200026200880D8F8043023F00309C4EB09024C458E
S3152000263094BF002301230F2AD8BF43F00103002BA8
S3152000264000F0A18048F6DC6BD5F80824C2F2000B16
S31520002650DBF8003010331B19B2F1FF3F06D003F52B
S315200026607E631F3323F47E6323F01F03194630460F
S31520002670019300F021FA019BB0F1FF3F824600F062
S31520002680F48008EB0901814200F2EC80DBF804209B
S315200026909A185145CBF8042000F04581D5F8085406
S315200026A048F6C020C2F20000B5F1FF3F08BFC0F8CF
S315200026B008A403D05244511ACBF804101AF0070587
S315200026C0304617BFC5F108054FF48055AA4405F5D5
S315200026D0805553441B051B0DED1A294600F0ECF9D5
S315200026E0B0F1FF3F00F02C81CAEB0001491941F0FF
S315200026F00101DBF8042048F6DC63C7F808A0C2F223
S315200027000003AA18B845CBF80420CAF8041017D03D
S31520002710B9F10F0F40F2DF80A9F10C01052521F058
S31520002720070108EB01000F2985604560D8F80400F1
S3152000273000F0010041EA0000C8F8040000F2AC8075
S31520002740D04648F6DC63DBF82C10C2F200038A423E
S31520002750DBF8301088BFDA6248F6DC63C2F2000389
S315200027608A4288BF1A6382E05C189A68D968304624
S31520002770666803F108058A6046F00103D16063604C
S3152000278000F066F95AE608EB040342F0010244F031
S3152000279001043046C8F8044008F108055A60BB60B9
S315200027A000F056F94AE64FEA5C22042A54D9142A44
S315200027B000F289805B324FEAC208A84448F6C02757
S315200027C0C2F20007D8F80800404503D16FE08068C0
S315200027D0804504D0426822F003029445F7D3D0F80E
S315200027E00CC0C3F80CC098607A68C360CCF8083077
S315200027F08AE61F19304644F00104CF605C6003F17D
S315200028000805BA5042F001028F607A60B960F9601B
S3152000281000F01EF912E60AF1010A1AF0030F5FD042
S3152000282003F1080889E603F10802D3689A4208BF33
S315200028300EF1020E3FF436AEEFE51D461918DA68A2
S31520002840304655F8083F4C68936044F00104DA603E
S315200028504C6000F0FDF8F1E54FEA9C1238324FEA61
S31520002860C208AAE7B8453FF411AFD7F80880D8F8D0
S31520002870042022F00302944294BF00230123121B5A
S315200028800F2AD8BF43F00103002B3FF47CAF30461C
S31520002890002500F0DDF8D1E508F108013046019366
S315200028A003F016F8019BD7F808805A6849E74FF0DD
S315200028B0010AD7F80480921084460AFA02F248EAFE
S315200028C002027A608DE7542A24D84FEA1C326E32EF
S315200028D04FEAC20871E70123D046CAF80430C6E79A
S315200028E04A461EF0030F13460EF1FF3E33D053F82F
S315200028F008299A42F5D07B684FEA4C0C9C453FF656
S315200029008EAEBCF1000F3FF48AAE1CEA030F27D02F
S31520002910D6460EE6B2F5AA7F15D84FEADC327732D4
S315200029204FEAC20849E70805000D00287FF4B6AE35
S31520002930D7F808804B4443F00103C8F8043000E779
S3152000294001210025D5E640F2545082420DD94FF49C
S315200029507C787E2231E77B6823EA0C037B60CBE719
S315200029604FEA4C0C0AF1040ACFE74FEA9C427C322C
S315200029704FEAC20821E700BF032AC9B230B407D8FC
S3152000298022B10023C15401339342FBD130BC70479E
S3152000299000EB020C034601E003F8011C03F00304DC
S315200029A01A460133002CF7D14FF00133C2EB0C0449
S315200029B003FB01F31FE042F8403C42F83C3C42F85E
S315200029C0383C42F8343C42F8303C42F82C3C42F841
S315200029D0283C42F8243C42F8203C42F81C3C42F871
S315200029E0183C42F8143C42F8103C42F80C3C42F8A1
S315200029F0083C42F8043C154640323F2CA4F14004E2
S31520002A00D9DC2A46C5EB0C0407E042F8103C42F814
S31520002A100C3C42F8083C42F8043C154610320F2C78
S31520002A20A4F11004F1DC2A46C5EB0C0501E042F8BE
S31520002A30043C14460432032DA5F10405F7DC01E01D
S31520002A4004F8011B6445FBD3A0E700BF704700BF15
S31520002A50704700BF0FB448F6CC13C2F2000310B57E
S31520002A601C6882B024B1A36913B9204602F0ACFEDB
S31520002A70204605AC049A23468168019400F042F86A
S31520002A8002B0BDE8104004B0704700BF0EB410B5C8
S31520002A90044683B018B183690BB902F095FE20462F
S31520002AA006AC059A23468168019400F02BF803B002
S31520002AB0BDE8104003B0704738B549F26C04C2F245
S31520002AC000040546084600232360FEF72FFAB0F1DE
S31520002AD0FF3F00D038BD2368002BFBD02B6038BDCC
S31520002AE00846FEF76DBA00BF936810B5144613B9B1
S31520002AF05360184610BD02F0CBFF00236360A3602D
S31520002B0010BD00BF2DE9F04FADF5AE6D83B00E467A
S31520002B1015469A46814603F0ABF900681D90B9F137
S31520002B20000F04D0D9F81830002B00F05A8148F253
S31520002B30BC73C2F200039E4208BFD9F8046010D0CD
S31520002B4048F2DC73C2F200039E4208BFD9F808603F
S31520002B5007D048F2FC73C2F200039E4208BFD9F8A0
S31520002B600C60B6F80CC01FFA8CF313F4005F09D181
S31520002B704CF4005C726EA6F80CC01FFA8CF322F49B
S31520002B800052726613F0080F01F001833269002AA1
S31520002B9001F0FD8203F01A030A2B00F0E0800022E8
S31520002BA012921A9200231C920DF59C641192043401
S31520002BB019920DF5A4621B9304320DF59063283209
S31520002BC00333189207930023CDF84C45CDF85035A2
S31520002BD0CDF854352B781A1E18BF0122252B0CBF91
S31520002BE0002202F0010232B32F4617F8013F1A1EC7
S31520002BF018BF0122252B0CBF002202F00102002A59
S31520002C00F3D1B7EB050808BF3D4614D0C4F80480BD
S31520002C10DDF85035DDF8542501332560072B424475
S31520002C20CDF85035CDF8542578DC083411983D463A
S31520002C30404411903B78002B7CD06B1C4FF0FF3723
S31520002C402B204FF0200C00214FF000020F918DF821
S31520002C507725CDF82CA06A780A915D1CA2F1200375
S31520002C60582B00F28682DFE813F098028402840251
S31520002C70A402840284028402840284028402AD02B5
S31520002C80BA028402C102CA028402E702F002F002FA
S31520002C90F002F002F002F002F002F002F0028402EA
S31520002CA084028402840284028402840284028402CE
S31520002CB084020403260384022603840284028402F7
S31520002CC084026A03840284028104840284028402C8
S31520002CD0840284021404840284022F04840284025F
S31520002CE0840284028402840284028402840284028E
S31520002CF04F04650426032603260373036504840212
S31520002D0084027903840285039603AD030A048402B0
S31520002D10CC038402F40384028402C0000DF5A86269
S31520002D20484631460C32FFF7DFFE58B90DF59C6454
S31520002D3004347BE7DDF85435002B41F092810023E3
S31520002D40CDF85035B38913F0400F02D04FF0FF3045
S31520002D50119011985FB00DF5806DBDE8F08FB6F932
S31520002D600E30002BFFF61BAF376A2CF0020CD6F87C
S31520002D7028E00DF58E64ADF888C40C34B6F80EC084
S31520002D802A465346484621461FADCDF89C74002757
S31520002D90CDF88C54CDF87C544FF48065CDF8A4E45E
S31520002DA0ADF88AC4CDF89054CDF89474CDF88454F7
S31520002DB0FFF7A8FE0028119009DB2146484602F0BD
S31520002DC093FB1199B84218BF4FF0FF311191BDF80E
S31520002DD0883413F0400FBCD0B38943F04003B3814D
S31520002DE0B7E7484602F0F0FCA1E60A9848F28C7C48
S31520002DF0C2F2000C169210F0200FCDF864C000F03D
S31520002E006E830B99CB1D23F0070303F108020B9267
S31520002E10D3E900AB5AEA0B020A9B0CBF002201221F
S31520002E20134240F06B8602234FF000018DF8771590
S31520002E30002FA2BFDDF828C02CF0800CCDF828C0CA
S31520002E40002F18BF42F00102002A00F01E84012B39
S31520002E5000F0DE85022B00F0C185189913914FEA08
S31520002E60DA084FEADB0C48EA4B780AF00700E3461B
S31520002E70C24630305AEA0B0201F8010DEFD1DDF8D7
S31520002E8028C013911CF0010F40F08C861898401A28
S31520002E9010909DF87735109A1797BA42B8BF3A46E0
S31520002EA00C9213B10C9A01320C920A9B0A9813F0D9
S31520002EB0020315931EBFDDF830C00CF1020CCDF8CD
S31520002EC030C010F0840014904DD10F990C9A8F1AAF
S31520002ED0002F48DD102F48F24878D8BFC2F20008EC
S31520002EE030DDC2F200080DF5A86B43464FF0100AFC
S31520002EF0A8460BF10C0B1D4602E0103F102F1EDDDD
S31520002F00C4F804A0DDF85035DDF8542501332560DA
S31520002F101032072BCDF8542504F10804CDF850358E
S31520002F20EBDD0DF59C64484631465A460434FFF7DE
S31520002F30DBFD00287FF406AF103F102FE0DC2B4688
S31520002F40454698466760DDF85035C4F800805A1C1F
S31520002F50DDF85435CDF85025DB19072ACDF8543540
S31520002F6000F38A8508349DF877359BB10123636089
S31520002F70DDF850350DF5AE6207322260DDF85425B6
S31520002F800133CDF850350132072BCDF8542500F307
S31520002F90B6840834159B9BB102236360DDF8503557
S31520002FA00DF5AE6204322260DDF854250133CDF8EA
S31520002FB050350232072BCDF8542500F3AF84083460
S31520002FC0DDF850C0BCF1800F00F07683179B109A75
S31520002FD09F1A002F43DD102FDFF88C8B2EDD434602
S31520002FE00DF5A86BA8464FF0100A0BF10C0B1D46E9
S31520002FF002E0103F102F1EDDC4F804A0DDF8503586
S31520003000DDF85425013325601032072BCDF85425E1
S3152000301004F10804CDF85035EBDD0DF59C644846E7
S3152000302031465A460434FFF75FFD00287FF48AAE06
S31520003030103F102FE0DC2B46454698466760DDF8AA
S315200030405035DDF854250133C4F80080D219072BFA
S31520003050CDF85425CDF8503500F342840834DDF8F8
S3152000306028C01CF4807F40F09D82109813996060E0
S31520003070DDF85035DDF85425013321601218072B71
S31520003080CDF85035D8BF04F10803CDF8542500F308
S315200030909B830A9911F0040F55D00F9ADDF830C0A2
S315200030A0CCEB0207002F4EDD102F48F24878D8BF10
S315200030B0C2F200082EDDC2F200080DF5A86A4246CB
S315200030C01024A8460AF10C0A154602E0103F102FDC
S315200030D01DDD5C60DDF85025DDF8541501321D60DC
S315200030E01031072ACDF8541503F10803CDF85025E1
S315200030F0ECDD484631465246FFF7F6FC0DF59C635B
S31520003100043300287FF41EAE103F102FE1DC2A4640
S31520003110454690465F60DDF85025C3F80080DDF80F
S3152000312054350132CDF85025FB18072ACDF85435F1
S315200031300BDD0DF5A862484631460C32FFF7D4FC6C
S3152000314000287FF4FFADDDF8543511980C9A0F99BD
S315200031508A42ACBF801840181190002B40F0428361
S315200031600DF59C640023DDF82CA00434CDF85035F1
S3152000317030E51692002A3FF4DDAD0DF5A46001235B
S315200031804FF0000C04300C938DF824258DF877C56C
S31520003190139010930021179187E69DF87735002B21
S315200031A040F02B850B992B468DF877C52A780B9105
S315200031B053E50B990A9B43F001030A932B462A7881
S315200031C00B914AE50B990B9A09680F91111D0F9BDC
S315200031D0002BC0F280872A782B460B913DE50B9970
S315200031E02B468DF877052A780B9136E50B990A9BA5
S315200031F043F004030A932B462A780B912DE52B46A0
S3152000320013F8012B2A2A01F0CD80A2F130010929D9
S3152000321001F237800235002715F8012C07EB8707C6
S315200032202B46013501EB4707A2F130010929F3D9D5
S3152000323047EAE7771D4611E50B992B460A9A42F095
S3152000324080020A922A780B9107E5A2F130014FF00D
S3152000325000082B4608EB880813F8012B01EB4808D9
S31520003260A2F130011D460929F3D9CDF83C801D462F
S31520003270F4E40A9B169243F010030A93DDF828C063
S315200032801CF0200F00F05D810B98C31D23F007036F
S3152000329003F108010B91D3E900ABBAF1000F7BF1E2
S315200032A00002C0F29B845AEA0B034FF001030CBFC5
S315200032B000220122BCE50A98169210F0080F00F0B1
S315200032C0ED840B99CB1D23F0070303F108020B9223
S315200032D0D3F80480D3F800A0CDF86C80CDF848A0B0
S315200032E05046414603F04AFE8346002800F0998561
S315200032F0504600220023414604F02EFE002840F0CE
S315200033000B859DF8773548F2807148F27C721698C5
S31520003310C2F20001C2F200024FF0030C4728D8BFC8
S31520003320114613910A99CDF830C021F08001CDF8CD
S3152000333040C00A914FF0000CCDF85CC0B1E50B9966
S315200033400A9B43F008030A932B462A780B9184E4C0
S315200033500A9941F040010A910B993CE72A786C2A98
S3152000336000F055850B990A9B0B9143F010030A93A5
S315200033702B4672E40A9A12F0200F00F082840B98F2
S31520003380119A036810464FEAE0710B9AC3E90001CF
S3152000339002F1040A1EE416920A9A12F0200300F0A3
S315200033A0EF800B9BDA1D002322F0070202F1080CA6
S315200033B0CDF82CC0D2E900AB5AEA0B000CBF002294
S315200033C0012231E50B987821DDF828C01691036893
S315200033D048F28C708DF8751530218DF874154CF0E7
S315200033E0020C0B991A1E18BF0122C2F200009A463F
S315200033F04FF0000B0431CDF828C0199002230B9111
S3152000340012E50B9B16924FF00002181D8DF87725BA
S315200034101B680B901393002B00F0C686002F139881
S31520003420C0F28F8600213A4602F0C4FD03460028EA
S3152000343000F0F58613981B1A1093BB4240F3BE8505
S315200034401097002127EAE7779DF877350C97179193
S3152000345027E5DDF828C016921CF0200F23D00B9804
S315200034600123C21D22F0070202F108010B91D2E9C5
S3152000347000AB5AEA0B020CBF00220122D4E40A99BF
S315200034802B4641F020010A910B992A780B91FFF7E0
S31520003490E4BB0A9B169243F010030A93DDF828C07A
S315200034A01CF0200FDBD10A9B13F0100F00F0D58300
S315200034B00B980123021D0B9201680A1E18BF0122D8
S315200034C08A464FF0000BAFE40A98169248F26872CB
S315200034D010F0200FC2F2000219927FF492AC0A9BE0
S315200034E013F0100F40F01A830A9A12F0400F00F0E2
S315200034F015830B9B03F1040CCDF82CC0B3F800A068
S31520003500D2464FF0000B85E416920DF5A4610B9A76
S315200035104FF0010C4FF000000431CDF830C0136895
S3152000352004328DF877050B921391CDF840C08DF8B3
S3152000353024352FE6DDF828C016921CF0200F7FF4E4
S31520003540A3AE0A9A12F0100F40F0F1820A9A12F0F6
S31520003550400F00F0EC820B9B03F1040CCDF82CC03D
S31520003560B3F900A0D2464FEAEA7B96E60A9916926C
S3152000357041F010010A910A9A12F020037FF411AF4C
S315200035800A9911F0100200F054830B9A02F1040CF0
S31520003590CDF82CC011680A1E18BF01228A464FF0AA
S315200035A0000B41E4169A652A40F3288112980022DE
S315200035B000231B9904F0C6FC002800F0BE810123DD
S315200035C06360DDF8502548F2A873C2F20003236039
S315200035D0DDF854350132CDF850250133072ACDF8D0
S315200035E05435D8BF04F1080300F39B83DDF870251A
S315200035F01A98824204DB0A9911F0010F3FF449AD73
S3152000360001225A60DDF85025DDF8541501321D9847
S315200036100131072ACDF854151860CDF8502500F34E
S315200036205F8508331A994F1E002F7FF732AD102F72
S31520003630DFF8348540F3EA8242460DF5A86AA846AB
S3152000364010240AF10C0A154603E0103F102F40F310
S31520003650DA825C60DDF85025DDF8541501321D60F4
S315200036601031072ACDF8541503F10803CDF850255B
S31520003670EBDD484631465246FFF736FA0DF59C6398
S3152000368004330028E1D0FFF75DBB7BB90A9911F01E
S31520003690010F0BD00DF5A462302304328DF84B3583
S315200036A02732012313921093FFF7F3BB18980021BA
S315200036B010911390FFF7EDBB0F980C99471A002F26
S315200036C07FF784AC102FDFF8A0842EDD43460DF55E
S315200036D0A86BA8464FF0100A0BF10C0B1D4602E012
S315200036E0103F102F1EDDC4F804A0DDF85035DDF89C
S315200036F05425013325601032072BCDF8542504F1CB
S315200037000804CDF85035EBDD0DF59C64484631466E
S315200037105A460434FFF7E8F900287FF413AB103F2C
S31520003720102FE0DC2B46454698466760DDF850357D
S31520003730C4F800805A1CDDF85435CDF85025DB1925
S31520003740072ACDF8543500F33A8208343EE413991B
S315200037506360DDF850252160DDF854150132CDF87F
S315200037605025CB18072ACDF8543500F3498508345F
S315200037701D9A0123DDF870756360DDF850352260EF
S31520003780DDF854250133CDF850350132072BCDF81D
S315200037905425D8BF04F1080300F323851398DDF8D8
S315200037A07025C7191A981F60811A5960DDF85415BB
S315200037B08A1ADDF850151218CDF854250131CDF8A6
S315200037C05015072940F332820DF5A8624846314646
S315200037D00C32FFF789F900287FF4B4AA0DF59C6313
S315200037E0043356E40DF5A862484631460C32FFF7FD
S315200037F07BF900283FF4B4ACFFF7A4BA1A99012943
S315200038004CDD01236360DDF85035DDF854250133A6
S3152000381013980132072BCDF854252060CDF850356A
S3152000382000F3B281083401236360DDF85035DDF8FA
S31520003830542501331D990132072BCDF854252160DB
S31520003840CDF8503500F392810834129800220023D7
S315200038501B9904F077FB002840F01D811A9B1398D2
S315200038605A1E6260DDF85035411C2160DDF8541582
S315200038700133CDF850358A18072BCDF8542521DC95
S3152000388008341C9B0DF5AC621C9822606360DDF841
S315200038905035DDF854250133FFF7F0BB0A9A12F0B4
S315200038A0010FAED1139A01236360DDF850352260F3
S315200038B0DDF854250133CDF850350132072BCDF8EC
S315200038C05425DDDD0DF5A862484631460C32FFF75A
S315200038D00BF900287FF436AA0DF59C640434D0E752
S315200038E00DF5A862484631460C32FFF7FDF8002850
S315200038F07FF428AA0DF59C640434FFF7B0BB0DF5C0
S31520003900A862484631460C32FFF7EEF800287FF4CD
S3152000391019AA0DF59C640434FFF73CBB0DF5A8628B
S31520003920484631460C32FFF7DFF800287FF40AAA12
S315200039300DF59C640434FFF743BBDDF87035002B8E
S3152000394040F3FD811A998B42FFF601AF139A61600D
S31520003950DDF850352260DDF854250133CDF8503599
S315200039605218072BCDF85425D8BF04F1080300F3CD
S315200039702984DDF870451A98241A002C40F3B38167
S31520003980102CDFF8E48140F39D8142460DF5A86AAC
S31520003990A84610270AF10C0A154603E0103C102C05
S315200039A040F38D815F60DDF85025DDF85415013236
S315200039B01D601031072ACDF8541503F10803CDF800
S315200039C05025EBDD484631465246FFF78DF80DF57A
S315200039D09C6304330028E1D0FFF7B4B9189A1998EC
S315200039E0134613920AF00F024FEA1A1141EA0B719D
S315200039F04FEA1B1C825C8A46E3465AEA0B0C03F804
S31520003A00012DEFD118981393C01A1090FFF741BAE1
S31520003A1009220023524573EB0B00DDF860801FD28C
S31520003A2023464446B8461F46504659460A22002396
S31520003A3004F0E2FA00235046594602F1300C0A22DD
S31520003A4004F801CD04F0D8FA0922002382468B46D9
S31520003A50524573EB0B03E7D33B464746A0461C462D
S31520003A6008F1FF300AF1300A139008F801AC1899D2
S31520003A70091A1091FFF70DBA0DF5A862484631468E
S31520003A800C32FFF731F800287FF45CA90DF59C6411
S31520003A900434FFF768BA1A994F1E002F7FF7F1AE4C
S31520003AA0102FDFF8C4804EDD43460DF5A86BA846DF
S31520003AB04FF0100A0BF10C0B1D4602E0103F102FA1
S31520003AC03EDDC4F804A0DDF85035DDF85425013379
S31520003AD025601032072BCDF8542504F10804CDF8C3
S31520003AE05035EBDD0DF59C64484631465A46043484
S31520003AF0FEF7FAFF0028E1D0FFF724B91698302107
S31520003B00DDF828C0012202238DF874154CF0020C32
S31520003B108DF87505CDF828C0FFF786B90B98011DDD
S31520003B2003680B919A464FF0000BFFF773B90B9879
S31520003B30011D03680B919A464FEAEA7BFFF7ADBB5E
S31520003B402B46454698466760DDF85035DDF8542506
S31520003B500133C4F80080D219072BCDF85425CDF8AF
S31520003B6050357FF78DAEADE6588700200DF5A8625B
S31520003B70484631460C32FEF7B7FF00287FF4E2A80C
S31520003B800DF59C64043460E60DF5A862484631467E
S31520003B900C32FEF7A9FF00287FF4D4A80DF59C640B
S31520003BA0043440E6302800F0EC821398302300F8E5
S31520003BB0013D18991390091A1091FFF76AB90DF56E
S31520003BC0A862484631460C32FEF78EFF00287FF465
S31520003BD0B9A80DF59C640434FFF7F8B9DAF1000AA8
S31520003BE06BEB4B0B2D235AEA0B0C8DF877350CBF5C
S31520003BF0002201220123FFF71BB90B992B462A78B5
S31520003C000B91FFF72AB82A46454690465F60DDF8B5
S31520003C105025DDF854150132C3F80080C919072A4A
S31520003C20CDF85415CDF850253FF7CEAD0833FFF724
S31520003C3030BA0A9810F0400300F0ED810B99134634
S31520003C400A1D0B92B1F800A0BAF1000218BF01229A
S31520003C50D2464FF0000BFFF7E7B80A9B13F0400F50
S31520003C6000F0CC810B980123011D0B91B0F800A028
S31520003C70BAF1000218BF0122D2464FF0000BFFF71F
S31520003C80D3B80A9B13F0100F00F0A4810B9811995A
S31520003C9000F1040A03681960FEF79CBF0B98C31D48
S31520003CA023F0070303F108010B91D3F80480D3F81E
S31520003CB000A0CDF86C80CDF848A0FFF711BB2A46AE
S31520003CC0454690465C60DDF85025DDF854150132F6
S31520003CD0C3F800800919072ACDF85415CDF85025C8
S31520003CE000F3EA8208330A9911F0010F3FF4D1A9B3
S31520003CF001225A60DDF85025DDF8541501321D9851
S31520003D000131072ACDF854151860CDF850253FF714
S31520003D105BAD0833FFF7BDB92D238DF87735FFF757
S31520003D20F2BA0DF5A862484631460C32FEF7DCFEA3
S31520003D3000287FF407A80DF59C63043356E401237D
S31520003D406360DDF8502548F2A873C2F200032360B1
S31520003D50DDF854350132CDF850250133072ACDF848
S31520003D605435D8BF04F1080300F38781DDF87025A8
S31520003D703AB91A9A2AB9DDF828C01CF0010F3FF487
S31520003D8088A901225A60DDF85025DDF85415013244
S31520003D901D980131072ACDF854151860CDF8502505
S31520003DA000F379810833DDF870757F42002F40F3E8
S31520003DB0B381102FDFF8508640F3D28142460DF5AD
S31520003DC0A86AA84610240AF10C0A154603E0103FFB
S31520003DD0102F40F3C2815C60DDF85025DDF85415C4
S31520003DE001321D601031072ACDF8541503F108035E
S31520003DF0CDF85025EBDD484631465246FEF774FE97
S31520003E000DF59C6304330028E1D0FEF79BBF0B9988
S31520003E106B1C0A9A42F020020A926A780B91FEF7EE
S31520003E201CBF5046414603F0BBF8002840F0FF80F7
S31520003E30B7F1FF3F00F051821698672814BF002380
S31520003E400123472808BF43F0010313B1002F08BF01
S31520003E5001270DF5AB60434652460A99C0E9002377
S31520003E60DDF85C3541F480710A91002BC0F2648242
S31520003E70002117911698662814BF0023012346288F
S31520003E8008BF43F001031093002B00F0D181BC46FC
S31520003E900323CDF830A00DF5AE61CDF83480484629
S31520003EA0009302910DF5AC61DDE90C230C31CDF8C0
S31520003EB004C003910DF5AD61CDF824C0049100F046
S31520003EC0C7FB169ADDF824C0B2F1670318BF012399
S31520003ED0472A0CBF002303F00103139033B90A9B32
S31520003EE013F0010F08BFDDF868B516D013981099A6
S31520003EF000EB0C0B31B10378302B00F0DA80DDF8C3
S31520003F0070359B44504600220023414604F01AF89F
S31520003F10002800F0C281CDF868B5169A1398672A52
S31520003F2014BF00230123472A08BF43F00103C0EB37
S31520003F300B001A90002B00F08A81DDF8701511F124
S31520003F40030F109102DB8F4280F28C81169A023A7F
S31520003F5016921099169A4B1ECDF87035002B8DF8B7
S31520003F606025C0F234822B228DF86125092B00F3BF
S31520003F70B6810DF5AC62303304328DF863353023CB
S31520003F808DF862350DF5AC631A981A99D31A18185C
S31520003F901C930129109040F3108210980130109044
S31520003FA020EAE0710C911798002800F06E812D23ED
S31520003FB000218DF877351791FEF774BF109A4FF0D0
S31520003FC0000C9DF8773522EAE272CDF85CC00C929F
S31520003FD0FEF767BF0A9A12F0400F17BF0B980B9A8D
S31520003FE0119900F1040A11BF036802F1040A13684B
S31520003FF0119814BF19801860FEF7ECBD0B9A131D9B
S315200040000B93116801230A1E18BF01228A464FF01E
S31520004010000BFEF709BF0B98021D0B9201680A1EC2
S3152000402018BF01228A464FF0000BFEF7FDBE48F26C
S31520004030887248F284731699C2F20003C2F2000213
S3152000404003204729D8BF1A4613920A9A0C9022F0C9
S315200040508002CDF85CB00A929DF877351090FEF775
S3152000406020BF0DF5A862484631460C32FEF73CFDCE
S3152000407000287EF467AEFEF762BE0DF5A8624846BC
S3152000408031460C32FEF730FD00287EF45BAE0DF58E
S315200040909C6304336AE60DF5A862484631460C3225
S315200040A0FEF722FD00287EF44DAE0DF59C63043309
S315200040B079E65046002200234146CDF824C003F07D
S315200040C041FFDDF824C000287FF419AFCCF10103AD
S315200040D0CDF8703515E70F9A52420F92FFF787B841
S315200040E00DF5A862484631460C32FEF7FDFC002845
S315200040F07EF428AE0DF59C630433FFF793BA0DF5D5
S31520004100A862484631460C32FEF7EEFC00287EF4C3
S3152000411019AE0DF59C6304331A9913985960DDF88E
S315200041205025DDF85415186001321A98CDF850251F
S315200041300918072ACDF854153FF746AB0833FEF782
S31520004140A8BF0021179103F06FF89DF8773520EA74
S31520004150E07210900C92FEF7A4BE2A464546904681
S315200041605F60DDF85025DDF854150132C3F8008074
S31520004170C919072ACDF85415CDF85025BFDC0833C8
S31520004180CAE7189A1399511A1091FEF782BE48462B
S31520004190314600F049F900287EF4D8ADB6F80CC0B7
S315200041A01FFA8CF3FEF7F6BC062F28BF062748F227
S315200041B0A071C2F2000127EAE772109713910C92C0
S315200041C0FEF7E8BF0DF5A862484631460C32FEF7E9
S315200041D08BFC00287EF4B6AD0DF59C630433FFF707
S315200041E0C8BB0DF5A862484631460C32FEF77CFC6A
S315200041F000287EF4A7AD0DF59C630433FFF7CEBAF5
S315200042000DF5A862484631460C32FEF76DFC0028B3
S315200042107EF498AD0DF59C640434FFF7A9BA109787
S3152000422027EAE77717900C979DF87735FEF739BE82
S315200042301699652914BF00230123452908BF43F099
S315200042400103002B46D007F1010C022321E6169B21
S31520004250652B76DD169A662A1CBFDDF8703510931D
S3152000426000F083801A9B109883426EDC0A9911F025
S31520004270010F40F08E8020EAE07267230C9216939D
S3152000428091E600271D46FEF7E9BC10999DF8773583
S3152000429021EAE1710C91FEF704BEDDF868359B45F5
S315200042A098BF9B467FF639AE302203F8012B9B45FB
S315200042B0CDF86835F9D830E60DF5A862484631467E
S315200042C00C32FEF711FC00287EF43CAD0DF59C6304
S315200042D0043308E5BC460233DBE50737B9E546F289
S315200042E0676C0DF590610331C6F2666C8CFB03207A
S315200042F0DA17C2EBA00202EB8200A3EB40001346C2
S315200043003030092A01F8010DF0DC3033481EDAB2CC
S3152000431001F8012C079B83426AD90DF5AC63033360
S3152000432001E011F8012B03F8012C1A46DDF81CC018
S3152000433001338C45F5D825E62D2208F10048179241
S3152000434098E5DDF87005109003E6109B1A99002B6E
S31520004350DABF1098C0F1020301235B18672210937D
S3152000436023EAE37316920C931DE6DDF87005002808
S31520004370109031DD1FB90A9911F0010F0ED0109857
S3152000438066211691431CDB19109323EAE3720C92E3
S3152000439009E61098672116910130109020EAE07204
S315200043A00C9200E60B991A780F6804310B91002FB6
S315200043B0B8BF4FF0FF37FEF750BC0A9A12F0010F34
S315200043C004BF20EAE0730C933FF4EDADE5E52D2222
S315200043D05B428DF86125C9E577B90A9B13F0010F79
S315200043E00AD14FF0010CCDF830C0CDF840C0DAE547
S315200043F00DF5AC620232C5E50237662127EAE7727F
S31520004400109716910C92CEE55887002010B448F6E6
S31520004410CC14C2F200048C4613460146624620683C
S3152000442010BCFEF76FBB00BF70B548F6CC15C2F2C4
S31520004430000506460C46286810B18369002B36D045
S3152000444048F2BC73C2F200039C4238D048F2DC73B7
S31520004450C2F200039C4241D048F2FC73C2F2000330
S315200044609C4204BF2B68DC68A289114693B213F0E4
S31520004470080F184618BF226933D01AB313F001016A
S3152000448007D063690021A1605B42A36142B100208D
S3152000449070BD13F0020F08BF6169A160002AF6D132
S315200044A0A38913F0800FF2D04FF0FF3070BD01F0DA
S315200044B08BF948F2BC73C2F200039C42C6D12B682A
S315200044C05C68D1E703F42071B1F5007FD6D0304681
S315200044D0214601F001FDA3892269CFE72B689C685C
S315200044E0C2E713F0100FDFD013F0040F08BF2269C4
S315200044F017D0616B51B104F14403994203D0304681
S3152000450001F0E6F9A28990B20023636322694FF68F
S31520004510DB71C0F20001002300EA01016360A18182
S31520004520226041F00803A3819BB2A6E700000000A9
S315200045302DE9F84F03690E69824689469E4200F3AB
S315200045408380F21C01F1140500F11404013E92004F
S315200045508B18121803F1040859685068013102F0CB
S3152000456093FF0746002839D000239C461A46E9586F
S31520004570E0581FFA81FE4FEA114B81B20EFB07CE9F
S3152000458051180BFB07FC0CEB1E4C1FFA8EFECEEBD4
S3152000459001011FFA8CF24FEA1C4CC2EB10421FFAA3
S315200045A081FE02EB21424EEA0241E150043312140D
S315200045B059198845DBD2321D0AEB8203596869B93D
S315200045C09C4209D25AF8222012B105E01A681AB97B
S315200045D0043B013E9C42F9D3CAF810604946504636
S315200045E001F098FE00282CDB002301379C46EA5870
S315200045F0E05891B2120C1FFA80F9C2EB1042C1EBBF
S315200046000901614402EB214289B241EA0241E150AB
S3152000461004334FEA224C5A199045E8D2321D0AEB50
S315200046208203596869B99C4209D25AF8222012B1EC
S3152000463005E01A681AB9043B013E9C42F9D3CAF830
S3152000464010603846BDE8F88F0020BDE8F88F00BF1F
S315200046502DE9F04F466AA1B00446904699462D9D15
S31520004660002E00F02384326882B1616A4FF0010C7B
S31520004670766820460B6856604A6819460CFA02F29C
S315200046809A6001F081FF636A00221A60B9F1000680
S3152000469038DB00232B6040F20003C7F6F0731A467E
S315200046A006EA0303934217D00022002340464946D8
S315200046B0CDE9068903F046FC002829D02C98012351
S315200046C02E990360002900F0D080794B581E2E9A2F
S315200046D0136021B0BDE8F08F2C9842F20F7303606F
S315200046E0B8F1000F00F0958048F2B870C2F20000D1
S315200046F02E990029EDD0C278C31C002AE7D000F1FC
S315200047000803E4E726F000460123B1462B60C2E702
S315200047102046DDE906231EA900911FA9019101F07B
S3152000472085FFC6F30A558346002D7ED0DDE90601B6
S31520004730A5F57E751F9F073D21F07F4323F4700367
S3152000474043F07E51002341F4E001199340F2000327
S315200047500022C3F6F87302F0D9FF4FA3D3E9002352
S3152000476003F088F94EA3D3E9002302F0D1FFCDE967
S315200047700801284603F018F94BA3D3E9002303F0D8
S3152000478079F902460B46DDE9080102F0C1FFCDE9C1
S31520004790080103F009FC002200230646DDE9080192
S315200047A003F0DAFB40B1304603F0FEF8DDE90823DA
S315200047B003F0C8FB00B9013E162E5BD901231893DE
S315200047C0013FB7EB050A42BFCAF1000ACDF83CA06B
S315200047D04FF0000A01D400220F92002EC0F27183FE
S315200047E0B2440023179615932A9B092B62D8052BD2
S315200047F040F377862A98002704382A902A998B1E18
S31520004800032B00F2DD83DFE813F0A503D803D503DD
S31520004810C40326F07F4626F47006002E7FF464AF8C
S3152000482048F2AC70C2F2000062E71F9F1E9BFB1885
S3152000483003F586639D1C202DDCBFC5F1200008FAF8
S3152000484000F008DD1E3BC5F1400216FA02F228FAF6
S3152000485003F342EA030003F097F8A5F586650122E3
S31520004860033D1992A1F1F87170E748F2A870C2F2DF
S3152000487000002EE748F66003DDE90601C2F20003D8
S3152000488003EBC603D3E9002303F066FB002840F0C0
S315200048902083189094E700BF61436F63A787D23FB8
S315200048A0B3C8608B288AC63FFB799F501344D33FF9
S315200048B0A987002000234FF0FF301F4601212A93AD
S315200048C01190169108902B93656A00236B60204601
S315200048D0696801F075FE636A28601B681093002FD3
S315200048E000F05B81002E40F32A8448F6600306F030
S315200048F00F02C2F20003351103EBC20315F0100FAD
S31520004900D3E90001CDE90C0100F0E78248F638131F
S31520004910DDE90601C2F2000305F00F054FF003089A
S31520004920D3E9082303F0D0F9CDE91201BDB148F649
S315200049303817DDE90C23C2F2000715F0010F1046E7
S31520004940194607D0D7E9002308F1010803F092F8A9
S3152000495002460B4608376D10EFD1CDE90C23DDE971
S315200049600C23DDE9120103F0AFF9CDE90C0118990A
S31520004970002900F0DE8040F20003DDE90C01002270
S31520004980C3F6F0734FF0000503F0E6FA08B14FF0D6
S315200049900105089A002AD4BF002505F00105002D3F
S315200049A000F0C780119B002B40F3F58040F20003F6
S315200049B00022C4F22403DDE90C0103F05BF8CDE903
S315200049C00C0108F10100711E129102F0EDFF024662
S315200049D00B46DDE90C0103F04DF840F200030022FE
S315200049E0C4F21C0302F094FEDDF844C08046A1F117
S315200049F05079169B002B00F0AD8348F6600340F2F9
S31520004A000001C2F20003002003EBCC03C3F6E071E1
S31520004A10CDF80CC053E9022303F056F942464B4623
S31520004A20109D02F073FE80468946DDE90C0103F0F5
S31520004A30BBFA074602F0B8FF02460B46DDE90C0139
S31520004A4002F064FE07F13003CDE90C01404605F87B
S31520004A50013B4946DDE90C2303F09CFA002840F08F
S31520004A60138240F20001DDE90C230020C3F6F07129
S31520004A7002F04CFE02460B464046494603F08AFAAF
S31520004A80DDF80CC0002840F0E783BCF1010F40F3AD
S31520004A908280CDF868B00127CDF870A01D966646B5
S31520004AA0DDE90CAB0C9410E040F200010020C3F6C7
S31520004AB0F07102F02BFE42464B4603F04DFA0028D9
S31520004AC040F0C783B74280F28B8440F20003404611
S31520004AD049460022C4F22403013502F0CBFF40F2FE
S31520004AE000030022C4F224038046894650465946D4
S31520004AF002F0C0FF8B46824603F056FA044602F0C7
S31520004B0053FF303402460B465046594602F0FEFD0E
S31520004B10109A4B46D4554246013782468B4603F0BF
S31520004B201BFA52465B460028BED0DDF868B00C9CC6
S31520004B30AAE1404602F038FFDDE90C2302F09AFF95
S31520004B4040F200030022C4F21C0302F0E1FD089AA1
S31520004B50A1F150758046A946002A40F0EC8240F229
S31520004B600003DDE90C010022C4F2140302F0CEFD9D
S31520004B7042462B46CDE90C0103F00CFA002840F002
S31520004B804A824246DDE90C0105F1004303F0E4F9CF
S31520004B90002840F0D581DDE906891E9B6FEA0307D0
S31520004BA04FEAD7770E2ECCBF002707F00107002F3C
S31520004BB000F0B7802B9848F66003C2F200030899EC
S31520004BC003EBC603C20F0029CCBF002202F001026C
S31520004BD0D3E90001CDE90401002A40F0A081024674
S31520004BE00B464046494603F06FF8109D03F0DCF96A
S31520004BF0824602F0D9FEDDE9042302F03BFF02469D
S31520004C000B464046494602F081FD0AF1300305F87D
S31520004C10013B089A012A8046894652D040F2000379
S31520004C200022C4F2240302F025FF00220023CDE94E
S31520004C30060103F087F9002840F0EB8110984FF029
S31520004C400108CDF82CB0A346871C0F96DDF82090DE
S31520004C50DDE906450AE002F00DFF002200230446A6
S31520004C600D4603F06FF9002840F0CE81DDE90423DC
S31520004C702046294608F1010803F026F83E4603F0AF
S31520004C8093F9824602F090FEDDE9042302F0F2FE5B
S31520004C9002460B462046294602F038FD00220AF13C
S31520004CA0300C07F801CC0137C14540F20003C4F2AD
S31520004CB02403D0D135465C460F9E8046DDF82CB0C5
S31520004CC0894642464B464046494602F021FD8046EB
S31520004CD089464246DDE904014B4603F03DF960B9B9
S31520004CE0DDE9040142464B4603F02CF9002800F08A
S31520004CF090811AF0010F00F08C81109900E01D467A
S31520004D0015F8012C6B1E392A40F067838B42F6D1A9
S31520004D1010993023013631220B70109B1A7012968F
S31520004D20B2E0169A002A40F0DF80159F0F9D0C9264
S31520004D30002DD4BF00230123BAF1000FD4BF0023D6
S31520004D4003F001034BB1AA45B4BF53462B460F9837
S31520004D50C3EB0A0AED1AC01A0F90159900291CDD1B
S31520004D60169A002A00F0E982002F12DD0C993A46A5
S31520004D70204601F085FE5A460C9020460C9901F0FB
S31520004D8097FD594603462046039301F0FDFB039BFE
S31520004D909B46159BDA1B40F011830121204601F02A
S31520004DA021FE06901798002805DD06992046179AB9
S31520004DB001F066FE06902A99012940F30A81002710
S31520004DC0179B002B40F061820123534413F01F03ED
S31520004DD040F02A811C230F9A9A44ED18D2180F927C
S31520004DE00F9B002B05DD59461A46204601F002FD91
S31520004DF08346BAF1000F05DD06995246204601F09A
S31520004E00F9FC06901898002840F029822A980899DB
S31520004E100228D4BF002301230029CCBF002303F09E
S31520004E200103002B00F00C81002940F08C80052224
S31520004E300699089B204601F0DFFD06905846069904
S31520004E4001F068FA00287EDD109D01360027DDF886
S31520004E5030A0312305F8013B0699204601F094FB4A
S31520004E60BAF1000F00F0D5803B1E18BF012357452D
S31520004E700CBF002303F00103002B40F0D0805146E5
S31520004E80204601F081FB12962046594601F07CFB14
S31520004E90129A531C00222A702C982E9903600029FE
S31520004EA000F0D4812E9A1098156012E41020FDF798
S31520004EB089FAC66046608660066006466062FFF72D
S31520004EC0D2BB0F98714200221591801B17920F902A
S31520004ED08AE40021013E189172E4DDE906234FF0B1
S31520004EE00208CDE9122321E52A98012840F36C8295
S31520004EF0089A1598531E9842C0F25882C71A089BE2
S31520004F00002BA8BF0F9DC0F273820F9A2046012165
S31520004F109A44D2180F9201F065FD0C9008E7089B81
S31520004F2073B940F200030022C4F21403DDE9040140
S31520004F3002F0A0FD42464B4603F022F800286AD034
S31520004F40002206920C922B9B0027DDF830A0DE4330
S31520004F50109D81E7002116912B98002840F39F8110
S31520004F602B98014611900890656A002217296A60DD
S31520004F7040F2AB8204235B00013203F11400884225
S31520004F80F9D9089B6A600E2B8CBF002707F0010712
S31520004F909DE4012216922B9BF3181193591C00298C
S31520004FA0C8BF0891E0DC0E298CBF002707F0010757
S31520004FB0089189E401231693CEE700221692EAE7A8
S31520004FC04FF0FF33002701201193169008932B975B
S31520004FD07AE4B8F1000F7FF4F2AE29F07F4323F490
S31520004FE07003002B7FF4EBAE40F20003C7F6F0739C
S31520004FF009EA0303002B3FF4E2AE0F9A0AF1010AF5
S31520005000012701320F92DBE635465C460F9EDDF81E
S315200050102CB0129638E7002006900C9014E73946FB
S31520005020204601F0B1FA2AE7C3F12003042B40F30E
S3152000503054820F99043B9A44ED18C9180F91CFE674
S315200050401699002900F03181002D05DD0C992A469C
S31520005050204601F0CFFB0C90002F40F0EA81DDF8CE
S3152000506030A0109D012308F001000C9F11900F9590
S315200050701D460C9606995846FFF75AFA394630309F
S315200050800B90584601F046F90699524606462046A8
S3152000509001F034FBC3688046002B3DD04FF0010958
S315200050A04146204601F070FA2A9959EA010103D1B6
S315200050B0119A002A00F0EB81002EC0F29E812A9AD6
S315200050C0324303D1119B002B00F09781B9F1000FD9
S315200050D000F3CE810F990B9A01F8012B089B0F91B3
S315200050E09D4200F0C28159460A220023204601F043
S315200050F083FC57453946834614D00A22002320468E
S31520005100013501F079FC51460A2200230746204644
S3152000511001F072FC8246ADE75846414601F0FAF8A6
S315200051208146BDE720460A220023013501F064FCB2
S31520005130074682469EE71296DDF820C059E475425E
S31520005140002D40F00181DDE906014FF00208CDE98E
S315200051500C010CE448F660014246C2F200014B46BF
S3152000516001EBCC01CDF80CC0109D51E9020102F0F3
S3152000517081FCCDE91A01DDE90C0102F015FF074695
S3152000518002F012FC0B460246DDE90C0102F0BEFAE3
S3152000519007F13003CDE90C0105F8013BDDF80CC021
S315200051A0BCF1010F29D0D146DDE90C01B246109E93
S315200051B01C9501276546A04640F200030022C4F252
S315200051C0240302F057FCCDE90C0102F0EDFE044663
S315200051D002F0EAFB303402460B46DDE90C0102F010
S315200051E095FAF4550137AF42E6D11C9D013F56464C
S315200051F04446CA46ED19CDE90C0140F200030022CF
S31520005200C3F6E073DDE91A0102F082FA02460B4684
S31520005210DDE90C0102F0BEFEF0B940F20001DDE945
S315200052201A230020C3F6E07102F070FA02460B46FC
S31520005230DDE90C0102F090FE00283FF4ACAC2B46D1
S315200052401D4613F8012D302AFAD01DE61098FFF7D7
S3152000525040BADDF868B00C9C129E109950E558466D
S31520005260069901F057F80028BFF6D0AD59462046DA
S315200052700A22002301F0C0FB1699013E834600292D
S3152000528040F01981119A0892C0E50698036900EB4F
S315200052908303186900F0ECFFC0F1200395E5012196
S315200052A0119108912B91FFF70FBB109DB146169FC8
S315200052B0AA46DDF81880089E02E001F09DFB834691
S315200052C041465846FFF734F901350A22002359464C
S315200052D000F1300C0AF807C001372046BE42ECDC4C
S315200052E0DDF830A04E460027CDF82CC059460122C5
S315200052F0204601F07FFA0699834601F00BF8002834
S315200053000FDD109900E01D4615F8012C6B1E392A79
S3152000531040F08C808B42F6D11099312301360B70E8
S315200053209AE503D10B9810F0010FEAD12B461D46C2
S3152000533013F8012D302AFAD08EE55946159A2046C3
S3152000534001F09EFB834628E505F00F0348F6600230
S31520005350C2F20002DDE9060102EBC303D3E9002312
S3152000536002F088FB2D1108BF4FF00208CDE90C0191
S315200053703FF4FDAA48F63817DDE90C234FF0020862
S31520005380C2F2000715F0010F1046194607D0D7E9DB
S31520005390002308F1010802F06DFB02460B46083790
S315200053A06D10EFD1CDE90C23FFF7E1BA1599179AC5
S315200053B05B1AC918D21815911792A0E559462046AE
S315200053C001F05EFB8346E8E41999002947D003F5EE
S315200053D08663159F03330F9D97E50132D2B29DE474
S315200053E0DDF868B0DDF870A01D9E0C9CFFF7D3BBDE
S315200053F00F99002308980D1A87E5B9F1000F0F9D24
S315200054000C9E0FDD59460122204601F0F3F906993C
S31520005410834600F07FFF002847DD0B99392931D0DC
S3152000542001310B910B9A05F8012B15E501321A7003
S3152000543012E50C9A2046516801F0C2F80C9B03F144
S315200054400C011A690232920005460C3000F0ECFD80
S3152000545020462946012201F0CDF9824601E61F9B0E
S31520005460159F0F9DC3F136034FE50F9D0C9E3DE71B
S315200054700B9B0F9D392B0C9E04D00B98431C05F8D3
S31520005480013BE9E4392305F8013B10993CE70B98E9
S3152000549033460F9D39280C9EF4D0002B01DD0130B8
S315200054A00B900B9905F8011BD6E4BBD10B9810F095
S315200054B0010FB7D0B1E700230C9920460A2201F04C
S315200054C09BFA119B08930C90A0E408990E298CBF97
S315200054D0002707F00107FFF7FAB93FF481AC1C3328
S315200054E079E40127FFF78AB90B692DE9F0410C46CB
