:020000042000DA
:100000000000012099020020090300200B030020BA
:100010000D0300200F03002011030020000000004A
:10002000000000000000000000000000130300209A
:100030001503002000000000170300201903002012
:100040001B0300201D0300201F03002021030020AC
:10005000230300202503002027030020290300207C
:100060002B0300202D0300203531002061310020BA
:10007000913D0020BD3D00203703002039030020C2
:100080003B0300203D0300203F03002041030020EC
:1000900043030020450300204703002049030020BC
:1000A0004B030020000000000000000000000000E2
:1000B0000000000000000000000000004D030020D0
:1000C0004F0300205103002053030020550300205C
:1000D00057030020590300205B0300205D0300202C
:1000E0005F030020610300206303002065030020FC
:1000F00067030020690300206B0300206D030020CC
:100100006F0300207103002073030020750300209B
:1001100077030020790300207B0300207D0300206B
:100120007F0300208103002083030020850300203B
:1001300087030020890300208B0300208D0300200B
:100140008F030020910300209303002095030020DB
:1001500097030020990300209B0300209D030020AB
:100160009F030020A1030020A3030020A50300207B
:10017000A7030020A9030020AB030020AD0300204B
:10018000AF030020B1030020B3030020B50300201B
:10019000B7030020B9030020BB030020BD030020EB
:1001A000BF030020C1030020C3030020C5030020BB
:1001B000C7030020C9030020CB030020CD0300208B
:1001C000CF030020D1030020D3030020D50300205B
:1001D000D7030020D9030020DB030020DD0300202B
:1001E000DF030020E1030020E3030020E5030020FB
:1001F000E7030020E9030020EB030020ED030020CB
:10020000EF030020F1030020F3030020F50300209A
:10021000F7030020F9030020FB030020FD0300206A
:10022000FF03002001040020030400200504002037
:1002300007040020090400200B0400200D04002006
:100240000F040020110400201304002015040020D6
:1002500017040020190400201B0400201D040020A6
:100260001F04002021040020230400202504002076
:1002700027040020290400202B0400202D04002046
:100280002F04002031040020330400203504002016
:100290003704002039040020684880476848002857
:1002A0000BD168486849694A884206D091421CBF10
:1002B00050F8043B41F8043BF8D165486549664A6B
:1002C000884206D091421CBF50F8043B41F8043BE1
:1002D000F8D162486249634A914218BF41F8040B61
:1002E000FAD1000000000000000000000000000043
:1002F000DFF874010FF2030E00474FF000004FF0DB
:100300000001DFF868F1FEE7FEE7FEE7FEE7FEE743
:10031000FEE7FEE7FEE7FEE7FEE7FEE7FEE7FEE7B5
:10032000FEE7FEE7FEE7FEE7FEE7FEE7FEE7FEE7A5
:10033000FEE7FEE7FEE7FEE7FEE7FEE7FEE7FEE795
:10034000FEE7FEE7FEE7FEE7FEE7FEE7FEE7FEE785
:10035000FEE7FEE7FEE7FEE7FEE7FEE7FEE7FEE775
:10036000FEE7FEE7FEE7FEE7FEE7FEE7FEE7FEE765
:10037000FEE7FEE7FEE7FEE7FEE7FEE7FEE7FEE755
:10038000FEE7FEE7FEE7FEE7FEE7FEE7FEE7FEE745
:10039000FEE7FEE7FEE7FEE7FEE7FEE7FEE7FEE735
:1003A000FEE7FEE7FEE7FEE7FEE7FEE7FEE7FEE725
:1003B000FEE7FEE7FEE7FEE7FEE7FEE7FEE7FEE715
:1003C000FEE7FEE7FEE7FEE7FEE7FEE7FEE7FEE705
:1003D000FEE7FEE7FEE7FEE7FEE7FEE7FEE7FEE7F5
:1003E000FEE7FEE7FEE7FEE7FEE7FEE7FEE7FEE7E5
:1003F000FEE7FEE7FEE7FEE7FEE7FEE7FEE7FEE7D5
:10040000FEE7FEE7FEE7FEE7FEE7FEE7FEE7FEE7C4
:10041000FEE7FEE7FEE7FEE7FEE7FEE7FEE7FEE7B4
:10042000FEE7FEE7FEE7FEE7FEE7FEE7FEE7FEE7A4
:10043000FEE7FEE7FEE7FEE7FEE70000E93D0020FD
:1004400000000000000000200000002028A800207C
:1004500028A8002028A8002048AD002000000000A7
:1004600048AD0020E8AE002059400020C51B002008
:100470004AF64853C2F200031A780AB901201870EC
:10048000704700BF4AF62800C2F2000008B50368B2
:100490002BB140F20003C0F2000303B1984708BD3E
:1004A00080B58AB000AFF86079813A81FB80B7F9F6
:1004B0003020B7F90830C3EB020383EAE372A2EB02
:1004C000E372B7F90610B7F90A30C3EB0103002B4A
:1004D000B8BF5B429A42D4BF00230123FB82B7F925
:1004E0001630002B0BD07B893B843B897B813B8C76
:1004F0003B81FB887B843B8EFB807B8C3B86B7F902
:100500000A20B7F906309A420BDD7B89BB84FB8851
:100510007B81BB8CFB803B89FB843B8E3B81FB8CCE
:100520003B86FA887B89C3EB02039BB23B83B7F916
:100530003020B7F90830C3EB0203002BB8BF5B4291
:100540007B83B7F918304FEAD37213444FEA630341
:10055000BB83B7F90820B7F930309A4203DA4FF07D
:100560000103FB8330E04FF6FF73FB832CE0B7F908
:100570001630002B08D0B7F90810B7F90A20BB8E47
:10058000F86801F0A3F91BE0B7F90A10B7F90820E1
:10059000BB8EF86801F09AF9BA8B7B8BC3EB020330
:1005A0009BB2BB83B7F91C30002B09DA3A89FB8B6D
:1005B00013449BB23B81BA8B3B8B13449BB2BB83EE
:1005C0007B8903F101037B81B7F90A20B7F9063073
:1005D0009A42CCDD07F12807BD4680BD80B584B0C6
:1005E00002AF78600B467B807B689B887A68D288F4
:1005F0001BB212B200927A88019278684FF0000123
:100600004FF0000201F0C4FA07F10807BD4680BDB3
:1006100080B588B002AFF86079813A81FB80B7F984
:100620000A20B7F906309A421ED1B7F90820B7F967
:1006300020309A4205DD3B89BB823B8C3B81BB8AE3
:100640003B843A8C3B89C3EB02039BB203F1010369
:100650009BB2B7F90A10B7F908201BB2B88C00900A
:10066000F86801F069FA32E0B7F90820B7F92030EC
:100670009A421ED1B7F90A20B7F906309A4205DD31
:100680007B89FB82FB887B81FB8AFB80FA887B89E4
:10069000C3EB02039BB203F101039BB2B7F90A104B
:1006A000B7F908201BB2B88C0090F86801F05AFA2C
:1006B0000DE0B7F90A10B7F90820B7F90630B7F915
:1006C00020000090B88C0190F868FFF7E9FE07F170
:1006D0001807BD4680BD00BF80B588B000AFF86088
:1006E00079813A81FB80FB88C3F101039BB2FB82D5
:1006F0004FF001033B83FB881A464FEAC232C3EB3B
:1007000002034FEA43039BB27B834FF00003BB839A
:10071000FB88FB833A89FB8813449BB2B7F90A1024
:100720001AB23B8DF86801F0D1F83A89FB88C3EB27
:1007300002039BB2B7F90A101AB23B8DF86801F0B8
:10074000C5F87A89FB8813449BB219B2B7F908201F
:100750003B8DF86801F0BAF87A89FB88C3EB020395
:100760009BB219B2B7F908203B8DF86801F0AEF8DA
:100770009FE0B7F91630002B0DDBFB8B03F1FF3345
:10078000FB837B8B03F102039BB27B83FA8A7B8B17
:1007900013449BB2FB82BB8B03F10103BB833B8BF6
:1007A00003F102039BB23B83FA8A3B8B13449BB257
:1007B000FB827A89BB8B13449BB21A463989FB8B27
:1007C0000B449BB211B21AB23B8DF86801F07EF86F
:1007D0007A89BB8BC3EB02039BB21A463989FB8B28
:1007E0000B449BB211B21AB23B8DF86801F06EF85F
:1007F0007A89BB8B13449BB21A463989FB8BC3EBB6
:1008000001039BB211B21AB23B8DF86801F05EF899
:100810007A89BB8BC3EB02039BB21A463989FB8BE7
:10082000C3EB01039BB211B21AB23B8DF86801F021
:100830004DF87A89FB8B13449BB21A463989BB8BDE
:100840000B449BB211B21AB23B8DF86801F03EF82E
:100850007A89FB8BC3EB02039BB21A463989BB8BA7
:100860000B449BB211B21AB23B8DF86801F02EF81E
:100870007A89FB8B13449BB21A463989BB8BC3EB35
:1008800001039BB211B21AB23B8DF86801F01EF859
:100890007A89FB8BC3EB02039BB21A463989BB8B67
:1008A000C3EB01039BB211B21AB23B8DF86801F0A1
:1008B0000DF8B7F91C20B7F91E309A42FFF659AF70
:1008C00007F12007BD4680BD80B588B000AFF86055
:1008D00079813A81FB80FB88C3F101039BB2FB82E3
:1008E0004FF001033B83FB881A464FEAC232C3EB49
:1008F00002034FEA43039BB27B834FF00003BB83A9
:10090000FB88FB83B8E0B7F91630002B0DDBFB8BBF
:1009100003F1FF33FB837B8B03F102039BB27B83E9
:10092000FA8A7B8B13449BB2FB82BB8B03F10103DE
:10093000BB833B8B03F102039BB23B83FA8A3B8B65
:1009400013449BB2FB8297F8283003F00403002B7A
:100950001DD07A89BB8B13449BB21A463989FB8B15
:100960000B449BB211B21AB2BB8DF86800F0AEFF17
:100970007A89FB8B13449BB21A463989BB8B0B4493
:100980009BB211B21AB2BB8DF86800F09FFF97F8C6
:10099000283003F00203002B1FD07A89BB8B13444D
:1009A0009BB21A463989FB8BC3EB01039BB211B290
:1009B0001AB2BB8DF86800F089FF7A89FB8B13446B
:1009C0009BB21A463989BB8BC3EB01039BB211B2B0
:1009D0001AB2BB8DF86800F079FF97F8283003F061
:1009E0000803002B1FD07A89FB8BC3EB02039BB259
:1009F0001A463989BB8B0B449BB211B21AB2BB8D1C
:100A0000F86800F063FF7A89BB8BC3EB02039BB2EB
:100A10001A463989FB8B0B449BB211B21AB2BB8DBB
:100A2000F86800F053FF97F8283003F00103DBB2B9
:100A3000002B21D07A89FB8BC3EB02039BB21A46B1
:100A40003989BB8BC3EB01039BB211B21AB2BB8DC8
:100A5000F86800F03BFF7A89BB8BC3EB02039BB2C3
:100A60001A463989FB8BC3EB01039BB211B21AB250
:100A7000BB8DF86800F02AFFB7F91C20B7F91E30CB
:100A80009A42FFF640AF07F12007BD4680BD00BF88
:100A900080B588B004AFF86079813A81FB803A89EB
:100AA000FB88C3EB02039BB21A46FB884FEA430361
:100AB0009BB203F101039BB2B7F90A1012B21BB249
:100AC000388B0090F86800F0E1FFB7F90A10B7F929
:100AD0000820B7F906304FF0030000904FF00000F7
:100AE0000190388B0290F86800F004F807F11007C5
:100AF000BD4680BD80B58AB002AFF86079813A8189
:100B0000FB80FB88C3F101039BB2FB824FF0010322
:100B10003B83FB881A464FEAC232C3EB02034FEA1B
:100B200043039BB27B834FF00003BB83FB88FB83B3
:100B3000A2E0B7F91630002B0DDBFB8B03F1FF337E
:100B4000FB837B8B03F102039BB27B83FA8A7B8B53
:100B500013449BB2FB82BB8B03F10103BB833B8B32
:100B600003F102039BB23B83FA8A3B8B13449BB293
:100B7000FB8297F8283003F00103DBB2002B39D059
:100B80007A89BB8B13449BB219463A89FB8BC3EB22
:100B900002039BB21A46FB8B4FEA430398B2BB8D0C
:100BA00003449BB203F101039BB209B212B21BB220
:100BB000388E0090F86800F069FF7A89FB8B134447
:100BC0009BB219463A89BB8BC3EB02039BB21A4610
:100BD000BB8B4FEA430398B2BB8D03449BB203F136
:100BE00001039BB209B212B21BB2388E0090F868B2
:100BF00000F04CFF97F8283003F00203002B3BD0A5
:100C00007A89BB8BC3EB02039BB219463A89FB8BF3
:100C1000C3EB02039BB21A46FB8B4FEA430398B225
:100C2000BB8D03449BB203F101039BB209B212B224
:100C30001BB2388E0090F86800F028FF7A89FB8B91
:100C4000C3EB02039BB219463A89BB8BC3EB020389
:100C50009BB21A46BB8B4FEA430398B2BB8D034449
:100C60009BB203F101039BB209B212B21BB2388EE0
:100C70000090F86800F00AFFB7F91C20B7F91E30A1
:100C80009A42FFF656AF07F12007BD4680BD00BF70
:100C900080B586B002AFF86079813A81FB80B7F900
:100CA0000A10B7F90820B7F90630B88B0090F86839
:100CB00000F008FF3A893B8B13449BB203F1FF33EA
:100CC0009BB2B7F90A101AB2B7F90630B88B009088
:100CD000F86800F0F7FEB7F90A10B7F90820B7F97D
:100CE0001830B88B0090F86800F0D0FE7A89FB8845
:100CF00013449BB203F1FF339BB219B2B7F908203A
:100D0000B7F91830B88B0090F86800F0BFFE07F113
:100D10001007BD4680BD00BF80B586B002AFF86049
:100D200079813A81FB807A89BB8B13449BB21A4646
:100D3000BB8B19464FEAC131C3EB01034FEA4303B2
:100D400099B2FB880B449BB211B2B7F908201BB2D1
:100D5000388C0090F86800F0B5FE7A89BB8B13449C
:100D60009BB219463A893B8B13449BB203F1FF3384
:100D70009BB21A46BB8B18464FEAC030C3EB000348
:100D80004FEA430398B2FB8803449BB209B212B204
:100D90001BB2388C0090F86800F094FE3A89BB8B47
:100DA00013449BB21A46BB8B19464FEAC131C3EBC1
:100DB00001034FEA430399B23B8B0B449BB2B7F953
:100DC0000A1012B21BB2388C0090F86800F05EFE78
:100DD0007A89FB8813449BB203F1FF339BB2194617
:100DE0003A89BB8B13449BB21A46BB8B18464FEA19
:100DF000C030C3EB00034FEA430398B23B8B03447C
:100E00009BB209B212B21BB2388C0090F86800F0A5
:100E10003DFE7A89BB8B13449BB21A463989BB8B42
:100E20000B449BB211B21AB2B7F91C304FF001005B
:100E30000090388C0190F868FFF746FD7A89FB88AE
:100E400013449AB2BB8BC3EB02039BB203F1FF3393
:100E50009BB21A463989BB8B0B449BB211B21AB2B2
:100E6000B7F91C304FF002000090388C0190F86800
:100E7000FFF72AFD7A89FB8813449AB2BB8BC3EB38
:100E800002039BB203F1FF339BB21A4639893B8BB5
:100E90000B4499B2BB8BC3EB01039BB203F1FF334D
:100EA0009BB211B21AB2B7F91C304FF00400009097
:100EB000388C0190F868FFF707FD7A89BB8B1344E3
:100EC0009BB21A4639893B8B0B4499B2BB8BC3EB5F
:100ED00001039BB203F1FF339BB211B21AB2B7F90F
:100EE0001C304FF008000090388C0190F868FFF734
:100EF000EBFC07F11007BD4680BD00BF80B588B090
:100F000004AFF86079813A81FB807A89BB8B134406
:100F10009BB21A46BB8B19464FEAC131C3EB0103A2
:100F20004FEA430399B2FB880B449BB211B2B7F965
:100F300008201BB2B7F918000090388C0190F868AF
:100F400000F020FD7A89FB8813449AB2BB8BC3EB77
:100F500002039BB203F1FF339BB219463A89BB8B64
:100F600013449BB21A46BB8B18464FEAC030C3EB02
:100F700000034FEA430398B23B8B03449BB203F157
:100F8000FF339BB2184609B212B2B7F91C304FF0CA
:100F9000010CCDF800C000B20190388C0290F868C6
:100FA000FFF7A8FD7A89BB8B13449BB219463A8997
:100FB000BB8B13449BB21A46BB8B18464FEAC0301A
:100FC000C3EB00034FEA430398B23B8B03449BB24D
:100FD00003F1FF339BB2184609B212B2B7F91C30C5
:100FE0004FF0020CCDF800C000B20190388C029096
:100FF000F868FFF77FFD07F11007BD4680BD00BF11
:1010000080B586B002AFF86079813A81FB80B7F98C
:101010000A10B7F90820B7F90630B7F918000090A0
:10102000B88C0190F868FFF7F3FAB7F90610B7F932
:101030001820B7F91C30B7F920000090B88C019047
:10104000F868FFF7E5FAB7F91C10B7F92020B7F9EF
:101050000A30B7F908000090B88C0190F868FFF7E3
:10106000D7FA07F11007BD4680BD00BF80B592B02A
:1010700002AFF86079813A81FB80B7F90820B7F9AF
:1010800048309A420DDD3B893B86B7F848303B81BA
:101090003B8EA7F848307B897B86FB887B817B8EE3
:1010A000FB80B7F94820B7F950309A4211DDB7F804
:1010B0005030BB86B7F84830A7F85030BB8EA7F841
:1010C0004830B7F84C30FB86FB88A7F84C30FB8ED5
:1010D000FB80B7F90820B7F948309A420DDD3B890B
:1010E0003B87B7F848303B813B8FA7F848307B8976
:1010F0007B87FB887B817B8FFB80B7F90820B7F962
:1011000050309A423BD17B89FB82FB8ABB82B7F984
:101110000620B7F914309A4202DAFB88BB8207E056
:10112000B7F90620B7F916309A4201DDFB88FB8239
:10113000B7F94C20B7F914309A4203DAB7F84C30BB
:10114000BB8208E0B7F94C20B7F916309A4202DDAD
:10115000B7F84C30FB82FA8ABB8AC3EB02039BB21E
:1011600003F101039BB2B7F91410B7F908201BB2C1
:10117000B7F854000090F86800F0A4FCE7E0FA88A3
:101180007B89C3EB02039BB2BB83B7F848203B8942
:10119000C3EB02039BB2FB83B7F84C207B89C3EB04
:1011A00002039BB23B84B7F850203B89C3EB020398
:1011B0009BB27B84B7F84C20FB88C3EB02039BB245
:1011C000BB84B7F85020B7F84830C3EB02039BB29A
:1011D000FB844FF00003BB624FF00003FB62B7F9E2
:1011E0004820B7F950309A4203D1B7F848307B8392
:1011F00005E0B7F8483003F1FF339BB27B833B89AE
:101200003B8340E0B7F91E30BA6A92FBF3F39AB21F
:101210007B8913449BB2BB82B7F92230FA6A92FBF6
:10122000F3F39AB27B8913449BB2FB82B7F91C306B
:10123000BA6A1344BB62B7F92030FA6A1344FB62FE
:10124000B7F91420B7F916309A4205DDBB8ABB877F
:10125000FB8ABB82BB8FFB82FA8ABB8AC3EB020389
:101260009BB203F101039BB2B7F91410B7F9182030
:101270001BB2B7F854000090F86800F023FC3B8BD9
:1012800003F101033B83B7F91820B7F91A309A42EA
:10129000B8DDB7F92430B7F91810B7F94820C2EB18
:1012A000010202FB03F3BB62B7F92030B7F9181053
:1012B000B7F90820C2EB010202FB03F3FB6240E036
:1012C000B7F92630BA6A92FBF3F39AB2FB8813445B
:1012D0009BB2BB82B7F92230FA6A92FBF3F39AB25F
:1012E0007B8913449BB2FB82B7F92430BA6A13445A
:1012F000BB62B7F92030FA6A1344FB62B7F91420D5
:10130000B7F916309A4205DDBB8AFB87FB8ABB82A0
:10131000FB8FFB82FA8ABB8AC3EB02039BB203F109
:1013200001039BB2B7F91410B7F918201BB2B7F834
:1013300054000090F86800F0C5FB3B8B03F10103FB
:101340003B83B7F91820B7F950309A42B8DD07F15E
:101350004007BD4680BD00BF80B483B000AF786059
:101360007B689B881BB2184607F10C07BD4680BC02
:10137000704700BF80B483B000AF78607B68DB88C3
:101380001BB2184607F10C07BD4680BC704700BF72
:1013900080B586B000AF78604FF00003FB6002F0CC
:1013A00045FE03467B617B693B6103E002F03EFE44
:1013B00003463B613A697B69C3EB0202FB689A42D0
:1013C000F4D307F11807BD4680BD00BF80B483B0D9
:1013D00000AF13460246FA710A46BA717B71FB7977
:1013E00003F0F8034FEA03239AB2BB7903F0FC033E
:1013F0004FEAC3039BB242EA03039AB27B794FEAF6
:10140000D303DBB242EA03039BB29BB2184607F157
:101410000C07BD4680BC704780B582B000AF034664
:10142000FB71FB794AF6DC50C2F20000194602F06B
:101430004FF907F10807BD4680BD00BF80B582B0F7
:1014400000AF0346FB714FF00000FFF7E5FFFB79AB
:101450004AF6DC50C2F20000194602F005FA4FF0DD
:10146000000000F005F807F10807BD4680BD00BF89
:1014700080B582B000AF0346FB71FB794AF6DC50C1
:10148000C2F20000194602F0A7F907F10807BD46AD
:1014900080BD00BF80B400AF4AF64953C2F20003DA
:1014A0001B781846BD4680BC704700BF80B582B02F
:1014B00000AF0346FB80FB884FEA13239BB2DBB2ED
:1014C0001846FFF7BBFFFB88DBB21846FFF7B6FFF5
:1014D00007F10807BD4680BD80B582B000AF034666
:1014E000FB80FB884FEA2363DBB21846FFF7A6FFB9
:1014F0004FF00000FFF7A2FFFB884FEA13239BB2D7
:10150000DBB21846FFF79AFFFB88DBB21846FFF7FD
:1015100095FF07F10807BD4680BD00BF80B582B0CA
:1015200000AF0346FB714FF00100FFF775FFFB7939
:101530001846FFF783FF4FF00100FFF799FF07F10F
:101540000807BD4680BD00BF80B582B000AF78609F
:101550004FF0EF00FFF7E2FF4FF00300FFF76EFFE1
:101560004FF08000FFF76AFF4FF00200FFF766FFC1
:101570004FF0CF00FFF7D2FF4FF00000FFF75EFF04
:101580004FF0C100FFF75AFF4FF03000FFF756FF52
:101590004FF0ED00FFF7C2FF4FF06400FFF74EFF82
:1015A0004FF00300FFF74AFF4FF01200FFF746FF2E
:1015B0004FF08100FFF742FF4FF0E800FFF7AEFF6A
:1015C0004FF08500FFF73AFF4FF00000FFF736FFBE
:1015D0004FF07800FFF732FF4FF0CB00FFF79EFF90
:1015E0004FF03900FFF72AFF4FF02C00FFF726FFDE
:1015F0004FF00000FFF722FF4FF03400FFF71EFF0F
:101600004FF00200FFF71AFF4FF0F700FFF786FFD9
:101610004FF02000FFF712FF4FF0EA00FFF77EFFC8
:101620004FF00000FFF70AFF4FF00000FFF706FF42
:101630004FF0C000FFF772FF4FF02300FFF7FEFEF0
:101640004FF0C100FFF76AFF4FF01000FFF7F6FE02
:101650004FF0C500FFF762FF4FF03E00FFF7EEFED0
:101660004FF02800FFF7EAFE4FF0C700FFF756FFE4
:101670004FF08600FFF7E2FE4FF03600FFF74EFF17
:101680004FF04800FFF7DAFE4FF03700FFF746FF54
:101690004FF00000FFF7D2FE4FF00000FFF7CEFE44
:1016A0004FF03A00FFF73AFF4FF05500FFF7C6FE44
:1016B0004FF0B100FFF732FF4FF00000FFF7BEFE22
:1016C0004FF01800FFF7BAFE4FF0B600FFF726FF05
:1016D0004FF00800FFF7B2FE4FF08200FFF7AEFEBA
:1016E0004FF02700FFF7AAFE4FF0F200FFF716FFBA
:1016F0004FF00000FFF7A2FE4FF02600FFF70EFFAD
:101700004FF00100FFF79AFE4FF0E000FFF706FFF1
:101710004FF00F00FFF792FE4FF03100FFF78EFE03
:101720004FF02B00FFF78AFE4FF00C00FFF786FE0C
:101730004FF00E00FFF782FE4FF00800FFF77EFE2D
:101740004FF04E00FFF77AFE4FF0F100FFF776FE04
:101750004FF03700FFF772FE4FF00700FFF76EFE05
:101760004FF01000FFF76AFE4FF00300FFF766FE30
:101770004FF00E00FFF762FE4FF00900FFF75EFE2C
:101780004FF00000FFF75AFE4FF0E100FFF7C6FEF2
:101790004FF00000FFF752FE4FF00E00FFF74EFE35
:1017A0004FF01400FFF74AFE4FF00300FFF746FE2C
:1017B0004FF01100FFF742FE4FF00700FFF73EFE2B
:1017C0004FF03100FFF73AFE4FF0C100FFF736FE51
:1017D0004FF04800FFF732FE4FF00800FFF72EFEF3
:1017E0004FF00F00FFF72AFE4FF00C00FFF726FE28
:1017F0004FF03100FFF722FE4FF03600FFF71EFEDC
:101800004FF00F00FFF71AFE4FF01100FFF786FEB2
:101810004FF07800FFF7BCFD4FF02900FFF77EFE88
:101820004FF07800FFF7B4FD7B684FF0F0029A802C
:101830007B684FF4A072DA8007F10807BD4680BDCF
:1018400080B584B000AFF880B9807A803B80FB8897
:101850004FEA0342F9887B880B4403F1FF3342EAE5
:101860000303BB60BB884FEA0342B9883B880B4443
:1018700003F1FF3342EA0303FB604FF02A00FFF756
:101880004DFEBB689BB21846FFF726FE4FF02B00BB
:10189000FFF744FEFB689BB21846FFF71DFE4FF0B2
:1018A0002C00FFF73BFE07F11007BD4680BD00BFCF
:1018B00080B582B000AF0346FB80FB881846FFF777
:1018C000F5FD07F10807BD4680BD00BF80B584B0B7
:1018D00000AFF86079813A81FB80B7F90A30002BBC
:1018E00020DBFB689B88B7F90A201BB29A421BDAFF
:1018F000B7F90830002B19DBFB68DB88B7F9082043
:101900001BB29A4214DA7A893B89104619464FF085
:1019100001024FF00103FFF793FFFB881846FFF722
:10192000C7FF06E000BF04E000BF02E000BF00E028
:1019300000BF07F11007BD4680BD00BF80B586B06F
:1019400000AFF8600B467A607B817B894FEA1323F6
:101950009BB2BB757B89FB757B683B610BE0BB7DF4
:101960001846FFF76BFDFB7D1846FFF767FD3B69E7
:1019700003F1FF333B613B69002BF0D107F11807FE
:10198000BD4680BD80B586B000AFF86079813A81F0
:10199000FB80FB689B88B7F90A201BB29A4269DA80
:1019A000FB68DB88B7F908201BB29A4264DA7A89AF
:1019B000FB8813449BB203F1FF339BB23B823A890D
:1019C0003B8C13449BB203F1FF339BB27B82B7F98C
:1019D0001030002B52DBB7F91230002B50DBB7F977
:1019E0000A30002B07DA4FF000037B813B8A03F1BA
:1019F00001039BB2FB80B7F90830002B07DA4FF0E8
:101A000000033B817B8A03F101039BB23B84FB68AB
:101A10009B88B7F910201BB29A4207DBFB689B88B2
:101A20009AB27B89C3EB02039BB2FB80FB68DB8825
:101A3000B7F912201BB29A4207DBFB68DB889AB227
:101A40003B89C3EB02039BB23B84B7F90630B7F97D
:101A5000202002FB03F37B6178893989FA883B8C6B
:101A6000FFF7EEFE7B69BA8CF86811461A46FFF75D
:101A700065FF06E000BF04E000BF02E000BF00E039
:101A800000BF07F11807BD4680BD00BF80B586B016
:101A900002AFF86079813A81FB80B7F90A20B7F983
:101AA0000830B7F906100091398B0191F86811469A
:101AB0001A464FF00103FFF765FF07F11007BD4617
:101AC00080BD00BF80B586B002AFF86079813A81F1
:101AD000FB80B7F90A10B7F90820B7F906304FF0C4
:101AE00001000090388B0190F868FFF74BFF07F179
:101AF0001007BD4680BD00BF80B584B000AF024670
:101B00000B46FA71BB714FF0D900FFF707FDBB79A7
:101B100003F11003DBB21846FFF790FCFB7918467F
:101B2000FFF7FCFCFFF7B6FC0346FB73FB7B184694
:101B300007F11007BD4680BD80B586B002AFF860E2
:101B400079813A81FB80B7F90A10B7F90820B7F913
:101B50000630388B0090F868FFF798FF07F1100700
:101B6000BD4680BD80B586B002AFF86079813A810C
:101B7000FB80B7F90A10B7F90820B7F90630388B9F
:101B80000090F868FFF79EFF07F11007BD4680BD83
:101B900080B586B002AFF86079813A81FB80B7F9F1
:101BA0000A10B7F90820B7F90630B7F91800009005
:101BB000B88B0190F868FFF7E5FE07F11007BD4606
:101BC00080BD00BF80B582B002AF4FF0200002F0B0
:101BD00073FA03461A464AF68853C2F200031A60A3
:101BE0004AF68853C2F200031B684FF4A0725A8071
:101BF0004AF68853C2F200031B684FF0F0021A80C5
:101C00004AF6DC50C2F2000001F018FB4FF0080366
:101C100000934AF6DC50C2F200004FF000014FF092
:101C200000024FF0070301F0C3FC4FF008030093DC
:101C30004AF6DC50C2F200004FF001014FF0000202
:101C40004FF0070301F0B4FC4AF6DC50C2F200008A
:101C50004FF000014FF007024FF0080301F038FC8D
:101C60004AF68853C2F200031B68184600F010FEC3
:101C7000FEE700BF80B582B000AF786078684FF0B3
:101C80000001FEF7ABFC78684FF47841FEF7A6FC44
:101C900078684FF4FC61FEF7A1FC78684FF01F01F3
:101CA000FEF79CFC78684FF00001FEF797FC07F107
:101CB0000807BD4680BD00BF80B58AB002AF78601E
:101CC0000B467B807868FFF747FB03469BB21BB24D
:101CD000BB617868FFF74EFB03469BB21BB2FB610A
:101CE00078684FF00001FEF779FC4FF00003FB60CD
:101CF000FB68BB60FB6903F1FF337B614FF00003BE
:101D00003B6115E0BB6899B2FB689AB23B699BB234
:101D1000786980B209B212B21BB200B20090788822
:101D200001907868FEF774FC3B6903F106033B61A0
:101D30003A69BB699A42E5DBBB6903F1FF333B615A
:101D40004FF000037B6115E0BB6899B2FB689AB263
:101D50003B699BB2786980B209B212B21BB200B281
:101D60000090788801907868FEF752FC7B6903F157
:101D700006037B617A69FB699A42E5DB78684FF07C
:101D80000001FEF72BFCBB6903F1FF33BB604FF092
:101D90000003FB60FB6903F1FF337B614FF000033D
:101DA0003B6115E0BB6899B2FB689AB23B699BB294
:101DB000786980B209B212B21BB200B20090788882
:101DC00001907868FEF724FC3B6903F106033B6150
:101DD0003A69BB699A42E5DB4FF000033B614FF083
:101DE00000037B6115E0BB6899B2FB689AB23B695E
:101DF0009BB2786980B209B212B21BB200B20090F5
:101E0000788801907868FEF703FC7B6903F106038C
:101E10007B617A69FB699A42E5DB78684FF00001E3
:101E2000FEF7DCFB4FF00003BB60FB6903F1FF33FF
:101E3000FB604FF000037B614FF000033B6115E056
:101E4000BB6899B2FB689AB23B699BB2786980B271
:101E500009B212B21BB200B2009078880190786883
:101E6000FEF7D6FB3B6903F106033B613A69BB69A8
:101E70009A42E5DBBB6903F1FF333B614FF000039E
:101E80007B6115E0BB6899B2FB689AB23B699BB273
:101E9000786980B209B212B21BB200B200907888A1
:101EA00001907868FEF7B4FB7B6903F106037B6160
:101EB0007A69FB699A42E5DB78684FF00001FEF72A
:101EC0008DFBBB6903F1FF33BB60FB6903F1FF339B
:101ED000FB604FF000037B614FF000033B6115E0B6
:101EE000BB6899B2FB689AB23B699BB2786980B2D1
:101EF00009B212B21BB200B20090788801907868E3
:101F0000FEF786FB3B6903F106033B613A69BB6957
:101F10009A42E5DB4FF000033B614FF000037B6129
:101F200015E0BB6899B2FB689AB23B699BB27869CD
:101F300080B209B212B21BB200B200907888019050
:101F40007868FEF765FB7B6903F106037B617A69BC
:101F5000FB699A42E5DB07F12007BD4680BD00BF63
:101F600080B588B002AF786013460A467A803B801D
:101F70007868FFF7F1F903469BB21BB23B617868C2
:101F8000FFF7F8F903469BB21BB27B6178684FF00C
:101F90000001FEF723FB4FF00003FB6010E0FB683D
:101FA0009AB23B699BB212B21BB2798800917868F1
:101FB0004FF00001FFF7D6FDFB6803F10503FB605E
:101FC000FA687B699A42EADB4FF00003BB6011E0DC
:101FD000BB689AB27B699BB212B21BB2398800917E
:101FE000786811464FF00002FFF7A6FDBB6803F1C9
:101FF0000503BB60BA683B699A42E9DB07F1180741
:10200000BD4680BD90B58BB002AF78600B467B803B
:102010007868FFF7A1F903469BB21BB24FEAD3726F
:1020200013444FEA63039BB21BB2BB617868FFF7AE
:10203000A1F903469BB21BB24FEAD37213444FEA95
:1020400063039BB21BB2FB6178684FF00001FEF79F
:10205000C5FA7868FFF780F903469CB27868FFF705
:1020600089F903469BB222B21BB29A4206DA78681B
:10207000FFF772F903469BB21BB205E07868FFF7E1
:1020800079F903469BB21BB2FB604FF002033B6140
:1020900028E03B694FEAD37213444FEA63037B6144
:1020A000BB699AB27B699BB2C3EB02039BB2194630
:1020B000FB699AB27B699BB2C3EB02039BB21A46DF
:1020C0003B699BB2386980B209B212B21BB200B24E
:1020D0000090788801907868FEF7DAFD3B6903F19B
:1020E00006033B613A69FB689A42D2DB07F1240799
:1020F000BD4690BD90B58BB002AF786013460A46DE
:102100007A803B807868FFF727F903469BB21BB2C1
:102110004FEAD37213444FEA63039BB21BB203F13D
:10212000FF33BB617868FFF725F903469BB21BB20A
:102130004FEAD37213444FEA63039BB21BB203F11D
:10214000FF33FB6178684FF00001FEF747FA7868CB
:10215000FFF702F903469CB27868FFF70BF90346D4
:102160009BB222B21BB29A4206DA7868FFF7F4F803
:1021700003469BB21BB205E07868FFF7FBF8034605
:102180009BB21BB2FB60FB683B6146E03B694FEAD8
:10219000D37213444FEA63037B61BB699AB27B69D4
:1021A0009BB2C3EB02039BB21946FB699AB27B69EF
:1021B0009BB2C3EB02039BB21A463B699BB23869E0
:1021C00080B209B212B21BB200B2009078880190BE
:1021D0007868FFF7DDFCBB699AB27B699BB2C3EB01
:1021E00002039BB21946FB699AB27B699BB2C3EBAF
:1021F00002039BB21A463B699BB2386980B209B2AE
:1022000012B21BB200B20090388801907868FEF7D5
:102210003FFD3B69A3F106033B613B69002BB5DC45
:1022200007F12407BD4690BD80B58AB002AF786043
:1022300013460A46FA703B807868FFF78DF803462C
:102240009BB21BB27B617868FFF794F803469BB2A0
:102250001BB2BB61FB784FEA4303FB6178684FF028
:102260000001FEF7BBF9FB78FB601BE0FB783B61EC
:1022700010E0FB6899B23B699AB2FB7809B212B2DE
:102280001BB2388800907868FEF702FC3A69FB6957
:1022900013443B613A69BB699A42EADBFA68FB691D
:1022A0001344FB60FA687B699A42DFDB07F1200781
:1022B000BD4680BD80B58AB002AF786013460A463D
:1022C000FA703B80FB784FEA43037B617868FFF745
:1022D00043F803469BB21AB2FB781344BB6178689B
:1022E000FFF748F803469BB21AB2FB781344FB6130
:1022F0004FF00003FB601CE04FF000033B6110E077
:10230000FB6899B23B699AB2FB7809B212B21BB270
:10231000388800907868FEF7DFF93A697B691344E2
:102320003B613A69FB699A42EADBFA687B691344CC
:10233000FB60FA68BB699A42DEDB07F12007BD4605
:1023400080BD00BF2DE9F0478AB004AF786078689F
:10235000FFF702F803469BB21BB24FEAD372134455
:102360004FEA63039BB21BB203F1FF333B61786812
:10237000FFF700F803469BB21BB24FEAD372134437
:102380004FEA63039BB21BB203F1FF337B617868B2
:102390004FF00001FEF722F97A693B699A42B8BF13
:1023A0001346BB604FF00003FB604EE03B691FFA31
:1023B00083F97B699AB2FB689BB2C3EB02039BB2C1
:1023C0009A463B699AB2FB689BB2C3EB02039BB28D
:1023D00098467B699AB2FB689BB213449BB21E4637
:1023E0003B699AB2FB689BB213449BB21D467B6962
:1023F0009AB2FB689BB213449BB21C46FB68D9B2ED
:10240000FB68DAB2FB68DBB2084611461A46FEF7F3
:10241000DDFF034618460FFA89F10FFA8AF20FFA28
:1024200088F30FFA86FCCDF800C00FFA85FCCDF8D2
:1024300004C00FFA84FCCDF808C003907868FEF75A
:10244000DFFDFB6803F10503FB60FA68BB689A4295
:10245000ACDB07F11807BD46BDE8F0872DE9F04772
:102460008AB004AF78607868FEF776FF03469BB2C7
:102470001BB24FEAD37213444FEA63039BB21BB201
:1024800003F1FF333B617868FEF774FF03469BB2AC
:102490001BB24FEAD37213444FEA63039BB21BB2E1
:1024A00003F1FF337B6178684FF00001FEF796F887
:1024B0007A693B699A42B8BF1346FB60B3E03B6957
:1024C0001FFA83F97B699AB2FB689BB2C3EB0203E4
:1024D0009BB29A463B699AB2FB689BB2C3EB02037C
:1024E0009BB298467B699AB2FB689BB213449BB23D
:1024F0001E463B699AB2FB689BB213449BB21D46D1
:102500007B699AB2FB689BB213449BB21C46FB6882
:10251000DBB21A464FEA820213444FEA4303DAB2AF
:10252000FB68DBB219464FEA81010B444FEA4303D3
:10253000DBB24FF0000011461A46FEF747FF034694
:1025400018460FFA89F10FFA8AF20FFA88F30FFA98
:1025500086FCCDF800C00FFA85FCCDF804C00FFA58
:1025600084FCCDF808C003907868FEF77FFD3B69D6
:102570001FFA83F97B699AB2FB689BB2C3EB020333
:102580009BB29A463B699AB2FB689BB2C3EB0203CB
:102590009BB298467B699AB2FB689BB213449BB28C
:1025A0001E463B699AB2FB689BB213449BB21D4620
:1025B0007B699AB2FB689BB213449BB21C46FB68D2
:1025C000DBB21A464FEA820213444FEA4303DAB2FF
:1025D000FB68DBB219464FEA81010B444FEA430323
:1025E000DBB2104619464FF00002FEF7EFFE03463D
:1025F00018460FFA89F10FFA8AF20FFA88F30FFAE8
:1026000086FCCDF800C00FFA85FCCDF804C00FFAA7
:1026100084FCCDF808C003907868FEF7F1FCFB68F5
:10262000A3F10503FB60FB680A2B3FF748AF07F1F6
:102630001807BD46BDE8F0872DE9F0458DB004AF21
:1026400078607868FEF788FE03469BB21BB24FEABB
:10265000D37213444FEA63039BB21BB203F1FF33FF
:10266000BB617868FEF786FE03469BB21BB24FEA59
:10267000D37213444FEA63039BB21BB203F1FF33DF
:10268000FB6178684FF00001FDF7A8FF7868FEF75E
:1026900063FE03469CB27868FEF76CFE03469BB26D
:1026A00022B21BB29A4206DA7868FEF755FE03465C
:1026B0009BB21BB205E07868FEF75CFE03469BB256
:1026C0001BB2FB604FF000033B6143E03B694FEA04
:1026D000D37213444FEA63037B61BB699AB27B698F
:1026E0009BB2C3EB02039BB29A46FB699AB27B6929
:1026F0009BB2C3EB02039BB298463B699EB23B6917
:102700009DB23B6903F10702002BB8BF13464FEAA5
:10271000E3039CB23B69DBB218464FF000014FF077
:102720000002FEF753FE034618460FFA8AF10FFA2D
:1027300088F233B20FFA85FCCDF800C00FFA84FCA2
:10274000CDF804C002907868FEF7E6FA3B6903F121
:1027500006033B613A69FB689A42B7DB07F124073D
:10276000BD46BDE8F08500BF2DE9F0458BB004AF54
:1027700078607868FEF7F0FD03469BB21BB24FEA23
:10278000D37213444FEA63039BB21BB203F1FF33CE
:102790003B617868FEF7EEFD03469BB21BB24FEA41
:1027A000D37213444FEA63039BB21BB203F1FF33AE
:1027B0007B6178684FF00001FDF710FF7868FEF745
:1027C000CBFD03469CB27868FEF7D4FD03469BB26E
:1027D00022B21BB29A4206DA7868FEF7BDFD0346C4
:1027E0009BB21BB205E07868FEF7C4FD03469BB2BE
:1027F0001BB2BB6043E0BB684FEAD37213444FEA9D
:102800006303FB603B699AB2FB689BB2C3EB0203B4
:102810009BB29A467B699AB2FB689BB2C3EB0203F8
:102820009BB29846BB689EB2BB689DB2BB6803F181
:102830000702002BB8BF13464FEAE3039CB2BB6804
:10284000DBB24FF0000019464FF00002FEF7BEFD6C
:10285000034618460FFA8AF10FFA88F233B20FFADC
:1028600085FCCDF800C00FFA84FCCDF804C00290BE
:102870007868FEF743FBBB68A3F10603BB60BB6847
:10288000142BB8DC07F11C07BD46BDE8F08500BF7E
:1028900080B584B000AF78604AF2D030C2F2000058
:1028A00001F052FF7868FEF74FFE4FF00A004FF03C
:1028B0000001FFF721F90346FB73FB7B4AF2E0308E
:1028C000C2F20000194601F03FFF4FF00B004FF03D
:1028D0000001FFF711F90346FB73FB7B4AF2FC3062
:1028E000C2F20000194601F02FFF4FF00C004FF02C
:1028F0000001FFF701F90346FB73FB7B4AF210402E
:10290000C2F20000194601F01FFF4FF00D004FF01A
:102910000001FFF7F1F80346FB73FB7B4AF224400A
:10292000C2F20000194601F00FFF4FF00F004FF008
:102930000001FFF7E1F80346FB73FB7B4AF23840E6
:10294000C2F20000194601F0FFFE4AF25040C2F206
:10295000000001F0F9FE7868FFF78CF94AF26C404C
:10296000C2F2000001F0F0FE786840F2FF71FFF75C
:10297000A3F94AF28840C2F2000001F0E5FE78684F
:102980004FF478414FF01F02FFF7EAFA4AF2A440F1
:10299000C2F2000001F0D8FE78684FF4FC61FFF746
:1029A00031FB4AF2C040C2F2000001F0CDFE78686F
:1029B0004FF6E0714FF61F02FFF79CFB4AF2DC4036
:1029C000C2F2000001F0C0FE78684FF00A014FF635
:1029D0001F02FFF729FC4AF2F840C2F2000001F0A2
:1029E000B3FE78684FF00A014FF6FF72FFF762FC02
:1029F0004AF21450C2F2000001F0A6FE7868FFF718
:102A0000A1FC4AF23050C2F2000001F09DFE78684D
:102A1000FFF724FD4AF24C50C2F2000001F094FE90
:102A20007868FFF709FE4AF26850C2F2000001F030
:102A30008BFE7868FFF798FE4AF28450C2F20000DD
:102A400001F082FE07F11007BD4680BD80B483B05F
:102A500000AF78604FF0FF33184607F10C07BD4612
:102A600080BC704780B483B000AF7860FEE700BFE1
:102A700080B483B000AF786039603B684FF4005297
:102A80005A604FF00003184607F10C07BD4680BCA2
:102A9000704700BF80B483B000AF78604FF001038F
:102AA000184607F10C07BD4680BC704780B485B05E
:102AB00000AFF860B9607A604FF00003184607F184
:102AC0001407BD4680BC704780B485B000AFF86085
:102AD000B9607A604FF00003184607F11407BD464D
:102AE00080BC704780B584B000AFF860B9607A6090
:102AF0003B604AF64C53C2F200031B68002B10D116
:102B00004AF6B450C2F200004FF461414FF00302A4
:102B100000F08AF84AF64C53C2F200034FF001026B
:102B20001A603B684AF6B450C2F2000079681A464F
:102B300000F07CF93B68184607F11007BD4680BDE0
:102B400080B584B000AF78604AF65053C2F20003FB
:102B50001B68002B08D14AF65053C2F200034AF614
:102B6000E862C2F200021A604AF65053C2F2000351
:102B70001B68BB60EFF30883FB604AF65053C2F258
:102B800000031A687B681A44FB689A420FD94FF019
:102B900000004FF001014AF28C52C2F200024FF0E5
:102BA0001903FFF79FFF4FF00100FFF75BFF4AF6A5
:102BB0005053C2F200031A687B681A444AF6505315
:102BC000C2F200031A60BB68184607F11007BD4641
:102BD00080BD00BF80B483B000AF78604FF0FF339A
:102BE000184607F10C07BD4680BC704780B483B01F
:102BF00000AF0346FB804EF20013CEF20003B7F99C
:102C000006204FEA5212F98801F01F014FF001002F
:102C100000FA01F102F1600243F8221007F10C07FB
:102C2000BD4680BC704700BF80B588B000AFF8607B
:102C3000B9601346FB714FF00103FB824FF00003B4
:102C4000BB61FA684AF6B453C2F200039A4207D055
:102C5000FA684AF68C53C2F200039A4200D000BED2
:102C6000BB68002B00D100BE01F0C4F8FA684AF638
:102C7000B453C2F200039A422ED1FB684FF0804257
:102C80001A60FB684FF084425A60FB684FF00A02FA
:102C90001A814AF63403C2F200031B68BB6142F298
:102CA0000003CEF2040342F20002CEF20402126BE1
:102CB00042F080021A634FF00A00FFF797FF42F2DA
:102CC0000003CEF2040342F20002CEF20402126BC1
:102CD00022F080021A6331E0FA6840F20003C4F285
:102CE00001031360FA6840F20003C4F2202353602A
:102CF000FB684FF00B021A814AF63803C2F2000358
:102D00001B68BB6142F20003CEF2040342F20002F0
:102D1000CEF20402126B42F480721A634FF00B0081
:102D2000FFF764FF42F20003CEF2040342F2000216
:102D3000CEF20402126B22F480721A63FB681B68E5
:102D40004FF000021A71BB68002B21D0BA69BB6832
:102D5000B2FBF3F3FB61FB6903F00803002B06D021
:102D6000FB694FEA131303F10103FB6103E0FB6905
:102D70004FEA1313FB61FA694FF6FF739A4200D9C9
:102D800000BEFA694FF6FF739A4201D8FB69FB82D5
:102D9000FB685B684FF00102C3F89C21FB681B686D
:102DA000FA8A4FEA122292B2D2B21A71FB681B68F9
:102DB000FA8AD2B21A70FB685B684FF00002C3F85F
:102DC0009C21FB681B68FA791A73FB681B684FF03B
:102DD0000E021A72FB685B684FF00002C3F8102203
:102DE000FB684FF000021A61FB684FF00002DA60E6
:102DF000FB684FF000025A61FB684FF00002DA6195
:102E0000FA6843F22D03C2F200031362FB684FF02D
:102E100000029A61FB684FF000025A62FB684FF0B3
:102E200000029A7207F12007BD4680BD80B489B0C8
:102E300000AFF860B9607A604FF000033B61FA6858
:102E40004AF6B453C2F200039A4207D0FA684AF62F
:102E50008C53C2F200039A4200D000BEBB68002B24
:102E600000D100BE7B68002B00D100BEFA684AF694
:102E7000B453C2F200039A4206D0FA684AF68C5361
:102E8000C2F200039A423DD1BB68002B3AD07B6866
:102E9000002B37D0FB681B681B7DFB76FB689A7A9A
:102EA000FB7E42EA0303DAB2FB689A72FB7E03F010
:102EB0002003002B23D04FF01003FB617B680F2B06
:102EC00001D87B68FB614FF000037B610EE0FB687B
:102ED0001B68B9683A690A4412781A703B6903F1B1
:102EE00001033B617B6903F101037B617A69FB6943
:102EF0009A42ECD37A687B69C3EB02037B607B6800
:102F0000002BC7D107F12407BD4680BC704700BF26
:102F100080B584B000AF78607A684AF6B453C2F2E4
:102F200000039A4207D07A684AF68C53C2F2000333
:102F30009A4200D000BE7A684AF6B453C2F2000347
:102F40009A4206D07A684AF68C53C2F200039A423B
:102F500067D17B681B681B7ADBB203F00F03FB733E
:102F6000FB7B0C2B54D801A252F823F0A12F002098
:102F700011300020BD2F002011300020D92F00205B
:102F800011300020F52F00201130002011300020DA
:102F9000113000201130002011300020D92F0020E6
:102FA0007B685B6A002B00D100BE7B685B6A002BEC
:102FB00030D07B685B6A7868984732E07B681B6A30
:102FC000002B00D100BE7B681B6A002B24D07B68DD
:102FD0001B6A7868984724E07B68DB69002B00D186
:102FE00000BE7B68DB69002B18D07B68DB697868E2
:102FF000984716E07B689B69002B00D100BE7B6878
:103000009B69002B0CD07B689B697868984708E027
:1030100000BE06E000BF04E000BF02E000BF00E029
:1030200000BF07F11007BD4680BD00BF80B487B068
:1030300000AF78607A684AF6B453C2F200039A424D
:1030400007D07A684AF68C53C2F200039A4200D045
:1030500000BE7B68DB68002B00D100BE7B681B696B
:10306000002B00D100BE7A684AF6B453C2F20003C6
:103070009A4206D07A684AF68C53C2F200039A420A
:1030800052D17B68DB68002B4ED07B681B69002B1C
:103090004AD07B681B681B7DFB727B689A7AFB7A3F
:1030A00042EA0303DAB27B689A72FB7A03F02003E8
:1030B000002B29D04FF010033B617B681A697B68B5
:1030C0005B69C3EB02037B617B690F2B01D87B69D2
:1030D0003B614FF00003FB6012E07B681B687A687D
:1030E000D1687A6852690A4412781A707B685B6901
:1030F00003F101027B685A61FB6803F10103FB6085
:10310000FA683B699A42E8D37B685A697B681B6915
:103110009A4209D17B684FF000021A617B685B68B4
:103120004FF00002C3F8842007F11C07BD4680BCA5
:10313000704700BF684620F007018D4689B500AF93
:103140004AF6B450C2F20000FFF7E2FE4FF00A0068
:10315000FFF74CFDBD46BDE889408546704700BF7E
:10316000684620F007018D4689B500AF4AF68C50BD
:10317000C2F20000FFF7CCFE4FF00B00FFF736FD68
:10318000BD46BDE889408546704700BF80B483B026
:1031900000AF0346FB804EF20013CEF20003B7F9F6
:1031A00006204FEA5212F98801F01F014FF001008A
:1031B00000FA01F143F8221007F10C07BD4680BC6C
:1031C000704700BF80B483B000AF0346FB804EF26F
:1031D0000013CEF20003B7F906204FEA5212F98825
:1031E00001F01F014FF0010000FA01F102F120028D
:1031F00043F8221007F10C07BD4680BC704700BFA2
:1032000080B483B000AF0346FB804EF20013CEF2D1
:103210000003B7F906204FEA5212F98801F01F01A6
:103220004FF0010000FA01F102F1600243F82210B0
:1032300007F10C07BD4680BC704700BF80B584B065
:1032400000AF78607A684AF66063C2F200039A427F
:1032500007D07A684AF6DC53C2F200039A4200D0E3
:1032600000BE7B689B881BB21846FFF7ABFF7868EF
:103270004FF000014FF0840201F0F8F97B684FF045
:1032800001025A624FF00003FB810DE0FB897A686E
:1032900003F106034FEAC30313444FF0FF325A60B1
:1032A000FB8903F10103FB81FB89072BEED97A68C7
:1032B0004AF66063C2F200039A4226D17A6841F26C
:1032C0000003C4F2000313607B684FF00C029A8085
:1032D00042F20003CEF2040342F20002CEF20402F4
:1032E000126B42F400721A634FF00C00FFF788FF74
:1032F00042F20003CEF2040342F20002CEF20402D4
:10330000126B22F400721A6325E07A6841F200031E
:10331000C4F2010313607B684FF00D029A8042F201
:103320000003CEF2040342F20002CEF20402126B5A
:1033300042F480621A634FF00D00FFF761FF42F222
:103340000003CEF2040342F20002CEF20402126B3A
:1033500022F480621A637B681B687A6812681268BC
:1033600022F000421A6007F11007BD4680BD00BF81
:1033700080B58AB000AF78607B681B681B68FB6013
:103380007B681B689B693B617B681B685B687B6132
:103390007B681B689B6ABB617B681B681B6BFB615E
:1033A0007B681B685B6B3B627B681B68DB697B62CD
:1033B0007A684AF66063C2F200039A422ED17A68B4
:1033C00041F20003C4F2000313607B684FF00C026B
:1033D0009A8042F20003CEF2040342F20002CEF2DF
:1033E0000402126B42F400721A634FF00C00FFF7F4
:1033F00007FF42F20003CEF2040342F20002CEF2D3
:103400000402126B22F400721A637B681B687A68EC
:103410001268126822F000421A602DE07A6841F2C8
:103420000003C4F2010313607B684FF00D029A8021
:1034300042F20003CEF2040342F20002CEF2040292
:10344000126B42F480621A634FF00D00FFF7D8FE52
:1034500042F20003CEF2040342F20002CEF2040272
:10346000126B22F480621A637B681B687A681268A8
:10347000126822F000421A60FB6823F00103FB602F
:103480007B681B68FA681A607B681B683A699A61F6
:103490007B681B687A695A607B681B687A68126867
:1034A000126842F001021A607B681B68BA699A626E
:1034B0007B681B68FA691A637B681B683A6A5A63FF
:1034C0007B681B687A6ADA6107F12807BD4680BD10
:1034D00080B584B000AFF860B960FA71BB71FA686A
:1034E0004AF66063C2F200039A4207D0FA684AF6CD
:1034F000DC53C2F200039A4200D000BEBB79202BFD
:1035000000D900BEBB68082B00D100BEFB689B88B9
:103510001BB21846FFF756FEFB684FF0000283F817
:103520008020FB681B68FA681268126822F00202A9
:103530001A60FB681B68FA681268126822F00102C0
:103540001A60FB681A68FB681B681B6823F04073ED
:1035500023F00C03B96843EA010343F000531360FE
:10356000FB681B68FA799A61FB681A68FB681B683C
:10357000196840F2FF03CFF6007301EA030343F436
:1035800080731360FB681B68BA795A60FB681B681C
:10359000FA681268126842F001021A60FB689B88A0
:1035A0001BB21846FFF7F2FD07F11007BD4680BDBC
:1035B00080B584B000AFF8607A600A46FA72FB709A
:1035C000FA684AF66063C2F200039A4207D0FA68CA
:1035D0004AF6DC53C2F200039A4200D000BEFB7AE6
:1035E000072B00D900BE3B7E202B00D900BEFB6814
:1035F0009B881BB21846FFF7E5FDFB684FF0000201
:1036000083F88020FB681B68FA681268126822F051
:1036100001021A60FB681B68FA681268126842F0BF
:1036200002021A60FB681B68FA681268126842F0AE
:1036300001021A60FB7A072B3FD87B68002B0BD066
:103640007B68B3F1007F07D07B68B3F1807F03D044
:103650007B68B3F1407F0FD1FA7A796840F20213A8
:10366000C2F2004341EA0303F96802F106024FEA9D
:10367000C2020A4453600EE0FA7A796840F20213FB
:10368000C2F2000341EA0303F96802F106024FEABD
:10369000C2020A445360FB7AFA6803F106034FEA58
:1036A000C30313443A7E1A72FB7AFA6803F10603E5
:1036B0004FEAC3031344FA785A72FB689B881BB223
:1036C0001846FFF763FD07F11007BD4680BD00BF38
:1036D00080B584B000AF78600B46FB707A684AF61C
:1036E0006063C2F200039A4207D07A684AF6DC535C
:1036F000C2F200039A4200D000BE7B681B681B68C0
:1037000003F00203002B00D100BEFB787A6803F1BE
:1037100006034FEAC30313445B68B3F1FF3F00D1D4
:1037200000BE7B689B881BB21846FFF74BFD7B6889
:103730001B689B6803F00403FB60FB68002B02D04E
:103740007868FFF715FE7B681B687A681268126854
:1037500022F001021A607B681A68FB78796803F12D
:1037600006034FEAC3030B445B6813607B681A6867
:10377000FB78796803F106034FEAC3030B445B7AD5
:1037800093617B681A68FB78796803F106034FEA56
:10379000C3030B441B7A53607B681B687A6812680A
:1037A000126842F001021A607B681B687A6812682E
:1037B000D169FA784FF0010000FA02F241EA020200
:1037C000DA617B689B881BB21846FFF7DFFC07F1C4
:1037D0001007BD4680BD00BF80B584B000AF7860E3
:1037E0000B46FB707A684AF66063C2F200039A42A5
:1037F00007D07A684AF6DC53C2F200039A4200D03E
:1038000000BE7B681B681B6803F00203002B00D11D
:1038100000BE7B689B881BB21846FFF7D3FC7B6811
:103820001B689B6803F00403FB60FB68002B02D05D
:103830007868FFF79DFD7B681B687A681268D1691C
:10384000FA784FF0010000FA02F26FEA020201EA90
:103850000202DA617B689B881BB21846FFF796FC70
:1038600007F11007BD4680BD80B487B000AF786017
:1038700039607A684AF66063C2F200039A4207D060
:103880007A684AF6DC53C2F200039A4200D000BEC6
:103890007B681B681B6803F00203002B00D100BE8D
:1038A0007B681A687B681B68196840F2FF03CFF6D3
:1038B000007301EA030343F4807313607B681B68A1
:1038C0007A681268D26A42F00C02DA627B681B687E
:1038D0009B6803F04003FB600BE07B681B681B697F
:1038E000BB60BB68BB607B681B689B6803F04003E0
:1038F000FB60FB68002BF0D07B681B683A685A615C
:103900007B681B689B6803F001037B6105E07B68B3
:103910001B689B6803F001037B617B69002BF6D079
:103920007B681B689B6803F002033B6105E07B68D2
:103930001B689B6803F002033B613B69002BF6D0D8
:103940007B681B681B69184607F11C07BD4680BCD5
:10395000704700BF80B485B000AF78604FF00003BF
:10396000FB600EE07B681B687A6891687A68126970
:103970000A4412785A617B681B6903F101027B6873
:103980001A617B681B689B6803F48073002B05D168
:103990007B681A697B68DB689A42E3D37B681A69A3
:1039A0007B68DB689A421CD30EE07B681B687A68F0
:1039B00051697A68D2690A4412785A617B68DB6976
:1039C00003F101027B68DA617B681B689B6803F482
:1039D0008073002B05D17B68DA697B689B699A420A
:1039E000E3D37B685B6A002B1FD07B681A697B6816
:1039F000DB689A4219D37B68DA697B689B699A42D3
:103A000013D308E07B681B684FF000025A61FB6823
:103A100003F10103FB607B681B689B6803F4807300
:103A2000002B02D1FB681F2BECD907F11407BD4610
:103A300080BC704780B584B000AF78607B6893F835
:103A40008030022B15D10CE07B681B681B69FB6082
:103A50007B685B6F002B04D07B685B6FFA68104655
:103A600098477B681B689B6803F04003002BEBD0F2
:103A700032E07B6893F88030012B25D117E07B681A
:103A80001B681B69FB607B681A6B7B68DB6A9A4268
:103A900007D27B689A6A7B681B6B1344FA68D2B2C0
:103AA0001A707B681B6B03F101027B681A637B68E9
:103AB0001B689B6803F04003002BE0D00CE07B68A0
:103AC0001B681B69FB6000E000BF7B681B689B688C
:103AD00003F04003002BF2D007F11007BD4680BD74
:103AE00080B586B000AF78607B681B6803F1200367
:103AF0003B617A684AF66063C2F200039A4207D0DB
:103B00007A684AF6DC53C2F200039A4200D000BE43
:103B10003B691B6803F00203002B52D07B6893F8CB
:103B20008030022B15D10CE07B681B681B69FB60A1
:103B30007B685B6F002B04D07B685B6FFA68104674
:103B400098477B681B689B6803F04003002BEBD011
:103B500032E07B6893F88030012B25D117E07B6839
:103B60001B681B69FB607B681A6B7B68DB6A9A4287
:103B700007D27B689A6A7B681B6B1344FA68D2B2DF
:103B80001A707B681B6B03F101027B681A637B6808
:103B90001B689B6803F04003002BE0D00CE07B68BF
:103BA0001B681B69FB6000E000BF7B681B689B68AB
:103BB00003F04003002BF2D07B681B684FF0020239
:103BC000DA603B691B6803F00103DBB2002B12D003
:103BD0007B6893F88030022B05D17B681B687A687C
:103BE000926F5A6102E07868FFF7B4FE7B681B6849
:103BF0004FF00102DA603B691B6803F01003002BF1
:103C000023D07868FFF716FF7B681B6A002B0BD068
:103C10007B681B6A7A68916A7A68126B084611465B
:103C200098477868FFF796FE7B684FF001025A626A
:103C30007B681B687A681268926A22F010029A62A6
:103C40007B681B684FF01002DA603B691B6803F069
:103C50000403002B0FD07B681B687A681268D26A55
:103C600042F00402DA627868FFF782FB7B681B6827
:103C70004FF00402DA603B691B6803F00803002B75
:103C800031D07B681B687A681268D26A42F00802F9
:103C9000DA627B6893F88030022B13D17B681A6854
:103CA0007B681B68196840F2FF03CFF6007301EAD6
:103CB000030343F4807313607B681B687A68926F18
:103CC0005A610BE07B6893F88030012B06D17B684A
:103CD0004FF000021A617868FFF73CFE7B681B68B2
:103CE0004FF00802DA603B691B6803F02003002BE9
:103CF00049D07868FFF79EFE7B681B6B7B617B6811
:103D00001B6A002B1CD07B684FF000025A627B6854
:103D10004FF000025A617B684FF000029A617B68A5
:103D20004FF00002DA617B681B684FF01002DA6026
:103D30007B681B687A681268926A42F010029A6285
:103D40007B684FF000021A617B681B687A68126812
:103D5000D26A42F00C02DA627868FFF7FBFD7B68FA
:103D60004FF000021A637B68DB6F002B06D07B6884
:103D7000DB6F7A68926A1046796998477B681B689E
:103D80004FF02002DA6007F11807BD4680BD00BF82
:103D9000684620F007018D4689B500AF4AF660609D
:103DA000C2F20000FFF79CFE4FF00C00FFF728FA6C
:103DB000BD46BDE889408546704700BF684620F093
:103DC00007018D4689B500AF4AF6DC50C2F200000B
:103DD000FFF786FE4FF00D00FFF712FABD46BDE873
:103DE00089408546704700BF80B400AFBD4680BCA7
:103DF000704700BF80B58AB000AF4AF2A853C2F244
:103E00000003BC460FCB8CE80F0042F20003CEF259
:103E100004039B6C4FEA930303F003034FEA83030D
:103E200007F12802134453F8283C3B6142F2000397
:103E3000CEF204039B6C4FEA131303F003034FEA23
:103E4000830307F12802134453F8283C7B6142F2B4
:103E50000003CEF204039B6C4FEA931303F00303B9
:103E60004FEA830307F12802134453F8283CBB614F
:103E700042F20003CEF20403DB6C4FEA132303F09B
:103E80001F033B6242F20003CEF20403DB6C4FEAF5
:103E9000533303F001037B623B6A03F10103FB61CF
:103EA0007B6A002B03D0FB694FEA4303FB6100F000
:103EB00049F802464AF63003C2F200031A604AF695
:103EC0003003C2F200031A683B69B2FBF3F24AF610
:103ED0003403C2F200031A604AF63003C2F2000350
:103EE0001A687B69B2FBF3F24AF63803C2F20003A8
:103EF0001A604AF63003C2F200031A68BB69B2FBCB
:103F0000F3F24AF63C03C2F200031A604AF63003A9
:103F1000C2F200031A68FB69B2FBF3F24AF64003EF
:103F2000C2F200031A604AF63003C2F200031A68B4
:103F30004AF62C03C2F200031A6007F12807BD46B7
:103F400080BD00BF80B48BB000AF4FF000037B603A
:103F500040F61C03C6F20803BB6040F23023C6F2F1
:103F60000803FB60FB681B6823F070433B613A6900
:103F700041F2CF13C0F2A1539A4208D14EF62C73EE
:103F8000C6F201037B617B691B687B603DE0BB6817
:103F90001A6844F24133C4F654439A4235D140F68C
:103FA0004003C6F20803BB61BB691B68FB61FB6988
:103FB00023F07F43FB61FA6940F20033C0F2010352
:103FC0009A4222D9FA694FF6FF73C0F201039A426E
:103FD00008D841F22C63C6F208033B623B6A1B68B7
:103FE0007B6012E0FA694FF6FF73C0F202039A4257
:103FF00008D841F6AC63C6F208037B627B6A1B6893
:104000007B6002E04FF000037B607B68002B05D1F2
:1040100000BE47F64003C0F27D137B607B68184604
:1040200007F12C07BD4680BC704700BF4AF6440329
:10403000C2F2000300B585B06946186800F0CAFBFB
:10404000B0F1FF3F06D0009B0198C018029BC0183A
:10405000039BC01805B000BD70B54AF618064AF6B5
:104060001805C2F20006C2F20005761BB61006D093
:10407000002455F8243001349847A642F9D84AF66E
:1040800018054AF61C06C2F20005C2F20006761BAD
:1040900006F0B6FBB61006D0002455F824300134E3
:1040A0009847A642F9D870BD4AF644030146C2F2C9
:1040B0000003186803F084BA4AF644030146C2F2CA
:1040C0000003186800F000B82DE9F04F01F10B046F
:1040D000162C83B006462FD8002310248C422CBF08
:1040E000194643F00101002930D1304600F028FB89
:1040F000B4F5FC7F2ED24FEAD40E4AF63815C2F240
:10410000000505EBCE02D368934200F006825A68A0
:1041100003F10805D968304622F0030C9A6863441D
:104120005C688A6044F00104D1605C6000F00AFBC6
:10413000284603B0BDE8F08F24F00704E30F8C425B
:104140002CBF194643F001010029CED00C230025D5
:104150003360EDE75FEA542E04BF4FEAD40E4FEA16
:10416000CE0040F090804AF63815C2F200052818BB
:10417000C368984206D10DE0002A80F26F81DB68A7
:10418000984207D0596821F003010A1B0F2AF3DD7A
:104190000EF1FF3E0EF1010E4AF63817C2F200078B
:1041A00007F108018B68994208BF7A6826D05A68DF
:1041B00022F0030CC4EB0C020F2A00F39481002AB6
:1041C000C960896080F29980BCF5007F80F06581CC
:1041D0004FEADC0C4FF0010A7A6807EBCC004FEA9B
:1041E000AC0C0AFA0CFCD860D0F808804CEA020249
:1041F0007A60C3F80880C8F80C3083604FF0010C77
:104200004FEAAE030CFA03FC944500F2828012EAF6
:104210000C0F08D12EF0030E4FEA4C0C0EF1040ED9
:1042200012EA0C0FF8D007EBCE09F246C846D8F8D0
:104230000C30984507D168E1002A80F27881DB686C
:10424000984500F06281586820F00300021B0F2A95
:10425000F2DD1D461F19D3F80CC044F0010E55F8CD
:10426000084F3046BA5042F00102C3F804E0CCF8DF
:104270000840C4F80CC08F60CF607A60B960F96004
:1042800000F060FA54E7BEF1040F9EBF4FEA941E9F
:104290000EF1380E4FEACE007FF665AFBEF1140F77
:1042A0009CBF0EF15B0E4FEACE007FF65CAFBEF115
:1042B000540F9EBF4FEA143E0EF16E0E4FEACE0031
:1042C0007FF651AFBEF5AA7F9EBF4FEAD43E0EF1F6
:1042D000770E4FEACE007FF646AF40F254539E452C
:1042E00095BF4FEA944E4FF47C700EF17C0E4FF068
:1042F0007E0E98BF4FEACE0035E703EB0C0203F1C8
:1043000008053046536843F00103536000F01AFA81
:104310000EE7D7F80880D8F8043023F00309C4EB7F
:1043200009024C4594BF002301230F2AD8BF43F054
:104330000103002B00F0A1804AF6545BD5F8082455
:10434000C2F2000BDBF8003010331B19B2F1FF3F53
:1043500006D003F57E631F3323F47E6323F01F032F
:1043600019463046019300F021FA019BB0F1FF3F5E
:10437000824600F0F48008EB0901814200F2EC80F3
:10438000DBF804209A185145CBF8042000F0458151
:10439000D5F808544AF63810C2F20000B5F1FF3FD4
:1043A00008BFC0F808A403D05244511ACBF8041037
:1043B0001AF00705304617BFC5F108054FF48055C0
:1043C000AA4405F5805553441B051B0DED1A2946DB
:1043D00000F0ECF9B0F1FF3F00F02C81CAEB0001D6
:1043E000491941F00101DBF804204AF65453C7F89B
:1043F00008A0C2F20003AA18B845CBF80420CAF8F6
:10440000041017D0B9F10F0F40F2DF80A9F10C01B1
:10441000052521F0070108EB01000F2985604560A3
:10442000D8F8040000F0010041EA0000C8F80400D8
:1044300000F2AC80D0464AF65453DBF82C10C2F29E
:1044400000038A42DBF8301088BFDA624AF6545320
:10445000C2F200038A4288BF1A6382E05C189A683D
:10446000D9683046666803F108058A6046F00103A2
:10447000D160636000F066F95AE608EB040342F08D
:10448000010244F001043046C8F8044008F1080570
:104490005A60BB6000F056F94AE64FEA5C22042AF3
:1044A00054D9142A00F289805B324FEAC208A8442A
:1044B0004AF63817C2F20007D8F80800404503D181
:1044C0006FE08068804504D0426822F00302944582
:1044D000F7D3D0F80CC0C3F80CC098607A68C360FA
:1044E000CCF808308AE61F19304644F00104CF604A
:1044F0005C6003F10805BA5042F001028F607A60F7
:10450000B960F96000F01EF912E60AF1010A1AF02A
:10451000030F5FD003F1080889E603F10802D368AE
:104520009A4208BF0EF1020E3FF436AEEFE51D468B
:104530001918DA68304655F8083F4C68936044F023
:104540000104DA604C6000F0FDF8F1E54FEA9C12DE
:1045500038324FEAC208AAE7B8453FF411AFD7F89E
:104560000880D8F8042022F00302944294BF00236C
:104570000123121B0F2AD8BF43F00103002B3FF485
:104580007CAF3046002500F0DDF8D1E508F10801E8
:104590003046019303F014F8019BD7F808805A685D
:1045A00049E74FF0010AD7F80480921084460AFACE
:1045B00002F248EA02027A608DE7542A24D84FEAD0
:1045C0001C326E324FEAC20871E70123D046CAF8A6
:1045D0000430C6E74A461EF0030F13460EF1FF3EB5
:1045E00033D053F808299A42F5D07B684FEA4C0C37
:1045F0009C453FF68EAEBCF1000F3FF48AAE1CEA3C
:10460000030F27D0D6460EE6B2F5AA7F15D84FEA9B
:10461000DC3277324FEAC20849E70805000D00286E
:104620007FF4B6AED7F808804B4443F00103C8F8D6
:10463000043000E701210025D5E640F254508242C3
:104640000DD94FF47C787E2231E77B6823EA0C0396
:104650007B60CBE74FEA4C0C0AF1040ACFE74FEA44
:104660009C427C324FEAC20821E700BF032AC9B24C
:1046700030B407D822B10023C15401339342FBD197
:1046800030BC704700EB020C034601E003F8011C4C
:1046900003F003041A460133002CF7D14FF0013325
:1046A000C2EB0C0403FB01F31FE042F8403C42F86C
:1046B0003C3C42F8383C42F8343C42F8303C42F84A
:1046C0002C3C42F8283C42F8243C42F8203C42F87A
:1046D0001C3C42F8183C42F8143C42F8103C42F8AA
:1046E0000C3C42F8083C42F8043C154640323F2C52
:1046F000A4F14004D9DC2A46C5EB0C0407E042F8DB
:10470000103C42F80C3C42F8083C42F8043C154688
:1047100010320F2CA4F11004F1DC2A46C5EB0C0575
:1047200001E042F8043C14460432032DA5F10405CF
:10473000F7DC01E004F8011B6445FBD3A0E700BFF0
:10474000704700BF704700BF0FB44AF64403C2F27F
:10475000000310B51C6882B024B1A36913B92046C8
:1047600002F0AAFE204605AC049A23468168019413
:1047700000F042F802B0BDE8104004B0704700BF3E
:104780000EB410B5044683B018B183690BB902F0BA
:1047900093FE204606AC059A23468168019400F0FA
:1047A0002BF803B0BDE8104003B0704738B54AF6A7
:1047B000E464C2F200040546084600232360FEF7C5
:1047C000BFF9B0F1FF3F00D038BD2368002BFBD00C
:1047D0002B6038BD0846FEF7FDB900BF936810B5E1
:1047E000144613B95360184610BD02F0C9FF0023E8
:1047F0006360A36010BD00BF2DE9F04FADF5AE6D55
:1048000083B00E4615469A46814603F0A9F9006822
:104810001D90B9F1000F04D0D9F81830002B00F02A
:104820005A814AF23463C2F200039E4208BFD9F8AB
:10483000046010D04AF25463C2F200039E4208BFE3
:10484000D9F8086007D04AF27463C2F200039E42AE
:1048500008BFD9F80C60B6F80CC01FFA8CF313F43B
:10486000005F09D14CF4005C726EA6F80CC01FFA10
:104870008CF322F40052726613F0080F01F00183EA
:104880003269002A01F0FD8203F01A030A2B00F0BE
:10489000E080002212921A9200231C920DF59C6473
:1048A0001192043419920DF5A4621B9304320DF594
:1048B000906328320333189207930023CDF84C45B8
:1048C000CDF85035CDF854352B781A1E18BF01227B
:1048D000252B0CBF002202F0010232B32F4617F83D
:1048E000013F1A1E18BF0122252B0CBF002202F027
:1048F0000102002AF3D1B7EB050808BF3D4614D0EA
:10490000C4F80480DDF85035DDF854250133256006
:10491000072B4244CDF85035CDF8542578DC0834C7
:1049200011983D46404411903B78002B7CD06B1C85
:104930004FF0FF372B204FF0200C00214FF00002EA
:104940000F918DF87725CDF82CA06A780A915D1C1F
:10495000A2F12003582B00F28682DFE813F09802C0
:1049600084028402A40284028402840284028402F7
:104970008402AD02BA028402C102CA028402E702C2
:10498000F002F002F002F002F002F002F002F00297
:10499000F00284028402840284028402840284027B
:1049A0008402840284020403260384022603840210
:1049B0008402840284026A038402840281048402E1
:1049C00084028402840284021404840284022F0478
:1049D00084028402840284028402840284028402A7
:1049E000840284024F04650426032603260373030E
:1049F0006504840284027903840285039603AD036F
:104A00000A048402CC038402F40384028402C000FA
:104A10000DF5A862484631460C32FFF7DFFE58B963
:104A20000DF59C6404347BE7DDF85435002B41F030
:104A300092810023CDF85035B38913F0400F02D096
:104A40004FF0FF30119011985FB00DF5806DBDE80B
:104A5000F08FB6F90E30002BFFF61BAF376A2CF043
:104A6000020CD6F828E00DF58E64ADF888C40C343D
:104A7000B6F80EC02A465346484621461FADCDF82B
:104A80009C740027CDF88C54CDF87C544FF480658D
:104A9000CDF8A4E4ADF88AC4CDF89054CDF8947460
:104AA000CDF88454FFF7A8FE0028119009DB2146B9
:104AB000484602F091FB1199B84218BF4FF0FF3100
:104AC0001191BDF8883413F0400FBCD0B38943F086
:104AD0004003B381B7E7484602F0EEFCA1E60A982E
:104AE0004AF2046CC2F2000C169210F0200FCDF8BE
:104AF00064C000F06E830B99CB1D23F0070303F114
:104B000008020B92D3E900AB5AEA0B020A9B0CBFD6
:104B100000220122134240F06B8602234FF0000175
:104B20008DF87715002FA2BFDDF828C02CF0800C7F
:104B3000CDF828C0002F18BF42F00102002A00F073
:104B40001E84012B00F0DE85022B00F0C185189930
:104B500013914FEADA084FEADB0C48EA4B780AF087
:104B60000700E346C24630305AEA0B0201F8010D55
:104B7000EFD1DDF828C013911CF0010F40F08C86B6
:104B80001898401A10909DF87735109A1797BA42E6
:104B9000B8BF3A460C9213B10C9A01320C920A9BA0
:104BA0000A9813F0020315931EBFDDF830C00CF114
:104BB000020CCDF830C010F0840014904DD10F9944
:104BC0000C9A8F1A002F48DD102F4AF2C058D8BF18
:104BD000C2F2000830DDC2F200080DF5A86B4346B2
:104BE0004FF0100AA8460BF10C0B1D4602E0103FD7
:104BF000102F1EDDC4F804A0DDF85035DDF8542573
:104C0000013325601032072BCDF8542504F1080438
:104C1000CDF85035EBDD0DF59C64484631465A46DB
:104C20000434FFF7DBFD00287FF406AF103F102FA0
:104C3000E0DC2B46454698466760DDF85035C4F801
:104C400000805A1CDDF85435CDF85025DB19072AB1
:104C5000CDF8543500F38A8508349DF877359BB13B
:104C600001236360DDF850350DF5AE620732226036
:104C7000DDF854250133CDF850350132072BCDF83E
:104C8000542500F3B6840834159B9BB1022363605E
:104C9000DDF850350DF5AE6204322260DDF85425A2
:104CA0000133CDF850350232072BCDF8542500F3EF
:104CB000AF840834DDF850C0BCF1800F00F076837B
:104CC000179B109A9F1A002F43DD102FDFF88C8B53
:104CD0002EDD43460DF5A86BA8464FF0100A0BF1E8
:104CE0000C0B1D4602E0103F102F1EDDC4F804A07F
:104CF000DDF85035DDF85425013325601032072BDF
:104D0000CDF8542504F10804CDF85035EBDD0DF550
:104D10009C64484631465A460434FFF75FFD00283C
:104D20007FF48AAE103F102FE0DC2B4645469846B4
:104D30006760DDF85035DDF854250133C4F8008094
:104D4000D219072BCDF85425CDF8503500F3428405
:104D50000834DDF828C01CF4807F40F09D82109854
:104D600013996060DDF85035DDF85425013321607A
:104D70001218072BCDF85035D8BF04F10803CDF831
:104D8000542500F39B830A9911F0040F55D00F9A14
:104D9000DDF830C0CCEB0207002F4EDD102F4AF2B9
:104DA000C058D8BFC2F200082EDDC2F200080DF5CF
:104DB000A86A42461024A8460AF10C0A154602E0E9
:104DC000103F102F1DDD5C60DDF85025DDF8541517
:104DD00001321D601031072ACDF8541503F1080384
:104DE000CDF85025ECDD484631465246FFF7F6FC3B
:104DF0000DF59C63043300287FF41EAE103F102F86
:104E0000E1DC2A46454690465F60DDF85025C3F850
:104E10000080DDF854350132CDF85025FB18072A03
:104E2000CDF854350BDD0DF5A862484631460C32FD
:104E3000FFF7D4FC00287FF4FFADDDF8543511985E
:104E40000C9A0F998A42ACBF801840181190002B21
:104E500040F042830DF59C640023DDF82CA004345F
:104E6000CDF8503530E51692002A3FF4DDAD0DF552
:104E7000A46001234FF0000C04300C938DF824251E
:104E80008DF877C5139010930021179187E69DF850
:104E90007735002B40F02B850B992B468DF877C585
:104EA0002A780B9153E50B990A9B43F001030A936F
:104EB0002B462A780B914AE50B990B9A09680F91BA
:104EC000111D0F9B002BC0F280872A782B460B9177
:104ED0003DE50B992B468DF877052A780B9136E541
:104EE0000B990A9B43F004030A932B462A780B91F3
:104EF0002DE52B4613F8012B2A2A01F0CD80A2F1D3
:104F00003001092901F237800235002715F8012CFC
:104F100007EB87072B46013501EB4707A2F130016C
:104F20000929F3D947EAE7771D4611E50B992B4686
:104F30000A9A42F080020A922A780B9107E5A2F1C0
:104F400030014FF000082B4608EB880813F8012BBE
:104F500001EB4808A2F130011D460929F3D9CDF82B
:104F60003C801D46F4E40A9B169243F010030A931A
:104F7000DDF828C01CF0200F00F05D810B98C31DE8
:104F800023F0070303F108010B91D3E900ABBAF159
:104F9000000F7BF10002C0F29B845AEA0B034FF032
:104FA00001030CBF00220122BCE50A98169210F002
:104FB000080F00F0ED840B99CB1D23F0070303F1DC
:104FC00008020B92D3F80480D3F800A0CDF86C80CF
:104FD000CDF848A05046414603F048FE83460028DD
:104FE00000F09985504600220023414604F02CFE33
:104FF000002840F00B859DF877354AF2F8514AF2C7
:10500000F4521698C2F20001C2F200024FF0030CF3
:105010004728D8BF114613910A99CDF830C021F026
:105020008001CDF840C00A914FF0000CCDF85CC073
:10503000B1E50B990A9B43F008030A932B462A78A3
:105040000B9184E40A9941F040010A910B993CE7E5
:105050002A786C2A00F055850B990A9B0B9143F036
:1050600010030A932B4672E40A9A12F0200F00F004
:1050700082840B98119A036810464FEAE0710B9AEC
:10508000C3E9000102F1040A1EE416920A9A12F022
:10509000200300F0EF800B9BDA1D002322F00702B3
:1050A00002F1080CCDF82CC0D2E900AB5AEA0B0093
:1050B0000CBF0022012231E50B987821DDF828C0D1
:1050C000169103684AF204608DF8751530218DF849
:1050D00074154CF0020C0B991A1E18BF0122C2F273
:1050E00000009A464FF0000B0431CDF828C019900B
:1050F00002230B9112E50B9B16924FF00002181D34
:105100008DF877251B680B901393002B00F0C68653
:10511000002F1398C0F28F8600213A4602F0C2FD9C
:105120000346002800F0F58613981B1A1093BB4223
:1051300040F3BE851097002127EAE7779DF8773581
:105140000C97179127E5DDF828C016921CF0200F68
:1051500023D00B980123C21D22F0070202F108019F
:105160000B91D2E900AB5AEA0B020CBF00220122DC
:10517000D4E40A992B4641F020010A910B992A7830
:105180000B91FFF7E4BB0A9B169243F010030A93BE
:10519000DDF828C01CF0200FDBD10A9B13F0100FA4
:1051A00000F0D5830B980123021D0B9201680A1EA3
:1051B00018BF01228A464FF0000BAFE40A981692FE
:1051C0004AF2E05210F0200FC2F2000219927FF46E
:1051D00092AC0A9B13F0100F40F01A830A9A12F057
:1051E000400F00F015830B9B03F1040CCDF82CC08D
:1051F000B3F800A0D2464FF0000B85E416920DF5EF
:10520000A4610B9A4FF0010C4FF000000431CDF86F
:1052100030C0136804328DF877050B921391CDF8E6
:1052200040C08DF824352FE6DDF828C016921CF01A
:10523000200F7FF4A3AE0A9A12F0100F40F0F18213
:105240000A9A12F0400F00F0EC820B9B03F1040C61
:10525000CDF82CC0B3F900A0D2464FEAEA7B96E61F
:105260000A99169241F010010A910A9A12F020034D
:105270007FF411AF0A9911F0100200F054830B9AD9
:1052800002F1040CCDF82CC011680A1E18BF0122CF
:105290008A464FF0000B41E4169A652A40F32881B4
:1052A0001298002200231B9904F0C4FC002800F08F
:1052B000BE8101236360DDF850254AF22063C2F20B
:1052C00000032360DDF854350132CDF85025013359
:1052D000072ACDF85435D8BF04F1080300F39B83A7
:1052E000DDF870251A98824204DB0A9911F0010F4B
:1052F0003FF449AD01225A60DDF85025DDF8541520
:1053000001321D980131072ACDF854151860CDF8E7
:10531000502500F35F8508331A994F1E002F7FF741
:1053200032AD102FDFF8348540F3EA8242460DF5A6
:10533000A86AA84610240AF10C0A154603E0103F9B
:10534000102F40F3DA825C60DDF85025DDF854154B
:1053500001321D601031072ACDF8541503F10803FE
:10536000CDF85025EBDD484631465246FFF736FA78
:105370000DF59C6304330028E1D0FFF75DBB7BB9DA
:105380000A9911F0010F0BD00DF5A46230230432FD
:105390008DF84B352732012313921093FFF7F3BB9F
:1053A0001898002110911390FFF7EDBB0F980C99FE
:1053B000471A002F7FF784AC102FDFF8A0842EDD72
:1053C00043460DF5A86BA8464FF0100A0BF10C0BE5
:1053D0001D4602E0103F102F1EDDC4F804A0DDF8CA
:1053E0005035DDF85425013325601032072BCDF8F8
:1053F000542504F10804CDF85035EBDD0DF59C641F
:10540000484631465A460434FFF7E8F900287FF44D
:1054100013AB103F102FE0DC2B46454698466760E3
:10542000DDF85035C4F800805A1CDDF85435CDF84D
:105430005025DB19072ACDF8543500F33A82083499
:105440003EE413996360DDF850252160DDF85415C2
:105450000132CDF85025CB18072ACDF8543500F38A
:10546000498508341D9A0123DDF870756360DDF805
:1054700050352260DDF854250133CDF85035013226
:10548000072BCDF85425D8BF04F1080300F323857A
:105490001398DDF87025C7191A981F60811A596092
:1054A000DDF854158A1ADDF850151218CDF8542578
:1054B0000131CDF85015072940F332820DF5A8626D
:1054C000484631460C32FFF789F900287FF4B4AA28
:1054D0000DF59C63043356E40DF5A8624846314649
:1054E0000C32FFF77BF900283FF4B4ACFFF7A4BA05
:1054F0001A9901294CDD01236360DDF85035DDF890
:105500005425013313980132072BCDF85425206020
:10551000CDF8503500F3B281083401236360DDF823
:105520005035DDF8542501331D990132072BCDF894
:1055300054252160CDF8503500F39281083412983B
:10554000002200231B9904F075FB002840F01D8108
:105550001A9B13985A1E6260DDF85035411C216079
:10556000DDF854150133CDF850358A18072BCDF8E6
:10557000542521DC08341C9B0DF5AC621C9822607C
:105580006360DDF85035DDF854250133FFF7F0BBDB
:105590000A9A12F0010FAED1139A01236360DDF86D
:1055A00050352260DDF854250133CDF850350132F5
:1055B000072BCDF85425DDDD0DF5A86248463146B0
:1055C0000C32FFF70BF900287FF436AA0DF59C6426
:1055D0000434D0E70DF5A862484631460C32FFF797
:1055E000FDF800287FF428AA0DF59C640434FFF729
:1055F000B0BB0DF5A862484631460C32FFF7EEF815
:1056000000287FF419AA0DF59C640434FFF73CBB15
:105610000DF5A862484631460C32FFF7DFF8002846
:105620007FF40AAA0DF59C640434FFF743BBDDF850
:105630007035002B40F3FD811A998B42FFF601AFC4
:10564000139A6160DDF850352260DDF8542501338E
:10565000CDF850355218072BCDF85425D8BF04F19A
:10566000080300F32984DDF870451A98241A002CE9
:1056700040F3B381102CDFF8E48140F39D81424672
:105680000DF5A86AA84610270AF10C0A154603E092
:10569000103C102C40F38D815F60DDF85025DDF863
:1056A000541501321D601031072ACDF8541503F14D
:1056B0000803CDF85025EBDD484631465246FFF74A
:1056C0008DF80DF59C6304330028E1D0FFF7B4B9E1
:1056D000189A1998134613920AF00F024FEA1A11FA
:1056E00041EA0B714FEA1B1C825C8A46E3465AEA88
:1056F0000B0C03F8012DEFD118981393C01A1090DA
:10570000FFF741BA09220023524573EB0B00DDF885
:1057100060801FD223464446B8461F46504659462D
:105720000A22002304F0E0FA00235046594602F111
:10573000300C0A2204F801CD04F0D6FA0922002325
:1057400082468B46524573EB0B03E7D33B464746F5
:10575000A0461C4608F1FF300AF1300A139008F801
:1057600001AC1899091A1091FFF70DBA0DF5A8624E
:10577000484631460C32FFF731F800287FF45CA927
:105780000DF59C640434FFF768BA1A994F1E002F78
:105790007FF7F1AE102FDFF8C4804EDD43460DF5E4
:1057A000A86BA8464FF0100A0BF10C0B1D4602E047
:1057B000103F102F3EDDC4F804A0DDF85035DDF8B1
:1057C0005425013325601032072BCDF8542504F100
:1057D0000804CDF85035EBDD0DF59C6448463146A4
:1057E0005A460434FEF7FAFF0028E1D0FFF724B947
:1057F00016983021DDF828C0012202238DF8741597
:105800004CF0020C8DF87505CDF828C0FFF786B96D
:105810000B98011D03680B919A464FF0000BFFF7A0
:1058200073B90B98011D03680B919A464FEAEA7B06
:10583000FFF7ADBB2B46454698466760DDF850350F
:10584000DDF854250133C4F80080D219072BCDF8B8
:105850005425CDF850357FF78DAEADE6D0A50020AC
:105860000DF5A862484631460C32FEF7B7FF002816
:105870007FF4E2A80DF59C64043460E60DF5A8629F
:10588000484631460C32FEF7A9FF00287FF4D4A821
:105890000DF59C64043440E6302800F0EC82139847
:1058A000302300F8013D18991390091A1091FFF761
:1058B0006AB90DF5A862484631460C32FEF78EFFF4
:1058C00000287FF4B9A80DF59C640434FFF7F8B9FB
:1058D000DAF1000A6BEB4B0B2D235AEA0B0C8DF817
:1058E00077350CBF002201220123FFF71BB90B996A
:1058F0002B462A780B91FFF72AB82A464546904650
:105900005F60DDF85025DDF854150132C3F80080E2
:10591000C919072ACDF85415CDF850253FF7CEAD5B
:105920000833FFF730BA0A9810F0400300F0ED8119
:105930000B9913460A1D0B92B1F800A0BAF10002B0
:1059400018BF0122D2464FF0000BFFF7E7B80A9BC1
:1059500013F0400F00F0CC810B980123011D0B9137
:10596000B0F800A0BAF1000218BF0122D2464FF0F1
:10597000000BFFF7D3B80A9B13F0100F00F0A481BF
:105980000B98119900F1040A03681960FEF79CBF97
:105990000B98C31D23F0070303F108010B91D3F803
:1059A0000480D3F800A0CDF86C80CDF848A0FFF7B4
:1059B00011BB2A46454690465C60DDF85025DDF86F
:1059C00054150132C3F800800919072ACDF854157F
:1059D000CDF8502500F3EA8208330A9911F0010F3F
:1059E0003FF4D1A901225A60DDF85025DDF85415A5
:1059F00001321D980131072ACDF854151860CDF8F1
:105A000050253FF75BAD0833FFF7BDB92D238DF867
:105A10007735FFF7F2BA0DF5A862484631460C32E9
:105A2000FEF7DCFE00287FF407A80DF59C63043325
:105A300056E401236360DDF850254AF22063C2F288
:105A400000032360DDF854350132CDF850250133D1
:105A5000072ACDF85435D8BF04F1080300F3878135
:105A6000DDF870253AB91A9A2AB9DDF828C01CF079
:105A7000010F3FF488A901225A60DDF85025DDF8B6
:105A8000541501321D980131072ACDF854151860BC
:105A9000CDF8502500F379810833DDF870757F4229
:105AA000002F40F3B381102FDFF8508640F3D281EE
:105AB00042460DF5A86AA84610240AF10C0A1546BC
:105AC00003E0103F102F40F3C2815C60DDF85025E9
:105AD000DDF8541501321D601031072ACDF8541538
