S02600006D6F746F72434F4E54524F4C5F4D53535F4D53535F434D335F305F6170702E73726563B7
S315200000000000012099020020090300200B03002094
S315200000100D0300200F030020110300200000000024
S315200000200000000000000000000000001303002074
S3152000003015030020000000001703002019030020EC
S315200000401B0300201D0300201F0300202103002086
S315200000502303002025030020270300202903002056
S315200000602B0300202D030020F10E0020210F00205D
S3152000007033030020350300203703002039030020F6
S315200000803B0300203D0300203F03002041030020C6
S315200000904303002045030020470300204903002096
S315200000A04B030020000000000000000000000000BC
S315200000B00000000000000000000000004D030020AA
S315200000C04F03002051030020530300205503002036
S315200000D057030020590300205B0300205D03002006
S315200000E05F030020610300206303002065030020D6
S315200000F067030020690300206B0300206D030020A6
S315200001006F03002071030020730300207503002075
S3152000011077030020790300207B0300207D03002045
S315200001207F03002081030020830300208503002015
S3152000013087030020890300208B0300208D030020E5
S315200001408F030020910300209303002095030020B5
S3152000015097030020990300209B0300209D03002085
S315200001609F030020A1030020A3030020A503002055
S31520000170A7030020A9030020AB030020AD03002025
S31520000180AF030020B1030020B3030020B5030020F5
S31520000190B7030020B9030020BB030020BD030020C5
S315200001A0BF030020C1030020C3030020C503002095
S315200001B0C7030020C9030020CB030020CD03002065
S315200001C0CF030020D1030020D3030020D503002035
S315200001D0D7030020D9030020DB030020DD03002005
S315200001E0DF030020E1030020E3030020E5030020D5
S315200001F0E7030020E9030020EB030020ED030020A5
S31520000200EF030020F1030020F3030020F503002074
S31520000210F7030020F9030020FB030020FD03002044
S31520000220FF03002001040020030400200504002011
S3152000023007040020090400200B0400200D040020E0
S315200002400F040020110400201304002015040020B0
S3152000025017040020190400201B0400201D04002080
S315200002601F04002021040020230400202504002050
S3152000027027040020290400202B0400202D04002020
S315200002802F040020310400203304002035040020F0
S315200002903704002039040020684880476848002831
S315200002A00BD168486849694A884206D091421CBFEA
S315200002B050F8043B41F8043BF8D165486549664A45
S315200002C0884206D091421CBF50F8043B41F8043BBB
S315200002D0F8D162486249634A914218BF41F8040B3B
S315200002E0FAD100000000000000000000000000001D
S315200002F0DFF874010FF2030E00474FF000004FF0B5
S315200003000001DFF868F1FEE7FEE7FEE7FEE7FEE71D
S31520000310FEE7FEE7FEE7FEE7FEE7FEE7FEE7FEE78F
S31520000320FEE7FEE7FEE7FEE7FEE7FEE7FEE7FEE77F
S31520000330FEE7FEE7FEE7FEE7FEE7FEE7FEE7FEE76F
S31520000340FEE7FEE7FEE7FEE7FEE7FEE7FEE7FEE75F
S31520000350FEE7FEE7FEE7FEE7FEE7FEE7FEE7FEE74F
S31520000360FEE7FEE7FEE7FEE7FEE7FEE7FEE7FEE73F
S31520000370FEE7FEE7FEE7FEE7FEE7FEE7FEE7FEE72F
S31520000380FEE7FEE7FEE7FEE7FEE7FEE7FEE7FEE71F
S31520000390FEE7FEE7FEE7FEE7FEE7FEE7FEE7FEE70F
S315200003A0FEE7FEE7FEE7FEE7FEE7FEE7FEE7FEE7FF
S315200003B0FEE7FEE7FEE7FEE7FEE7FEE7FEE7FEE7EF
S315200003C0FEE7FEE7FEE7FEE7FEE7FEE7FEE7FEE7DF
S315200003D0FEE7FEE7FEE7FEE7FEE7FEE7FEE7FEE7CF
S315200003E0FEE7FEE7FEE7FEE7FEE7FEE7FEE7FEE7BF
S315200003F0FEE7FEE7FEE7FEE7FEE7FEE7FEE7FEE7AF
S31520000400FEE7FEE7FEE7FEE7FEE7FEE7FEE7FEE79E
S31520000410FEE7FEE7FEE7FEE7FEE7FEE7FEE7FEE78E
S31520000420FEE7FEE7FEE7FEE7FEE7FEE7FEE7FEE77E
S31520000430FEE7FEE7FEE7FEE7FEE700002D150020BB
S315200004400000000000000020000000208C1C00207E
S315200004508C1C00208C1C0020B81C002000000000F2
S31520000460B81C0020481D0020411B0020C10600208A
S3152000047041F6B843C2F200031A780AB9012018706F
S31520000480704700BF41F68C40C2F2000008B50368F1
S315200004902BB140F20003C0F2000303B1984708BD18
S315200004A080B400AF41F6E443C2F200031A6841F675
S315200004B0D443C2F200031A6041F6E843C2F20003B5
S315200004C01A6841F6D843C2F200031A6041F69843EF
S315200004D0C2F200031B681B68012B07D041F6984324
S315200004E0C2F200031B681B68032B07D141F6E443C5
S315200004F0C2F200034FF001021A6006E041F6E4431F
S31520000500C2F200034FF000021A6041F69843C2F28D
S3152000051000031B681B68022B07D041F69843C2F2E2
S3152000052000031B681B68032B07D141F6E843C2F280
S3152000053000034FF001021A6006E041F6E843C2F2DA
S3152000054000034FF000021A6041F6D443C2F20003C2
S315200005501B68002B06D141F6E443C2F200031B6858
S31520000560012B0DD041F6D443C2F200031B68012BA8
S3152000057019D141F6E443C2F200031B68002B12D1C5
S3152000058041F6DC43C2F200031B6803F1010241F687
S31520000590DC43C2F200031A6041F6EC43C2F20003C8
S315200005A04FF001021A6041F6D843C2F200031B68DD
S315200005B0002B06D141F6E843C2F200031B68012B4B
S315200005C00DD041F6D843C2F200031B68012B19D186
S315200005D041F6E843C2F200031B68002B12D141F614
S315200005E0E043C2F200031B6803F1010241F6E04337
S315200005F0C2F200031A6041F6F043C2F200034FF044
S3152000060001021A60BD4680BC704700BF80B586B027
S3152000061000AF786041F69433C2F2000307F10C0272
S3152000062093E8030082E8030007F10C037868194673
S315200006304FF0080200F0B0FA0346FB7541F6C843B6
S31520000640C2F200031A6841F6CC43C2F200031A60D4
S3152000065041F6C443C2F200031A6841F6D043C2F2FF
S3152000066000031A607B7B184601F09CF8024641F68F
S31520000670C843C2F200031A60BB7B1A4641F6BC434C
S31520000680C2F200031A60FB7B184601F08BF8024683
S3152000069041F6C443C2F200031A603B7C1A4641F677
S315200006A0C043C2F200031A607B7C1A4641F69C4383
S315200006B0C2F200031A6007F11807BD4680BD00BFCD
S315200006C090B599B000AFAD4B7B62AC4BBB62AB4BE8
S315200006D0FB62AA4B3B63A94B7B634FF47A73BB63E4
S315200006E04FF00003FB634FF000033B644FF0000321
S315200006F07B644FF00003BB644FF00103FB644FF0B3
S3152000070000033B654FF000037B6507F104034FF0C0
S3152000071000021A6003F104034FF000021A6003F18D
S3152000072004034FF000021A6003F104034FF00002A5
S315200007301A6003F104034FF000021A6003F1040368
S315200007404FF000021A6003F104034FF000021A6012
S3152000075003F104034FF000021A6003F104034FF083
S315200007600003BB654FF00003FB6500F0F1FD4FF081
S3152000077000004FF0030100F01BFE4FF001004FF088
S31520000780030100F015FE4FF002004FF0030100F0C8
S315200007900FFE4FF003004FF0030100F009FE4FF06B
S315200007A004004FF0030100F003FE4FF005004FF068
S315200007B0030100F0FDFD4FF006004FF0030100F0AD
S315200007C0F7FD4FF007004FF0030100F0F1FD41F671
S315200007D0F440C2F200004FF416514FF0030200F02D
S315200007E00FFD41F6F440C2F2000040F20D61C2F264
S315200007F000014FF0800200F00DFB00E000BF41F643
S315200008009C43C2F200031B68012BF7D141F6C84373
S31520000810C2F200035A4A1A6041F6C443C2F20003E8
S31520000820574A1A60FFF73CFEBB6A7B6241F6E043FB
S31520000830C2F200031B68184600F0B8FF024641F6D4
S31520000840C443C2F200031B681046194601F002F8A1
S3152000085003461C4641F6DC43C2F200031B681846D9
S3152000086000F0A4FF024641F6C843C2F200031B680B
S315200008701046194600F0EEFF03462046194600F0C2
S31520000880DFFE0346BB6241F6EC43C2F200031B685F
S31520000890012B06D041F6F043C2F200031B68012B60
S315200008A005D1F86AB96A00F0CDFE0346FB6241F62F
S315200008B09033C2F200031B68184600F077FF044607
S315200008C041F6C443C2F200031B6818462D4901F0C5
S315200008D075F803462046194600F0BCFF0346184625
S315200008E001F008F903467B6441F69033C2F2000317
S315200008F01B68184600F05AFF044641F6C843C2F268
S3152000090000031B6818461F4901F058F80346204685
S31520000910194600F09FFF0346184601F0EBF8034600
S31520000920BB64786C00F042FF03461846B96A00F0B3
S3152000093087FE0346184601F0DDF803467B64B86C53
S3152000094000F034FF03461846B96A00F07BFE0346E2
S31520000950184601F0CFF80346BB6441F69443C2F231
S3152000096000031B68BA6C1A6041F69043C2F200037A
S315200009701B687A6C1A6000BF41E700BF00000000C8
S31520000980000048420000C8422DE9F00541F61C53FC
S31520000990C2F20003984206D041F6F443C2F20003A5
S315200009A0984200D000BE01B900BE02B900BE41F691
S315200009B01C53C2F20003984205D041F6F443C2F21A
S315200009C00003984233D1131E18BF012300290CBF00
S315200009D0002303F00103002B29D04FF00007B8466F
S315200009E04FF0100A03681B7D90F80AC043EA0C0CEE
S315200009F080F80AC013F0200F17D00F2A04D95646C4
S31520000A00BC4643460F4404E00AB943460BE016466B
S31520000A10F6E70468FD5C25700CF1010C03F1010377
S31520000A209E42F6D86746C3EB0202002ADAD1BDE819
S31520000A30F0057047F0B441F61C53C2F20003984209
S31520000A4006D041F6F443C2F20003984200D000BE1D
S31520000A5001B900BE41F61C53C2F20003984205D0EC
S31520000A6041F6F443C2F20003984228D139B30D78F7
S31520000A702DB34FF0000C66460468237D827A43EA44
S31520000A800202827213F0200FF7D0C5B1334601EB74
S31520000A900C070268EDB2157003F1010303EB0C0499
S31520000AA0FD5C0F2B8CBF00220122002D0CBF0022E3
S31520000AB002F00102002AECD10DB1A446DCE7F0BC1D
S31520000AC0704700BF10B441F61C53C2F2000398428F
S31520000AD006D041F6F443C2F20003984200D000BE8D
S31520000AE001B900BE0AB900BE36E0002934D041F66D
S31520000AF01C53C2F20003984205D041F6F443C2F2D9
S31520000B000003984228D1C16002614FF0000343617F
S31520000B10038919B24FEA511103F01F034FF0010266
S31520000B2002FA03F44EF20013CEF2000301F1600143
S31520000B3043F8214040F66D51C2F20001016241683E
S31520000B40C1F88420018908B24FEA501001F01F0134
S31520000B5002FA01F243F8202010BC704741F61C53DC
S31520000B60C2F20003984209D041F6F443C2F20003D0
S31520000B70984203D000BE4FF00000704703681B7DEB
S31520000B80827A43EA02028272026912B14FF00000B1
S31520000B907047C3F38010704710B4034641F61C50CB
S31520000BA0C2F20000834206D041F6F440C2F20000B1
S31520000BB0834200D000BE01B900BE02B900BE41F694
S31520000BC01C50C2F20000834205D041F6F440C2F226
S31520000BD0000083422AD1101E18BF012000290CBF15
S31520000BE0002400F001040CB31C6894F814C09C7A0D
S31520000BF04CEA04049C721CEA000F17D04FF0000048
S31520000C001C6894F800C001F800C000F101001C68BF
S31520000C1094F814C09C7A4CEA04049C72824294BFD5
S31520000C2000240CF00104002CEAD101E04FF0000072
S31520000C3010BC704710B441F61C53C2F20003984210
S31520000C4007D041F6F443C2F20003984201D000BE19
S31520000C5022E003890FFA83FC4FEA5C1C03F01F0392
S31520000C604FF0010202FA03F44EF20013CEF2000313
S31520000C700CF1600C43F82C40046894F804C041EA57
S31520000C800C012171018908B24FEA501001F01F01B1
S31520000C9002FA01F243F8202010BC704741F61C539B
S31520000CA0C2F20003984207D041F6F443C2F2000391
S31520000CB0984201D000BE704703681A7922EA0102E1
S31520000CC01A71038918B24FEA501003F01F034FF030
S31520000CD0010202FA03F24EF20013CEF2000300F1F3
S31520000CE0600C43F82C200F2901BF4EF20013CEF2E0
S31520000CF00003203043F82020704700BF08B541F696
S31520000D001C53C2F20003984207D041F6F443C2F2C4
S31520000D100003984201D000BE08BD03681B7A03F089
S31520000D200F030C2B20D8DFE803F0071F0D1F131F1E
S31520000D30191F1F1F1F1F1300436A0BB900BE08BDD2
S31520000D40984708BD036A0BB900BE08BD984708BD81
S31520000D50C3690BB900BE08BD984708BD83690BB9A6
S31520000D6000BE08BD984708BD00BE08BD10B441F6B8
S31520000D701C53C2F20003984206D041F6F443C2F255
S31520000D800003984200D000BEC26802B900BE0169C5
S31520000D9001B900BE41F61C53C2F20003984205D0A9
S31520000DA041F6F443C2F20003984230D1002A2ED0F5
S31520000DB000292CD003681B7D827A43EA02028272C4
S31520000DC013F0200F1AD002694369C3EB02030F2BDD
S31520000DD004D94FF0100C4FF0000302E073B19C468B
S31520000DE0F9E70268C4684169615C1170426902F1E1
S31520000DF00102426103F101036345F2D342690369AB
S31520000E009A4201BF002303614268C2F8843010BCB5
S31520000E10704700BF10B441F61C53C2F2000398423B
S31520000E2006D041F6F443C2F20003984200D000BE39
S31520000E3001B900BEC02A00D900BE41F61C53C2F239
S31520000E400003984205D041F6F443C2F200039842CB
S31520000E502FD1C02A8CBF0023012300290CBF0023D9
S31520000E6003F001032BB3C161036802F0C00242F014
S31520000E700A021A72038919B24FEA511103F01F03AD
S31520000E804FF0010202FA03F44EF20013CEF20003F1
S31520000E9001F1600143F821404168C1F880200189B1
S31520000EA008B24FEA501001F01F0102FA01F243F88E
S31520000EB0202010BC704700BF41F61C53C2F200032D
S31520000EC0984207D041F6F443C2F20003984201D07B
S31520000ED000BE704729B943684FF00002C3F81022BC
S31520000EE0704743684FF00102C3F81022704700BFD5
S31520000EF0684620F007018D4601B541F61C50C2F226
S31520000F000000FFF7FBFE4EF20013CEF200034FF473
S31520000F108062C3F88021BDE801408546704700BF46
S31520000F20684620F007018D4601B541F6F440C2F22D
S31520000F300000FFF7E3FE4EF20013CEF200034FF45B
S31520000F400062C3F88021BDE801408546704700BF96
S31520000F5010B441F61C53C2F20003984206D041F663
S31520000F60F443C2F20003984200D000BE01B900BE8D
S31520000F7041F61C53C2F20003984205D041F6F443D1
S31520000F80C2F20003984220D1F9B18161038919B2D6
S31520000F904FEA511103F01F034FF0010202FA03F446
S31520000FA04EF20013CEF2000301F1600143F8214016
S31520000FB04168C1F88820018908B24FEA501001F033
S31520000FC01F0102FA01F243F8202010BC704700BF2F
S31520000FD010B441F61C53C2F20003984206D041F6E3
S31520000FE0F443C2F20003984200D000BE01B900BE0D
S31520000FF041F61C53C2F20003984205D041F6F44351
S31520001000C2F20003984224D119B301624FF00003C3
S31520001010C3600361038919B24FEA511103F01F031C
S315200010204FF0010202FA03F44EF20013CEF200034F
S3152000103001F1600143F821404168C1F8842001890B
S3152000104008B24FEA501001F01F0102FA01F243F8EC
S31520001050202010BC704700BF10B441F61C53C2F2CA
S315200010600003984206D041F6F443C2F200039842A8
S3152000107000D000BE01B900BE41F61C53C2F20003E7
S31520001080984205D041F6F443C2F20003984220D19B
S31520001090F9B14162038919B24FEA511103F01F03D6
S315200010A04FF0010202FA03F44EF20013CEF20003CF
S315200010B001F1600143F821404168C1F88C20018983
S315200010C008B24FEA501001F01F0102FA01F243F86C
S315200010D0202010BC704700BF10B4034641F61C50B8
S315200010E0C2F20000834206D041F6F440C2F200006C
S315200010F0834200D000BE01B900BE02B900BE41F64F
S315200011001C50C2F20000834205D041F6F440C2F2E0
S315200011100000834226D1101E18BF012000290CBFD3
S31520001120002400F00104ECB11C6894F814C09C7AE9
S315200011304CEA04049C721CF0200F13D00F2A04D909
S315200011404FF010044FF0000002E058B11446F9E7C2
S315200011501A6811F800C082F800C000F10100A04210
S31520001160F6D301E04FF0000010BC7047024641F66E
S315200011701C53C2F20003984209D041F6F443C2F24E
S315200011800003984203D000BE4FF0FF00704713685B
S31520001190187D937A40EA030000F09E004FF000038A
S315200011A09372704741F61C53C2F20003984209D04D
S315200011B041F6F443C2F20003984203D000BE4FF03A
S315200011C0FF0070470368187E704700BF41F61C5326
S315200011D0C2F20003984209D041F6F443C2F200035A
S315200011E0984203D000BE4FF00000704703681B7D75
S315200011F0827A43EA0202827203F06000704700BFDF
S3152000120070B504460D46164641F61C53C2F200033D
S31520001210984206D041F6F443C2F20003984200D029
S3152000122000BE05B900BE00F083F941F61C53C2F298
S3152000123000039C4226D141F61C53C2F200034FF014
S3152000124080421A604FF084425A604FF00A021A8197
S3152000125041F6A443C2F20003186842F20003CEF21C
S3152000126004031A6B42F080021A634EF20012CEF289
S3152000127000024FF48061C2F880111A6B22F08002BE
S315200012801A6325E040F20003C4F20103236040F212
S315200012900003C4F2202363604FF00B03238141F641
S315200012A0A843C2F20003186842F20003CEF20403F8
S315200012B01A6B42F480721A634EF20012CEF20002CA
S315200012C04FF40061C2F880111A6B22F480721A63FF
S315200012D023684FF000021A7115B94FF001050FE08F
S315200012E0B0FBF5F515F0080F4FEA151518BF0135B7
S315200012F0B5F5803F38BFADB202D300BE4FF0010531
S3152000130063684FF00102C3F89C2123684FEA152237
S315200013101A712368EDB21D7062684FF00003C2F89F
S315200013209C312268167322684FF00E011172626892
S31520001330C2F810322361E3606361E36140F66D52C7
S31520001340C2F200022262A3616362A37270BD00BF73
S3152000135010B442F20003CEF204031A6B42F4804228
S315200013601A634FF0000341F69C30C2F200004FF0A2
S31520001370010C4EF20014CEF20004C25A11B24FEA0A
S31520001380511102F01F020CFA02F201F1600144F839
S31520001390212003F10203402BEFD142F20003CEF2CB
S315200013A004031A6B22F480421A6310BC704700BFF4
S315200013B01F2801D900BE704741F69C33C2F20003B4
S315200013C003EB8000036C1960704700BF1F2801D90A
S315200013D000BE704740F20003C4F2262300F5886061
S315200013E043F82010704700BF1F2801D900BE704760
S315200013F0012903D0E1B1022940D133E043F20003B1
S31520001400C4F20103D3F888104FF0010202FA00F269
S3152000141042EA0102C3F8882041F69C33C2F2000357
S3152000142003EB8000036C1A6842F004021A607047CE
S3152000143043F20003C4F20103D3F888104FF00102EF
S3152000144002FA00F221EA0202C3F8882041F69C3310
S31520001450C2F2000303EB8000036C1A6842F0040218
S315200014601A60704741F69C33C2F2000303EB8000FA
S31520001470036C1A6822F004021A60704700BE704797
S315200014801F2801D900BE704741F69C33C2F20003E3
S3152000149003EB8002126C116841F00801116033F8E9
S315200014A010301AB24FEA521203F01F034FF0010117
S315200014B001FA03F14EF20013CEF2000343F8221094
S315200014C0704700BF1F2801D900BE704741F69C33E4
S315200014D0C2F2000303EB8000036C1A6822F00802B4
S315200014E01A6070471F2801D900BE70474FF00102CD
S315200014F002FA00F143F20003C4F20103C3F880109C
S3152000150041F69C33C2F2000333F8103019B24FEA89
S31520001510511103F01F0302FA03F24EF20013CEF22A
S31520001520000301F1600143F821207047704700BF96
S3152000153030B484B041F65C43C2F20003EC460FCBD4
S315200015408CE80F0042F20003CEF204039A6C02F0FC
S315200015500C0204A90A4452F8105C9A6CC2F30112D8
S3152000156001EB820252F8104C9A6CC2F3811201EB05
S31520001570820252F8100CD96CDB6CC1F3042101F104
S31520001580010113F4005F18BF490040F23023C6F270
S3152000159008031A6822F0704241F2CF13C0F2A15319
S315200015A09A4205D14EF62C73C6F201031A6828E03A
S315200015B040F61C03C6F208031A6844F24133C4F607
S315200015C054439A421ED140F64003C6F208031A68D5
S315200015D022F07F4240F20033C0F201039A4211D931
S315200015E0B2F5003F05D241F22C63C6F208031A6811
S315200015F007E0B2F5403F05D241F6AC63C6F20803D8
S315200016001A6822B900BE47F64002C0F27D1241F6A2
S31520001610A043C2F200031A60B2FBF5F55D60B2FB8F
S31520001620F4F49C60B2FBF0F0D860B2FBF1F11961E2
S315200016305A6104B030BC704780F0004002E000BF21
S3152000164081F0004142001FBF5FEA410392EA030F87
S315200016507FEA226C7FEA236C6AD04FEA1262D2EBD1
S315200016601363C1BFD218414048404140B8BF5B42D6
S31520001670192B88BF704710F0004F40F4000020F06F
S315200016807F4018BF404211F0004F41F4000121F085
S315200016907F4118BF494292EA030F3FD0A2F10102CF
S315200016A041FA03FC10EB0C00C3F1200301FA03F10D
S315200016B000F0004302D5494260EB4000B0F5000F30
S315200016C013D3B0F1807F06D340084FEA310102F1EF
S315200016D00102FE2A51D2B1F1004F40EBC25008BFA1
S315200016E020F0010040EA03007047490040EB00006B
S315200016F010F4000FA2F10102EDD1B0FA80FCACF19A
S31520001700080CB2EB0C0200FA0CF0AABF00EBC25098
S3152000171052421843BCBFD0401843704792F0000F86
S3152000172081F4000106BF80F400000132013BB5E7D9
S315200017304FEA41037FEA226C18BF7FEA236C21D04F
S3152000174092EA030F04D092F0000F08BF08467047B4
S3152000175090EA010F1CBF0020704712F07F4F04D182
S31520001760400028BF40F00040704712F100723CBF95
S3152000177000F50000704700F0004343F0FE4040F4BF
S31520001780000070477FEA226216BF08467FEA23637D
S315200017900146420206BF5FEA412390EA010F40F468
S315200017A0800070474FF0000304E000BF10F00043B4
S315200017B048BF40425FEA000C08BF704743F096439B
S315200017C001464FF000001CE050EA010208BF7047B6
S315200017D04FF000030AE000BF50EA010208BF70473D
S315200017E011F0004302D5404261EB41015FEA010C52
S315200017F002BF84460146002043F0B64308BFA3F14A
S315200018008053A3F50003BCFA8CF2083AA3EBC2532B
S3152000181010DB01FA02FC634400FA02FCC2F120024A
S31520001820BCF1004F20FA02F243EB020008BF20F081
S315200018300100704702F1200201FA02FCC2F12002E7
S3152000184050EA4C0021FA02F243EB020008BF20EADC
S31520001850DC7070474FF0FF0C1CEAD0521EBF1CEA0A
S31520001860D15392EA0C0F93EA0C0F6FD01A4480EAF8
S31520001870010C400218BF5FEA41211ED04FF00063E1
S3152000188043EA501043EA5111A0FB01310CF000400D
S31520001890B1F5000F3EBF490041EAD3715B0040EA33
S315200018A0010062F17F02FD2A1DD8B3F1004F40EB03
S315200018B0C25008BF20F00100704790F0000F0CF0D6
S315200018C0004C08BF49024CEA502040EA51207F3A9A
S315200018D0C2BFD2F1FF0340EAC250704740F4000075
S315200018E04FF00003013A5DDC12F1190FDCBF00F066
S315200018F000407047C2F10002410021FA02F1C2F114
S31520001900200200FA02FC5FEA310040F1000053EAAF
S315200019104C0308BF20EADC70704792F0000F00F0FD
S31520001920004C02BF400010F4000F013AF9D040EA03
S315200019300C0093F0000F01F0004C02BF490011F497
S31520001940000F013BF9D041EA0C018FE70CEAD15395
S3152000195092EA0C0F18BF93EA0C0F0AD030F0004C15
S3152000196018BF31F0004CD8D180EA010000F00040C9
S31520001970704790F0000F17BF90F0004F084691F087
S31520001980000F91F0004F14D092EA0C0F01D14202C1
S315200019900FD193EA0C0F03D14B0218BF084608D18A
S315200019A080EA010000F0004040F0FE4040F40000D4
S315200019B0704740F0FE4040F4400070474FF0FF0C67
S315200019C01CEAD0521EBF1CEAD15392EA0C0F93EAAE
S315200019D00C0F69D0A2EB030280EA010C49024FEA00
S315200019E0402037D04FF0805343EA111143EA1013B9
S315200019F00CF000408B4238BF5B0042F17D024FF471
S31520001A00000C8B4224BF5B1A40EA0C00B3EB510F4B
S31520001A1024BFA3EB510340EA5C00B3EB910F24BF34
S31520001A20A3EB910340EA9C00B3EBD10F24BFA3EBB9
S31520001A30D10340EADC001B0118BF5FEA1C1CE0D181
S31520001A40FD2A3FF650AF8B4240EBC25008BF20F034
S31520001A50010070470CF0004C4CEA50207F32C2BF88
S31520001A60D2F1FF0340EAC250704740F400004FF025
S31520001A700003013A37E792F0000F00F0004C02BF56
S31520001A80400010F4000F013AF9D040EA0C0093F020
S31520001A90000F01F0004C02BF490011F4000F013B7A
S31520001AA0F9D041EA0C0195E70CEAD15392EA0C0FE2
S31520001AB008D142027FF47DAF93EA0C0F7FF470AF1A
S31520001AC0084676E793EA0C0F04D14B023FF44CAF5D
S31520001AD008466EE730F0004C18BF31F0004CCAD1F2
S31520001AE030F000427FF45CAF31F000437FF43CAF2E
S31520001AF05FE700BF4FEA4002B2F1FE4F0FD34FF02F
S31520001B009E03B3EB12620DD94FEA002343F0004344
S31520001B1010F0004F23FA02F018BF404270474FF0F2
S31520001B200000704712F1610F01D1420205D110F079
S31520001B30004008BF6FF0004070474FF0000070472C
S31520001B4070B541F6844641F68445C2F20006C2F2DB
S31520001B500005761BB61006D0002455F82430013433
S31520001B609847A642F9D841F6844541F68846C2F2FE
S31520001B700005C2F20006761B00F078F8B61006D0F3
S31520001B80002455F8243001349847A642F9D870BD70
S31520001B90801A0600FFFFFFFFFFFFFFFF2000210046
S31520001BA022002300240025002600270028002900E3
S31520001BB02A002B002C002D002E002F003000310093
S31520001BC03200330034003500360037003800390043
S31520001BD03A003B003C003D003E003F000030014003
S31520001BE004300140083001400C30014010300140E3
S31520001BF014300140183001401C3001402030014093
S31520001C0024300140283001402C3001403030014042
S31520001C1034300140383001403C30014040300140F2
S31520001C2044300140483001404C30014050300140A2
S31520001C3054300140583001405C3001406030014052
S31520001C4064300140683001406C3001407030014002
S31520001C5074300140783001407C30014001000000A2
S31520001C60020000000400000001000000F8B500BFDB
S31520001C70F8BC08BC9E467047F8B500BFF8BC08BC47
S31120001C809E467047850400207104002059
S31520001C8C00000000080005400C000540100005402F
S31520001C9C0100000040787D01105E5F00105E5F0041
S31120001CAC105E5F00105E5F0040787D0136
S705200002993F
